:020000040800F2
:1000000000000220353B0008B5340008B934000870
:10001000BD340008C1340008C534000800000000E9
:10002000000000000000000000000000C9340008CB
:10003000CD34000800000000D1340008D534000899
:10004000853B0008853B0008853B0008853B000890
:10005000853B0008853B0008853B0008853B000880
:10006000853B0008853B0008853B0008D934000823
:10007000E5340008F1340008853B0008853B0008A2
:10008000853B0008853B0008853B0008853B000850
:10009000FD340008853B0008853B0008853B0008CF
:1000A000853B0008853B0008853B0008853B000830
:1000B000093500081535000821350008853B000882
:1000C000853B0008853B0008853B0008853B000810
:1000D000853B00082D350008853B000839350008B0
:1000E000853B0008853B0008853B0008853B0008F0
:1000F000853B0008853B0008853B0008853B0008E0
:10010000853B0008853B0008853B0008853B0008CF
:10011000853B0008853B0008853B0008853B0008BF
:10012000853B0008853B0008853B0008853B0008AF
:10013000853B0008853B0008853B0008853B00089F
:10014000853B0008853B0008853B0008853B00088F
:1001500045350008853B0008853B0008853B0008C5
:10016000853B0008853B0008853B0008853B00086F
:10017000853B0008853B0008853B0008853B00085F
:10018000853B0008853B0008853B0008853B00084F
:10019000853B000800000000853B0008853B000807
:1001A000853B0008853B0008853B0008853B00082F
:1001B000853B0008853B0008853B0008853B00081F
:1001C000853B0008853B0008853B0008853B00080F
:0801D000853B0008853B000897
:100200000348044B834202D0034B03B118477047A5
:10021000AC020020AC020020000000000548064BA4
:100220001B1AD90F01EBA301491002D0034B03B1F4
:1002300018477047AC020020AC020020000000000C
:1002400010B5064C237843B9FFF7DAFF044B13B11E
:100250000448AFF300800123237010BDB0020020DA
:10026000000000006CC7000808B5044B1BB104492E
:100270000448AFF30080BDE80840CFE7000000006D
:10028000B40200206CC7000853B94AB9002908BF5E
:1002900000281CBF4FF0FF314FF0FF3000F06AB96B
:1002A000ADF1080C6DE904CE00F006F8DDF804E0CD
:1002B000DDE9022304B070472DE9F047089D0E46A2
:1002C00004460F46002B4AD194468C45B2FA82F27E
:1002D00060D942B1C2F12003974020FA03F30CFA2F
:1002E00002FC1F4394404FEA1C4E1FFA8CF6B7FBEA
:1002F000FEF1230C0EFB117743EA074301FB06F0E6
:1003000098420AD91CEB030301F1FF3780F01581F5
:10031000984240F21281023963441B1AA4B2B3FB23
:10032000FEF00EFB103344EA034400FB06F6A6423F
:100330000AD91CEB040400F1FF3380F00081A642CF
:1003400040F2FD806444023840EA0140A41B0021D1
:100350001DB1D4400023C5E90043BDE8F0878B42BE
:1003600005D90DB1C5E9000100210846F5E7B3FA4A
:1003700083F1002946D1B34202D3824200F2F580D4
:10038000841A66EB030201201746002DE5D0C5E96B
:100390000047E2E7002A40F09380A1EB0C034FEA0C
:1003A0001C471FFA8CFE0121B3FBF7F607FB163042
:1003B000230C43EA00430EFB06F0984208D91CEBDD
:1003C000030306F1FF3802D2984200F2D08046467D
:1003D0001B1AA4B2B3FBF7F007FB103344EA034443
:1003E0000EFB00FEA64508D91CEB040400F1FF3308
:1003F00002D2A64500F2B6801846A4EB0E0440EAED
:100400000640A5E7C1F120078B4022FA07FC4CEA21
:10041000030C06FA01FE20FA07F426FA07F344EA71
:100420000E0400FA01F84FEA1C404FEA1449B3FBEE
:10043000F0FE1FFA8CF600FB1E3349EA03430EFB65
:1004400006F9994502FA01F20BD91CEB03030EF1F0
:10045000FF3A80F08580994540F28280AEF1020E2D
:100460006344A3EB0909A4B2B9FBF0F300FB1399B1
:1004700044EA094403FB06F6A64208D91CEB04042F
:1004800003F1FF3068D2A64266D9023B644443EAD6
:100490000E40A41BA0FB02E6B4427346B14652D301
:1004A0004FD05DB1B8EB030264EB090404FA07F71F
:1004B00022FA01F31F43CC40C5E9007400214CE748
:1004C000C2F1200120FA01F30CFA02FC26FA01F134
:1004D000964033434FEA1C471FFA8CFEB1FBF7F0FE
:1004E00007FB1016190C41EA064100FB0EF68E427E
:1004F00004FA02F408D91CEB010100F1FF382DD2F7
:100500008E422BD902386144891B9BB2B1FBF7F6AE
:1005100007FB161143EA014306FB0EF1994208D985
:100520001CEB030306F1FF3814D2994212D9023EA4
:1005300063445B1A46EA004136E73946EDE6184661
:1005400002E7F045ADD2BEEB020366EB0C060138C4
:10055000B146A6E74646ECE7034698E74046D3E7B0
:10056000D6467EE76444023847E708460DE7023E78
:1005700063442DE7704700BF00000000000000004A
:1005800030B490F800F020F007016FF0000C10F08C
:10059000070491F820F040F048804FF000046FF01D
:1005A0000700D1E9002391F840F000F1080082FA39
:1005B0004CF2A4FA8CF283FA4CF3A2FA8CF34BBB04
:1005C000D1E9022382FA4CF200F10800A4FA8CF27D
:1005D00083FA4CF3A2FA8CF3E3B9D1E9042382FA4B
:1005E0004CF200F10800A4FA8CF283FA4CF3A2FA60
:1005F0008CF37BB9D1E9062301F1200182FA4CF298
:1006000000F10800A4FA8CF283FA4CF3A2FA8CF3FE
:10061000002BC6D0002A04BF04301A4612BAB2FA20
:1006200082F200EBD20030BC7047D1E9002304F025
:100630000305C4F100004FEAC50514F0040F91F85A
:1006400040F00CFA05F562EA05021CBF63EA0503F7
:1006500062464FF00004AAE7830730B547D0541E26
:10066000002A3ED0CAB2034601E0013C39D303F868
:10067000012B9D07F9D1032C2CD9CDB205EB052513
:100680000F2C05EB054535D9A4F1100222F00F0C13
:1006900003F1100EE6444FEA121C1A46C2E9005557
:1006A000C2E9025510327245F8D10CF1010214F082
:1006B0000C0F03EB021204F00F0C13D0ACF1040387
:1006C00023F003030433134442F8045B9342FBD149
:1006D0000CF003042CB1C9B21C4403F8011BA34263
:1006E000FBD130BD64461346002CF4D1F9E7034634
:1006F0001446C0E71A46A446E0E700BF88420ED978
:100700008B1883420BD900EB020C002A6ED0624694
:1007100013F801CD02F801CD9942F9D170470F2AA3
:100720000FD8034602F1FF3C002A5FD00CF1010C08
:10073000013B8C4411F8012B03F8012F6145F9D1DD
:10074000704740EA01039B0751D1A2F1100370B535
:1007500001F1200C23F00F0501F1100E00F110043F
:10076000AC441B095EF8105C44F8105C5EF80C5C4D
:1007700044F80C5C5EF8085C44F8085C5EF8045CC5
:1007800044F8045C0EF1100EE64504F11004E9D1C2
:10079000013312F00C0F01EB031102F00F0400EB18
:1007A000031328D0043C24F003064FEA940C1E44A3
:1007B0001C1F8E465EF8045B44F8045FB442F9D116
:1007C0000CF1010402F0030203EB840301EB84014A
:1007D00002F1FF3C4AB10CF1010C013B8C4411F8D1
:1007E000012B03F8012F6145F9D170BD704702F16B
:1007F000FF3C03469AE72246EAE700BF014B186830
:10080000704700BF00000020844641EA000313F057
:1008100003036DD1403A41D351F8043B40F8043B07
:1008200051F8043B40F8043B51F8043B40F8043BCA
:1008300051F8043B40F8043B51F8043B40F8043BBA
:1008400051F8043B40F8043B51F8043B40F8043BAA
:1008500051F8043B40F8043B51F8043B40F8043B9A
:1008600051F8043B40F8043B51F8043B40F8043B8A
:1008700051F8043B40F8043B51F8043B40F8043B7A
:1008800051F8043B40F8043B51F8043B40F8043B6A
:1008900051F8043B40F8043B403ABDD2303211D30A
:1008A00051F8043B40F8043B51F8043B40F8043B4A
:1008B00051F8043B40F8043B51F8043B40F8043B3A
:1008C000103AEDD20C3205D351F8043B40F8043B0A
:1008D000043AF9D2043208D0D2071CBF11F8013B08
:1008E00000F8013B01D30B8803806046704700BFCE
:1008F000082A13D38B078DD010F003038AD0C3F1DD
:100900000403D21ADB071CBF11F8013B00F8013BBE
:1009100080D331F8023B20F8023B7BE7043AD9D37D
:10092000013A11F8013B00F8013BF9D20B78037052
:100930004B7843708B7883706046704770B50F4B6F
:100940000F4DAB42A3EB050607D0B610002455F8B7
:10095000043B01349847A642F9D80BF007FF094D34
:10096000094B5E1BAB424FEAA60606D0002455F8A1
:10097000043B01349847A642F9D870BD1CC9000851
:100980001CC900081CC9000824C90008002301462E
:100990001A46184600F014B838B5074D074C2C1B02
:1009A000A41005D0013C55F8043D9847002CF9D11E
:1009B000BDE838400BF0E0BE28C9000824C9000893
:1009C00070B4164D2C681CB365681F2D23DC38B934
:1009D000AB1C0135656044F82310002070BC7047E3
:1009E00004EB850C0228CCF88820D4F888614FF0FD
:1009F000010202FA05F246EA0206C4F88861CCF860
:100A00000831E5D1D4F88C311343C4F88C31DFE7D9
:100A1000034C2C60D8E74FF0FF30DFE708040020DC
:100A20000C04002008B52DED028BB0EE408A00F0DA
:100A30002FF8B4EE488AF1EE10FA0FD6B5EEC08A60
:100A4000F1EE10FA0ADCB5EE408AF1EE10FA08D1A8
:100A5000FFF7D4FE22239FED090A0360BDEC028B51
:100A600008BDFFF7CBFEBDEC028B034621221A60C6
:100A70000348BDE8084000F005B800BF000080FF53
:100A8000D0C700089FED010A704700BF0000C07F7B
:100A900010EE102A32F000432FD0002A134633DB29
:100AA000B2F1FF4F40DAB2F5000F34DB4FF0000C2B
:100AB0006448C3F31601084400F4000282F07E5239
:100AC0000A43DB1500EE102A7F3B5F4A634401F1C5
:100AD0000F0CF7EE007A0CEA020230EE670A03EB25
:100AE000D05322BBB5EE400AF1EE10FA62D1002BD2
:100AF00040F090809FED550A70479FED557ADFEDED
:100B0000537A87EE270A704770EE407A9FED4F7A4E
:100B100087EE870A7047DFED4F7A60EE277A6FF035
:100B2000180C17EE903AC3E730EE000A7047F0EE6B
:100B3000007A70EE277A07EE103A80EE274A464890
:100B4000C1F55712084402F522720243002A9FEDB4
:100B5000433ADFED434ADFED435ADFED433A9FED81
:100B6000435ADFED437ADFED436A24EE046AF8EE80
:100B7000C72A26EE067AE7EE034AA7EE235AE4EEEA
:100B8000875AE5EE076AE5EE877A67EE867AE6EE43
:100B9000877A2ADDB6EE007A20EE077A27EE007A11
:100BA00077EE877A67EE847A3BBB37EE677A30EE72
:100BB000470A70479FED307AF6EE007AE0EE477A0A
:100BC00020EE007A27EE277A002BF0D007EE903A3D
:100BD0009FED2A6ADFED2A6AF8EEE77AA7EEC67A79
:100BE00037EE400A97EEA60A704770EE677A67EE16
:100BF000847AE3B930EE670A70479FED206ADFED33
:100C0000206AE2EE867A37EE677A37EE400A92EE95
:100C1000A60A704707EE903A9FED180A9FED187AE2
:100C2000F8EEE77A27EE800AA7EE870A7047DFED35
:100C3000136A9FED137AE2EEE67A37EEC00A92EE7F
:100C4000870A704720FB4A00F0FF7F000000000089
:100C5000000000CC0000004C305CCFFF9788173EAE
:100C600025333A3E2549923E4FD01C3E298E633EA5
:100C7000ABAA2A3FCDCCCC3EABAAAA3ED1F71737C0
:100C80008071313F594BD3ED167A93ED177AF4EE1C
:100C9000C07AF1EE10FA30B408DCB4EEC07AF1EEAE
:100CA00010FA8CBFF0EE407AF0EE477A504991F896
:100CB0003330C1ED097A022B50D0032B29D0012B00
:100CC00071D1B7EE007A77EE677A9FED4A7A67EED8
:100CD000877AFCEEE77A17EE903A9BB2B3F5E16FB4
:100CE00075D307EE903A9FED447AF8EE677AF4EE0A
:100CF000C77AF1EE10FA88BFF0EE477AFCEEE77A99
:100D000017EE903A9AB2104655084FF48274234673
:100D100051E09FED387A67EE877AFCEEE77A17EEBE
:100D2000903A9BB2B3F5827F5BD307EE903A9FED8A
:100D3000337AF8EE677AF4EEC77AF1EE10FA88BFEC
:100D4000F0EE477AFCEEE77A17EE903A9BB21C463B
:100D500041F2707040F6B83502462CE09FED257ADE
:100D600067EE877AFCEEE77A17EE903A9BB2B3F51E
:100D7000827F32D307EE903A9FED207AF8EE677AC1
:100D8000F4EEC77AF1EE10FA88BFF0EE477AFCEE87
:100D9000E77A17EE903A9BB21C464FF4E1604FF4AD
:100DA0006175024607E04FF4827447F2305043F613
:100DB000982523460246CB85114B8A851B68C3F8CC
:100DC0009C00C3F8A850C3F81C4230BC70474FF4D5
:100DD000E1604FF46175024697E74FF48274234651
:100DE000DBE74FF482742346B2E700BFE40500203E
:100DF000AC0500200060EA460058E8460050DC469A
:100E0000180A002030B56C4C6C4D9DB03822002182
:100E10002046FFF721FC28463C220021FFF71CFC5E
:100E2000674B684845F81C0C45F8143C1C3D664B64
:100E30002B61EB63654BAB65654BEB65654BAB615C
:100E4000654B2B62654B66496B62664BE9604FF000
:100E5000824065496B60654B68640122644829647F
:100E60006B612021634BAB6384F8342004F002FAF9
:100E70005F480022102104F0FDF95D48002208219E
:100E800004F0F8F900225C48042104F0F3F97F2112
:100E90005A4803F019FD7F21594803F015FD7F21C1
:100EA000584803F011FD04225749544803F048FC08
:100EB0004FF40031554805F083F84FF48011534842
:100EC00005F066F8524808F063F8524808F060F8F8
:100ED000514808F05DF80821504808F03BF901F04E
:100EE000F3FB6C22002001A901F008FC00283ED190
:100EF0004B494FF6FF7301A80DF16C0C10F8012B54
:100F0000534043F300020A4082EA530242F30003D3
:100F10000B40C2F34E02534043F300020A40C3F3B6
:100F20004E035A4042F300030B40C2F34E025340BB
:100F300043F300020A40C3F34E035A4042F3000356
:100F40000B40C2F34E02534043F300020A40C3F386
:100F50004E035A4042F300030B40C2F34E0253408B
:100F600060459BB2CAD12F4A019991420ED003210C
:100F7000264804F0F3FFC021244804F0EFFF2A4B79
:100F8000E3621DB0BDE8304001F046B8BDF808206E
:100F9000012AECD1BDF86C209342E8D123486022AD
:100FA00003A9FFF731FC0023EB622B636B63EB6457
:100FB0002B656B65DBE700BFAC0500200006002059
:100FC0000000A04200004041000020410AD7A33C9D
:100FD000D7A3703F000010429A99193F00000C42BD
:100FE00000000442000040400AD7A33D0000C0407A
:100FF00000040048000020C1000C0048A80900209F
:101000003C090020D008002044060020180A0020D7
:10101000480D0020F80C0020A80C0020580C0020DF
:1010200001A0FFFF5257504430750401E405002031
:10103000B64AB749136810B50133B64C8B422DED53
:10104000028B94ED008A00F2F181B0EE482A136021
:10105000B14AB24BB2F804C0D18859801088518887
:101060009880D9809188D0889FEDAD4ADFEDAD2A78
:10107000D3ED027AD3ED046A9FEDAB3A93ED035AB8
:1010800093ED057ADFEDA93ADFEDA94AA3F800C098
:1010900080B289B206EE100A05EE901A11885288C5
:1010A000B8EE466AB0EE441A92B2A6EE221A89B29F
:1010B00006EE102AB8EE466AF8EE655AA6EE224A07
:1010C00093F8332006EE101AF0EE671AB8EE466A6F
:1010D000D5EE831AF0EE665AD6EE035AF0EE452AA4
:1010E000B0EE476AD1EE232A94EE236AE1EEA47AA9
:1010F000A2EEA45AE5EEA46AA6EE247AC3ED027A23
:1011000083ED035AC3ED046A83ED057A032A00F2E6
:10111000E881DFE802F0D9BEAA029FED866A27EED9
:10112000866AB4EEC26AF1EE10FA40F3B78101228A
:1011300083F8332093F83200821E012A00F2BC802B
:101140007D490A780132D2B2092A0A7000F202817E
:10115000D3ED087AD4ED015AF1EE656AF4EEE76A50
:10116000F1EE10FA08DCF4EEE75AF1EE10FA8CBF5B
:10117000F0EE676AF0EE656ADFED707A94ED116A61
:1011800094ED165A94ED150AD4ED174AC3ED086A8A
:1011900026EE276A36EEC74AD4ED137A26EE046AA5
:1011A00037EE400A76EE277AF4EEC57AF1EE10FAC1
:1011B00000F15381F4EEE47AF1EE10FA88BFF0EE1C
:1011C000647AD4ED123ADFED5E2A94ED103AC4ED64
:1011D000137A63EEA23A20EE630AA4EE030A37EE16
:1011E000800AB4EEC05AF1EE10FA00F32881F4EE52
:1011F000C04AF1EE10FA98BFB0EE640AF4EE404A2D
:10120000F1EE10FA77D1B5EEC04AF1EE10FA72DDC8
:1012100077EEC67AB4EEE75AF1EE10FA08DCF4EE97
:10122000E74AF1EE10FA8CBFB0EE675AB0EE645A9E
:1012300084ED135ADFED437A84ED144A75EEE75AD4
:10124000F0EEE66AF4EEE56AF1EE10FA4CBF012228
:10125000002283F83420BDEC028B84ED157ABDE8C2
:10126000104083ED090AFFF70DBD9FED326A27EEAE
:10127000866AB4EEC26AF1EE10FA3FF758AF9FEDFE
:10128000326A67EE867AF4EEC27AF1EE10FA2EDC5C
:1012900050E79FED2E6A27EE866AB4EEC26AF1EE41
:1012A00010FA40F1F08093F83200022283F83320E4
:1012B000821E012A7FF644AFBDEC028B9FED240A0B
:1012C000BDE81040FFF7DEBC9FED1A6A27EE866A84
:1012D000B4EEC26AF1EE10FA3FF729AF9FED1B6A38
:1012E00067EE867AF4EEC27AF1EE10FADBD40322CE
:1012F00083F833201EE7B4EE405AF1EE10FA99D18C
:10130000B5EEC04AF1EE10FA94D581E79C050020B5
:101310003F0D0300E405002044060020AC0500203A
:101320003333D3BF6840D33994B0D23B9D734E4022
:101330009A99193ECDCC4C3FA4050020ACC5A736E8
:1013400000504348CDCC4C3D3333933F9A99993F5D
:101350000AD7A33C002202280A700BD1634ADFEDB2
:10136000647A128806EE102A68EE277AB8EE466A8A
:1013700026EE278ADFED5F7A94ED095AD4ED0B5AF9
:10138000D4ED0E4A94ED0F4A25EE275A38EE666AE0
:10139000D4ED0D7A25EE065A76EEE77A75EE255AEB
:1013A000F4EEE45AF1EE10FA00F19880F4EEC45A2B
:1013B000F1EE10FA88BFF0EE445AD4ED0A3ADFEDB0
:1013C0004E2A94ED083AC4ED0B5A63EEA23A67EE4A
:1013D000E37AE6EE037A75EEA77AF4EEE74AF1EEE9
:1013E00010FA6EDCB4EEE74AF1EE10FA98BFF0EEB8
:1013F000447AB4EE674AF1EE10FA3AD1B5EEC06A1B
:10140000F1EE10FA35DD75EEC55AF4EEE54AF1EE6F
:1014100010FA08DCB4EEE54AF1EE10FA8CBFF0EEFB
:10142000654AF0EE444AC4ED0B4A27E000231360FE
:1014300000F026FE00F02AFE94ED002A08E6B4EE45
:10144000645AF1EE10FA0BD1B5EEC04AF1EE10FA83
:10145000B0EE450A3FF7DCAE52E7F0EE457AB0E673
:10146000B5EEC04AF1EE10FAB0EE450A7FF5E2AEF5
:10147000CEE6F4EE674AF1EE10FA1CD084ED0C6A69
:10148000C4ED0D6A66E69FED1D6A67EE867AF4EE9E
:10149000C27AF1EE10FA3FF52AAF4BE69FED186ADB
:1014A00067EE867AF4EEC27AF1EE10FA3FF5FBAE03
:1014B00040E6F0EE647AB5EEC06AF1EE10FADDD5E2
:1014C000A1E7F4EE444AF1EE10FAF2D1B5EEC06AAB
:1014D000F1EE10FAF0EE647A95DCECE7F0EE645A87
:1014E0006BE7002283F8332024E600BFA805002024
:1014F0000AD7233C17B7513800409C469A99593F68
:101500009A99993F10B500F0A7FD1A4A1388013344
:101510009BB27C2B01D8138010BD174B17481C7849
:10152000013404F0030400211180B4FA84F252095A
:1015300020211C7003F09EFEA4F10102B2FA82F297
:101540000E481021520903F095FEA4F10202B2FAEE
:1015500082F20A480821520903F08CFEA4F103022A
:10156000B2FA82F2BDE8104005480421520903F0A6
:1015700081BE00BFA2050020A00500200004004895
:10158000000C004838B5C84CC8482DED048B94EDCC
:10159000078A03F053F80221C44802F059FCC348FB
:1015A00002F0EAFC07EE900A9FEDC17AF8EE677A46
:1015B000F4EEC77AF1EE10FA00F10581DFEDBD6AB5
:1015C00067EEA67AB0EE0A7AF4EEC77AF1EE10FA78
:1015D000DFEDB96A88BFF0EE477A86EEA70ADFED45
:1015E000B77AB4EEE70AF1EE10FA40F102819FED0E
:1015F000B47ADFEDB47AB44B9FEDB49AB3F8A82077
:10160000B3F8CA30B248D4ED068A77EEC87A92B2FF
:1016100077EE877AB0EE487AA7EE897A9DB207EE28
:10162000902A84ED077AB8EE678A03F007F8022162
:10163000A74802F00DFCA64802F09EFC07EE100A37
:1016400007EE905AB8EE477ADFEDA26A94F832308E
:1016500037EE487AF8EE677A27EE267A77EEC87A80
:10166000B3EE0E6AC7EE276A76EE687A76EEA77A50
:10167000E7EE898AC4ED068A002B00F09880964D2B
:10168000042B2A7F00F04881002A00F05B81012BA7
:1016900000F09A81022B00F0C7809A1ED2B2022A73
:1016A000D4ED077A29D99FED8D7AF4EEC77AF1EE61
:1016B00010FA73DA9FED8A7AF4EEC77AF1EE10FA37
:1016C00080F284809FED877AF4EEC77AF1EE10FA0B
:1016D00080F2A7809FED847AF4EEC77AF1EE10FADB
:1016E00080F26C819FED817AF4EEC77AF1EE10FA08
:1016F000ACBF4FF4AF73002352E0D4ED027AD5EDC6
:10170000056A95ED067AF4EEE67AF1EE10FAF4EE5B
:10171000C77A4CBF01220022F1EE10FAC8BF42F096
:101720000202032B94ED047AD4ED057AD5ED046A18
:1017300000F09F8095ED036AB4EEC76AF1EE10FAEF
:10174000B0EEE77A95ED026AD4ED077A41D5F4EE72
:10175000C76AF1EE10FA42F0080201D542F0100219
:10176000B4EEE76AF1EE10FA01D542F0400204232C
:1017700003215F4884F83230228604F0EFFB5C4896
:10178000C02104F0EBFBD4ED077A9FED547A594B5E
:10179000E362F4EEC77AF1EE10FA8BDB4FF47A7362
:1017A000BDEC048B544AA3621268D36338BD012395
:1017B000494D84F832302B7FD4ED077A002B7FF42B
:1017C00072AF23866FE79FED4D7A12E74FF44873AF
:1017D000E6E7B4EEE67AF1EE10FABFDCF4EEC67A94
:1017E000F1EE10FAC1DC002AC1D1042B08BF228619
:1017F00059E7F7EE008ADFED427A30EE680AB4EE80
:10180000E70AF1EE10FA88BFB0EE670AFFF70AF9AF
:101810009FED3C7ADFED3C7AE0EE077A88EEA77A1E
:10182000E7E640F28A23BBE738490A88013292B2E0
:10183000632A0A807FF661AFD4ED027AD5ED056A9E
:1018400095ED067AF4EEE76AF1EE10FAB4EEE77A77
:101850004FF00303CCBF01220022F1EE10FA94ED09
:10186000047AD4ED057AD5ED046A84F8323000F1BB
:10187000A88095ED006ADFED265A26EE256AB4EEC3
:10188000C76AF1EE10FA0CDD9FED226A26EE866A39
:10189000B4EEE76AF1EE10FA03D542F0200203231A
:1018A00048E7032346E700BFAC0500203C090020C1
:1018B0008B2E78426840533A33335340AE47813FD2
:1018C000E480E443339388C30075FF1FCDCCCC3D47
:1018D000D00800200000C842E4050020000070424B
:1018E00000004842000034420000204200000C4248
:1018F000180A002030750401580C00200DB762430F
:1019000000007A442CBB84390FCF5B3BA805002034
:10191000CDCC4C3ECDCC4C3F238E13F0400349D16F
:1019200034480188013189B2C72942D900224FF4D5
:10193000803121630380EA622A636A63EA642A656C
:101940006A6538E72C4B2D481A80012184F8321043
:10195000032104F003FB2948C02104F0FFFA284BBF
:10196000E3622A7F94F83230002A7FF496AE042B8B
:10197000D4ED077A22867FF496AED4ED027AD5EDC7
:10198000056A95ED067AF4EEE76AF1EE10FAB4EE28
:10199000E77ACCBF01220022F1EE10FA94ED047A2E
:1019A000D4ED057AD5ED046A48BF42F00202042363
:1019B000C0E60180002AE0D12286DEE74FF4FA7308
:1019C000EEE642F0020254E70B4A0C48022184F88A
:1019D00032100021002311800321EB622B636B6323
:1019E000EB642B656B6504F09FFAC021034804F09B
:1019F0009BFAB6E7A6050020A8050020180A0020DB
:101A00003075040110B59CB000F040FB2F4B1A78E4
:101A10000AB91CB010BD2E482E4901904FF0000CA1
:101A20006022012403A883F800C00294FEF7ECFEB4
:101A3000002229490E924FF6FF730F9210921692D0
:101A40001792189201A80DF16C0C10F8012B53405D
:101A500043F300020A4082EA530242F300030B40C0
:101A6000C2F34E02534043F300020A40C3F34E0355
:101A70005A4042F300030B40C2F34E02534043F37B
:101A800000020A40C3F34E035A4042F300030B40E6
:101A9000C2F34E02534043F300020A40C3F34E0325
:101AA0005A4042F300030B40C2F34E0253406045DC
:101AB0009BB2CAD100201B9300F05EFE0028A8D183
:101AC0006C2201A900F0ACFE1CB010BDAA050020DC
:101AD00052575044E405002001A0FFFF00F038BB3E
:101AE00090B110B4094C84460FCCACE80F000FCC79
:101AF000ACE80F000FCCACE80F0094E803005DF8F1
:101B0000044B8CE803007047704700BFAC05002011
:101B100028B108B502496022FEF776FE08BD70477D
:101B2000E405002007EE900ADFED096A9FED097ACF
:101B3000094BF8EE677A67EEA67AF4EEC77AF1EE13
:101B400010FA88BFF0EE477AC3ED007A704700BF05
:101B50006F12833A00000442E405002007EE900A69
:101B6000DFED096A094BF8EE677AB2EE047A67EEA8
:101B7000A67AF4EEC77AF1EE10FA88BFF0EE477A53
:101B8000C3ED017A704700BF6F12833AE40500206D
:101B900007EE900A9FED0F7AF8EE677AF4EEC77AB7
:101BA000F1EE10FA10D4DFED0C6A9FED0C7A0C4BBD
:101BB00067EEA67AF4EEC77AF1EE10FA88BFF0EE7F
:101BC000477AC3ED037A7047054BF7EE007AC3ED11
:101BD000037A7047FFFF79446F12833A0000044292
:101BE000E405002007EE900A9FED0F7AF8EE677A81
:101BF000F4EEC77AF1EE10FA10D4DFED0C6A0C4B5C
:101C000067EEA67AB2EE087AF4EEC77AF1EE10FA31
:101C100088BFF0EE477AC3ED047A7047DFED057AAE
:101C2000034BC3ED047A70470000C8426F12833A39
:101C3000E4050020CDCCCC3D07EE900A9FED0F7A55
:101C4000F8EE677AF4EEC77AF1EE10FA10D4DFED11
:101C50000C6A9FED0C7A0C4B67EEA67AF4EEC77A0D
:101C6000F1EE10FA88BFF0EE477AC3ED027A7047C2
:101C7000054BF3EE047AC3ED027A704700409C46B0
:101C80006F12833A0000F042E40500200038024B56
:101C900018BF012018777047E4050020014B01228E
:101CA0001A707047AA050020944610B5ACF10A0ED0
:101CB000029C0A46BEF11D0F1FD8DFE81EF0790115
:101CC00066014D013A01920130011E001601030127
:101CD0001E00F900F000E700D800CE00C500BC00EF
:101CE000B300AA008D00A0007300590046002A002E
:101CF0001E001E001E00210021006FF0040010BD18
:101D00009B6A02934FF48071BDE8104063460AF06D
:101D100081BCD4ED047A9FEDBD7ADFEDBD6AF4EEAF
:101D2000C77AF1EE10FAA8BFB0EE677AF6EE007A45
:101D3000E7EE267A22234FF48071FDEEE77ACDEDAF
:101D4000027ABDE810400AF065BCD3ED057A9FED3C
:101D5000AF7ADFEDAF6AF4EEC77AF1EE10FAA8BF02
:101D6000B0EE677AF6EE007AE7EE267A2123E2E714
:101D700094ED037AB5EEC07AF1EE10FA40F23D81AF
:101D8000DFEDA36AF6EE007AE7EE267AFCEEE77A5C
:101D900017EE903A02934FF48071BDE81040202373
:101DA0000AF038BC93ED047AB5EEC07AF1EE10FA81
:101DB00040F22581DFED966AF6EE007AE7EE267AAC
:101DC000FCEEE77A17EE903A02934FF48071BDE88B
:101DD00010401F230AF01EBCD3ED076A9FED8C7ADA
:101DE000F6EE007AE6EE877A1D234FF48071FCEE62
:101DF000E77ACDED027ABDE810400AF00BBCD4EDD5
:101E0000026A9FED837AF6EE007AE6EE877A1E2369
:101E1000EBE7DB8802934FF48071BDE810401C2390
:101E20000AF0F8BB9B8802934FF48071BDE8104024
:101E30001B230AF0EFBB5B8802934FF48071BDE86F
:101E400010401A230AF0E6BB1B8802934FF48071FE
:101E5000BDE8104019230AF0DDBB93F8333002933C
:101E60004FF48071BDE8104018230AF0B1BB93F81D
:101E70003230042B96BF67490023CB5C02934FF4AA
:101E80008071BDE8104017230AF0A2BB1B8E02939D
:101E90004FF48071BDE8104016230AF0BBBB237FCE
:101EA00002934FF48071BDE8104015230AF090BBF7
:101EB00093F8343002934FF48071BDE8104014233E
:101EC0000AF086BBD4ED017A9FED507ADFED506ABF
:101ED000F4EEC77AF1EE10FAA8BFB0EE677AF6EE2C
:101EE000007AE7EE267A122325E794ED007AB5EE24
:101EF000C07AF1EE10FA40F28480DFED456AF6EE2A
:101F0000007AE7EE267AFCEEE77A17EE903A029333
:101F10004FF48071BDE8104011230AF07BBBD3ED74
:101F2000076A9FED3B7AF6EE007AE6EE877A0F239A
:101F30005BE7D3ED057A9FED357ADFED356AF4EE98
:101F4000C77AF1EE10FAA8BFB0EE677AF6EE007A23
:101F5000E7EE267A0D23EEE693ED047AB5EEC07A2D
:101F6000F1EE10FA47D9DFED2A6AF6EE007AE7EED5
:101F7000267AFCEEE77A17EE903A02934FF48071DE
:101F8000BDE810400C230AF045BBD3ED037A9FED6A
:101F90001F7ADFED1F6AF4EEC77AF1EE10FAA8BFE0
:101FA000B0EE677AF6EE007AE7EE267A0B23C2E609
:101FB00093ED027AB5EEC07AF1EE10FA23D9DFED97
:101FC000146AF6EE007AE7EE267AFCEEE77A17EE70
:101FD000903A02934FF48071BDE810400A230AF052
:101FE00019BBD3ED066A9FED0A7AF6EE007AE6EEAB
:101FF000877A0E23F9E60023BFE70023CAE6002311
:10200000E2E6002383E70023E3E700BF00000000CF
:1020100000007A4484C7000810B509480AF0F8F8AF
:10202000084A094B002414801C7001F0EFFD074B97
:102030000749084A1C7000F57A700860148010BDCA
:10204000600700205C0700205E0700204C0600208F
:10205000580700204E060020074A138801339BB220
:10206000B3F57A7F01D213807047044B0020012121
:1020700010801970704700BF5C0700205E070020C9
:10208000014B01221A7070475E0700202DE9F041D4
:10209000ECB00023ADF8163001F0B8FD264A274D0C
:1020A0001368274EC31A002BA4BF01232B702B7873
:1020B000A4BF00F57A7010600BB1337873B1337838
:1020C00013B1204B198811B96CB0BDE8F0811E48DE
:1020D00009F024FE0028F7D13070F5E706A81B4C64
:1020E00014AFFFF7FDFC3846FFF712FD04F11108AD
:1020F00001E044450BD014F8012B009706AB0DF11D
:1021000016012CA8FFF7D0FD0028F2D0D7E7014632
:102110000C4802900C4800904FF484700190BDF878
:1021200016302CAA03200AF07DF80028C7D101231D
:1021300033702870C3E700BF580700205E070020F7
:102140004C0600204E060020500600208CC70008D8
:102150002DE9F04F2DED028BADF2D44D00278DF817
:10216000197000B129B90DF2D44DBDEC028BBDE858
:10217000F08F02230DF11902CDE900320A46B2AB0D
:10218000014692480AF0E2F8B842ECDB9DF81930BB
:10219000002BE8D09DF8C8329FED8D8A8D4C9DF8BC
:1021A000C9B2012BB3ADB94631D0022B7CD030ABD4
:1021B000029370AB4FF4847200930023019259464E
:1021C0001A46FF20ADF8C0300AF02CF878B901F0BB
:1021D0001DFD00F1140603E001F018FD864206D94A
:1021E000BDF8C01070A809F099FD0128F4D09DF841
:1021F000192009F101095FFA89F39A4205F5827500
:10220000B1D915F8043C15F803BC012BCDD100233E
:102210000AAFADF81A30ADF81C30384635F8023C3C
:1022200005930DF1600AFFF75BFC5046FFF770FC69
:102230000DF12008059943460DF11A0228460AF0CF
:1022400009FA0646002840F0778198F80020282AED
:1022500000F0C280CDF800A03B4607A930A8FFF7E8
:1022600023FD0028E6D070AB0DF11E0700934FF45C
:102270008473029759463E8032460193FF203346CD
:1022800009F0D0FF0028B2D101F0C0FC00F1140623
:1022900003E001F0BBFC8642A9D9398870A809F097
:1022A0003DFD0128F5D0A2E70DF120080DF1600AEF
:1022B000002635F8027CA8F80060CAF8006030AB50
:1022C0004246394628460AF0C5F9002840F05881B0
:1022D000BDF8C2C0BCF1040F03D0BCF1010F40F047
:1022E00073819DF8C020002301E0192B4CD014F815
:1022F0003310914204EBC30003F10103F5D183785D
:102300009B0741D5437863453ED1BCF1010FCAF824
:10231000006040F0C680319B1B78CAF80030113A4B
:10232000162A00F2C98001A353F822F02F250008D5
:1023300025250008B9240008B92400081B25000839
:10234000B9240008B9240008B9240008B9240008F9
:10235000B9240008B9240008B9240008B9240008E9
:1023600011250008B924000807250008B924000831
:10237000FD240008B9240008B9240008B924000885
:10238000B9240008BF22000870AB0AAF00934FF4D5
:1023900084720023029759463B80FF2001921A461F
:1023A00009F040FF00287FF422AF01F02FFC00F17C
:1023B000140604E001F02AFC86427FF618AF398843
:1023C00070A809F0ABFC0128F4D010E760070020EA
:1023D00000007A440CC80008BB88009307AA1B239E
:1023E0004FF4807130A80AF015F988BB97ED047A94
:1023F000B5EEC07AF1EE10FA07D9F6EE007AE7EE04
:10240000087AFCEEE77A17EE900A00900C2307AAF0
:102410004FF4807130A80AF0FDF8C8B99AED037A3C
:10242000B5EEC07AF1EE10FA07D9F6EE007AE7EED3
:10243000087AFCEEE77A17EE900A0090202307AAAC
:102440004FF4807130A80AF0E5F800283FF4F2AEAE
:1024500070AB0DF11E0700934FF4847200230297B6
:1024600059463B80FF2001921A4609F0DBFE002806
:102470007FF4BDAE01F0CAFB398800F1140670A8E4
:1024800009F04CFC01287FF4B2AE01F0BFFB86429C
:102490007FF6ADAE398870A809F040FC0128F4D071
:1024A000A5E65346394628460AF008F9002840F0C8
:1024B000AD809DF8C02032E770AB0AAF00934FF4B7
:1024C00084720023029759463B80FF2001921A46EE
:1024D00009F0A8FE00287FF48AAE01F097FB00F116
:1024E000140604E001F092FB86427FF680AE398844
:1024F00070A809F013FC0128F4D078E6DAF800009F
:10250000FFF770FBDBE6DAF80000FFF741FBD6E6E9
:10251000DAF80000FFF790FBD1E69AF80000FFF729
:10252000B5FBCCE6DAF80000FFF718FBC7E6DAF8EF
:102530000000FFF7F7FAC2E670AA0DF11E0700923D
:1025400000204FF484720297BDF81C303880594641
:10255000019230AA09F066FE00287FF448AE01F02F
:1025600055FB00F1140604E001F050FB86427FF6B3
:102570003EAE398870A809F0D1FB0128F4D036E6C8
:10258000FFF78CFB0AAF70AB00934FF4847200230B
:10259000029759463B80184601921A4609F042FEBE
:1025A00000287FF424AE01F031FB00F1140604E0B2
:1025B00001F02CFB86427FF61AAE398870A809F02C
:1025C000ADFB0128F4D012E670AB0AAF00934FF4D4
:1025D0008473029702463880594601930346FF20D0
:1025E00009F020FE00287FF402AE01F00FFB00F19D
:1025F000140604E001F00AFB86427FF6F8AD398844
:1026000070A809F08BFB0128F4D0F0E570AB0AAF9D
:1026100000934FF484733E80019300235946029740
:102620001A46FF2009F0FEFD00287FF4E0AD01F01E
:10263000EDFA00F1140604E001F0E8FA86427FF6B4
:10264000D6AD398870A809F069FB0128F4D0CEE531
:1026500030B585B001F0DAFA4FF605720023194D56
:10266000ADF8082000F1C804ADF80C3017E002F016
:1026700001FE64220223009202A903AA284605F063
:10268000A1FF034601224FF400414FF09040A3B94F
:1026900002F0F0FD9DF80D0010F001000BD001F0EC
:1026A000B5FA0346A3424FF000024FF400414FF049
:1026B0009040DCD9032005B030BD02F0DBFD0120E5
:1026C00005B030BDF00B00200B4808B54FF4E062B8
:1026D0000023C260436305F0CFFD08B1012008BDAF
:1026E00001224FF400414FF0904002F0C3FDBDE8DD
:1026F0000840FFF7ADBF00BFF00B002030B583B03E
:1027000009B115461AB90124204603B030BD030CA7
:10271000032240BA8DF80420ADF8060000224FF0E5
:1027200090400C464FF400418DF8053002F0A2FDB8
:102730000422104864230DEB020105F01BFE88B94A
:1027400021460C4864232A4606F02CF9044648B971
:1027500001224FF400414FF0904002F08BFD2046E3
:1027600003B030BD01224FF400414FF0904002F021
:1027700081FDC8E7F00B002070B584B0002206236D
:102780004FF40041044664264FF090408DF8083025
:102790008DF80C2002F06EFD20480096012303AA5C
:1027A00002A905F00FFF48BB054601224FF4004186
:1027B0004FF0904002F05EFD20232A468DF80C3049
:1027C0004FF40041230C4FF0904064BA8DF80D3067
:1027D000ADF80E4002F04EFD042203A90F48334627
:1027E00005F0C8FD01224FF4004188B94FF0904038
:1027F00002F040FDFFF72CFF04B070BD01224FF442
:1028000000414FF0904002F035FD012004B070BD52
:102810004FF0904002F02EFDF7E700BFF00B0020D4
:1028200000296BD02DE9F04F154687B0002A61D002
:10283000DFF8DC8006460F464FF0060A30E002F073
:1028400019FD0221330C4A468DF814108DF815300D
:102850004FF4004173BA4FF09040ADF8163002F0DB
:1028600009FD5B46042205A9404605F083FD0028CA
:1028700046D1224639465B46404605F07BFD0122A3
:102880004FF4004100283BD14FF0904002F0F2FCA1
:10289000FFF7DEFE2D1BADB260BB2644274455B3C7
:1028A000F4B2C4F58074A4B2AC424FF000034FF010
:1028B00000024FF400414FF090404FF0640B28BFEE
:1028C0002C468DF810308DF80CA002F0D3FC04AA31
:1028D00003A90123CDF800B0404605F073FE814600
:1028E00001224FF400414FF09040B9F1000FA6D003
:1028F00002F0C0FC012007B0BDE8F08F0120704756
:1029000001224FF400414FF0904002F0B3FCF1E798
:10291000F00B002030B500248DB020252A4621463A
:1029200004A8CDE901440394FDF796FE374801233E
:10293000436180F8383080F8403003650423036237
:1029400043644FF0A0424FF44033C0E90023082312
:10295000C0E902440461848380F82440C464836134
:102960004FF4D4644FF48063C0E90B434FF48053B9
:102970008564C36301F062F9002834D10023234841
:10298000019301A901F0EEFF00283CD120491F4826
:102990000622CDE9041200237F24042204A9CDE9F4
:1029A0000634CDE9082301F03BFB48BB194A174820
:1029B0000C2304A9CDE9042301F032FBE8B9164A3F
:1029C0001248122304A9CDE9042301F029FB88B998
:1029D000124A0E48182304A9CDE9042301F020FB74
:1029E00020B90DB030BD00F0B5FCC7E700F0B2FC77
:1029F0000DB030BD00F0AEFCEAE700F0ABFCDEE766
:102A000000F0A8FCD2E700F0A5FCBFE7A809002071
:102A100002003004040060080800900C1000C01090
:102A200010B588B0202200216846FDF715FE1E4C27
:102A30001E484FF44031C0E90041042181614FF448
:102A40008051C1631C210023012241648021C0E91F
:102A50000233C0E90433C0E90B33C0E912138383A6
:102A6000026280F8243080F8383080F84020026517
:102A700001F0E4F888B90E480622CDE900020023EF
:102A80007F24042209486946CDE90234CDE90423B4
:102A900001F0C6FA20B908B010BD00F05BFCEAE70F
:102AA00000F058FC08B010BD000100503C090020A7
:102AB0000000524710B588B0202200216846FDF77B
:102AC000CBFD1E4C1E484FF44031C0E900410421AB
:102AD00081614FF48051C1631421002301224164BC
:102AE0006021C0E90233C0E90433C0E90B33C0E917
:102AF00012138383026280F8243080F8383080F823
:102B00004020026501F09AF888B90E480622CDE906
:102B1000000200237F24042209486946CDE90234DB
:102B2000CDE9042301F07CFA20B908B010BD00F013
:102B300011FCEAE700F00EFC08B010BD00060050E2
:102B4000D00800201000C09070B50446A0B000214D
:102B500054220BA8CDE90611CDE908110A91FDF721
:102B60007BFD2368B3F1A04F08D0554A934253D060
:102B7000544A934200F0828020B070BD4FF400426E
:102B80004FF000530BA80B921C9305F0C9F80028D6
:102B900040F08A804C4A13680133012B136009D13D
:102BA0004A4BDA6C42F40052DA64DB6C03F40053F3
:102BB0000193019B454B464DDA6C42F00102DA6409
:102BC000DB6C03F0010302930F2206A90323002606
:102BD0004FF09040CDE906230896029B02F08CF955
:102BE0003C4A0523C5E9002380234FF480712B6103
:102BF0004FF48063C5E9051320224FF400532846A3
:102C0000C5E90266C5E9072301F0C8FF00284ED1D7
:102C10006565AC6220B070BD4FF400424FF00053C8
:102C20000BA80B921C9305F07BF8002842D1264A92
:102C300013680133012B136009D1244BDA6C42F481
:102C40000052DA64DB6C03F400530393039B1F4BC5
:102C5000DA6C42F00102DA64DB6C03F001030493E6
:102C600010240023032506A94FF09040CDE9064526
:102C7000049A089302F040F920B070BD4FF48032FE
:102C80004FF000430BA80B921D9305F049F8A0B933
:102C90000E4BDA6C42F48042DA64DB6C03F480435E
:102CA0000593059B20B070BD00F054FB72E700F067
:102CB00051FBADE700F04EFBB9E700F04BFBE7E757
:102CC00000010050000600506C0800200010024077
:102CD0007008002008000240174B10B5986C40F0B7
:102CE000040098649C6C82B004F004040094009C7E
:102CF0009C6C44F001049C649B6C002203F0010373
:102D0000114601930B20019B01F0E4FE0B2001F022
:102D10001DFF002211460C2001F0DCFE0C2001F00A
:102D200015FF002211460D2001F0D4FE0D2002B047
:102D3000BDE8104001F00ABF00100240F0B50024C9
:102D40008DB0CDE90644CDE90844334B0A94D96CE3
:102D5000324F334E41F00401D964D96C01F00401C3
:102D600001910199D96C41F02001D964D96C01F02D
:102D7000200102910299D96C41F00101D964D96C0A
:102D800001F0010103910399D96C41F00201D9646A
:102D9000D96C01F0020104910499D96C41F0080149
:102DA000D964DB6C03F00803224605934FF400411D
:102DB0004FF09040059B02F05DFA22463846042110
:102DC00002F058FA22463046B82102F053FA0024A5
:102DD00000254FF40042012306A94FF09040CDE9B1
:102DE0000623CDE9084502F087F8384606A90422F3
:102DF0000123CDE90623CDE9084502F07DF8B8228C
:102E0000012306A93046CDE90845CDE9062302F0A5
:102E100073F80DB0F0BD00BF00100240000C004878
:102E2000000400480E4B02689A4200D0704703F538
:102E3000284300B5186E40F0806018661B6E83B0A2
:102E4000002203F08063019311464420019B01F0AE
:102E500041FE442003B05DF804EB01F077BE00BFF3
:102E60000068014070B51E4B026888B000249A4289
:102E7000CDE90244CDE90444069401D008B070BD08
:102E800003F528430326DA6C164842F00202DA649E
:102E9000DA6C02F002020092009ADA6C42F001024F
:102EA000DA64DB6C03F0010301934FF440420D251B
:102EB00002A90223CDE90223CDE90565019B02F0B9
:102EC0001BF84FF44073029302A902234FF0904085
:102ED000CDE904460393069502F00EF808B070BDE4
:102EE000006801400004004810B50024BCB0602216
:102EF000214624A8CDE90744CDE90B44CDE90D4492
:102F0000CDE90F44009406940A9401940994FDF7C6
:102F1000A3FB242221461BA8CDE903440594FDF719
:102F20009BFB2022214612A8FDF796FBAE48AF4B33
:102F30000360C0E9014402F0ADF9002840F0FA80D6
:102F4000A9480C2102F020FA002840F0FC80A64895
:102F50000A2102F051FA002840F0FE809FED9C7B90
:102F6000A1486A4601218DED007B02F0A1FA0028FC
:102F700040F029819C480022012102F0C1FB002879
:102F800040F01E8146F29053002106939648082394
:102F900006AACDE90711099302F054FA002840F07F
:102FA0000C819FED8D7B00218F480A910AAA8DED3F
:102FB0000C7B109102F0B8FD002840F0FB8010233C
:102FC0009FED877B2493012328934FF0006300211A
:102FD0002E93854827914FF0005324AACDE925115F
:102FE000CDE92911CDE92B11CDE92F11CDE9321110
:102FF000CDE93811CDE93A118DED347B2D91369123
:10300000319302F019FC002840F0D1809FED727BD3
:1030100000237548249324AA03218DED347B2E933D
:103020003193369302F008FC002840F0BD8043F253
:10303000C82303936C4803AB0122002102F03CFE3D
:10304000002840F0AE8041F664130393664803AB5A
:103050000422002102F030FE002840F09F8064230B
:103060001C934FF400444FF480430021CDE91E43EC
:103070004FF0004C4FF080435B481B911BAACDE9F9
:103080002011CDE922C31D9102F0C8FD002840F0B7
:1030900082806423544820931BAA032102F0BEFDC2
:1030A000002875D1042208230021CDE913234E48BE
:1030B000129112AB0122CDE91511CDE91711199129
:1030C00002F0BAFE002860D1474812AB402203212B
:1030D00002F0B2FE002855D10021434812AB022273
:1030E000CDE9131102F0A8FE002848D13E4812ABEA
:1030F0008022032102F0A0FE00283DD13A4806AA12
:10310000032102F09FF9002833D137480AAA03218E
:1031100002F00AFD50BB4FF482743348039403ABB2
:103120000122032102F0C8FDC8B92F48FFF79AFE1B
:103130003CB010BD00F00EF92B480C2102F024F930
:1031400000283FF404AF00F005F927480A2102F0F7
:1031500053F900283FF402AF00F0FCF8FEE600F05F
:10316000F9F82148FFF77EFE3CB010BD00F0F2F800
:10317000D1E700F0EFF8C8E700F0ECF8BEE700F0A8
:10318000E9F8B3E700F0E6F8A6E700F0E3F89BE71C
:1031900000F0E0F886E700F0DDF87AE700F0DAF812
:1031A0005DE700F0D7F84EE700F0D4F83FE700F015
:1031B000D1F82BE700F0CEF801E700F0CBF8F0E60D
:1031C00000F0C8F8DEE600F0C5F8D3E6AFF3008003
:1031D00000000100000800000000000000000000E6
:1031E0000000008000010000180A00200068014073
:1031F0000848094908B503224FF47A73C0E901234E
:103200000160C36003F02AF900B908BDBDE80840B9
:1032100000F0A0B8180B00200030004010B594B0AA
:103220003822002106A8FDF717FA0020CDE9010099
:10323000CDE903000590032404F052F90223012292
:103240002920CDE90B22CDE90D344FF480311193C3
:10325000139305224423CDE90601CDE90F2306A8E7
:103260000623129304F0B6F908B172B6FEE7042102
:1032700003460F220DEB0100CDE90124CDE9033314
:10328000059304F025FC08B172B6FEE714B010BD3A
:1032900008B500F09FFCFFF7C1FFFFF74FFDFFF7F8
:1032A0001BFDFFF721FEFFF735FBFFF7B9FBFFF72B
:1032B00001FCFFF79DFF00F04FF800F0C9F908F09E
:1032C000C7FC00F04FF900F087F900F0FDF900F0BD
:1032D00011FB00F053FBFDF795FDFEF793FB642017
:1032E00000F09AFCF9E700BF034B834200D070471F
:1032F0000029FCD1FDF79CBE180A002008B5036820
:10330000B3F1804F03D00E4A934210D008BD0D4B4D
:103310000D481A680D4901321A601B6800FB03F35F
:10332000B1EBB30F07D2BDE80840FEF7EBB8BDE83C
:103330000840FEF727B90648202101F0A1FFF2E777
:1033400000040040280B0020D578E9266E12830087
:103350000004004872B6FEE710B51148114C4FF456
:1033600082720023C0E900424FF440714FF40072B2
:10337000C0E902311024826107210822C0E9043328
:10338000C0E90743C0E90933C0E90B13426304F005
:1033900073FF00B910BDBDE81040FFF7DBBF00BFF1
:1033A000F00B0020003C004070B52F4B026888B045
:1033B00000249A42CDE90244CDE90444069401D0A8
:1033C00008B070BD03F5EA3305469A6D274E42F406
:1033D00000429A659A6D02F400420092009ADA6CFB
:1033E00042F00402DA64DB6C03F0040301934FF44F
:1033F000E0520223CDE9022301981D48032206234F
:1034000002A9CDE9052301F077FD1A4A34620E23A3
:10341000C6E9002330468023C6E90244C6E90434E5
:10342000C6E9064401F0BAFBC0B9134C1349AE65B6
:103430000F220023C4E90012204610218022C4E993
:103440000213C4E90533C4E90733B562226101F010
:10345000A5FB30B96C65A56208B070BDFFF77AFFB7
:10346000E3E7FFF777FFF5E7003C00408C0B002017
:10347000000800481C0002402C0B002030000240D5
:103480000B4B1A6E42F001021A661A6E82B002F0FD
:1034900001020092009A9A6D42F080529A659B6DEB
:1034A00003F080530193019B02B004F08BB800BF7E
:1034B00000100240FEE700BFFEE700BFFEE700BFCE
:1034C000FEE700BFFEE700BF704700BF704700BFC8
:1034D000704700BF00F08EBB014801F0BFBC00BFC9
:1034E00070080020014801F0B9BC00BF8C0B00201F
:1034F000014801F0B3BC00BF2C0B0020014803F0D1
:10350000DBB800BFBC250020014805F0A1BF00BF0B
:10351000480D0020014805F09BBF00BFF80C0020BB
:10352000014805F095BF00BFA80C0020014806F037
:103530006BBA00BF300E0020014806F065BA00BF2C
:10354000980D00200148002102F0C0BD180A00209B
:10355000034AD2F8883043F47003C2F888307047C9
:1035600000ED00E000B51B484FF080420260A92248
:10357000002389B0426040F2E732C0E90232802283
:10358000CDE90433CDE90633CDE90133039303617B
:10359000826105F05DFC90B94FF480530D480493AF
:1035A00004A905F073FE90B900230A48019301A90C
:1035B000039306F061F928B909B05DF804FBFFF741
:1035C000C9FEE9E7FFF7C6FE09B05DF804FBFFF7A7
:1035D000C1FEE9E7480D002000B51B481B4A026008
:1035E000A922002389B0426041F28732C0E9023249
:1035F0008022CDE90433CDE90633CDE901330393CD
:103600000361826105F024FC90B94FF480530E48A9
:10361000049304A905F03AFE90B900230A480193E7
:1036200001A9039306F028F928B909B05DF804FB55
:10363000FFF790FEE9E7FFF78DFE09B05DF804FBA8
:10364000FFF788FEE9E700BFF80C00200004004007
:1036500000B51B481B4A0260A922002389B04260C2
:1036600042F20F72C0E902328022CDE90433CDE983
:103670000633CDE9013303930361826105F0E8FB72
:1036800090B94FF480530E48049304A905F0FEFD51
:1036900090B900230A48019301A9039306F0ECF8BE
:1036A00028B909B05DF804FBFFF754FEE9E7FFF71E
:1036B00051FE09B05DF804FBFFF74CFEE9E700BFDF
:1036C000A80C00200008004030B50024A5B034222A
:1036D000214617A8504D0694CDE90744CDE903448F
:1036E000CDE91144CDE91344CDE915440294109479
:1036F0000994FCF7B1FF494AAC600523C5E90023F2
:1037000040F2E733EB6028468023C5E90444AB610F
:1037100005F09EFB00284FD14FF480533E4806939E
:1037200006A905F0B3FD002855D13B4805F072FC11
:1037300000284DD100230022CDE902233648002382
:1037400002A9049306F098F800283ED160229FED6C
:10375000307B002310924FF4FA72CDE911232E48EA
:10376000139310A908228DED147B169305F096FF94
:1037700040BB00234FF40050CDE91B304FF00072E6
:103780002548239317A9CDE91733CDE91933CDE99E
:103790001D33CDE91F32CDE9213306F0C7F870B9EA
:1037A0001E4A296800239142CDE90A33CDE90C3342
:1037B0000E9313D025B030BDFFF7CCFDACE7FFF77B
:1037C000C9FDEDE7FFF7C6FDD3E7FFF7C3FDBDE792
:1037D000FFF7C0FDAEE7FFF7BDFDA6E703F18043AD
:1037E00003F504330E48DA6C42F00202DA64DB6C53
:1037F00003F0020301934FF400740A2302250AA97F
:10380000CDE90A45019A0E9301F076FB25B030BD53
:103810000000000000000000580C002000340140AF
:103820000004004800B50368B3F1804F85B018D09C
:103830002C4A93422BD02C4A93423DD02B4A9342A0
:1038400002D005B05DF804FB294B1A6E42F4005219
:103850001A661B6E03F400530393039B05B05DF8D7
:1038600004FB03F504330022986D40F001009865D5
:103870009B6D03F00103009311461C20009B01F097
:1038800029F91C2005B05DF804EB01F05FB9184B75
:10389000986D40F0020098659B6D002203F00203D2
:1038A000019311461D20019B01F014F91D2005B064
:1038B0005DF804EB01F04AB90D4B986D40F004003F
:1038C00098659B6D002203F00403029311461E20AD
:1038D000029B01F0FFF81E2005B05DF804EB01F03B
:1038E00035B900BF0004004000080040003401402A
:1038F0000010024010B51F481F4C00234FF4E13167
:103900000C22C0E90041C0E90233C0E90432C0E939
:103910000633C0E90833836206F01CFD70B9154810
:10392000002106F06FFD88B91248002106F0ACFDB9
:10393000A0B9104806F048FDB8B910BDFFF70AFD60
:103940000C48002106F05EFD0028EDD0FFF702FDD7
:103950000848002106F098FD0028EAD0FFF7FAFC9D
:10396000044806F031FD0028E7D0BDE81040FFF71D
:10397000F1BC00BF300E00200038014010B51F48D8
:103980001F4C00234FF4E1310C22C0E90041C0E993
:103990000233C0E90432C0E90633C0E90833836268
:1039A00006F0D8FC70B91548002106F02BFD88B947
:1039B0001248002106F068FDA0B9104806F004FD89
:1039C000B8B910BDFFF7C6FC0C48002106F01AFD7F
:1039D0000028EDD0FFF7BEFC0848002106F054FD9A
:1039E0000028EAD0FFF7B6FC044806F0EDFC0028FA
:1039F000E7D0BDE81040FFF7ADBC00BF980D002038
:103A0000004800400000000010B504469EB00021B0
:103A1000542209A8CDE90411CDE906110891FCF75B
:103A20001BFE3F4A2368934204D03E4A934233D060
:103A30001EB010BD012309A8099304F071F90028F4
:103A40005BD1394B39481A6E42F480421A661A6EBD
:103A500002F480420092009ADA6C9FED2B7B42F0D8
:103A60000402DA64DB6C8DED047B9FED297B03F0AF
:103A70000403019304A907238DED067B0893019AA3
:103A800001F03AFA00220121252001F023F8252037
:103A900001F05CF81EB010BD042309A8099304F0DE
:103AA0003FF968BB204B22489A6D42F480229A6508
:103AB0009A6D02F480220292029ADA6C9FED167BD4
:103AC00042F00202DA64DB6C8DED047B9FED107B2B
:103AD00003F00203039304A907238DED067B0893EB
:103AE000039A01F009FA00220121272000F0F2FFD9
:103AF000272001F02BF81EB010BDFFF72BFCA0E72C
:103B0000FFF728FCCEE700BF3000000002000000F5
:103B10000000000000000000000C00000200000097
:103B200000380140004800400010024000080048F2
:103B3000000400480D488546FFF70AFD0C480D4972
:103B40000D4A002302E0D458C4500433C4188C42F8
:103B5000F9D30A4A0A4C002301E013600432A2425E
:103B6000FBD3FCF7EBFEFFF793FBFEE70000022020
:103B700000000020AC02002028C90008B00200208C
:103B800098280020FEE7000038B50F4B1B680BB9E2
:103B9000012038BD0D494FF47A720546B2FBF3F3AC
:103BA0000868B0FBF3F000F0DFFF04460028EFD117
:103BB0000F2DEDD8024629464FF0FF3000F08AFF66
:103BC000034B20461D6038BD2C0100202801002039
:103BD0003001002010B5032000F06AFF0F20FFF72E
:103BE000D3FF10B10124204610BD0446FFF748FC66
:103BF000204610BD034A0449136809680B4413604A
:103C0000704700BFC40E00202C010020014B186833
:103C1000704700BFC40E002038B50446FFF7F6FF1A
:103C2000631C054602D0044B1B681C44FFF7EEFFE3
:103C3000401BA042FAD338BD2C01002030B583B020
:103C40000023019300285CD0C56D0446002D00F0D0
:103C5000C180226893689B0005D5936823F02043B8
:103C600023F03F0393609368DD0019D46F4B7048D5
:103C70001B6891689B09A0FB030321F010419B097D
:103C800021F03F0101335B0041F0805191600193CD
:103C9000019B2BB1019B013B0193019B002BF9D1AF
:103CA0009368D80030D4E36D43F01003E365236ECE
:103CB000012003432366936813F0040FE36D1CD1C6
:103CC000D9061AD4E36D23F4817343F00203E3654C
:103CD0009368DB0729D4B2F1A04F17D0554B9A4215
:103CE00014D05549554B89689B680B4354498968E2
:103CF0000B43D90719D4534911E0E36D43F0100386
:103D0000E365012003B030BD0020D4E7494B4FF0FC
:103D1000A04189689B680B43DD0706D44A498B683C
:103D2000656823F47C132B438B60E568E36B94F8A0
:103D300024102B43A5682B43657F012943EA4533B3
:103D400043EA01434CD0E16A21B1256B01F478715B
:103D500029430B43D5683D4929401943D160136974
:103D6000616B23F040630B43136193681B0722D4FC
:103D7000D16894F83830257F21F480415B0021F030
:103D8000020143EA85330B432169D360136900299B
:103D900033D043F480331361D2F8C0306FF30D0396
:103DA0000B43C2F8C03094F84030012B2FD0136978
:103DB00023F0010313616369012B16D0136B23F009
:103DC0000F031363E36D23F0030343F00103E36583
:103DD00003B030BDFEF7B8FE256684F8585038E7CA
:103DE000A16A013943EA4143ADE7116B236A21F02F
:103DF0000F01013B0B431363E4E723F480331361AA
:103E0000D2F8C0306FF30D03C2F8C030CBE71169B0
:103E1000636CA56C6FF38A012B430B43E16C0B437E
:103E2000216D0B4343F001031361C4E72801002017
:103E3000632D3E05000100500004005000050050B5
:103E40000006005000070050000300500740F0FF3C
:103E50000368B3F1A04F2DE9F04105460F4666D047
:103E60004148424A4249834218BF0A46AC699668B3
:103E7000082C06F01F061CD040F22122F240D40785
:103E800013D4B3F1A04F6CD03748384A3849834235
:103E900018BF0A46936813F4604F09D0EB6D43F0E6
:103EA0002003EB650120BDE8F081DB68D807F5D47D
:103EB0000424FFF7ABFE791C2A6880463AD11368C8
:103EC0002342FCD0EB6D43F40073EB65D36813F42D
:103ED000406F0FD16B7F6BB913681B070AD5EB6D71
:103EE00023F48073EB65EB6DDF0403D4EB6D43F0DB
:103EF0000103EB651C4B9A420DD003F580639A4297
:103F00002DD0082CD36810D05B0401D40C2313608F
:103F10000020BDE8F0814FF0A04140F22123F340A2
:103F2000D807EED4082CCB68EED11460F0E70F4A26
:103F30009CE74FB113682342C4D1FFF767FEA0EBA3
:103F40000803BB422A68F4D913682340F2D1EA6D12
:103F500085F8583042F00402EA650320D9E70549A4
:103F6000DBE7024A96E700BF000100500003005063
:103F700000070050000400500368186C704700BF31
:103F8000704700BF704700BF08B5806AFFF7FAFFAF
:103F900008BD00BF704700BF836ADA6D12F0500F92
:103FA00010B5DA6D1DD1196842F40072DA650A683D
:103FB00012F0080FCA681BD012F4406F0DD1CA6806
:103FC00094040AD4DA6D22F48072DA65DA6DD104D1
:103FD00003D4DA6D42F00102DA651846FFF7D0FF2C
:103FE00010BDD2060AD45B6DBDE810405B6B18476C
:103FF0009007E7D51846FFF7C3FFF1E71846FFF72C
:10400000C9FF10BD806A08B5C36D43F04003C365A6
:10401000036E43F004030366FFF7BCFF08BD00BF57
:104020002DE9F04190F8582082B00346012A4FF064
:104030000000019000F01F811A68012083F85800E9
:104040009468640767D448684FEA901E00F01F0C1C
:104050000EF00C0E086802F13004C0F3846054F8CE
:104060000E501F2600FA0CF006FA0CFC25EA0C0C88
:1040700040EA0C0044F80E009068470755D5906858
:1040800008689468E50712D4CE68BD4CD2F8B050E9
:1040900006F01807FC40C0F31207044025EA0705A4
:1040A0002C43C2F8B040B74CA64200F09180B6490C
:1040B00008422ED0B2F1A04F00F0DB80B34DB449DE
:1040C000B44CAA4218BF2146B34C8968A04201F003
:1040D000E07500F0D480B14CA04200F0D080B04C2C
:1040E000A04200F0F580AF4CA04212D1490210D49A
:1040F000A6498A420DD0A64801F5C061B2F1A04F91
:1041000008BF01468A6822F0E0722A4342F4800226
:104110008A60002003E0DA6D42F02002DA650022B6
:1041200083F8582002B0BDE8F0819468086826073B
:10413000A7D48D68C0F304560724C00DB440B5F170
:10414000004F00F004006FEA040400F0358102F132
:104150001407B5403E5834402C433C50506920F081
:1041600000405061D1E904640868D568042E074610
:1041700000F0D980C5F3C1056D0000F0F84704FADE
:1041800005F002F16004884D54F826C00CEA0505DC
:104190003D43284340F0004044F826000D698E69F5
:1041A00054F8250020F08070304344F825000E6953
:1041B0000D7F54F82600A5F10105B5FA85F56D09C6
:1041C00020F0007040EA456044F82600086858E78F
:1041D000002F00F0928090FAA0F4002C00F0F680FE
:1041E000B4FA84F4013404F01F04092C40F2EE8088
:1041F00090FAA0F4002C00F09181B4FA84F4013418
:10420000A40604F0F84490FAA0F5002D00F09D817A
:10421000B5FA85F5013505F01F05012606FA05F505
:104220002C4390FAA0F0002800F08D81B0FA80F0C5
:10423000451C05F01F0503206FF01D0610FB0560EF
:10424000000540F000702043C50D8C6805F00405A2
:1042500002F11406C0F3045004FA00F74FF0070C03
:1042600074590CFA00F024EA0000384370510868D1
:104270001DE7474928E7022002B0BDE8F0810C02A3
:104280003FF547AFB2F1A04F4BD048498A427FF487
:1042900040AF4048464A474C126881689209A4FBE7
:1042A0000242920921F0E0710132294302EB4202FD
:1042B000920041F4000181600192019A002A3FF4CA
:1042C00028AF019A013A0192019A002AF9D120E718
:1042D000C8013FF51EAFB2F1A04F00F01D812B4C7D
:1042E0002B492C48A24218BF01468A6822F0E0728E
:1042F0002A4342F080728A600BE7800E013000F0A2
:104300001F050124800600F0F840AC40092D44EA66
:10431000000405EB45007ED91E38000540F0007012
:1043200091E71B48B6E7146E146EC0F31205C4F390
:104330008464002D71D1C0F38460844200F0A580B4
:10434000546E556E02F16004C5F3846502F1640E8B
:10435000854200F0C580A568A56804F1080CC5F386
:104360008465854200F0A680E568E56804F10C06E6
:10437000C5F38464A04200F0C980384681E600BFDE
:10438000FFFF070000007F40000008800001005090
:104390000003005000070050000021C31000C0902F
:1043A000000052C7000084CB00F0FF03000600505D
:1043B00028010020632D3E0502F1140635582C40DB
:1043C0003450506940F000405061CBE690FAA0F4C0
:1043D000002C00F0AB80B4FA84F40134A40604F09D
:1043E000F84490FAA0F5002D00F09E80B5FA85F50E
:1043F000013505F01F05012606FA05F52C4390FA54
:10440000A0F0002800F08D80B0FA80F0013000F0BC
:104410001F0000EB4000000515E790FAA0F51DB164
:10442000B5FA85F5AC4230D0546E556E02F1600499
:10443000C5F3846502F1640E97FAA7F604F1080C3F
:10444000E046002E7AD0B6FA86F6AE424AD0DCF8C4
:104450000050DCF80050C5F3846597FAA7FE04F11C
:104460000C06B046BEF1000F63D0BEFA8EFEAE451C
:1044700022D034683468C4F3846497FAA7F5002D19
:104480003FF4FFADB5FA85F074E7106E144620F0E6
:10449000004044F8600F0F68506E556EC7F3120667
:1044A00002F1640EC5F384653846002EC4D1C7F30B
:1044B00084604DE704F10C08DCF8000020F00040B7
:1044C000CCF800000F68E068E468C7F312054646C0
:1044D000C4F384643846002DCFD1C7F3846049E724
:1044E00004F10808DEF8000020F00040CEF80000DB
:1044F0000F68A068A568C7F31206C446C5F38465B3
:104500003846002EA9D1C7F384602AE7306820F02E
:10451000004030600868B4E50D49E6E64FF080647D
:1045200071E64FF440108EE6022567E74FF0806495
:1045300057E7E568E468C4F384649EE7A568A56866
:10454000C5F3846589E703487DE6022568E600BF78
:1045500000030050000050FE70B582B000220368D6
:1045600001929A68D20734D499682D4A11420446C0
:1045700032D19A6822F0004222F03F0242F001025A
:10458000B3F1A04F9A6048D02648274A2749834272
:1045900018BF0A4693681B0229D4FFF737FB23682C
:1045A0001A68D607054614D4214E9A68D00704D459
:1045B0009A68324042F001029A60FFF727FB431BE2
:1045C000022B236802D91A68D10705D51A68D207C9
:1045D000EBD5002002B070BDE36D43F01003E3653E
:1045E000236E012043F00103236602B070BD114B1E
:1045F000114A1B689B09A2FB03239B09013303EBB0
:1046000043039B000193019B002BC6D0019B013B00
:104610000193019B002BF9D1BFE7034ABAE700BF22
:104620003F000080000100500003005000070050D0
:10463000C0FFFF7F28010020632D3E050368B3F112
:10464000A04F70B5044652D039483A4A3A4983429D
:1046500018BF0A4696689D6815F0040545D194F880
:104660005830012B41D0012384F858302046FFF701
:1046700073FF00283DD1E36D226823F4706323F0BB
:10468000010343F48073E365294B9A4206F01F0649
:1046900044D003F580639A4245D01146E36D23F47C
:1046A0008013E365E36D13F480531CBF236E23F086
:1046B000060323661C2313608A424FF0000384F82C
:1046C000583019D040F22123F340DD0714D4E36DB4
:1046D00043F48013E365CB689B0105D5E36D23F4B8
:1046E000405343F48053E36570BD022070BD114A0E
:1046F000B0E784F8585070BDD368990105D5E36DD3
:1047000023F4405343F48053E365936823F000435C
:1047100023F03F0343F00403936070BD4FF0A041CA
:10472000002EBFD1BAE70549002EBBD1B6E700BFC6
:10473000000100500003005000070050000400502A
:104740002DE9F0410568B5F1A04F04460E46174625
:1047500067D0394A39483A4B954218BF18468268A3
:10476000AB685B0715D494F85830012B11D0354B4A
:1047700001209D4202F01F0884F858000CD040F23E
:10478000212323FA08F3034006D184F85830BDE80A
:10479000F0810220BDE8F0812046FFF7DDFE002811
:1047A00041D1E36D216823F4706323F0010343F4E6
:1047B0008073E365204B99423AD003F580639942B8
:1047C00036D0E36D23F48013E365E36D606D1E4D19
:1047D00013F480531CBF236E23F006032366C562C7
:1047E0001A4D05631A4D45631C250D60002584F89C
:1047F00058504D6845F010054D60CD6845F00105F5
:104800003B463246CD60403100F05AFA2268936848
:1048100023F0004323F03F0343F004039360BDE81B
:10482000F08106489BE7002384F85830BDE8F0810A
:10483000B8F1000FC9D1C4E70001005000030050D7
:104840000007005000060050993F0008893F00080B
:104850000540000838B503689A68950702D59B683B
:10486000002038BD9A68D407FAD59A6802F00D0284
:10487000012A044609D0E36D43F01003E365236E7B
:1048800043F001032366012038BD9A6822F00042FC
:1048900022F03F02032142F002029A601960FFF702
:1048A000B5F923689B68D907054603D4D8E79B6808
:1048B000DB07D5D5FFF7AAF9401B02282368F6D9F4
:1048C0009A68D207F3D5D6E730B590F8583083B060
:1048D0000022012B01923FD0012380F8583004467A
:1048E0000D46FFF7B7FFE36DE8B923F4885323F0D3
:1048F0000203226843F00203E365936823F0404318
:1049000005F0804123F03F030B4343F000439360E5
:1049100093681349002B0EDBE36D23F0030343F090
:104920000103E36502E043F01003E365002384F82C
:10493000583003B030BD019B01330193019B8B4282
:10494000E6D9E36D23F01203002243F01003E36580
:1049500084F858200120ECE7022003B030BD00BFEE
:1049600001DE040090F85820012A4CD070B402688F
:104970009DB0034600240120B2F1A04F189483F8A3
:10498000580019940BD0444DAA423AD0DA6D83F8FE
:10499000584042F02002DA651DB070BC70473F48B5
:1049A000806840070BD59268DA6D42F02002012042
:1049B000DA65002283F858201DB070BC70479068FB
:1049C0004407F1D4B2F1A04F0D681ED0344A002D37
:1049D00031D191683348304C21F460419160A46832
:1049E000816800F580708068C00708D42143CD0736
:1049F00005D4916821F4716121F00F0191600020CC
:104A0000D7E72848CCE702207047002D33D0264C4A
:104A10004E68A06893F838C020F46040304340EA04
:104A20004C30A0609268D60733D41C4A9268D607EF
:104A3000E5D4224615E090684C6820F4604020439D
:104A400093F8384040EA443090601348174C866829
:104A500000F580708068A468E407D0D43043C007B4
:104A6000CDD49068896820F47160294320F00F004C
:104A700001439160C3E70C49886820F46040886076
:104A80009268D20705D4054A9268D607B7D40A4679
:104A9000AFE7024A9268B2E70004005000010050FC
:104AA00000070050000500500003005000060050B1
:104AB0000749CA6803024FF6FF0003F4E0630240AF
:104AC000134343F0BF6343F40033CB60704700BF30
:104AD00000ED00E01B4BDB68C3F3022300B5C3F11C
:104AE000070EBEF1040F03F1040C28BF4FF0040EB3
:104AF000BCF1060F1CD9A3F1030C4FF0FF3303FAEE
:104B00000CF322EA03024FF0FF3303FA0EF321EA1B
:104B1000030303FA0CF313431B010028DBB20ADB87
:104B200000F1604000F5614080F800335DF804FB5F
:104B300000229446E7E7044A00F00F00024413768F
:104B40005DF804FB00ED00E0FCEC00E0002807DB72
:104B5000044A4109012300F01F00834042F821303C
:104B6000704700BF00E100E00138B0F1807F01D361
:104B70000120704710B44FF0E023074C58614FF00C
:104B8000F00C84F823C00022072110469A615DF8DA
:104B9000044B1961704700BF00ED00E0002876D09B
:104BA000F0B43C4A0468944203465CD93A493B4A13
:104BB0003B482144A2FB01210909890002229D688A
:104BC00083F82520DA68354E364FC3E9100118699D
:104BD0002A4302435869024398690243D869024351
:104BE000E0B20838A6FB0060266826F4FF4C1E6A77
:104BF0002CF0700C324342EA0C022260254E2A4A05
:104C0000C0F30410B44298BF3A4606F27946012434
:104C100004FA00F0DE64B5F5804F01EB020618657A
:104C20009E644FEA910127D05E68F5B2013E032EE3
:104C300042F82150C7F8840024D81C4A1C482A4452
:104C40009200013DAC400021C3E91520DC651160F4
:104C5000184A546400200122D86383F8240083F8A2
:104C60002520F0BC704714490C4A14482144A2FB8B
:104C7000012109098900A1E700245C6042F8214074
:104C8000C7F884000022C3E91522DA65E2E70120B3
:104C9000704700BF07040240F8FBFDBFCDCCCCCC71
:104CA0000004024000080240200802403F82001039
:104CB0004009024000090240F8FFFDBF0000024029
:104CC000F0B490F82440012C09D0012480F824404D
:104CD00090F82540012C05D0002380F824300220D4
:104CE000F0BC7047022480F825400024C4630468A7
:104CF000C66C256825F001052560D0E9147577603C
:104D000015B1D0E916677760466C076C06F01F0C8A
:104D1000012606FA0CF67E6063608368102B036B35
:104D20000BBFA260A160E160E260BBB1236843F009
:104D30000E032360836C1A68D20303D51A6842F409
:104D400080721A601DB12B6843F480732B60236856
:104D500043F0010300202360F0BC7047236823F078
:104D600004032360236843F00A032360E2E700BFE3
:104D700090F82520022A034609D00422C2630121AB
:104D80000022012083F8251083F824207047026850
:104D9000596C30B4846C10681D6C20F00E001060EB
:104DA000206820F480702060106820F001001060FE
:104DB00001F01F0101228A40D3E91441D86C6A60D6
:104DC000446031B10A68D3E9160422F480720A60A3
:104DD00044600121002283F8251083F8242000205C
:104DE00030BC704738B590F82530022B09D001232C
:104DF00004210022C16380F8242080F82530184661
:104E000038BD0368846C1968426C056C21F00E0192
:104E10001960196821F0010119602368C16C23F43D
:104E20008073236002F01F0201239340D0E91442F3
:104E30006B604C6032B11368D0E9161423F48073B0
:104E400013604C60836B0121002280F8251080F8EC
:104E5000242003B19847002038BD00BF70B4436CD4
:104E6000066C056831682C6803F01F0304229A4021
:104E70000A420ED014F0040F0BD02B689B0603D40B
:104E80002B6823F004032B60036B7260CBB170BC02
:104E9000184702229A400A4215D014F0020F12D08D
:104EA0002B68990606D42B6823F00A032B60012394
:104EB00080F82530C36A7260002180F82410002B2E
:104EC000E5D170BC704708229A400A42F9D0220707
:104ED000F7D52A68416B22F00E022A60012202FAFD
:104EE00003F300247360C26380F8244080F8252017
:104EF0000029E6D070BC08470B68002B00F09881B1
:104F00002DE9F04FB0F1904F85B04FF000024FF017
:104F1000010B00F00D81DFF84CE30093009B0BFACE
:104F200002FC1CEA030A77D04D6805F00307540021
:104F3000032307F1FF3803FA04F6B8F1010F6FEA13
:104F4000060640F21981032F40F0798107FA04F434
:104F500007683E40344315F4403F04605CD0BE4EC9
:104F6000346E44F001043466346E04F0010403949A
:104F7000039C22F0030404F1804402F003070F2392
:104F800004F58034BF0003FA07FCB44BA6689842CE
:104F900026EA0C0600F04081B14B984200F02D81CA
:104FA000DFF8C4C2604500F03D81DFF8C0C2604553
:104FB00000F03F81DFF8B8C260450CBF4FF0050C30
:104FC0004FF0060C0CFA07F73E43A660DEF80840E7
:104FD0006FEA0A06EF0254BF34404AEA0404CEF8EE
:104FE0000840DEF80C40AB0254BF34404AEA0404E7
:104FF000CEF80C40DEF80440AF0354BF34404AEA18
:105000000404CEF80440DEF80040EB0354BF344003
:105010004AEA0404CEF80040009B013233FA02F45D
:105020007FF47CAF05B0BDE8F08FD0F80890CE6873
:105030000AEA090906FA07F848EA0908C0F80880E8
:10504000D0F8048028EA0E08C5F3001E0EFA02FE0E
:105050004EEA080EC0F804E0D0F80C808E680AEA28
:10506000080806FA07FE4EEA080E022CC0F80CE00B
:1050700019D14FEAD20E0E694FEA8E0E02F00708E0
:105080000EF1904E4FEA880806FA08F6DEF82090F6
:1050900000960F2606FA08F8009E29EA080946EA53
:1050A0000908CEF82080BC40076807EA0A073C439D
:1050B00015F4403F046036D0674F3C6E44F0010465
:1050C0003C663C6E04F001040394039C22F003044C
:1050D00004F1804404F5803402F00307D4F808E0BA
:1050E0000F26BF0006FA07F72EEA0707A7605D4CF8
:1050F000EE02A4686FEA0C077CD43C40594EB460C1
:10510000F468AE0200F185803C40564EF46074684D
:10511000AE037BD43C40534EED037460346872D4CC
:105120003C40504D2C60013233FA02F43FF47AAF28
:105130000BFA02FE13EA0E0CF5D04D685700032659
:1051400006FA07F805F003046FEA080A04F1FF38CD
:10515000B8F1010F7FF669AF032CA4D04FF090484F
:105160008E68D8F80C9006FA07FE0AEA09094EEA9A
:10517000090EC8F80CE096E7D0F80890CB6809EA69
:10518000060903FA04F848EA0908C0F80880D0F8CC
:1051900004808B6828EA0C08C5F3001C0CFA02FC9A
:1051A0004CEA080CC0F804C0D0F80C8003FA04FCE8
:1051B00008EA06084CEA080C022FC0F80CC07FF47D
:1051C000C5AE0B694FEAD20802F0070C00EB880865
:1051D0004FEA8C0C03FA0CF3D8F8209001930F23BC
:1051E00003FA0CFC019B29EA0C0943EA090CC8F8F4
:1051F00020C0ABE644EA0C0480E74FF0020C0CFA46
:1052000007F73E43E1E64CEA04048AE744EA0C046B
:1052100081E74CEA040478E74FF0010C0CFA07F739
:105220003E43D2E64FF0030C0CFA07F73E43CCE6C0
:1052300070474FF0040C0CFA07F73E43C5E6D0F870
:105240000C808B6808EA060803FA04FC4CEA080C98
:10525000C0F80CC07AE600BF00100240000400480D
:105260000008004800040140000C004800100048FD
:10527000001400480AB1816170478162704700BF25
:10528000436901EA030221EA030141EA0241816123
:10529000704700BF002866D010B582680023022145
:1052A000D207C0E93833C0E93A33C0E93C3382B0B1
:1052B000044680F8DD10C0F8F8300FD50168314B96
:1052C000994252D0D4E904030A6800F4404022F421
:1052D0007042024303F4405313430B602046FDF732
:1052E000A1FDA3689B0708D52168E3680A6803F459
:1052F000407322F4407213430B60002301221846CE
:10530000C4E90633C4E90833C4E90C33C4E90E33F5
:10531000C4E91033C4E91333C4E91533C4E91733BE
:10532000C4E91A33C4E91C33C4E91E33C4E9213388
:10533000C4E92333C4E9253384F8DD2084F8DC3064
:10534000A362C4F8A030C4E92933C4E92B33C4E90B
:105350002F33C4E93133C4E93333C4F8B430C4F86B
:10536000D83002B010BD0120704703F528431A6EF3
:1053700042F080621A661B6E03F080630193019B0A
:10538000A0E700BF0068014090F8DC30012B30D06E
:105390000223012280F8DD30036880F8DC20B1F1BF
:1053A000FF3FD3F8CC2315D042F00202C3F8CC2340
:1053B000D3F8CC2322F00C020A43C3F8CC23D3F851
:1053C000CC2342F00102C3F8CC23012380F8DD3066
:1053D0000020704722F00202C3F8CC23D3F8CC237C
:1053E00042F00102C3F8CC23012380F8DD30002015
:1053F00070470220704700BF70B50D460446FEF7A7
:1054000005FC6E1C0BD12268D2F88833D903FBD57A
:105410000020012384F8DD3084F8DC0070BD0646EE
:105420002368D3F88833DB03F2D4FEF7EFFB831B4A
:10543000AB4201D8002DF3D1072384F8DD300320DF
:1054400070BD00BF90F8DDC0BCF1020F2CD0034648
:105450000220F0B4062983F8DD00D2E90276D2E911
:105460000045186815D000EBC111D1F8802022F05A
:1054700007023A4322F018023243C1F88020C1F8F3
:105480009440C1F89850012283F8DD200020F0BC40
:105490007047026822F007023A4322F018023243B2
:1054A000026044618561EEE75FFA8CF0704700BFEF
:1054B00090F8DDC0BCF1020F03465FFA8CF000F0FB
:1054C000CD8093F8DC00012800F0C98030B50124BC
:1054D00083F8DC401868022483F8DD402029D0F8E6
:1054E0008053D0F8FC431AD8002900F0E78001F17E
:1054F000FF3CBCF11F0F00F2D380DFE80CF0A0905E
:10550000D17FD1D1D16DD1D1D1D1D1D1D162D1D1B0
:10551000D1D1D1D1D1D1D1D1D1D1D1D1D152B1F5F6
:10552000807F00F0AE8028D8402900F09A80802942
:1055300040F0DA80D2E90012090901F4E04124F4D4
:10554000E0440C43D0F8F813120402F4F81221F4EA
:10555000F811C0F8F813D0F8F8130A43C0F8F8238C
:1055600093F8DD20072A58D0C0F8FC430020012220
:1055700083F8DD2083F8DC0030BDB1F5007F40F01A
:10558000A780D2E90012090101F4E00124F4E0044B
:105590000C43D0F8F813920602F0F84221F0F841DB
:1055A000D7E7D2E90012090B01F0700124F0700472
:1055B0000C43D0F8F813520102F4787221F4787198
:1055C000C7E75188526861F30204D0F8F81302F07B
:1055D0001F0221F01F01BCE7D2E90012C0F8C82366
:1055E00093F8DD404A0225F0606502F06062072C06
:1055F00045EA020511D0C0F88053B7E7D2E900129E
:10560000C0F8C42393F8DD408A0125F0E07502F06C
:10561000E072072C45EA0205EDD1012030BDD2E948
:105620000012C0F8C02393F8DD40CA0025F46015CD
:1056300002F46012072C45EA0205DCD1EDE7D2E95D
:105640000012C0F8BC2393F8DD4025F4E02501F4F6
:10565000E022072C45EA0205CDD1DEE770470220A3
:105660007047D2E90012090A01F4E06124F4E06411
:105670000C43D0F8F813920202F4F84221F4F841F6
:1056800067E7D2E9001224F4E02401F4E0210C439E
:10569000D0F8F813520502F0787221F0787158E7CB
:1056A000072283F8DD2093F8DD204FF0000C072A55
:1056B00083F8DCC0B1D00F299DD955E7072283F8C4
:1056C000DD2093F8DD2083F8DC10072A93D1A4E7CE
:1056D000072283F8DD2093F8DD200021072A83F8D4
:1056E000DC107FF441AF98E7072283F8DD2093F8C0
:1056F000DD200021072A83F8DC108ED034E700BFBC
:1057000090F8DDC0BCF1020F03465FFA8CF023D0A5
:1057100093F8DC0001287CD04FF0010C02202029F6
:1057200083F8DCC083F8DD0017D831B301391F29B5
:1057300023D8DFE801F0564E22462222223E2222C2
:1057400022222222226622222222222222222222F5
:1057500022222222225E01207047B1F5807F5AD09A
:105760001CD840295FD0802907D11868D0F80414CC
:1057700062F31031C0F8041405E00721002283F819
:10578000DD1083F8DC2093F8DD20072AE3D0002029
:10579000012283F8DD2083F8DC007047B1F5007F3B
:1057A000EBD11868D0F8041462F31C61C0F804143B
:1057B000E9E71868D0F8001462F39641C0F80014C5
:1057C000E1E71868D0F8001462F31031C0F8001453
:1057D000D9E71868D0F8001462F38A11C0F80014F1
:1057E000D1E71868D0F8001462F30401C0F800147F
:1057F000C9E71868D0F8041462F30401C0F804146F
:10580000C1E71868D0F8001462F31C61C0F80014F6
:10581000B9E7022070471868D0F8041462F3964183
:10582000C0F80414AFE71868D0F8041462F38A11C2
:10583000C0F80414A7E700BF90F8DD30022B8446BF
:10584000D8B200F06B819CF8DC30012B00F067814E
:105850002DE9F04F012002238CF8DC008CF8DD30BC
:105860000629DCF80000556983B000F0C68000EB23
:10587000C11E202DDEF8803023F07043CEF880303A
:10588000DEF88030DEF8E880DEF8E460D0F8A0438F
:1058900023F020094FEAC11749EA05090ED09369A0
:1058A000022B0BD0032B00F03481042B06BF29F010
:1058B000800949F4807929F4D07903E029F4C0798A
:1058C00049F02009D369956D29F4006949EA030973
:1058D000136A29F4806949EA0309536A29F0C06907
:1058E00049EA0309936A29F0006949EA0309D36A7E
:1058F000019329F0704949EA0309536B29F40039EF
:10590000B3F1005F08BF49F4003926F4807A966B42
:1059100029F04003334323F480232B43D56B23F03A
:10592000FC7365F30508156D23F4803328F00049F6
:105930002B43D2F84880156C28F4805B49EA0509AE
:10594000556CBBF5606F4AEA050A53D02AF4F05A49
:1059500048EA0A0AD56C2AF4804A4AEA0508D2F8CD
:1059600054A0052909D8DFE801F0CEC8C2BC03B6AF
:10597000166B24F4001444EA46140744CEF8803031
:10598000C7F8E890C1EBC103C7F8E480C7F8D4A01A
:10599000C0F8A043D2E901A9D2E903479B00203314
:1059A00015684CF803500CEB0306C6E901A9C6E9DB
:1059B000034705290AD8DFE801F003847D766F6884
:1059C000D0F8843343F00203C0F88433019B43B919
:1059D000DEF88030D26D23F4007343EA4223CEF820
:1059E0008030002001238CF8DD308CF8DC0003B01F
:1059F000BDE8F08F402EADD1A8E70468D0F8A01321
:105A000024F020042C43202D24F0C00360D095699D
:105A1000022D5DD0032D00F08480042D0CBF43F0D7
:105A2000800324F0E003D46923F400632343146A61
:105A300023F480632343546A23F0C0632343946AAE
:105A400023F000632343D46A23F0404343EA8403F2
:105A5000546B23F000532343146B036021F4803113
:105A60002143C0F8A013D2E90213D2E9005412690D
:105A7000CCF8D820CCE93254CCE93413D0F88433B4
:105A800043F00103C0F88433ABE7D0F8843343F02C
:105A90004003C0F8843399E7D0F8843343F02003FF
:105AA000C0F8843392E7D0F8843343F01003C0F891
:105AB00084338BE7D0F8843343F00803C0F8843391
:105AC00084E7D0F8843343F00403C0F884337DE7DF
:105AD00043F02003A7E7166B24F4800444EA8614FD
:105AE0004BE7166B24F4801444EA061445E7166B62
:105AF00024F4002444EAC6043FE7166B24F480240F
