:020000040800F2
:1000000000000220A5500008614900086549000869
:10001000694900086D4900087149000800000000A6
:10002000000000000000000000000000754900080A
:1000300079490008000000007D4900088149000856
:10004000F5500008F5500008F5500008F55000087C
:10005000F5500008F5500008F5500008F55000086C
:10006000F5500008F5500008F550000885490008D3
:10007000914900089D490008F5500008F550000816
:10008000F5500008F5500008F5500008F55000083C
:10009000A9490008F5500008F5500008F55000087F
:1000A000F5500008B5490008C1490008F55000089E
:1000B000CD490008D9490008E5490008F550000875
:1000C000F5500008F5500008F5500008F5500008FC
:1000D000F5500008F5500008F5500008F5500008EC
:1000E000F5500008F5500008F5500008F5500008DC
:1000F000F5500008F5500008F5500008F5500008CC
:10010000F5500008F5500008F5500008F5500008BB
:10011000F5500008F5500008F5500008F5500008AB
:10012000F5500008F5500008F5500008F55000089B
:10013000F5500008F5500008F5500008F55000088B
:10014000F5500008F5500008F5500008F55000087B
:10015000F1490008F5500008F5500008F550000876
:10016000F5500008094A0008F5500008F55000084D
:10017000F5500008F5500008F5500008F55000084B
:10018000F5500008F5500008F5500008F55000083B
:10019000F550000800000000F5500008F550000878
:1001A000F5500008F5500008F5500008F55000081B
:1001B000F5500008F5500008F5500008F55000080B
:1001C000F5500008F5500008F5500008F5500008FB
:0801D000F5500008F55000088D
:100200000348044B834202D0034B03B118477047A5
:10021000CC020020CC020020000000000548064B64
:100220001B1AD90F01EBA301491002D0034B03B1F4
:1002300018477047CC020020CC02002000000000CC
:1002400010B5064C237843B9FFF7DAFF044B13B11E
:100250000448AFF300800123237010BDD0020020BA
:1002600000000000A8CB000808B5044B1BB10449EE
:100270000448AFF30080BDE80840CFE7000000006D
:10028000D4020020A8CB000881F0004102E000BFAA
:1002900083F0004330B54FEA41044FEA430594EA46
:1002A000050F08BF90EA020F1FBF54EA000C55EA81
:1002B000020C7FEA645C7FEA655C00F0E2804FEA52
:1002C0005454D4EB5555B8BF6D420CDD2C4480EA34
:1002D000020281EA030382EA000083EA010180EA64
:1002E000020281EA0303362D88BF30BD11F0004FB2
:1002F0004FEA01314FF4801C4CEA113102D04042E8
:1003000061EB410113F0004F4FEA03334CEA133322
:1003100002D0524263EB430394EA050F00F0A7803A
:10032000A4F10104D5F1200E0DDB02FA0EFC22FA35
:1003300005F2801841F1000103FA0EF2801843FA29
:1003400005F359410EE0A5F120050EF1200E012A1A
:1003500003FA0EFC28BF4CF0020C43FA05F3C01858
:1003600051EBE37101F0004507D54FF0000EDCF1D1
:10037000000C7EEB00006EEB0101B1F5801F1BD37A
:10038000B1F5001F0CD349085FEA30004FEA3C0C7E
:1003900004F101044FEA445212F5800F80F09A8074
:1003A000BCF1004F08BF5FEA500C50F1000041EB78
:1003B000045141EA050130BD5FEA4C0C404141EB7C
:1003C0000101013C28BFB1F5801FE9D291F0000F77
:1003D00004BF01460020B1FA81F308BF2033A3F126
:1003E0000B03B3F120020CDA0C3208DD02F1140C1D
:1003F000C2F10C0201FA0CF021FA02F10CE002F158
:100400001402D8BFC2F1200C01FA02F120FA0CFC50
:10041000DCBF41EA0C019040E41AA2BF01EB045199
:10042000294330BD6FEA04041F3C1CDA0C340EDC97
:1004300004F11404C4F1200220FA04F001FA02F3DA
:1004400040EA030021FA04F345EA030130BDC4F198
:100450000C04C4F1200220FA02F001FA04F340EA8D
:100460000300294630BD21FA04F0294630BD94F03E
:10047000000F83F4801306BF81F480110134013D25
:100480004EE77FEA645C18BF7FEA655C29D094EA96
:10049000050F08BF90EA020F05D054EA000C04BF14
:1004A0001946104630BD91EA030F1EBF00210020FF
:1004B00030BD5FEA545C05D14000494128BF41F09E
:1004C000004130BD14F580043CBF01F5801130BD02
:1004D00001F0004545F0FE4141F470014FF000008D
:1004E00030BD7FEA645C1ABF194610467FEA655C3E
:1004F0001CBF0B46024650EA013406BF52EA0335E0
:1005000091EA030F41F4002130BD00BF90F0000FCD
:1005100004BF0021704730B54FF4806404F1320409
:100520004FF000054FF0000150E700BF90F0000FC2
:1005300004BF0021704730B54FF4806404F13204E9
:1005400010F0004548BF40424FF000013EE700BFB9
:1005500042004FEAE2014FEA31014FEA02701FBF49
:1005600012F07F4393F07F4F81F06051704732F07B
:100570007F4208BF704793F07F4F04BF41F40021D2
:10058000704730B54FF4607401F0004521F0004130
:100590001CE700BF50EA010208BF704730B54FF0BA
:1005A00000050AE050EA010208BF704730B511F0BB
:1005B000004502D5404261EB41014FF4806404F1F3
:1005C00032045FEA915C3FF4D8AE4FF003025FEA79
:1005D000DC0C18BF03325FEADC0C18BF033202EBFD
:1005E000DC02C2F1200300FA03FC20FA02F001FA57
:1005F00003FE40EA0E0021FA02F11444BDE600BFFA
:1006000070B54FF0FF0C4CF4E06C1CEA11541DBFA8
:100610001CEA135594EA0C0F95EA0C0F00F0DEF873
:100620002C4481EA030621EA4C5123EA4C5350EA58
:10063000013518BF52EA033541F4801143F48013A9
:1006400038D0A0FB02CE4FF00005E1FB02E506F03A
:100650000042E0FB03E54FF00006E1FB03569CF08F
:10066000000F18BF4EF0010EA4F1FF04B6F5007F95
:1006700064F5407404D25FEA4E0E6D4146EB060607
:1006800042EAC62141EA55514FEAC52040EA5E5090
:100690004FEACE2EB4F1FD0C88BFBCF5E06F1ED83A
:1006A000BEF1004F08BF5FEA500E50F1000041EB71
:1006B000045170BD06F0004646EA010140EA02001E
:1006C00081EA0301B4EB5C04C2BFD4EB0C0541EA40
:1006D000045170BD41F480114FF0000E013C00F355
:1006E000AB8014F1360FDEBF002001F0004170BD79
:1006F000C4F10004203C35DA0C341BDC04F1140492
:10070000C4F1200500FA05F320FA04F001FA05F21D
:1007100040EA020001F0004221F0004110EBD370EA
:1007200021FA04F642EB06015EEA430E08BF20EA16
:10073000D37070BDC4F10C04C4F1200500FA04F3B9
:1007400020FA05F001FA04F240EA020001F000414B
:1007500010EBD37041F100015EEA430E08BF20EABE
:10076000D37070BDC4F1200500FA05F24EEA020E06
:1007700020FA04F301FA05F243EA020321FA04F035
:1007800001F0004121FA04F220EA020000EBD370EC
:100790005EEA430E08BF20EAD37070BD94F0000FEC
:1007A0000FD101F00046400041EB010111F4801F20
:1007B00008BF013CF7D041EA060195F0000F18BFD1
:1007C000704703F00046520043EB030313F4801F0D
:1007D00008BF013DF7D043EA0603704794EA0C0FC7
:1007E0000CEA135518BF95EA0C0F0CD050EA4106DD
:1007F00018BF52EA4306D1D181EA030101F000415A
:100800004FF0000070BD50EA410606BF1046194681
:1008100052EA430619D094EA0C0F02D150EA01368D
:1008200013D195EA0C0F05D152EA03361CBF1046CE
:1008300019460AD181EA030101F0004141F0FE416D
:1008400041F470014FF0000070BD41F0FE4141F4F1
:10085000780170BD70B54FF0FF0C4CF4E06C1CEAF1
:1008600011541DBF1CEA135594EA0C0F95EA0C0FA6
:1008700000F0A7F8A4EB050481EA030E52EA033561
:100880004FEA013100F088804FEA03334FF0805582
:1008900045EA131343EA12634FEA022245EA1115AF
:1008A00045EA10654FEA00260EF000419D4208BF60
:1008B000964244F1FD0404F5407402D25B084FEA0D
:1008C0003202B61A65EB03055B084FEA32024FF4B9
:1008D00080104FF4002CB6EB020E75EB030E22BF16
:1008E000B61A754640EA0C005B084FEA3202B6EBD6
:1008F000020E75EB030E22BFB61A754640EA5C0085
:100900005B084FEA3202B6EB020E75EB030E22BF14
:10091000B61A754640EA9C005B084FEA3202B6EB15
:10092000020E75EB030E22BFB61A754640EADC00D4
:1009300055EA060E18D04FEA051545EA16754FEA36
:1009400006164FEAC30343EA52734FEAC2025FEA54
:100950001C1CC0D111F4801F0BD141EA00014FF0E3
:1009600000004FF0004CB6E711F4801F04BF0143B4
:100970000020B4F1FD0C88BFBCF5E06F3FF6AFAED0
:10098000B5EB030C04BFB6EB020C5FEA500C50F160
:10099000000041EB045170BD0EF0004E4EEA1131E3
:1009A00014EB5C04C2BFD4EB0C0541EA045170BDEA
:1009B00041F480114FF0000E013C90E645EA060E2E
:1009C0008DE60CEA135594EA0C0F08BF95EA0C0F5C
:1009D0003FF43BAF94EA0C0F0AD150EA01347FF4A4
:1009E00034AF95EA0C0F7FF425AF104619462CE77B
:1009F00095EA0C0F06D152EA03353FF4FDAE1046DE
:100A0000194622E750EA410618BF52EA43067FF42E
:100A1000C5AE50EA41047FF40DAF52EA43057FF4BE
:100A2000EBAE12E74FEA4102B2F1E04324BFB3F567
:100A3000001CDCF1FE5C0DD901F0004C4FEAC00255
:100A40004CEA5070B2F1004F40EB830008BF20F039
:100A50000100704711F0804F21D113F13872BCBFF3
:100A600001F00040704741F480114FEA5252C2F148
:100A70001802C2F1200C10FA0CF320FA02F018BF91
:100A800040F001004FEAC1234FEAD32303FA0CFCE4
:100A900040EA0C0023FA02F34FEA4303CCE77FEA73
:100AA000625307D150EA01331EBF4FF0FE4040F4BD
:100AB0004000704701F0004040F0FE4040F400006C
:100AC000704700BF53B94AB9002908BF00281CBFAE
:100AD0004FF0FF314FF0FF3000F06AB9ADF1080C74
:100AE0006DE904CE00F006F8DDF804E0DDE902234C
:100AF00004B070472DE9F047089D0E4604460F46A6
:100B0000002B4AD194468C45B2FA82F260D942B1A8
:100B1000C2F12003974020FA03F30CFA02FC1F43B2
:100B200094404FEA1C4E1FFA8CF6B7FBFEF1230CE3
:100B30000EFB117743EA074301FB06F098420AD9FE
:100B40001CEB030301F1FF3780F01581984240F25E
:100B50001281023963441B1AA4B2B3FBFEF00EFBF0
:100B6000103344EA034400FB06F6A6420AD91CEB04
:100B7000040400F1FF3380F00081A64240F2FD80C2
:100B80006444023840EA0140A41B00211DB1D44056
:100B90000023C5E90043BDE8F0878B4205D90DB1BC
:100BA000C5E9000100210846F5E7B3FA83F1002901
:100BB00046D1B34202D3824200F2F580841A66EB3A
:100BC000030201201746002DE5D0C5E90047E2E702
:100BD000002A40F09380A1EB0C034FEA1C471FFA58
:100BE0008CFE0121B3FBF7F607FB1630230C43EA1A
:100BF00000430EFB06F0984208D91CEB030306F1F4
:100C0000FF3802D2984200F2D08046461B1AA4B2A6
:100C1000B3FBF7F007FB103344EA03440EFB00FE7E
:100C2000A64508D91CEB040400F1FF3302D2A64507
:100C300000F2B6801846A4EB0E0440EA0640A5E791
:100C4000C1F120078B4022FA07FC4CEA030C06FA9C
:100C500001FE20FA07F426FA07F344EA0E0400FA2C
:100C600001F84FEA1C404FEA1449B3FBF0FE1FFAAB
:100C70008CF600FB1E3349EA03430EFB06F9994547
:100C800002FA01F20BD91CEB03030EF1FF3A80F0DC
:100C90008580994540F28280AEF1020E6344A3EB59
:100CA0000909A4B2B9FBF0F300FB139944EA094423
:100CB00003FB06F6A64208D91CEB040403F1FF303F
:100CC00068D2A64266D9023B644443EA0E40A41BA4
:100CD000A0FB02E6B4427346B14652D34FD05DB199
:100CE000B8EB030264EB090404FA07F722FA01F3F4
:100CF0001F43CC40C5E9007400214CE7C2F120013C
:100D000020FA01F30CFA02FC26FA01F19640334373
:100D10004FEA1C471FFA8CFEB1FBF7F007FB1016D9
:100D2000190C41EA064100FB0EF68E4204FA02F469
:100D300008D91CEB010100F1FF382DD28E422BD9CE
:100D400002386144891B9BB2B1FBF7F607FB161111
:100D500043EA014306FB0EF1994208D91CEB030359
:100D600006F1FF3814D2994212D9023E63445B1A4D
:100D700046EA004136E73946EDE6184602E7F04517
:100D8000ADD2BEEB020366EB0C060138B146A6E716
:100D90004646ECE7034698E74046D3E7D6467EE76B
:100DA0006444023847E708460DE7023E63442DE7F6
:100DB000704700BF000000000000000000000000BD
:100DC00030B490F800F020F007016FF0000C10F044
:100DD000070491F820F040F048804FF000046FF0D5
:100DE0000700D1E9002391F840F000F1080082FAF1
:100DF0004CF2A4FA8CF283FA4CF3A2FA8CF34BBBBC
:100E0000D1E9022382FA4CF200F10800A4FA8CF234
:100E100083FA4CF3A2FA8CF3E3B9D1E9042382FA02
:100E20004CF200F10800A4FA8CF283FA4CF3A2FA17
:100E30008CF37BB9D1E9062301F1200182FA4CF24F
:100E400000F10800A4FA8CF283FA4CF3A2FA8CF3B6
:100E5000002BC6D0002A04BF04301A4612BAB2FAD8
:100E600082F200EBD20030BC7047D1E9002304F0DD
:100E70000305C4F100004FEAC50514F0040F91F812
:100E800040F00CFA05F562EA05021CBF63EA0503AF
:100E900062464FF00004AAE7830730B547D0541EDE
:100EA000002A3ED0CAB2034601E0013C39D303F820
:100EB000012B9D07F9D1032C2CD9CDB205EB0525CB
:100EC0000F2C05EB054535D9A4F1100222F00F0CCB
:100ED00003F1100EE6444FEA121C1A46C2E900550F
:100EE000C2E9025510327245F8D10CF1010214F03A
:100EF0000C0F03EB021204F00F0C13D0ACF104033F
:100F000023F003030433134442F8045B9342FBD100
:100F10000CF003042CB1C9B21C4403F8011BA3421A
:100F2000FBD130BD64461346002CF4D1F9E70346EB
:100F30001446C0E71A46A446E0E700BF844641EAEB
:100F4000000313F003036DD1403A41D351F8043B41
:100F500040F8043B51F8043B40F8043B51F8043B93
:100F600040F8043B51F8043B40F8043B51F8043B83
:100F700040F8043B51F8043B40F8043B51F8043B73
:100F800040F8043B51F8043B40F8043B51F8043B63
:100F900040F8043B51F8043B40F8043B51F8043B53
:100FA00040F8043B51F8043B40F8043B51F8043B43
:100FB00040F8043B51F8043B40F8043B51F8043B33
:100FC00040F8043B51F8043B40F8043B403ABDD2A2
:100FD000303211D351F8043B40F8043B51F8043B44
:100FE00040F8043B51F8043B40F8043B51F8043B03
:100FF00040F8043B103AEDD20C3205D351F8043BD3
:1010000040F8043B043AF9D2043208D0D2071CBF9E
:1010100011F8013B00F8013B01D30B8803806046C7
:10102000704700BF082A13D38B078DD010F003033D
:101030008AD0C3F10403D21ADB071CBF11F8013BAD
:1010400000F8013B80D331F8023B20F8023B7BE7FC
:10105000043AD9D3013A11F8013B00F8013BF9D227
:101060000B7803704B7843708B78837060467047C1
:1010700070B50F4B0F4DAB42A3EB050607D0B61072
:10108000002455F8043B01349847A642F9D80BF0E8
:101090008BFD094D094B5E1BAB424FEAA60606D0FD
:1010A000002455F8043B01349847A642F9D870BD96
:1010B000FCD40008FCD40008FCD4000804D50008C7
:1010C000002301461A46184600F014B838B5074DFB
:1010D000074C2C1BA41005D0013C55F8043D984743
:1010E000002CF9D1BDE838400BF064BD08D50008EC
:1010F00004D5000870B4164D2C681CB365681F2D0C
:1011000023DC38B9AB1C0135656044F8231000209E
:1011100070BC704704EB850C0228CCF88820D4F80A
:1011200088614FF0010202FA05F246EA0206C4F8AD
:101130008861CCF80831E5D1D4F88C311343C4F878
:101140008C31DFE7034C2C60D8E74FF0FF30DFE74E
:10115000EC020020F0020020014B1868704700BF2D
:10116000000000200000000038B52DED028B55EC8A
:10117000104B00F03DF822462B4620462946B0EEA3
:10118000408AF0EE608A00F09FFA98B900220023AE
:101190002046294600F08EFA60B90022002320463E
:1011A000294600F05FFA60B1FFF7D6FF9FED0C8B88
:1011B00022230360B0EE480AF0EE680ABDEC028B11
:1011C00038BDFFF7C9FFBDEC028B034621221A6030
:1011D0000548BDE8384000F0E7B900BFAFF3008034
:1011E000000000000000F0FFE0D400080000000054
:1011F0002DE9F04F51EC100BB1F5801F87B00D4673
:1012000080F2828021F000430343024600F02281F5
:101210000029C0F26981DA4B0022FFF7F1F9D94BBE
:101220000D469D426FF0350273DC2C15C5F3130596
:1012300005F51523A4F2FF3403F66473144403F494
:10124000801304EB135483F07F5383F4401343EA79
:1012500005010022CC4BFFF71BF8AB1CC3F31303B3
:10126000022B82468B464FF000025BDC002300F02D
:10127000F9F9002840F0F980ADA3D3E900235046E6
:101280005946FFF7BDF902460B460020BF49FEF75D
:10129000FFFF524606460F465B4650465946FFF74B
:1012A000AFF902460B4630463946FFF7A9F9064624
:1012B0000F46002C00F00D812046FFF737F99EA362
:1012C000D3E9002380468946FFF79AF99CA3D3E926
:1012D000002304460D4640464946FFF791F9024671
:1012E0000B4630463946FEF7D3FF52465B46FEF7C3
:1012F000CFFF02460B4620462946FEF7C9FF41ECC8
:10130000100B07B0BDE8F08F9E4B9D424FF00002DE
:101310008BDD02460B46FEF7BDFF41EC100B07B01C
:10132000BDE8F08F4FF08043FEF7B4FF02460B4656
:1013300050465946FFF78EFA064620460F46FFF7FD
:10134000F5F83246CDE904013B4630463946CDE951
:101350000267FFF755F902460B46CDE90023FFF778
:101360004FF979A3D3E9002306460F46FFF748F962
:1013700077A3D3E90023FEF78DFF32463B46FFF704
:101380003FF975A3D3E90023FEF784FF32463B46BD
:10139000FFF736F972A3D3E90023FEF77BFFDDE9FF
:1013A0000023FFF72DF970A3D3E90023CDE9000155
:1013B00030463946FFF724F96DA3D3E90023FEF741
:1013C00069FF32463B46FFF71BF96BA3D3E90023C5
:1013D000FEF760FF32463B46FFF712F9A5F5C2283B
:1013E00002460B46C5F5D725DDE90001FEF752FFA1
:1013F000A8F27A48513545EA0805002D06460F4601
:1014000052DD624B002250465946FFF7F9F852462A
:101410005B46FFF7F5F88046894630463946424636
:101420004B46FEF737FFDDE90223FFF7E9F80646F2
:101430000F46002C62D102460B4640464946FEF755
:1014400027FF02460B4650465946FEF721FF41EC66
:10145000100B64E7002200234D490020FFF7FAF942
:1014600041EC100B07B0BDE8F08F002C00F092802B
:101470002046FFF75BF830A3D3E9002306460F466A
:10148000FFF7BEF82EA3D3E9002304460D463046ED
:101490003946FFF7B5F802460B4620462946FEF7C7
:1014A000F9FE41EC100B3AE702460B46504659460E
:1014B000FEF7EEFEDDE90223FFF7A2F806460F462F
:1014C0003CB1DDE904891CA3D3E900234046494629
:1014D000FAE632463B4650465946FEF7D9FE41EC05
:1014E000100B07B0BDE8F08F0B46FEF7D1FE0022CF
:1014F0000023FFF7AFF941EC100B10E70EA3D3E97F
:101500000023DDE90401FFF77BF80DA3D3E90023F5
:1015100004460D46DDE90401FFF772F832463B460A
:10152000FEF7B8FE02460B4640464946DBE600BFE2
:10153000555555555555D53F0000E0FE422EE63F26
:10154000763C7935EF39EA3D44523EDF12F1C23F35
:10155000DE03CB966446C73F599322942449D23F79
:10156000935555555555E53F9FC678D0099AC33FC9
:10157000AF788E1DC571CC3F04FA97999999D93FE0
:1015800000005043FFFFEF7F0000F03F0000E03F0E
:10159000000050C39FED020BC1E600BFAFF3008017
:1015A00000000000000000009FED010B704700BF2D
:1015B000000000000000F87F4FF0FF3C06E000BF95
:1015C0004FF0010C02E000BF4FF0010C4DF804CDCC
:1015D0004FEA410C7FEA6C5C4FEA430C18BF7FEA8C
:1015E0006C5C1BD001B050EA410C0CBF52EA430CBA
:1015F00091EA030F02BF90EA020F0020704710F13A
:10160000000F91EA030F58BF994208BF90422CBFC8
:10161000D8176FEAE37040F0010070474FEA410CC1
:101620007FEA6C5C02D150EA013C07D14FEA430CDF
:101630007FEA6C5CD6D152EA033CD3D05DF8040B50
:10164000704700BF8446104662468C461946634682
:1016500000E000BF01B5FFF7B7FF002848BF10F159
:10166000000F01BD4DF808EDFFF7F4FF0CBF01209E
:1016700000205DF808FB00BF4DF808EDFFF7EAFF1A
:1016800034BF012000205DF808FB00BF4DF808EDD5
:10169000FFF7E0FF94BF012000205DF808FB00BFCA
:1016A0004DF808EDFFF7CEFF94BF012000205DF854
:1016B00008FB00BF4DF808EDFFF7C4FF34BF012061
:1016C00000205DF808FB00BF4FEA410C7FEA6C5C2C
:1016D00002D150EA013C0AD14FEA430C7FEA6C5C2C
:1016E00002D152EA033C02D14FF0000070474FF0A4
:1016F0000100704707EE900A9FED030AF8EE677A43
:1017000027EE800A704700BFF96BB23B07EE100A64
:101710009FED0A6ADFED0A7ADFED0A6A9FED0A0A99
:10172000B8EE477AE7EE467A67EEA67AF4EEC07A2C
:10173000F1EE10FAA8BFB0EE670A70476840D339DF
:101740003333D33FFFFFC74000000000DFED097ACD
:101750009FED097AB4EEE70AF1EE10FAB8BFB0EEE9
:10176000670AF6EE007AE0EE077AFCEEE77A17EE0B
:10177000900A7047000000009DA737439FED0A7A4A
:10178000B5EEC00AF1EE10FA20EE070AF6EE007A86
:10179000BEEE007AB8BFF0EE477A30EE270AFDEED3
:1017A000C07A17EE900A704700007A44364B9FEDDE
:1017B000376A93ED017AF6EE007AB4EEE77AF1EE4D
:1017C00010FA48BFC3ED017A93ED017ADFED307A6C
:1017D000B4EEE77AF1EE10FAC8BFC3ED017AD3EDAB
:1017E000027AF5EEC07AF1EE10FA4FF0000248BF2F
:1017F0009A6093ED027A274AF2EE047AB4EEE77A21
:10180000F1EE10FAC8BFC3ED027AD3ED017A9FED75
:10181000227AF4EEC77AF1EE10FAF6EE006AB8BF5B
:10182000F0EE477AB0EE667AA7EE867ADFED1B7AA5
:10183000BCEEC77A82ED027A93ED027AB4EEE77AD3
:10184000F1EE10FA18D99FED166ADFED167ADFED8A
:10185000165AE7EE067A9FED156AB4EEC67AF1EEF7
:1018600010FA67EEA57A0ADA77EEA67AFCEEE77A46
:1018700017EE903AD36070470023D360704741F66B
:10188000FE73D360704700BF080600209DA7374352
:10189000000030422801002000000000FFFF24C1AA
:1018A0000BD7233E3333D33F181D1B45FEFF244186
:1018B000F8B5002833D02E4F2E4D002403210126E9
:1018C00038466E72FFF772FFEC7105F0F5FCC0212F
:1018D000384605F0F1FC284A396864231383938263
:1018E0005383D382138B1BB2C3F5EA433033C1F861
:1018F0009C30538B214A1BB2C1F81C32204B146020
:10190000204A1C60204B1460204A1C60204B14604D
:10191000AC711C70AB889BB203B92E80F8BD144E1D
:10192000144D0446032130466C72EC7105F0C4FC82
:10193000C021304605F0C0FC0F4A31686423138390
:1019400093825383D382138B1BB2C3F5EA433033A4
:10195000C1F89C30538B0E4A1BB2C1F81C32AC71DB
:101960002B8814709BB2042BD8D001232B80F8BD98
:10197000D00B00203806002028010020840600201B
:10198000800600207C060020700600206C060020E7
:101990000406002000000000F8B5634BDFED634A49
:1019A00093ED077A624ADFED637A9FED635ADFEDCC
:1019B000635A9FED636A63486349644C644F654DA5
:1019C000B8EE477A27EE247A82ED007AD3ED056AE5
:1019D000614AF8EE666AB0EE677AA6EEC57A27EE3F
:1019E000257AB4EEC67AF1EE10FAB8BFB0EE467AB8
:1019F00080ED007A93ED037AB8EE477A204627EE21
:101A0000247A81ED007A93ED017AB8EE477AE7EE19
:101A1000457A67EEA57AF4EEC67AF1EE10FAB8BF11
:101A2000F0EE467AC2ED007A04F02CF8204603F07E
:101A3000C7FC07EE900ADFED496A9FED497AF8EEA0
:101A4000677A67EEA67A37EE677AC7EE277A17EEDF
:101A5000900AFEF77DFD41EC100BFFF785FB2CA3F0
:101A6000D3E9002351EC100BFEF7CAFD2AA3D3E9FA
:101A70000023FEF70FFC02460B4600203949FEF713
:101A8000E9FE27A3D3E90023FEF702FCFEF7CAFF15
:101A9000354A03463846136003F0F4FFB5F8CA40F0
:101AA000B5F8A860A4B2B6B23846A41B03F088FC0F
:101AB00007EE904ADFED2D6AB5F8A8309FED2C5A5D
:101AC0009FED2C6A2C4AF8EEE77A9BB2C6EEA75A35
:101AD00007EE100A07EE903AB8EE477ADFED276A74
:101AE000274BF8EEE77AD7EE267A93ED007AF3EEFD
:101AF0000E6AE5EEA76A27EE057AF0EE477AE6EE83
:101B0000867AC3ED007AC2ED007AF8BDAFF30080AB
:101B100081D91E7E6597303F000000E0E1796B3F80
:101B2000000000606612714018060020F96BB23B9D
:101B3000000600203333D33F6840D339FFFFC7404E
:101B400000000000F8050020FC050020F40A002039
:101B5000880A00200075FF1FF405002068405338F4
:101B6000333353400000F03FF00500200000C8422E
:101B70006666663FCDCCCC3DEC050020CDCC0C3E5E
:101B8000BC050020F8B5874B9FED877AD3ED077A27
:101B9000F8EE677AF4EEC77AF1EE10FA5FDB834D68
:101BA0002C78012C00F08380022C00F08880002C1F
:101BB00054D17F4B7F48DC71032105F07DFBC021B0
:101BC0007C4805F079FB7C4B7C497D489FED7D7A14
:101BD0009FED7D6A64229A82DA827C4A04600C60FE
:101BE00014607B497B4A0C6014607B4AD2ED017A19
:101BF000F4EEC77AF1EE10FAF6EE006AB8BFF0EE36
:101C0000477AB0EE667AA7EE867ADFED747ABCEE9C
:101C1000C77A83ED027A92ED027AB4EEE77AF1EEBA
:101C200010FA18D99FED6E6ADFED6E7ADFED6E5A0D
:101C3000E7EE067A9FED6D6A67EEA57AB4EEC67A96
:101C4000F1EE10FAB7BF77EEA67A41F6FE74FCEE1D
:101C5000E77A17EE904A0122DC602A70F8BD554EF3
:101C6000534D002403213046EC7105F025FBC021C3
:101C7000304605F021FB504A31685D4864231383E8
:101C800093825383D382138B04801BB2C3F5EA4340
:101C90003033C1F89C30538B444A1BB2C1F81C321C
:101CA000544BAC711C80147001232B80F8BD524939
:101CB0000B8801339BB2052B3FD80B80F8BD3C4C01
:101CC000E37903F0FF02002B51D0494A49481388B9
:101CD00001210B449BB213800288E1710132C3EBF6
:101CE0000311354B92B20280988A014409B299825D
:101CF000D98AC2EB02120A4412B2DA829A8A46F6F2
:101D0000286112B28A42C8BF9982DA8A44F62C410D
:101D100012B28A42C8BFD9829A8A46F6286112B2A4
:101D20008A429BD1DB8A44F62C421BB2934295D166
:101D3000002303222B702280F8BD00221E4BDFF807
:101D400080C01E4F214E224C22480A8064211983F4
:101D500099825983D982CCF800203A60326022609F
:101D600002609A680221521029705A60F8BD144B23
:101D7000104E1A60114B1A60144B1A60144B1A6003
:101D8000144B1A60336847F23052C3F89C20C021CC
:101D9000C3F81C22304605F075FA0321304605F0E1
:101DA00071FA92E718060020B5BD894404060020A8
:101DB00038060020D00B00202801002080060020DB
:101DC00084060020000000009DA737437C06002009
:101DD000700600206C06002008060020FFFF24C1CA
:101DE0000BD7233E3333D33F181D1B45FEFF244141
:101DF000D8050020D6050020D405002038B5334B87
:101E0000DFED336A9A6893ED007ADFED327A9FED69
:101E1000326AB8EE477AE7EE667ADFED306A9FED18
:101E2000307A67EE867AF4EEE67AF1EE10FAB8BF11
:101E3000F0EE667AF4EEC77AF1EE10FA18DC294C6F
:101E4000A3889B0613D5284A13680133B3F5C87FCE
:101E50002CDD264D297800230A29136028D8A38871
:101E600023F020031B0401311B0C2970A38038BD13
:101E700007EE902A9FED1E7A1A4CF8EE677AF4EE80
:101E8000C77AF1EE10FADBD5002303211948E3717C
:101E900005F012FA1748C02105F00EFAA3889BB28C
:101EA000042243F02003A3802280C9E7136038BDD9
:101EB0000B2203210F482A70E37105F0FDF9BDE8FC
:101EC00038400C48C02105F0F7B900BF18060020C3
:101ED0006840D3393333D33FFFFFC74000000000D1
:101EE0009A99214138060020D0050020CE05002017
:101EF0009CA7B742D00B0020184A194BD2ED027AAA
:101F0000DFED186A93ED007AF8EE677A67EEA67A4D
:101F1000B4EEE77AF1EE10FA07D8134A13880133CA
:101F20009BB2022B05D8138070470F4B00221A80FA
:101F3000704710B50D4C0E48002303211380E37148
:101F400005F0BAF90A48C02105F0B6F9A3889BB29A
:101F5000042243F00803A380228010BD180600204D
:101F600048060020F96BB23BCC0500203806002063
:101F7000D00B002038B5374BDFED376A93ED007A90
:101F8000DFED367A9FED366A364B374CB8EE477A3E
:101F9000E7EE667ADFED356A93ED007A67EE867AD2
:101FA000F4EEE67AF1EE10FAB8BFF0EE667AB4EE2F
:101FB000E77AF1EE10FA03D8218889B2032920D0FC
:101FC0002B4B00221A80A388DB0617D5294A1388D9
:101FD00001339BB2B3F5C87F11D9274D2B8801334C
:101FE0009BB24FF0000C0A2BA2F800C02B8010D837
:101FF000A38823F010031B041B0CA38038BD13809F
:1020000038BD1B4A138801339BB20A2B0FD81380AB
:10201000D9E70B23032119482B8084F807C005F06A
:102020004BF9BDE838401548C02105F045B90023FB
:1020300012481380E37105F03FF91048C02105F004
:102040003BF9A3889BB2042243F01003A3802280B3
:10205000B9E700BF180600206840D3393333D33FB7
:10206000FFFFC740440600203806002000000000A3
:10207000CA050020C8050020C6050020D00B00209E
:1020800010B53348334C2DED028B03F0FBFC304888
:1020900003F096F907EE900ADFED2F6A9FED2F7A95
:1020A000F8EE677A67EEA67A37EE677AC7EE277A98
:1020B00017EE900AFEF74CFA41EC100BFFF754F8BC
:1020C0001DA3D3E9002351EC100BFEF799FA1CA3D2
:1020D000D3E90023FEF7DEF802460B460020204934
:1020E00094ED008AFEF7B6FB17A3D3E90023FEF7B1
:1020F000CFF8FEF797FC07EE900AB4EEE78AF1EE10
:1021000010FA02D9BDEC028B10BD164C1648012204
:10211000002303212280E37105F0CEF81248C0218C
:1021200005F0CAF8BDEC028BA3889BB2042243F0F1
:102130004003A380228010BD81D91E7E6597303F69
:10214000000000E0E1796B3F000000606612714022
:10215000F40A00204C0600206840533833335340C3
:102160000000F03F38060020D00B002038B5104C9E
:102170002378012B05D00F4B1B78012BDDB20FD03C
:1021800038BD0D4B1B7803F0FF05002BF3D10B4836
:102190002A46042104F01CFA064B25701D7038BD38
:1021A00006482A46042104F013FA257038BD00BF02
:1021B000500600205206002051060020000C004866
:1021C00038B50D4C2378012B05D00C4B1B78012B17
:1021D000DDB20AD038BD00220948042104F0F8F924
:1021E000064A00232370137038BD05482A4604218F
:1021F00004F0EEF9257038BD50060020510600208D
:10220000000C00486428044B28BF64201B6800EBC6
:1022100080004000D8637047B00E002010B588B031
:10222000012201A9002000F045FA9DF804300BB905
:1022300008B010BD002000F0CDF90F4B0F49104C35
:10224000104A5868D3F808E00968CDF80900D4F8B6
:1022500000C0CDF811101368CDF80DE00020152254
:1022600002A98DF80800CDF815C0CDF8193000F09E
:1022700029F908B010BD00BF080600204C06002058
:10228000440600204806002010B5174C94ED007A53
:10229000F7EE007AB4EE677AF1EE10FA86B001D06C
:1022A00006B010BD002000F095F9104A1049114BFE
:1022B0006068D4F808C012680968CDF801001B688E
:1022C000CDF809200020CDF80D1015226946CDF873
:1022D00011308DF80000CDF805C000F0F3F80023B0
:1022E000236006B010BD00BF080600204C06002089
:1022F000440600204806002000B587B001A914223A
:10230000012000F0D7F9094B0199029A5960084859
:102310009A60084BDDF80CC00499C0F800C0059A1B
:102320001960054B1A6007B05DF804FB0806002031
:102330004C06002044060020480600200000000053
:1023400008B5294803F09EFB274803F039F807EE4B
:10235000900ADFED266A9FED267AF8EE677A67EE3F
:10236000A67A37EE677AC7EE277A17EE900AFEF75D
:10237000EFF841EC100BFEF7F7FE15A3D3E90023AD
:1023800051EC100BFEF73CF913A3D3E90023FDF742
:1023900081FF02460B4600201649FEF75BFA10A3A8
:1023A000D3E90023FDF774FFFEF73CFBDFED127A63
:1023B000124B07EE100AB4EEE77AF1EE10FA1B6842
:1023C0004CBF00224FF4AF72DA6308BDAFF3008058
:1023D00081D91E7E6597303F000000E0E1796B3FB8
:1023E0000000006066127140F40A00206840533813
:1023F000333353400000F03F00000C42B00E002089
:1024000030B40849084D094C094A0A4800232B609A
:102410000B60236008491360084A036030BC0B60FE
:102420001360704780060020840600207C06002090
:10243000700600206C060020680600207806002048
:10244000F0B5002285B04FF400414FF0904004F009
:10245000BFF84FF0FF33052200938DF80E20174888
:10246000174C164E002501230DF10F020DF10E0140
:102470008DF80F50FF2707F0DBF801E0013C12D088
:102480004FF0FF3300930DF10F0201230DF10E0108
:1024900030468DF80E708DF80F5007F0C9F89DF892
:1024A0000F30DB07EAD401224FF400414FF0904097
:1024B00005B0BDE8F04004F08BB800BFA80D0020C7
:1024C000A08601002DE9F04184B0804617460C46F5
:1024D000FFF7B6FF00224FF400414FF0904004F0A8
:1024E00077F84FF0FF36062300258DF80E300DF1FA
:1024F0000F0201230DF10E01354800968DF80F50A3
:1025000007F096F801224FF400414FF0904004F09C
:102510005FF82A464FF400414FF0904004F058F81D
:1025200002238DF80E300DF10F0201230DF10E0183
:10253000274800968DF80F5007F07AF84FEA1843B5
:102540008DF80E300DF10F0201230DF10E01204820
:1025500000968DF80F5007F06BF84FEA18238DF8AE
:102560000E300DF10F0201230DF10E0118480096F7
:102570008DF80F5007F05CF81548009601230DF117
:102580000F020DF10E018DF80E808DF80F5007F03F
:102590004FF89FB1DFF83880274414F801CB00963C
:1025A00001230DF10F020DF10E0140468DF80EC012
:1025B0008DF80F5007F03CF8BC42EED101224FF4E9
:1025C00000414FF0904004B0BDE8F04104F000B885
:1025D000A80D0020F0B585B0354D0646FFF730FF59
:1025E00000224FF400414FF0904003F0F1FF4FF014
:1025F000FF37062300248DF80E300DF10F02012362
:102600000DF10E01009728468DF80F4007F010F8E5
:1026100001224FF400414FF0904003F0D9FF2246D1
:102620004FF400414FF0904003F0D2FF20238DF88B
:102630000E300DF10F020DF10E0100970123284617
:102640008DF80F4006F0F4FF330C8DF80E300DF1CD
:102650000F020DF10E010097012328468DF80F405F
:1026600006F0E6FF330A8DF80E300DF10F020DF182
:102670000E010097012328468DF80F4006F0D8FF81
:102680000DF10F020DF10E010097012328468DF880
:102690000E608DF80F4006F0CBFF01224FF4004191
:1026A0004FF0904005B0BDE8F04003F091BF00BF8F
:1026B000A80D00202DE9F04184B0074615460C46D0
:1026C000FFF7BEFE00224FF400414FF0904003F0B0
:1026D0007FFF4FF0FF38032300268DF80E300DF1F9
:1026E0000F0201230DF10E012C48CDF800808DF86A
:1026F0000F6006F09DFF3B0C8DF80E300DF10F02C0
:1027000001230DF10E012548CDF800808DF80F60F2
:1027100006F08EFF3B0A8DF80E300DF10F020123FB
:102720000DF10E011D48CDF800808DF80F6006F008
:102730007FFF1A48CDF8008001230DF10F020DF143
:102740000E018DF80E708DF80F6006F071FFD5B197
:10275000254445444444DFF84480FF274FF0FF33CD
:1027600000930DF10F0201230DF10E0140468DF88B
:102770000E708DF80F6006F05BFF9DF80F3004F8C7
:10278000013FAC42EAD101224FF400414FF09040AA
:1027900004B0BDE8F04103F01BBF00BFA80D00204E
:1027A00070B59C1CA4B21E46002364F30703240AE0
:1027B00064F30F23394D60F31743944661F31F63AD
:1027C00045F2AA522A80C5F80230002E52D14FF0AD
:1027D000060E0824764672463048314905EB020C55
:1027E0004FF6FF7310F8012B5A4042F300030B40E1
:1027F00083EA520343F300020A40C3F34E035A40F4
:1028000042F300030B40C2F34E02534043F3000275
:102810000A40C3F34E035A4042F300030B40C2F395
:102820004E02534043F300020A40C3F34E035A40A2
:1028300042F300030B40C2F34E02534043F3000245
:102840000A40C3F34E03534060459BB2CAD1D9B28C
:10285000AE441B0AA955114E8EF801304FF47A751B
:1028600001E0013D05D02146304609F019FF00285E
:10287000F7D170BD32466146A81DFEF75FFBB21D61
:1028800092B22AB106F1080496461646A4B2A3E70E
:10289000FF23194602241646AE46DBE794060020C5
:1028A00001A0FFFF70B5054682B00E461446A5F1A3
:1028B0000A031E2B2ED8DFE813F0EB00730078011B
:1028C0006A015A014A012D003A012A012D000C012A
:1028D000FD01EE01CF01B701180209022702FB003A
:1028E0004D004D004B004B00300030004F00DE002B
:1028F000C4008F0088011F00224631461B20FFF7CD
:10290000D1FF38B1224631460C20FFF7CBFF2025FE
:102910000028CCD1002002B070BDB34B93ED000A6B
:10292000FEF72CFF2388D91DC0290246F2D8591C76
:102930002180F55423880421F152238802339BB26D
:102940002380F250238801200B44238002B070BD05
:10295000A64BE3E7A64BE1E7A64B22881B8BD11DD4
:10296000C0291BB2D6D8511C21802321B154228802
:102970000421B15200212288180A63F3070160F391
:102980000F210232180C92B260F317411B0E63F351
:102990001F612280B1502388043301202380BAE7CD
:1029A000954B93ED000AFEF7E9FE2388DA1DC02A55
:1029B000B0D85A1C22800B22F25422880421B15232
:1029C0002288023292B220EAE0732280B350238838
:1029D0000B44012023809EE7884B1A68D36A002BA2
:1029E00000F0A181526B934240F2AF814FF47A71B3
:1029F00001FB02F2B2FBF3F38B4228BF0B46D9B2C4
:102A0000C3F3072322888DF80530D31D0020C02B87
:102A10008DF80410ADF806003FF67DAF511C26235B
:102A20002180B3542388019A0421F1522388023370
:102A30009BB22380F250238801200B44238002B0F4
:102A400070BD6F4A23881168DA1DC02AD1F81C12A4
:102A50003FF660AF5A1C22802522F25423880422BC
:102A6000F252238802339BB22380F150238813440F
:102A7000012023804FE7624A23881168DA1DC02AAB
:102A8000D1F89C103FF646AF5A1C22802422E4E77E
:102A90005C4B93ED000AFEF771FE2388D91DC02917
:102AA00002463FF637AF591C21800A21F15441E715
:102AB000554A2388D288ADF80420DA1D0020C02AA8
:102AC000ADF806003FF627AF591C1C222180F254B6
:102AD000A8E74E4A2388517A181D21B1128892B274
:102AE000032A00F02281C0283FF614AF591C14229B
:102AF0002180F25423880122F252238802339BB2B0
:102B00002380F254238813442380012003E7404BA1
:102B100093ED020AFEF732FE2388D91DC029024632
:102B20003FF6F8AE591C21801221F15402E7384BD0
:102B300093ED010AFEF722FE2388D91DC029024623
:102B40003FF6E8AE591C21801121F154F2E6314BD9
:102B500093ED000AFEF712FE2388D91DC029024614
:102B60003FF6D8AE591C21800F21F154E2E62A4BE2
:102B700093ED000AFEF702FE2388D91DC029024604
:102B80003FF6C8AE591C21800E21F154D2E6234BEA
:102B900093ED000AFEF7F2FD2388DA1DC02A3FF606
:102BA000B9AE5A1C22800D2206E71D4B93ED000A98
:102BB000FEF7E4FD2388D91DC02902463FF6AAAEE0
:102BC000591C21800C21F154B4E6164A238812883E
:102BD000ADF80420DA1D0020C02AADF806003FF64B
:102BE0009AAE591C272271E74406002048060020AF
:102BF0004C06002028010020F8050020B00E00201F
:102C0000D00B0020000600205406002038060020CB
:102C100008060020F0050020EC050020F405002047
:102C2000FC05002088060020494B21889B79081D5F
:102C3000C028DAB23FF66EAE4B1C238018237354C3
:102C400023880121F152238802339BB22380F2545E
:102C500023880B44238058E73D4B1B889BB2042BF1
:102C60009CBF3C4AD15C238803F1040288BF002149
:102C7000C02A3FF64FAE5A1C22801722F2542388F6
:102C80000122F252238802339BB22380F15423881D
:102C90001344238039E72E4A23889288ADF8042014
:102CA000DA1D0020C02AADF806003FF634AE591CEC
:102CB00016220BE7264B21885B7A081DC028DAB262
:102CC0003FF628AE4B1C23801523B8E7224A238801
:102CD0005288ADF80420DA1D0020C02AADF80600A5
:102CE0003FF619AE591C1A22F0E61B4A23881288B7
:102CF000ADF80420DA1D0020C02AADF806003FF62A
:102D00000AAE591C1922E1E6134A23889288ADF8CD
:102D10000420DA1D0020C02AADF806003FF6FBAD06
:102D2000591C1B22D2E619466CE60C4A1278C028C0
:102D3000D2B23FF6EFAD591C21801421F15401218C
:102D4000521A238818BF01227CE70323E82159E6A1
:102D5000380600205CD400085406002064060020D9
:102D600030B40648064C074D0749084A00232B801B
:102D70002380038030BC0B80138070478E060020B8
:102D8000900600208C0600208A060020880600207D
:102D9000C1B170B401440C4C0C4D0D4E08E02288BA
:102DA00010F801CB238092B2884206F802C007D007
:102DB00023882A880133C3F3080392B29A42EED1E2
:102DC00070BC7047704700BF8C0600208A06002048
:102DD0005C0700202DE9F04FC34CC44E2288338895
:102DE00092B29BB29A42B7B000F0A480C04DDFF817
:102DF00018832A88DFF814B3002709E0AA2918D01D
:102E000000222188338889B29BB2994200F09280D7
:102E10002188238889B20133C3F3080318F801100D
:102E20002380002AEAD0012A6FD155297DD02F8036
:102E3000E6E701222A808BF80010AE4BAD491B88D3
:102E40000091002BDDD09342DBD800230193AA48E8
:102E5000019B4371A94B0360A94AFF2303710146FB
:102E600000F1060C4FF6FF7311F801EB8EEA030E2A
:102E70004EF30003134083EA5E0343F3000E0EEAB1
:102E8000020EC3F34E038EEA030E4EF3000313400B
:102E9000CEF34E0E83EA0E0343F3000E0EEA020E4B
:102EA000C3F34E038EEA030E4EF300031340CEF33A
:102EB0004E0E83EA0E0343F3000E0EEA020EC3F336
:102EC0004E038EEA030E4EF300031340CEF34E0E74
:102ED00083EA0E0343F3000E0EEA020EC3F34E0321
:102EE0008EEA03038C459BB2BED1DFF80CA2C380EF
:102EF0004FF47A7902E0B9F1010920D00821504657
:102F000009F0CEFB0028F6D119E00BF802100132CF
:102F100092B2042A2A8016D1BBF80230991EC02929
:102F20000BD8744906330B806BE702228BF8011033
:102F30002A8082E737B0BDE8F08F6E4B0093009B8C
:102F40002F801F805CE76B4B0093198811B9C72A4B
:102F5000F5D856E78A42FAD305297FF676AF9BF873
:102F60000530019307297FF672AFBBF80220931E4C
:102F70009BB2C02B00F2D780901D80B28142C0F07E
:102F8000D2806049D01C31F802C0CA1E12FA80F00B
:102F90005B4A04394FF6FF7E11F8019B89EA0E095E
:102FA00049F3000E0EEA020E8EEA590E4EF30009A6
:102FB00009EA0209CEF34E0E89EA0E0949F3000E22
:102FC0000EEA020EC9F34E098EEA090E4EF300090D
:102FD00009EA0209CEF34E0E89EA0E0949F3000E02
:102FE0000EEA020EC9F34E098EEA090E4EF30009ED
:102FF00009EA0209CEF34E0E89EA0E0949F3000EE2
:103000000EEA020EC9F34E098EEA090E4EF30009CC
:1030100009EA0209CEF34E0E89EA0E0E81421FFA2A
:103020008EFEB9D1F44540F0DD809BF80420022AE1
:1030300000F0D981032A00F06181012A00F031817A
:103040002D48019B43712D4B03602D4AFF230371D3
:10305000014600F1060C4FF6FF7311F801EB8EEA02
:10306000030E4EF30003134083EA5E0343F3000EA6
:103070000EEA020EC3F34E038EEA030E4EF3000374
:103080001340CEF34E0E83EA0E0343F3000E0EEA16
:10309000020EC3F34E038EEA030E4EF300031340F9
:1030A000CEF34E0E83EA0E0343F3000E0EEA020E39
:1030B000C3F34E038EEA030E4EF300031340CEF328
:1030C0004E0E83EA0E0343F3000E0EEA020EC3F324
:1030D0004E038EEA030361459BB2BED1DFF818A010
:1030E000C3804FF47A7917E08A0600208C0600200E
:1030F000900600208E06002094060020AA550200AB
:1031000001A0FFFF600900205C0700205C0900208F
:10311000B9F101093FF413AF0821504609F0C0FA94
:103120000028F5D10BE7C948019B4371C84B0360E8
:10313000C84AFF230371014600F1060C4FF6FF73E6
:1031400011F801EB8EEA030E4EF30003134083EAFD
:103150005E0343F3000E0EEA020EC3F34E038EEA43
:10316000030E4EF300031340CEF34E0E83EA0E031C
:1031700043F3000E0EEA020EC3F34E038EEA030E73
:103180004EF300031340CEF34E0E83EA0E0343F3D7
:10319000000E0EEA020EC3F34E038EEA030E4EF348
:1031A00000031340CEF34E0E83EA0E0343F3000EEA
:1031B0000EEA020EC3F34E038EEA03038C459BB264
:1031C000BED1DFF888A2C3804FF47A7903E0B9F169
:1031D00001093FF4B4AE0821504609F061FA002815
:1031E000F5D1ACE69948019B4371994B0360994A2C
:1031F000FF230371014600F1060C4FF6FF7311F82F
:1032000001EB8EEA030E4EF30003134083EA5E03E4
:1032100043F3000E0EEA020EC3F34E038EEA030ED2
:103220004EF300031340CEF34E0E83EA0E0343F336
:10323000000E0EEA020EC3F34E038EEA030E4EF3A7
:1032400000031340CEF34E0E83EA0E0343F3000E49
:103250000EEA020EC3F34E038EEA030E4EF3000392
:103260001340CEF34E0E83EA0E0343F3000E0EEA34
:10327000020EC3F34E038EEA030361459BB2BED137
:10328000DFF8C8A1C3804FF47A7903E0B9F10109EE
:103290003FF455AE0821504609F002FA0028F5D156
:1032A0004DE60022DFF8B4A1ADF81620994618E0EB
:1032B000B9F1020F40F21A84BAF800201AF8010C92
:1032C000002A40F024830DF1160206A90293FFF7AD
:1032D000E9FA0AF1030A029BA9F10309002800F0A8
:1032E0001683A3EB090292B29342E1D80199BDF88B
:1032F000163006AA0020FFF753FA20E6002B40F014
:10330000A682DFF85CA1ADF816300AF1180902E0D8
:10331000CA4500F0D0831AF8010B0DF1160206A978
:10332000FFF7C0FA0028F3D14848019B4371484B8E
:103330000360484AFF230371014600F1060C4FF673
:10334000FF7311F801EB8EEA030E4EF300031340F6
:1033500083EA5E0343F3000E0EEA020EC3F34E034C
:103360008EEA030E4EF300031340CEF34E0E83EAB3
:103370000E0343F3000E0EEA020EC3F34E038EEA71
:10338000030E4EF300031340CEF34E0E83EA0E03FA
:1033900043F3000E0EEA020EC3F34E038EEA030E51
:1033A0004EF300031340CEF34E0E83EA0E0343F3B5
:1033B000000E0EEA020EC3F34E038EEA03036145CC
:1033C0009BB2BED1DFF88490C3804FF47A7A03E0D9
:1033D000BAF1010A3FF4B3AD0821484609F060F99B
:1033E0000028F5D1ABE5002B00F0FC82022B40F267
:1033F000B78000220292501C174980B202F10309E3
:1034000031F800A08A5C1FFA89F9A3EB0900504546
:1034100028DB113A162A25D8DFE812F0DE015A011E
:103420002400240046012400240024002400240059
:103430002400240024002F0124001801240001018D
:103440002400240024002400830000BF94060020F0
:10345000AA55020001A0FFFF6209002063090020B5
:1034600064D40008CE48019B4371CE4B0360CE4A22
:10347000FF230371014600F1060C4FF6FF7311F8AC
:1034800001EB8EEA030E4EF30003134083EA5E0362
:1034900043F3000E0EEA020EC3F34E038EEA030E50
:1034A0004EF300031340CEF34E0E83EA0E0343F3B4
:1034B000000E0EEA020EC3F34E038EEA030E4EF325
:1034C00000031340CEF34E0E83EA0E0343F3000EC7
:1034D0000EEA020EC3F34E038EEA030E4EF3000310
:1034E0001340CEF34E0E83EA0E0343F3000E0EEAB2
:1034F000020EC3F34E038EEA03038C459BB2BED18A
:10350000DFF89CA2C3804FF47A7903E0B9F1010996
:103510003FF415AD0821504609F0C2F80028F5D156
:103520000DE5BAF1040F9DD1A04A52F8092092B2DC
:10353000B2F57A7F00F24E829D48A0FB02C0C0081F
:103540009C4903930A80FEF75DFE039BCA441FFA61
:103550008AF2934240F24282981A02283FF64BAF19
:103560008F48019B43718F4B03608F4AFF23037188
:10357000014600F1060C4FF6FF7311F801EB8EEADD
:10358000030E4EF30003134083EA5E0343F3000E81
:103590000EEA020EC3F34E038EEA030E4EF300034F
:1035A0001340CEF34E0E83EA0E0343F3000E0EEAF1
:1035B000020EC3F34E038EEA030E4EF300031340D4
:1035C000CEF34E0E83EA0E0343F3000E0EEA020E14
:1035D000C3F34E038EEA030E4EF300031340CEF303
:1035E0004E0E83EA0E0343F3000E0EEA020EC3F3FF
:1035F0004E038EEA03038C459BB2BED1DFF8A09147
:10360000C3804FF47A7A03E0BAF1010A3FF497AC31
:103610000821484609F044F80028F5D18FE4BAF1B2
:10362000040F7FF41FAF614A9FED637A52F80920BF
:1036300007EE902AF8EEE77A604A67EE877AC2EDE5
:10364000007A5F4A4FF07E5010607FE7BAF1040FB6
:103650007FF408AF554A9FED587A52F8092007EEDB
:10366000902AF8EEE77A574A67EE877A4FF07E5055
:10367000C2ED007A524A106068E7BAF1040F7FF495
:10368000F1AE4A4A9FED4C7A52F8092007EE902A93
:10369000F8EEE77A4C4A67EE877A4FF07E50C2ED3B
:1036A000007A474A106051E7BAF1010F7FF4DAAEB1
:1036B0003E49464A11F80900527A003818BF0120E5
:1036C00082423FF443AF0393FEF7F2F8039B3DE7DA
:1036D000BAF1040F7FF4C6AE344ADFED377A52F800
:1036E000092007EE102AB8EEC77A67EE277AF5EEC2
:1036F000C07AF1EE10FA00F1DB819FED356AB4EE8D
:10370000467AF2EE046AF1EE10FAC8BFF0EE667A7D
:103710002B4ADFED296A92ED027A37EEC77AB4EED2
:10372000E67AF1EE10FA00F3528192ED027A0299F4
:1037300037EE677AB4EE667AF1EE10FAC8BF01216F
:103740000291C2ED027A92ED017AF6EE007AB4EEC1
:10375000E77AF1EE10FA48BFC2ED017A92ED017AF4
:10376000DFED1C7AB4EEE77AF1EE10FAC8BFC2EDD5
:10377000017AD2ED027AF5EEC07AF1EE10FA4FF04E
:10378000000048BF906092ED027AF2EE047AB4EE47
:10379000E77AF1EE10FA7FF755AFC2ED027A51E702
:1037A00094060020AA55020001A0FFFF6209002034
:1037B000CDCCCCCC880600206F12833A4406002082
:1037C00008060020480600204C060020380600208D
:1037D00000401C4600003042BAF1040F7FF442AEB4
:1037E000B94A9FEDBA7A52F8092007EE902AF8EE0E
:1037F000E77AF4EEC77AF1EE10FA00F156819FED08
:10380000B47AF4EEC77AF1EE10FA00F3CF819FEDAF
:10381000B17A67EE877AB04ADFEDAE6A92ED017A4F
:1038200037EEC77AB4EEE67AF1EE10FA00F33A8199
:1038300092ED017A029937EE677AB4EE667AF1EE8C
:1038400010FAC8BF01210291C2ED017A7BE7A348BB
:10385000019B4371A24B0360A24AFF2303710146FF
:1038600000F1060C4FF6FF7311F801EB8EEA030E20
:103870004EF30003134083EA5E0343F3000E0EEAA7
:10388000020EC3F34E038EEA030E4EF30003134001
:10389000CEF34E0E83EA0E0343F3000E0EEA020E41
:1038A000C3F34E038EEA030E4EF300031340CEF330
:1038B0004E0E83EA0E0343F3000E0EEA020EC3F32C
:1038C0004E038EEA030E4EF300031340CEF34E0E6A
:1038D00083EA0E0343F3000E0EEA020EC3F34E0317
:1038E0008EEA030361459BB2BED1DFF8F0A1C3802D
:1038F0004FF47A7903E0B9F101093FF420AB0821D4
:10390000504608F0CDFE0028F5D1FFF718BB7348EC
:10391000019B4371724B0360724AFF23037101469E
:1039200000F1060C4FF6FF7311F801EB8EEA030E5F
:103930004EF30003134083EA5E0343F3000E0EEAE6
:10394000020EC3F34E038EEA030E4EF30003134040
:10395000CEF34E0E83EA0E0343F3000E0EEA020E80
:10396000C3F34E038EEA030E4EF300031340CEF36F
:103970004E0E83EA0E0343F3000E0EEA020EC3F36B
:103980004E038EEA030E4EF300031340CEF34E0EA9
:1039900083EA0E0343F3000E0EEA020EC3F34E0356
:1039A0008EEA030361459BB2BED1DFF830A1C3802C
:1039B0004FF47A7903E0B9F101093FF4C0AA082174
:1039C000504608F06DFE0028F5D1FFF7B8BA012186
:1039D0000291B6E64FF47A726420B1E5029B0BB116
:1039E000FDF7E4FE3D48019B43713D4B03603D4ABA
:1039F00000230371014600F1060C4FF6FF7311F826
:103A000001EB8EEA030E4EF30003134083EA5E03DC
:103A100043F3000E0EEA020EC3F34E038EEA030ECA
:103A20004EF300031340CEF34E0E83EA0E0343F32E
:103A3000000E0EEA020EC3F34E038EEA030E4EF39F
:103A400000031340CEF34E0E83EA0E0343F3000E41
:103A50000EEA020EC3F34E038EEA030E4EF300038A
:103A60001340CEF34E0E83EA0E0343F3000E0EEA2C
:103A7000020EC3F34E038EEA03038C459BB2BED104
:103A8000DFF85890C3804FF47A7A03E0BAF1010A64
:103A90003FF455AA0821484608F002FE0028F5D157
:103AA000FFF74DBA01210291CEE6F6EE007AB2E6BA
:103AB000DFED0D7A2CE60199BDF8163006AA032039
:103AC000FEF76EFEFFF73BBA62090020FFFFF943E5
:103AD000FFDF2B476F12833A080600209406002070
:103AE000AA55020001A0FFFF000000003148019B21
:103AF0004371314B0360314AFF230371014600F1EA
:103B0000060C4FF6FF7311F801EB8EEA030E4EF32D
:103B10000003134083EA5E0343F3000E0EEA020E35
:103B2000C3F34E038EEA030E4EF300031340CEF3AD
:103B30004E0E83EA0E0343F3000E0EEA020EC3F3A9
:103B40004E038EEA030E4EF300031340CEF34E0EE7
:103B500083EA0E0343F3000E0EEA020EC3F34E0394
:103B60008EEA030E4EF300031340CEF34E0E83EAAB
:103B70000E0343F3000E0EEA020EC3F34E038EEA69
:103B8000030361459BB2BED1DFF82890C3804FF498
:103B90007A7A03E0BAF1010A3FF4D1A90821484634
:103BA00008F07EFD0028F5D1FFF7C9B9DFED047AF2
:103BB00031E600BF94060020AA55020001A0FFFFD5
:103BC0000000304230B500248DB020252A46214621
:103BD00004A8CDE901440394FDF75EF938480123B8
:103BE000436180F8383080F8403003650423036275
:103BF00043644FF0A0424FF44033C0E90023082350
:103C0000C0E902440461848380F82440C464836171
:103C10004FF4D4644FF48063C0E90B434FF48053F6
:103C20008564C36301F0C2FA002835D1002324481B
:103C3000019301A902F0BAF800283DD1214A0623D8
:103C400005207F21CDE90423CDE9060104220023CC
:103C50001B4804A9CDE9082301F006FC48BB1A4A19
:103C600017480C2304A9CDE9042301F0FDFBE8B9B2
:103C7000164A1348122304A9CDE9042301F0F4FBEA
:103C800088B9134A0E48182304A9CDE9042301F08A
:103C9000EBFB20B90DB030BD00F0B2FDC6E700F07F
:103CA000AFFD0DB030BD00F0ABFDEAE700F0A8FDC0
:103CB000DEE700F0A5FDD2E700F0A2FDBEE700BF01
:103CC000600B002002003004040060080800900C23
:103CD0001000C01010B588B0202200216846FDF702
:103CE000DBF81F4C1F484FF44031C0E9004104216C
:103CF00081614FF48051C1631C2100230122416482
:103D00008021C0E90233C0E90433C0E90B33C0E9C4
:103D100012138383026280F8243080F8383080F8F0
:103D20004020026501F042FA90B90F4A06237F2035
:103D30000524CDE90023CDE90240042200230948EF
:103D40006946CDE9042301F08FFB20B908B010BD0E
:103D500000F056FDE9E700F053FD08B010BD00BFCC
:103D600000010050F40A00200000524710B588B04E
:103D7000202200216846FDF78FF81F4C1F484FF4A2
:103D80004031C0E90041042181614FF48051C16399
:103D900014210023012241646021C0E90233C0E9FB
:103DA0000433C0E90B33C0E912138383026280F845
:103DB000243080F8383080F84020026501F0F6F9B0
:103DC00090B90F4A06237F200724CDE90023CDE9CF
:103DD00002400422002309486946CDE9042301F08A
:103DE00043FB20B908B010BD00F00AFDE9E700F080
:103DF00007FD08B010BD00BF00060050880A002073
:103E00001000C09070B50446A0B0002154220BA849
:103E1000CDE90611CDE908110A91FDF73DF82368B7
:103E2000B3F1A04F08D0554A934253D0544A93421D
:103E300000F0828020B070BD4FF400424FF000537C
:103E40000BA80B921C9305F0C9F8002840F08A805B
:103E50004C4A13680133012B136009D14A4BDA6CC9
:103E600042F40052DA64DB6C03F400530193019BCB
:103E7000454B464DDA6C42F00102DA64DB6C03F02C
:103E8000010302930F2206A9032300264FF090405E
:103E9000CDE906230896029B02F0DCF93C4A052393
:103EA000C5E9002380234FF480712B614FF48063B8
:103EB000C5E9051320224FF400532846C5E90266E0
:103EC000C5E9072302F08EF800284ED16565AC6283
:103ED00020B070BD4FF400424FF000530BA80B927E
:103EE0001C9305F07BF8002842D1264A1368013361
:103EF000012B136009D1244BDA6C42F40052DA64CE
:103F0000DB6C03F400530393039B1F4BDA6C42F00A
:103F10000102DA64DB6C03F0010304931024002334
:103F2000032506A94FF09040CDE90645049A089371
:103F300002F090F920B070BD4FF480324FF0004392
:103F40000BA80B921D9305F049F8A0B90E4BDA6C43
:103F500042F48042DA64DB6C03F480430593059BF2
:103F600020B070BD00F04CFC72E700F049FCADE7FA
:103F700000F046FCB9E700F043FCE7E70001005021
:103F800000060050240A002000100240280A0020E9
:103F900008000240174B10B5986C40F0040098647C
:103FA0009C6C82B004F004040094009C9C6C44F06F
:103FB00001049C649B6C002203F0010311460193F1
:103FC0000B20019B01F0AAFF0B2001F0E3FF002270
:103FD00011460C2001F0A2FF0C2001F0DBFF0022B3
:103FE00011460D2001F09AFF0D2002B0BDE81040EF
:103FF00001F0D0BF00100240F0B500248DB0CDE933
:104000000644CDE90844334B0A94D96C324F334E01
:1040100041F00401D964D96C01F0040101910199C6
:10402000D96C41F02001D964D96C01F020010291D2
:104030000299D96C41F00101D964D96C01F00101F8
:1040400003910399D96C41F00201D964D96C01F054
:10405000020104910499D96C41F00801D964DB6C28
:1040600003F00803224605934FF400414FF09040BF
:10407000059B02F0ADFA22463846042102F0A8FA68
:1040800022463046B82102F0A3FA002400254FF45E
:104090000042012306A94FF09040CDE90623CDE967
:1040A000084502F0D7F8384606A904220123CDE9D5
:1040B0000623CDE9084502F0CDF8B822012306A970
:1040C0003046CDE90845CDE9062302F0C3F80DB02E
:1040D000F0BD00BF00100240000C00480004004882
:1040E000124B02689A4200D0704703F5284300B58E
:1040F000186E40F0806018661B6E83B0002203F0DB
:104100008063114601934420019B01F007FF442086
:1041100001F040FF00221146492001F0FFFE492036
:1041200003B05DF804EB01F035BF00BF006801404B
:1041300070B51E4B026888B000249A42CDE9024453
:10414000CDE90444069401D008B070BD03F52843BE
:104150000326DA6C164842F00202DA64DA6C02F0E6
:1041600002020092009ADA6C42F00102DA64DB6C1F
:1041700003F0010301934FF440420D2502A90223ED
:10418000CDE90223CDE90565019B02F063F84FF408
:104190004073029302A902234FF09040CDE90446F8
:1041A0000393069502F056F808B070BD0068014010
:1041B000000400480000000010B50024BCB06022DC
:1041C000214624A8CDE90744CDE90B44CDE90D44AF
:1041D000CDE90F44009406940A9401940994FCF7E5
:1041E0005BFE242221461BA8CDE903440594FCF77D
:1041F00053FE2022214612A8FCF74EFEBE48BF4BBC
:104200000360C0E9014402F0F3F9002840F017818F
:10421000B9480C2102F066FA002840F01981B6482E
:104220000A2102F097FA002840F01B819FEDAA7B3B
:10423000B1486A4601218DED007B02F0E7FA0028C3
:1042400040F06181AC480022012102F007FC002807
:1042500040F0568147F2305300210693A6480823C8
:1042600006AACDE90711099302F09AFA002840F056
:104270002F819FED9B7B00219F480A910AAA8DED1B
:104280000C7B109102F0FEFD002840F01E811023EF
:104290009FED957B2493012328934FF00063002129
:1042A0002E93954827914FF0005324AACDE925116C
:1042B000CDE92911CDE92B11CDE92F11CDE932112D
:1042C000CDE93811CDE93A118DED347B2D91369140
:1042D000319302F05FFC002840F0F4809FED847B76
:1042E00000238548249324AA03218DED347B2E934B
:1042F0003193369302F04EFC002840F0E08043F604
:10430000982303937C4803AB0122002102F082FE34
:10431000002840F0D18041F664130393764803AB44
:104320000422002102F076FE002840F0C2804FF403
:1043300096731C9320934FF400444FF48043002164
:10434000CDE91E434FF0004C4FF080436A481B916B
:104350001BAACDE922C31D91219102F00DFE002878
:1043600040F0A48064481BAA032102F005FE002847
:1043700040F09980042008230021CDE91303012295
:104380005D48129112ABCDE91511CDE917111991C4
:1043900002F000FF002840F08380574812AB402213
:1043A000032102F0F7FE002877D108220423CDE98B
:1043B0001323514812AB0222002102F0EBFE002829
:1043C00068D14D4812AB8022032102F0E3FE0028A1
:1043D0005DD1494806AA032102F0E2F9002853D131
:1043E00045480AAA032102F04DFD002849D14FF4A7
:1043F00096710391404803AB0122032102F00AFEAB
:1044000000283BD1002108200422CDE9121014928B
:104410003948199112AB0222CDE91511CDE91711D6
:1044200002F0B8FE38BB344812AB8022032102F000
:10443000B1FEC8B93048FFF77BFE3CB010BD00F0BC
:10444000DFF92D480C2102F04DF900283FF4E7AECA
:1044500000F0D6F928480A2102F07CF900283FF440
:10446000E5AE00F0CDF9E1E600F0CAF92248FFF729
:104470005FFE3CB010BD00F0C3F9D4E700F0C0F916
:10448000C0E700F0BDF9B2E700F0BAF9A8E700F024
:10449000B7F99EE700F0B4F993E700F0B1F984E7CB
:1044A00000F0AEF979E700F0ABF963E700F0A8F9A6
:1044B00058E700F0A5F93AE700F0A2F92BE700F081
:1044C0009FF91CE700F09CF908E700F099F9DEE697
:1044D00000F096F9CDE600BF0000010000080000E2
:1044E000000000000000000000000080000100004B
:1044F0000000000000010000D00B00200068014017
:1045000000F07EF9A6E600F07BF99BE60848094931
:1045100008B504224FF4FA63C0E901230160C360C7
:1045200003F0F4F800B908BDBDE8084000F068B930
:10453000D00C00200030004010B594B0382200218B
:1045400006A8FCF7A9FC0020CDE90100CDE9030095
:104550000590032404F022F9022301222920CDE949
:104560000B22CDE90D344FF48031119313930522C2
:104570004423CDE90601CDE90F2306A806231293B3
:1045800004F086F908B172B6FEE7042103460F2253
:104590000DEB0100CDE90124CDE90333059304F0CF
:1045A000F5FB08B172B6FEE714B010BD80B5684FD8
:1045B000684C694DDFF8D0A1DFF8D081DFF8A09119
:1045C00000F0C0FD0026FFF7B7FFFFF715FDFFF76E
:1045D000E1FCFFF7F1FDFFF7F5FAFFF77BFBFFF7D3
:1045E000C5FB00F00FF900F095FA07F0F3FF00F0BB
:1045F0001BFA00F053FA00F0CBFA00F043FC00F095
:1046000085FC00F077FB00F08FFBFFF77FFF0821B0
:1046100052483E8005F046FC6420FDF7F3FD012280
:1046200080214F4801F0D4FF4E4805F059FB4E4819
:1046300005F056FB4D4805F053FBFDF7E1FEFDF795
:10464000EDFDFDF759FEFEF78BFBC82000F09CFD49
:104650007F21474801F05CFB7F21464801F058FB71
:104660007F21454801F054FB04224449404801F0B1
:104670008BFA404801F006FA3F4801F003FA4FF484
:104680000031204602F032FE4FF48011204602F045
:104690002DFE24683248D4F88C3043F01003C4F85F
:1046A0008C303021324601F093FF3046FDF7AAFDF1
:1046B000334CFEF78FFB23889BB2092B2FD82B8816
:1046C0009BB2312BF5D92E80FDF77AFD3B889BB24A
:1046D000022B2ED03B889BB2032B2AD00022202114
:1046E000484601F075FFBAF800309BB2632B2AD818
:1046F000B8F800309BB2B3F5FA7F07D310214846D3
:10470000A8F8006001F06AFFFDF7BEFD1D4803F048
:104710002BF8FEF75FFB23889BB2092BCFD92680AD
:10472000FDF724FDFDF738F92B889BB2312BC0D95A
:10473000C9E701222021484601F04AFFBAF80030BB
:104740009BB2632BD4D9AAF80060FDF7F9FDCFE73F
:1047500038060020D00B0020E00C0020B00E002016
:1047600000040048A00F0020500F0020000F002080
:10477000600B0020F40A0020880A00205406002064
:10478000E20C0020D00C0020E40C0020E60C0020FD
:1047900008B50368B3F1804F03D0144A934215D093
:1047A00008BD1348134A0388134901339BB20380A1
:1047B000138801339BB213800B88104A01339BB2DC
:1047C0000B80138801339BB2138008BD08F0F8F901
:1047D000FDF714FBFDF754FCFDF78EFBFDF7CAFB5C
:1047E00008F044FABDE8084008F022BB000400408D
:1047F000E60C0020E40C0020E20C0020E00C00207D
:1048000072B6FEE710B51148114C4FF482720023C6
:10481000C0E900424FF4E0614FF40072C0E9023198
:104820001824826107210822C0E90433C0E9074344
:10483000C0E90933C0E90B13426304F07BFE00B901
:1048400010BDBDE81040FFF7DBBF00BFA80D002082
:10485000003C004070B52F4B026888B000249A429B
:10486000CDE90244CDE90444069401D008B070BDFE
:1048700003F5EA3305469A6D274E42F400429A65E5
:104880009A6D02F400420092009ADA6C42F004023F
:10489000DA64DB6C03F0040301934FF4E05202236B
:1048A000CDE9022301981D480322062302A9CDE980
:1048B000052301F0CFFC1A4A34620E23C6E9002317
:1048C00030468023C6E90244C6E90434C6E90644FA
:1048D00001F088FBC0B9134C1349AE650F220023C9
:1048E000C4E90012204610218022C4E90213C4E961
:1048F0000533C4E90733B562226101F073FB30B9B7
:104900006C65A56208B070BDFFF77AFFE3E7FFF7BB
:1049100077FFF5E7003C0040480D00200008004804
:104920001C000240E80C0020300002400B4B1A6EC5
:1049300042F001021A661A6E82B002F00102009281
:10494000009A9A6D42F080529A659B6D03F08053F5
:104950000193019B02B003F093BF00BF001002401F
:10496000FEE700BFFEE700BFFEE700BFFEE700BFB7
:10497000FEE700BF704700BF704700BF704700BF31
:1049800000F0F0BB014801F017BC00BF280A00206E
:10499000014801F011BC00BF480D0020014801F0A2
:1049A0000BBC00BFE80C0020014802F0E3BF00BFD1
:1049B00014280020014805F0F3BB00BF600E002062
:1049C000014805F0EDBB00BF100E0020014805F0C6
:1049D000E7BB00BFA00F0020014805F0E1BB00BF0E
:1049E000500F0020014805F0DBBB00BF000F002086
:1049F00008B50448002102F0C1FCBDE8084008F0F9
:104A0000F7BA00BFD00B00200148FF2102F0B6BC6E
:104A1000D00B0020034AD2F8883043F47003C2F868
:104A20008830704700ED00E000B51B484FF0804231
:104A30000260A922002389B0426040F2E732C0E957
:104A400002328022CDE90433CDE90633CDE90133CA
:104A500003930361826105F0A3F890B94FF480538A
:104A60000D48049304A905F0B9FA90B900230A4847
:104A7000019301A9039305F0A7FD28B909B05DF8DA
:104A800004FBFFF7BDFEE9E7FFF7BAFE09B05DF8EA
:104A900004FBFFF7B5FEE9E7A00F002000B51B48B7
:104AA0001B4A0260A922002389B0426041F287328A
:104AB000C0E902328022CDE90433CDE90633CDE9E5
:104AC000013303930361826105F06AF890B94FF4F2
:104AD00080530E48049304A905F080FA90B900238E
:104AE0000A48019301A9039305F06EFD28B909B0A6
:104AF0005DF804FBFFF784FEE9E7FFF781FE09B0EC
:104B00005DF804FBFFF77CFEE9E700BF500F0020D3
:104B10000004004000B51B481B4A0260A922002384
:104B200089B0426042F20F72C0E902328022CDE9C0
:104B30000433CDE90633CDE9013303930361826188
:104B400005F02EF890B94FF480530E48049304A951
:104B500005F044FA90B900230A48019301A9039390
:104B600005F032FD28B909B05DF804FBFFF748FEF7
:104B7000E9E7FFF745FE09B05DF804FBFFF740FEEB
:104B8000E9E700BF000F002000080040000000001F
:104B900030B50024A5B03422214617A8524D069402
:104BA000CDE90744CDE90344CDE91144CDE91344EF
:104BB000CDE91544029410940994FCF76DF94B4A21
:104BC000AC60A923C5E9002340F2E733EB60284637
:104BD0008023C5E90444AB6104F0E2FF00284FD113
:104BE0004FF480534048069306A905F0F7F90028D2
:104BF00055D13D4805F0B6F800284DD100230022DC
:104C0000CDE902233848002302A9049305F0DCFC17
:104C100000283ED160229FED327B002310924FF49A
:104C2000FA72CDE911233048139310A908228DEDB3
:104C3000147B169305F0DAFB40BB00234FF40050C1
:104C4000CDE91B304FF000722748239317A9CDE917
:104C50001733CDE91933CDE91D33CDE91F32CDE945
:104C6000213305F00BFD70B9204A296800239142D9
:104C7000CDE90A33CDE90C330E9313D025B030BD06
:104C8000FFF7BEFDACE7FFF7BBFDEDE7FFF7B8FDB3
:104C9000D3E7FFF7B5FDBDE7FFF7B2FDAEE7FFF7DE
:104CA000AFFDA6E703F1804303F504331048DA6C47
:104CB00042F00202DA64DB6C03F002030193032288
:104CC0000A234FF4007402250AA9CDE90A45CDE96B
:104CD0000D23019C01F0BEFA25B030BDAFF300807A
:104CE0000000000000000000B00E00200034014071
:104CF000000400480A480B4908B54FF6FF7200232C
:104D0000C0E90013C0E90232C0E90433836104F052
:104D100047FF00B908BDBDE80840FFF771BD00BFFF
:104D2000600E0020004401400A480B4908B54FF6C8
:104D3000FF720023C0E90013C0E90232C0E9043366
:104D4000836104F02DFF00B908BDBDE80840FFF7FE
:104D500057BD00BF100E00200048014000B5036899
:104D6000B3F1804F87B01ED0404A934231D0404AC1
:104D7000934243D03F4A934208D03F4A934252D095
:104D80003E4A934260D007B05DF804FB3C4B1A6E7C
:104D900042F400521A661B6E03F400530393039B04
:104DA00007B05DF804FB03F504330022986D40F072
:104DB000010098659B6D03F001031C2000931146D0
:104DC000009B01F0ABF81C2007B05DF804EB01F08C
:104DD000E1B82B4B986D40F0020098659B6D002266
:104DE00003F00203019311461D20019B01F096F888
:104DF0001D2007B05DF804EB01F0CCB8204B986D96
:104E000040F0040098659B6D002203F004030293B8
:104E100011461E20029B01F081F81E2007B05DF8AC
:104E200004EB01F0B7B8164B186E40F4003018666A
:104E30001B6E002203F40033192004931146049BD7
:104E400001F06CF81920BFE70D4B186E40F480207C
:104E500018661B6E002203F480231A200593114666
:104E6000059B01F05BF81A20AEE700BF000400408C
:104E70000008004000340140004401400048014067
:104E80000010024010B51F481F4C00234FF4E131C1
:104E90000C22C0E90041C0E90233C0E90432C0E994
:104EA0000633C0E90833836205F01CFF70B915486A
:104EB000002105F069FF88B91248002105F0A6FF1E
:104EC000A0B9104805F042FFB8B910BDFFF798FC33
:104ED0000C48002105F058FF0028EDD0FFF790FCAA
:104EE0000848002105F092FF0028EAD0FFF788FC6F
:104EF000044805F02BFF0028E7D0BDE81040FFF77D
:104F00007FBC00BF881000200038014010B51F484A
:104F10001F4C00234FF4E1310C22C0E90041C0E9ED
:104F20000233C0E90432C0E90633C0E908338362C2
:104F300005F0D8FE70B91548002105F025FF88B9A5
:104F40001248002105F062FFA0B9104805F0FEFEEE
:104F5000B8B910BDFFF754FC0C48002105F014FF50
:104F60000028EDD0FFF74CFC0848002105F04EFF6B
:104F70000028EAD0FFF744FC044805F0E7FE0028CB
:104F8000E7D0BDE81040FFF73BBC00BFF00F0020AA
:104F9000004800400000000010B504469EB000210B
:104FA000542209A8CDE90411CDE906110891FBF7B7
:104FB00073FF374A2368934204D0364A93422BD07A
:104FC0001EB010BD012309A8099304F007F80028BA
:104FD0004BD1314B31481A6E42F480421A661A6E38
:104FE00002F480420092009ADA6C9FED237B42F03B
:104FF0000402DA64DB6C8DED047B9FED217B03F012
:105000000403019304A907238DED067B019A0893FD
:1050100001F020F91EB010BD042309A8099303F084
:10502000DDFF28BB1C4B1E489A6D42F480229A6516
:105030009A6D02F480220292029ADA6C9FED127B42
:1050400042F00202DA64DB6C8DED047B9FED0C7B99
:1050500003F00203039304A907238DED067B039A53
:10506000089301F0F7F81EB010BDFFF7C9FBB0E7D9
:10507000FFF7C6FBD6E700BF3000000002000000CB
:105080000000000003000000000C0000020000000F
:10509000003801400048004000100240000800486D
:1050A000000400480D488546FFF7B4FC0C480D4944
:1050B0000D4A002302E0D458C4500433C4188C4273
:1050C000F9D30A4A0A4C002301E013600432A242D9
:1050D000FBD3FBF7CDFFFFF769FAFEE700000220E4
:1050E00000000020CC02002008D50008D0020020DB
:1050F000F02A0020FEE7000038B50F4B1B680BB903
:10510000012038BD0D494FF47A720546B2FBF3F326
:105110000868B0FBF3F000F04BFF04460028EFD125
:105120000F2DEDD8024629464FF0FF3000F0F6FE75
:10513000034B20461D6038BD4C0100204801002073
:105140005001002010B5032000F0D6FE0F20FFF71D
:10515000D3FF10B10124204610BD0446FFF7E6FB43
:10516000204610BD034A0449136809680B441360C4
:10517000704700BF1C1100204C010020014B186833
:10518000704700BF1C11002038B50446FFF7F6FF3A
:10519000631C054602D0044B1B681C44FFF7EEFF5E
:1051A000401BA042FAD338BD4C01002030B583B07B
:1051B0000023019300285CD0C56D0446002D00F04B
:1051C000C180226893689B0005D5936823F0204333
:1051D00023F03F0393609368DD0019D46F4B704850
:1051E0001B6891689B09A0FB030321F010419B09F8
:1051F00021F03F0101335B0041F080519160019348
:10520000019B2BB1019B013B0193019B002BF9D129
:105210009368D80030D4E36D43F01003E365236E48
:10522000012003432366936813F0040FE36D1CD140
:10523000D9061AD4E36D23F4817343F00203E365C6
:105240009368DB0729D4B2F1A04F17D0554B9A428F
:1052500014D05549554B89689B680B43544989685C
:105260000B43D90719D4534911E0E36D43F0100300
:10527000E365012003B030BD0020D4E7494B4FF077
:10528000A04189689B680B43DD0706D44A498B68B7
:10529000656823F47C132B438B60E568E36B94F81B
:1052A00024102B43A5682B43657F012943EA45332E
:1052B00043EA01434CD0E16A21B1256B01F47871D6
:1052C00029430B43D5683D4929401943D1601369EF
:1052D000616B23F040630B43136193681B0722D477
:1052E000D16894F83830257F21F480415B0021F0AB
:1052F000020143EA85330B432169D3601369002916
:1053000033D043F480331361D2F8C0306FF30D0310
:105310000B43C2F8C03094F84030012B2FD01369F2
:1053200023F0010313616369012B16D0136B23F083
:105330000F031363E36D23F0030343F00103E365FD
:1053400003B030BDFEF75EFD256684F8585038E79F
:10535000A16A013943EA4143ADE7116B236A21F0A9
:105360000F01013B0B431363E4E723F48033136124
:10537000D2F8C0306FF30D03C2F8C030CBE711692B
:10538000636CA56C6FF38A012B430B43E16C0B43F9
:10539000216D0B4343F001031361C4E74801002072
:1053A000632D3E0500010050000400500005005030
:1053B0000006005000070050000300500740F0FFB7
:1053C0000368186C704700BF704700BF704700BF8C
:1053D00008B5806AFFF7FAFF08BD00BF704700BF3D
:1053E000836ADA6D12F0500F10B5DA6D1DD11968AD
:1053F00042F40072DA650A6812F0080FCA681BD01E
:1054000012F4406F0DD1CA6894040AD4DA6D22F404
:105410008072DA65DA6DD10403D4DA6D42F00102EC
:10542000DA651846FFF7D0FF10BDD2060AD45B6DCF
:10543000BDE810405B6B18479007E7D51846FFF7AB
:10544000C3FFF1E71846FFF7C9FF10BD806A08B532
:10545000C36D43F04003C365036E43F0040303666A
:10546000FFF7BCFF08BD00BF2DE9F04190F85820C0
:1054700082B00346012A4FF00000019000F01F8126
:105480001A68012083F858009468640767D4486854
:105490004FEA901E00F01F0C0EF00C0E086802F18F
:1054A0003004C0F3846054F80E501F2600FA0CF04C
:1054B00006FA0CFC25EA0C0C40EA0C0044F80E003D
:1054C0009068470755D5906808689468E50712D436
:1054D000CE68BD4CD2F8B05006F01807FC40C0F3BF
:1054E0001207044025EA07052C43C2F8B040B74C28
:1054F000A64200F09180B64908422ED0B2F1A04FEA
:1055000000F0DB80B34DB449B44CAA4218BF214629
:10551000B34C8968A04201F0E07500F0D480B14C32
:10552000A04200F0D080B04CA04200F0F580AF4C1B
:10553000A04212D1490210D4A6498A420DD0A648F1
:1055400001F5C061B2F1A04F08BF01468A6822F0A0
:10555000E0722A4342F480028A60002003E0DA6DA0
:1055600042F02002DA65002283F8582002B0BDE83C
:10557000F081946808682607A7D48D68C0F30456A4
:105580000724C00DB440B5F1004F00F004006FEAED
:10559000040400F0358102F11407B5403E58344050
:1055A0002C433C50506920F000405061D1E9046424
:1055B0000868D568042E074600F0D980C5F3C105F8
:1055C0006D0000F0F84704FA05F002F16004884D20
:1055D00054F826C00CEA05053D43284340F000403E
:1055E00044F826000D698E6954F8250020F080707B
:1055F000304344F825000E690D7F54F82600A5F1CC
:105600000105B5FA85F56D0920F0007040EA4560A6
:1056100044F82600086858E7002F00F0928090FABE
:10562000A0F4002C00F0F680B4FA84F4013404F005
:105630001F04092C40F2EE8090FAA0F4002C00F038
:105640009181B4FA84F40134A40604F0F84490FA89
:10565000A0F5002D00F09D81B5FA85F5013505F026
:105660001F05012606FA05F52C4390FAA0F0002844
:1056700000F08D81B0FA80F0451C05F01F05032075
:105680006FF01D0610FB0560000540F00070204320
:10569000C50D8C6805F0040502F11406C0F3045032
:1056A00004FA00F74FF0070C74590CFA00F024EAE2
:1056B00000003843705108681DE7474928E7022079
:1056C00002B0BDE8F0810C023FF547AFB2F1A04F48
:1056D0004BD048498A427FF440AF4048464A474C45
:1056E000126881689209A4FB0242920921F0E071DC
:1056F0000132294302EB4202920041F40001816031
:105700000192019A002A3FF428AF019A013A0192CE
:10571000019A002AF9D120E7C8013FF51EAFB2F186
:10572000A04F00F01D812B4C2B492C48A24218BFE2
:1057300001468A6822F0E0722A4342F080728A6051
:105740000BE7800E013000F01F050124800600F0F9
:10575000F840AC40092D44EA000405EB45007ED931
:105760001E38000540F0007091E71B48B6E7146E44
:10577000146EC0F31205C4F38464002D71D1C0F31C
:105780008460844200F0A580546E556E02F160047E
:10579000C5F3846502F1640E854200F0C580A568FA
:1057A000A56804F1080CC5F38465854200F0A68065
:1057B000E568E56804F10C06C5F38464A04200F0D6
:1057C000C980384681E600BFFFFF070000007F4028
:1057D0000000088000010050000300500007005046
:1057E000000021C31000C090000052C7000084CB0D
:1057F00000F0FF030006005048010020632D3E0525
:1058000002F1140635582C403450506940F00040E5
:105810005061CBE690FAA0F4002C00F0AB80B4FA13
:1058200084F40134A40604F0F84490FAA0F5002DA5
:1058300000F09E80B5FA85F5013505F01F050126BB
:1058400006FA05F52C4390FAA0F0002800F08D80B0
:10585000B0FA80F0013000F01F0000EB40000005BE
:1058600015E790FAA0F51DB1B5FA85F5AC4230D038
:10587000546E556E02F16004C5F3846502F1640E46
:1058800097FAA7F604F1080CE046002E7AD0B6FA93
:1058900086F6AE424AD0DCF80050DCF80050C5F382
:1058A000846597FAA7FE04F10C06B046BEF1000F1E
:1058B00063D0BEFA8EFEAE4522D034683468C4F39D
:1058C000846497FAA7F5002D3FF4FFADB5FA85F093
:1058D00074E7106E144620F0004044F8600F0F6823
:1058E000506E556EC7F3120602F1640EC5F384655F
:1058F0003846002EC4D1C7F384604DE704F10C088C
:10590000DCF8000020F00040CCF800000F68E068F0
:10591000E468C7F312054646C4F384643846002D94
:10592000CFD1C7F3846049E704F10808DEF800002E
:1059300020F00040CEF800000F68A068A568C7F30B
:105940001206C446C5F384653846002EA9D1C7F3B4
:1059500084602AE7306820F0004030600868B4E5D1
:105960000D49E6E64FF0806471E64FF440108EE694
:10597000022567E74FF0806457E7E568E468C4F301
:1059800084649EE7A568A568C5F3846589E7034834
:105990007DE6022568E600BF00030050000050FECF
:1059A00070B582B00022036801929A68D20734D49D
:1059B00099682D4A1142044632D19A6822F0004279
:1059C00022F03F0242F00102B3F1A04F9A6048D0AA
:1059D0002648274A2749834218BF0A4693681B0274
:1059E00029D4FFF7CBFB23681A68D607054614D4E1
:1059F000214E9A68D00704D49A68324042F00102DE
:105A00009A60FFF7BBFB431B022B236802D91A687D
:105A1000D10705D51A68D207EBD5002002B070BDBA
:105A2000E36D43F01003E365236E012043F00103AF
:105A3000236602B070BD114B114A1B689B09A2FB83
:105A400003239B09013303EB43039B000193019B59
:105A5000002BC6D0019B013B0193019B002BF9D188
:105A6000BFE7034ABAE700BF3F00008000010050D3
:105A70000003005000070050C0FFFF7F48010020D6
:105A8000632D3E050368B3F1A04F70B5044652D0B4
:105A900039483A4A3A49834218BF0A4696689D688F
:105AA00015F0040545D194F85830012B41D001235D
:105AB00084F858302046FFF773FF00283DD1E36D8E
:105AC000226823F4706323F0010343F48073E365D9
:105AD000294B9A4206F01F0644D003F580639A4290
:105AE00045D01146E36D23F48013E365E36D13F4B1
:105AF00080531CBF236E23F0060323661C23136010
