:020000040800F2
:1000000000000220A13D0008CD360008CF360008D0
:10001000D1360008D3360008D536000800000000AD
:10002000000000000000000000000000D7360008BB
:10003000D936000800000000DB360008DD36000875
:10004000F13D0008F13D0008F13D0008F13D0008D8
:10005000F13D0008F13D0008F13D0008F13D0008C8
:10006000F13D0008F13D0008F13D0008E5360008CB
:10007000F536000805370008F13D0008F13D00089D
:10008000F13D0008F13D0008F13D0008F13D000898
:1000900015370008F13D0008F13D0008F13D00086A
:1000A000F13D00082537000835370008F13D00080C
:1000B000453700085537000865370008F13D00084E
:1000C000F13D0008F13D0008F13D0008F13D000858
:1000D000F13D0008F13D0008F13D0008F13D000848
:1000E000F13D0008F13D0008F13D0008F13D000838
:1000F000F13D0008F13D0008F13D0008F13D000828
:10010000F13D0008F13D0008F13D0008F13D000817
:10011000F13D0008F13D0008F13D0008F13D000807
:10012000F13D0008F13D0008F13D0008F13D0008F7
:10013000F13D0008F13D0008F13D0008F13D0008E7
:10014000F13D0008F13D0008F13D0008F13D0008D7
:1001500075370008F13D0008F13D0008F13D000849
:10016000F13D000889370008F13D0008F13D000825
:10017000F13D0008F13D0008F13D0008F13D0008A7
:10018000F13D0008F13D0008F13D0008F13D000897
:10019000F13D000800000000F13D0008F13D0008BD
:1001A000F13D0008F13D0008F13D0008F13D000877
:1001B000F13D0008F13D0008F13D0008F13D000867
:1001C000F13D0008F13D0008F13D0008F13D000857
:0801D000F13D0008F13D0008BB
:1001D80010B5054C237833B9044B13B10448AFF379
:1001E80000800123237010BDCC0200200000000015
:1001F800DCC3000808B5034B1BB103490348AFF340
:10020800008008BD00000000D0020020DCC3000808
:1002180081F0004102E000BF83F0004330B54FEAAF
:1002280041044FEA430594EA050F08BF90EA020F1C
:100238001FBF54EA000C55EA020C7FEA645C7FEAAF
:10024800655C00F0E2804FEA5454D4EB5555B8BFD2
:100258006D420CDD2C4480EA020281EA030382EA43
:10026800000083EA010180EA020281EA0303362DD5
:1002780088BF30BD11F0004F4FEA01314FF4801CA8
:100288004CEA113102D0404261EB410113F0004FBA
:100298004FEA03334CEA133302D0524263EB430371
:1002A80094EA050F00F0A780A4F10104D5F1200E0F
:1002B8000DDB02FA0EFC22FA05F2801841F100016A
:1002C80003FA0EF2801843FA05F359410EE0A5F13E
:1002D80020050EF1200E012A03FA0EFC28BF4CF06F
:1002E800020C43FA05F3C01851EBE37101F0004525
:1002F80007D54FF0000EDCF1000C7EEB00006EEB32
:100308000101B1F5801F1BD3B1F5001F0CD34908BB
:100318005FEA30004FEA3C0C04F101044FEA445212
:1003280012F5800F80F09A80BCF1004F08BF5FEA99
:10033800500C50F1000041EB045141EA050130BD79
:100348005FEA4C0C404141EB0101013C28BFB1F58B
:10035800801FE9D291F0000F04BF01460020B1FAD6
:1003680081F308BF2033A3F10B03B3F120020CDAA9
:100378000C3208DD02F1140CC2F10C0201FA0CF087
:1003880021FA02F10CE002F11402D8BFC2F1200CEC
:1003980001FA02F120FA0CFCDCBF41EA0C019040A2
:1003A800E41AA2BF01EB0451294330BD6FEA0404EB
:1003B8001F3C1CDA0C340EDC04F11404C4F12002D6
:1003C80020FA04F001FA02F340EA030021FA04F3E8
:1003D80045EA030130BDC4F10C04C4F1200220FA3F
:1003E80002F001FA04F340EA0300294630BD21FA7D
:1003F80004F0294630BD94F0000F83F4801306BF43
:1004080081F480110134013D4EE77FEA645C18BF36
:100418007FEA655C29D094EA050F08BF90EA020FCD
:1004280005D054EA000C04BF1946104630BD91EAC5
:10043800030F1EBF0021002030BD5FEA545C05D1C8
:100448004000494128BF41F0004130BD14F5800407
:100458003CBF01F5801130BD01F0004545F0FE417B
:1004680041F470014FF0000030BD7FEA645C1ABFB0
:10047800194610467FEA655C1CBF0B46024650EAE7
:10048800013406BF52EA033591EA030F41F4002113
:1004980030BD00BF90F0000F04BF0021704730B599
:1004A8004FF4806404F132044FF000054FF000016E
:1004B80050E700BF90F0000F04BF0021704730B52F
:1004C8004FF4806404F1320410F0004548BF404204
:1004D8004FF000013EE700BF42004FEAE2014FEA59
:1004E80031014FEA02701FBF12F07F4393F07F4F34
:1004F80081F06051704732F07F4208BF704793F037
:100508007F4F04BF41F40021704730B54FF4607449
:1005180001F0004521F000411CE700BF50EA01024C
:1005280008BF704730B54FF000050AE050EA0102F5
:1005380008BF704730B511F0004502D5404261EB65
:1005480041014FF4806404F132045FEA915C3FF4A6
:10055800D8AE4FF003025FEADC0C18BF03325FEA43
:10056800DC0C18BF033202EBDC02C2F1200300FAF4
:1005780003FC20FA02F001FA03FE40EA0E0021FA19
:1005880002F11444BDE600BF70B54FF0FF0C4CF407
:10059800E06C1CEA11541DBF1CEA135594EA0C0FB9
:1005A80095EA0C0F00F0DEF82C4481EA030621EAF4
:1005B8004C5123EA4C5350EA013518BF52EA03352F
:1005C80041F4801143F4801338D0A0FB02CE4FF0E1
:1005D8000005E1FB02E506F00042E0FB03E54FF011
:1005E8000006E1FB03569CF0000F18BF4EF0010E09
:1005F800A4F1FF04B6F5007F64F5407404D25FEA05
:100608004E0E6D4146EB060642EAC62141EA5551B7
:100618004FEAC52040EA5E504FEACE2EB4F1FD0CF9
:1006280088BFBCF5E06F1ED8BEF1004F08BF5FEA77
:10063800500E50F1000041EB045170BD06F0004629
:1006480046EA010140EA020081EA0301B4EB5C04D6
:10065800C2BFD4EB0C0541EA045170BD41F48011CE
:100668004FF0000E013C00F3AB8014F1360FDEBFF3
:10067800002001F0004170BDC4F10004203C35DACF
:100688000C341BDC04F11404C4F1200500FA05F352
:1006980020FA04F001FA05F240EA020001F00042F3
:1006A80021F0004110EBD37021FA04F642EB060169
:1006B8005EEA430E08BF20EAD37070BDC4F10C0493
:1006C800C4F1200500FA04F320FA05F001FA04F257
:1006D80040EA020001F0004110EBD37041F1000143
:1006E8005EEA430E08BF20EAD37070BDC4F120054E
:1006F80000FA05F24EEA020E20FA04F301FA05F2B6
:1007080043EA020321FA04F001F0004121FA04F25D
:1007180020EA020000EBD3705EEA430E08BF20EA2D
:10072800D37070BD94F0000F0FD101F00046400067
:1007380041EB010111F4801F08BF013CF7D041EAE9
:10074800060195F0000F18BF704703F000465200ED
:1007580043EB030313F4801F08BF013DF7D043EABE
:100768000603704794EA0C0F0CEA135518BF95EA74
:100778000C0F0CD050EA410618BF52EA4306D1D1FB
:1007880081EA030101F000414FF0000070BD50EA1A
:10079800410606BF1046194652EA430619D094EAA4
:1007A8000C0F02D150EA013613D195EA0C0F05D18E
:1007B80052EA03361CBF104619460AD181EA0301E2
:1007C80001F0004141F0FE4141F470014FF000009A
:1007D80070BD41F0FE4141F4780170BD70B54FF035
:1007E800FF0C4CF4E06C1CEA11541DBF1CEA1355B5
:1007F80094EA0C0F95EA0C0F00F0A7F8A4EB050497
:1008080081EA030E52EA03354FEA013100F088808D
:100818004FEA03334FF0805545EA131343EA126356
:100828004FEA022245EA111545EA10654FEA00260B
:100838000EF000419D4208BF964244F1FD0404F5C4
:10084800407402D25B084FEA3202B61A65EB030520
:100858005B084FEA32024FF480104FF4002CB6EBDD
:10086800020E75EB030E22BFB61A754640EA0C005D
:100878005B084FEA3202B6EB020E75EB030E22BF9D
:10088800B61A754640EA5C005B084FEA3202B6EBDE
:10089800020E75EB030E22BFB61A754640EA9C009D
:1008A8005B084FEA3202B6EB020E75EB030E22BF6D
:1008B800B61A754640EADC0055EA060E18D04FEA2B
:1008C800051545EA16754FEA06164FEAC30343EACB
:1008D80052734FEAC2025FEA1C1CC0D111F4801F98
:1008E8000BD141EA00014FF000004FF0004CB6E791
:1008F80011F4801F04BF01430020B4F1FD0C88BF30
:10090800BCF5E06F3FF6AFAEB5EB030C04BFB6EB3A
:10091800020C5FEA500C50F1000041EB045170BD2D
:100928000EF0004E4EEA113114EB5C04C2BFD4EB5A
:100938000C0541EA045170BD41F480114FF0000EDE
:10094800013C90E645EA060E8DE60CEA135594EA5A
:100958000C0F08BF95EA0C0F3FF43BAF94EA0C0F5D
:100968000AD150EA01347FF434AF95EA0C0F7FF4D2
:1009780025AF104619462CE795EA0C0F06D152EA26
:1009880003353FF4FDAE1046194622E750EA41060A
:1009980018BF52EA43067FF4C5AE50EA41047FF41B
:1009A8000DAF52EA43057FF4EBAE12E74FEA41027E
:1009B800B2F1E04324BFB3F5001CDCF1FE5C0DD9B5
:1009C80001F0004C4FEAC0024CEA5070B2F1004FFF
:1009D80040EB830008BF20F00100704711F0804F02
:1009E80021D113F13872BCBF01F00040704741F4C7
:1009F80080114FEA5252C2F11802C2F1200C10FACB
:100A08000CF320FA02F018BF40F001004FEAC123AE
:100A18004FEAD32303FA0CFC40EA0C0023FA02F352
:100A28004FEA4303CCE77FEA625307D150EA013328
:100A38001EBF4FF0FE4040F44000704701F00040F8
:100A480040F0FE4040F40000704700BF53B94AB977
:100A5800002908BF00281CBF4FF0FF314FF0FF30BE
:100A680000F06AB9ADF1080C6DE904CE00F006F8A3
:100A7800DDF804E0DDE9022304B070472DE9F04712
:100A8800089D0C46002B4ED194468C458646B2FAFA
:100A980082F262D94AB1C2F12003914020FA03F3ED
:100AA8000CFA02FC194300FA02FE4FEA1C471FFA2F
:100AB8008CF6B1FBF7F44FEA1E4307FB141143EA27
:100AC800014304FB06F199420AD91CEB030304F124
:100AD800FF3080F01281994240F20F81023C63445A
:100AE800591A1FFA8EF3B1FBF7F007FB101143EA0E
:100AF800014300FB06F69E420AD91CEB030300F1F2
:100B0800FF3180F0FC809E4240F2F9806344023855
:100B18009B1B40EA044000211DB1D3400022C5E9D7
:100B28000032BDE8F0878B4205D90DB1C5E9000157
:100B380000210846F5E7B3FA83F1002946D1A3421C
:100B480002D39042C0F0F080861A64EB03030120C0
:100B5800002DE6D0C5E90063E3E7002A40F0908065
:100B6800A1EB0C044FEA1C481FFA8CF70121B4FBD7
:100B7800F8F64FEA1E4308FB164443EA044307FB12
:100B880006F0984208D91CEB030306F1FF3402D2A1
:100B9800984200F2CD8026461C1A1FFA8EF3B4FB49
:100BA800F8F008FB104443EA044300FB07F79F42B0
:100BB80008D91CEB030300F1FF3402D29F4200F274
:100BC800B0802046DB1B40EA0640A5E7C1F12006BD
:100BD8008B4022FA06F71F4320FA06FC04FA01F3B9
:100BE80043EA0C03F44000FA01F8380C4FEA1349C1
:100BF800B4FBF0FE1FFA87FC00FB1E4449EA0444DC
:100C08000EFB0CF9A14502FA01F20AD93C190EF1C2
:100C1800FF3A80F08480A14540F28180AEF1020E57
:100C28003C44A4EB09041FFA83F9B4FBF0F300FB7E
:100C3800134449EA044403FB0CFCA44507D93C19B6
:100C480003F1FF3067D2A44565D9023B3C4443EA2F
:100C58000E40A0FB0293A4EB0C049C42CE469C469B
:100C680051D34ED055B1B8EB0E0364EB0C0404FA23
:100C780006F6CB401E43CC40C5E90064002150E78E
:100C8800C2F1200320FA03F10CFA02FC24FA03F360
:100C980094400C434FEA1C4800FA02FE1FFA8CF7F6
:100CA800B3FBF8F008FB1031230C43EA014300FBC7
:100CB80007F1994208D91CEB030300F1FF362CD247
:100CC80099422AD9023863445B1AA4B2B3FBF8F1FB
:100CD80008FB113344EA034401FB07F3A34208D994
:100CE8001CEB040401F1FF3613D2A34211D90239D7
:100CF8006444E41A41EA004139E70446F0E608464C
:100D080006E7C845AED2B9EB020E63EB070C013813
:100D1800A8E73146EDE7034699E73046D4E7D646DB
:100D28007FE7634402384DE70646234608460FE747
:100D3800023E634430E700BF704700BF4FF0FF3CFE
:100D480006E000BF4FF0010C02E000BF4FF0010CBD
:100D58004DF804CD4FEA410C7FEA6C5C4FEA430C36
:100D680018BF7FEA6C5C1BD001B050EA410C0CBF85
:100D780052EA430C91EA030F02BF90EA020F0020E7
:100D8800704710F1000F91EA030F58BF994208BF4E
:100D980090422CBFD8176FEAE37040F0010070470B
:100DA8004FEA410C7FEA6C5C02D150EA013C07D162
:100DB8004FEA430C7FEA6C5CD6D152EA033CD3D0AD
:100DC8005DF8040B704700BF8446104662468C46A7
:100DD8001946634600E000BF01B5FFF7B7FF0028DA
:100DE80048BF10F1000F01BD4DF808EDFFF7F4FF03
:100DF8000CBF012000205DF808FB00BF4DF808ED8E
:100E0800FFF7EAFF34BF012000205DF808FB00BFB0
:100E18004DF808EDFFF7E0FF94BF012000205DF8D2
:100E280008FB00BF4DF808EDFFF7CEFF94BF012087
:100E380000205DF808FB00BF4DF808EDFFF7C4FF80
:100E480034BF012000205DF808FB00BF4FEA410CC9
:100E58007FEA6C5C02D150EA013C0AD14FEA430CAC
:100E68007FEA6C5C02D152EA033C02D14FF00000E9
:100E780070474FF00100704710B50F4B0022DA7130
:100E88000E4C0321204605F042F9C021204605F00A
:100E98003EF90B4A6423138393825383D382138BC3
:100EA8001BB22168C3F5EA433033C1F89C30538B39
:100EB8001BB2C1F81C3210BD7003002008090020C5
:100EC8000000002007EE900AF8EE677A9FED067A98
:100ED80067EE877A9FED057A87EE870ADFED047A59
:100EE80020EE270A704700BF3333534000F0FF4518
:100EF8004C37584108B5074BD869FFF7E3FFF1EEC7
:100F0800087AB4EEE70AF1EE10FA01DB012008BD19
:100F18000020FCE75003002007EE900AF8EE677AFD
:100F28009FED087A67EE877A9FED077A87EE870A42
:100F3800DFED067A70EE677A9FED050A87EE800A84
:100F4800704700BF3333534000F0FF453333D33F7E
:100F58000BD7233E08B5FFF7DFFFF0EE407AB1EE7E
:100F6800400AF5EEC07AF1EE10FA01D49FED010ABD
:100F780008BD00BF0000000008B5FFF7CDFFF0EE88
:100F8800407AB1EE400AF5EEC07AF1EE10FA01D4DB
:100F98009FED010A08BD00BF00000000B5EEC00AC1
:100FA800F1EE10FA14D4DFED0C7AC0EE276A9FED4B
:100FB8000B7AC6EE877A9FED0A7A67EE877AB6EEE5
:100FC800007A77EE877AFCEEE77A17EE900A704798
:100FD8009FED040AE7E700BF4C37584133335340CD
:100FE80000F0FF4500000000DFED137A20EE270A2D
:100FF800DFED127A30EE270AB5EEC00AF1EE10FAEC
:1010080015D99FED0F7AC0EE077A9FED0E7A67EE3D
:10101800877AF4EEC77AF1EE10FA0ADAB6EE007AB9
:1010280077EE877AFCEEE77A17EE900A7047002091
:10103800704741F6FE7070470BD7233E3333D33FDA
:101048003333534000F0FF45DFED0A7A60EE277A2C
:10105800B5EEC00AF1EE10FA08DBB6EE007A77EECC
:10106800877AFDEEE77A17EE900A7047BEEE007AAF
:10107800F5E700BF00007A4438B51E4B93ED017ABE
:10108800F6EE007AB4EEE77AF1EE10FA01D5C3ED88
:10109800017A184B93ED017ADFED177AB4EEE77A0F
:1010A800F1EE10FA01DDC3ED017A124BD3ED027AAD
:1010B800F5EEC07AF1EE10FA18D40E4B93ED027AE1
:1010C800F2EE047AB4EEE77AF1EE10FA01DDC3ED40
:1010D800027A084D95ED010AFFF760FF074CA06002
:1010E80095ED020AFFF780FFE06038BD00229A60A4
:1010F800E3E700BF4003002000003042000000206A
:1011080008B5FFF7B9FFFFF7B7FE00230A4A1360D7
:101118000A4A13600A4A13600A4A13600A4A1360AB
:101128000A4A93710A490B7093889BB213B9134604
:1011380001221A8008BD00BFC0030020BC030020A4
:10114800B8030020AC030020A8030020700300208F
:101158003C03002038B528B10A4B01225A72FFF728
:10116800CFFF38BD074C00256572FFF785FEA571D6
:10117800054B1D7023889BB2042BF2D001222280DC
:10118800EFE700BF700300203C03002070B5174D47
:101198000024EC71164E0321304604F0B8FFC0213C
:1011A800304604F0B4FFAC71AC80124B1C60642272
:1011B8001A839A825A83DA820F4B1C600F4B1C6089
:1011C8000F4B1C600F4B1C600F4B1C600F4B104AE1
:1011D8005A60104A9A60104B104A1A60104B114A14
:1011E8001A60114B114A1A6070BD00BF70030020CD
:1011F8000809002000000020C0030020BC030020D4
:10120800B8030020AC030020A803002040030020FE
:101218000000A04000002041840300200000A042FC
:1012280080030020000048427C0300200000284181
:1012380008B5FFF7ABFF024B01221A8008BD00BFBB
:101248007003002008B5FFF755FE00B108BDFFF791
:1012580013FE044B00229A7103490A7001221A8076
:10126800F4E700BF700300203C03002070B50F4C6A
:101278000025E5710E4E0321304604F048FFC021D9
:10128800304604F044FF012204210A4804F04EF8D5
:10129800A571A3889BB203B170BD012222802A46A2
:1012A8000421044804F042F8F6E700BF7003002068
:1012B80008090020000C004808B5174B0022DA7115
:1012C8005B7A1BB9154B00221A8008BDFFF712FE86
:1012D8000028F7D0114A138801339BB21380C82B1A
:1012E800F3D91346C8221A800B4B9B889BB2002B5C
:1012F800EBD1094B5B7ADBB2012BE6D10023074A1D
:101308001380074A1360074A1360034A02211180B9
:10131800054A1370D9E700BF7003002010030020AE
:101328000C030020080300203C03002038B5FFF719
:10133800E1FD38B1604B1B78012B3AD0022B59D014
:1013480073B138BDFFF798FD00235C4A13805C4AEF
:101358001380594A13705B4A937101231380F0E795
:101368000024584BDC71584D0321284604F0CFFE69
:10137800C021284604F0CBFE544D6423AB82EB8297
:10138800534B1C60534B1C60534B1C60534B1C60ED
:10139800534B1C60534C94ED010AFFF7FFFDA86006
:1013A80094ED020AFFF720FEE860434B01221A7011
:1013B800C7E74D4A138801339BB21380052BC0D968
:1013C8000022494B1A80414B642119839982598321
:1013D800D9823F490A603F490A603F490A603F494C
:1013E8000A603F490A609A6852105A60324B0222DA
:1013F8001A70A6E7334BDB79002B42D0314B012220
:10140800DA712E4B1A88013292B21A802C490B8855
:1014180001339BB20B802D49888AC2EB021212FA63
:1014280080F212B28A82CA8AC3EB031313FA82F3D8
:101438001BB2CB828B8A1BB246F62862934200DD30
:101448008A82224BDB8A1BB244F62C42934201DD8E
:101458001E4BDA821D4B9B8A1BB246F628629342CA
:101468007FF46FAF194BDB8A1BB244F62C429342D0
:101478007FF467AF134B03221A800F4B00221A70B8
:101488005FE7134A1360134A1360134A1360134A41
:101498001360134A13600C4C236847F23052C3F8A8
:1014A8009C20C3F81C22C021204604F014FE03210E
:1014B800204604F010FEA1E73C03002004030020AE
:1014C800020300207003002008090020000000200B
:1014D800C0030020BC030020B8030020AC03002098
:1014E800A8030020400300200003002038B52DED9C
:1014F800028B2D4CA068FFF7E5FCB0EE408A20680F
:10150800FFF73AFDDFED297AB4EEE70AF1EE10FABB
:1015180006DDF6EE007AB4EEE78AF1EE10FA1FD493
:10152800234B9B8813F0200F17D0224A13680133EE
:101538001360B3F5C87F10DD134600221A601E4BF6
:101548001B780A2B20D801331B4A1370184A93883A
:101558009BB223F020039BB29380BDEC028B38BD75
:10156800134C0023E371154D0321284604F0CFFDE9
:10157800C021284604F0CBFDA3889BB243F020038A
:10158800A38004232380CBE70B4B0B221A70084B54
:101598000022DA71094C0321204604F0B8FDC0216D
:1015A800204604F0B4FDD8E7500300209A99214161
:1015B80070030020FC020020FA0200200809002025
:1015C80038B5164B9868FFF77DFC154BD3ED007ABC
:1015D800F4EEC07AF1EE10FA1BD8124A13880133E0
:1015E8009BB21380022B17D9002313800E4CE37192
:1015F8000E4D0321284604F08AFDC021284604F038
:1016080086FDA3889BB243F00803A38004232380AC
:1016180002E0044B00221A8038BD00BF50030020AE
:1016280080030020F8020020700300200809002031
:1016380038B52F4B1868FFF79FFC2E4BD3ED007A77
:10164800F4EEC07AF1EE10FA04D82B4B1B889BB24B
:10165800032B21D0294B00221A80274B9B8813F09B
:10166800100F18D0264A138801339BB21380B3F5A4
:10167800C87F10D9134600221A80224A13880133E2
:101688009BB213800A2B23D81B4A93889BB223F062
:1016980010039BB2938038BD184A138801339BB25C
:1016A80013800A2BD9D900231380134CE371164DEC
:1016B8000321284604F02BFDC021284604F027FD0D
:1016C800A3889BB243F01003A38004232380C4E7BC
:1016D80013460B221A80084B0022DA710A4C0321A8
:1016E800204604F014FDC021204604F010FDD2E786
:1016F800500300207C03002070030020F602002025
:10170800F4020020F20200200809002008B5114B5D
:101718001B78DBB2012B05D00F4B1B78DBB2012BFA
:101728000FD008BD0D4B1B78002BF5D100220421EA
:101738000B4803F0FBFD0023064A1370064A13709A
:10174800EFE701220421064803F0F0FD014B0122D6
:101758001A70E6E7880300208A0300208903002026
:10176800000C004808B50F4B1B78DBB2012B05D0E5
:101778000D4B1B78DBB2012B0BD008BD00220421D6
:101788000A4803F0D3FD0023064A1370064A137073
:10179800F3E701220421054803F0C8FD014B0122AB
:1017A8001A70EAE78803002089030020000C00482B
:1017B80020EE800AF7EE007A77EEE00A044BD3EDCC
:1017C800007A60EEA70A30EE200A83ED000A70471F
:1017D800E80200200000000008B5DFED1F7A77EE70
:1017E800C07A9FED1E7A67EE877AC7EE806AC6EEEA
:1017F800877A17EE900AFEF76FFE41EC100B0AF09D
:10180800EBFB51EC100B0EA3D3E90023FEF7E6FF28
:101818000DA3D3E90023FEF701FD02460B46002085
:101828000F49FEF7DBFF0AA3D3E90023FEF7F4FC18
:10183800FFF7BCF800EE100A08BD00BFAFF3008048
:101848000000000000DCAE40000000E0E1796B3FE2
:1018580000000060661271403333534000401C465C
:101868000000F03F10B50B4C204602F0CBFF20469D
:1018780002F096FC07EE900AF8EE677A9FED067A7A
:1018880067EE877A9FED050A87EE800AFFF7A4FFC7
:1018980010BD00BF300800203333534000F07F47AD
:1018A80038B5FFF7DFFF0F4BD3ED007AF4EEC07ABF
:1018B800F1EE10FA00D938BD0B4C01232380002328
:1018C800E3710A4D0321284604F021FCC021284673
:1018D80004F01DFCA3889BB243F04003A3800423BB
:1018E8002380E8E784030020700300200809002013
:1018F80038B52DED028B1C4D284602F083FF1B4C9A
:10190800B4F8CA309BB2B4F8A82092B29B1A07EE7A
:10191800903AF8EEE77A9FED167A87EE278A2846FE
:1019280002F03EFC07EE900AF8EE677AB4EE007A11
:1019380067EE877A9FED0F7A67EE877AB4F8A8305A
:101948009BB207EE103AB8EEC77A77EEC77A67EE21
:10195800887ADFED090AB3EE0E0A37EE800AFFF740
:1019680027FFBDEC028B38BDC40700200075FF1FA0
:101978000000C842CDCC8C3FCDCCCC3D10B5124C2C
:10198800E069FFF79FFA114B83ED000A6069FFF7E2
:10199800E1FA0F4B83ED000AE068FFF793FA0D4B6D
:1019A80083ED000A6068FFF7E7FA0B4B83ED000A46
:1019B800FFF758FF094B83ED000AFFF799FF084B23
:1019C80083ED000A10BD00BF50030020380300203B
:1019D80030030020340300202C03002028030020BB
:1019E80024030020642800D96420034B1B6800EB03
:1019F80080004000D8637047D80B002010EE103AE2
:101A08000360704730B58DB001220BA9002000F0AB
:101A18004EFA9DF82C300BB90DB030BD002000F007
:101A28002DFA00248DF81440264D95ED010A6846DC
:101A3800FFF7E4FF95ED020A01A8FFF7DFFF224B4D
:101A480093ED000A02A8FFF7D9FF204B93ED000A97
:101A580003A8FFF7D3FF1E4B93ED000A04A8FFF776
:101A6800CDFF234626E0581C03F130026A4412F8E1
:101A7800304C03F13101694401F81C4C12F82C4C2C
:101A880003F13501694401F81C4C12F8284C03F1A4
:101A98003901694401F81C4C12F8244C03F13D014A
:101AA800694401F81C4C12F8202C41336B4403F8AC
:101AB8001C2CC3B2032BD6D9152205A9002000F08F
:101AC800B9F9A9E740030020840300207C03002023
:101AD80080030020324B93ED007AF7EE007AB4EEE3
:101AE800677AF1EE10FA00D0704730B58DB000205B
:101AF80000F0C4F900248DF81840294D95ED010A2D
:101B080001A8FFF77BFF95ED020A02A8FFF776FF11
:101B1800244B93ED000A03A8FFF770FF224B93EDC7
:101B2800000A04A8FFF76AFF204B93ED000A05A8F6
:101B3800FFF764FF234626E0581C03F130026A448D
:101B480012F82C4C03F13101694401F8184C12F8D1
:101B5800284C03F13501694401F8184C12F8244C5B
:101B680003F13901694401F8184C12F8204C03F1CB
:101B78003D01694401F8184C12F81C2C41336B44A0
:101B880003F8182CC3B2032BD6D9152206A90020B6
:101B980000F050F9024B00221A600DB030BD00BFB2
:101BA80040030020840300207C03002080030020E1
:101BB800036800EE103A704710B58AB014220DEB96
:101BC8000201012000F073F9002325E003F1280247
:101BD8000DEB020111F8142C01F8182C03F12C025A
:101BE8006A4412F8142C01F81C2C03F130026A44E0
:101BF80012F8142C01F8202C03F134026A4412F86C
:101C0800142C01F8242C03F138026A4412F8142C1D
:101C180001F8282C0133DBB2032BD7D904A8FFF72E
:101C2800C7FF0E4C84ED010A03A8FFF7C1FF84ED3E
:101C3800020A02A8FFF7BCFF094B83ED000A01A8BE
:101C4800FFF7B6FF074B83ED000A6846FFF7B0FFC2
:101C5800054B83ED000A0AB010BD00BF4003002009
:101C6800840300207C0300208003002008B5FFF7D0
:101C7800F9FDDFED2C7AB4EEE70AF1EE10FA34D470
:101C8800DFED287AB4EEE70AF1EE10FA31DADFED8B
:101C9800267AB4EEE70AF1EE10FA2EDADFED237AAF
:101CA800B4EEE70AF1EE10FA2BDADFED217AB4EEA2
:101CB800E70AF1EE10FA28DADFED1E7AB4EEE70A49
:101CC800F1EE10FA25DADFED1C7AB4EEE70AF1EE50
:101CD80010FA22DADFED197AB4EEE70AF1EE10FA1B
:101CE80006DB6420FFF77EFE02E00020FFF77AFEA5
:101CF80008BD2320FFF776FEFAE72D20FFF772FED6
:101D0800F6E73C20FFF76EFEF2E74620FFF76AFE93
:101D1800EEE75020FFF766FEEAE75A20FFF762FE7B
:101D2800E6E700BF00000C420000204200003442F9
:101D38000000484200005C420000704200008242FD
:101D4800B4EEE00AF1EE10FA05D4B4EEC10AF1EEF1
:101D580010FA03DC7047B0EE600A7047B0EE410A33
:101D6800704700000023074A1360074A1360074AB8
:101D78001360074A1360074A1360074A1360074A4B
:101D880013607047C0030020BC030020B803002084
:101D9800AC030020A8030020A4030020B403002003
:101DA80008B500224FF400414FF0904003F0BEFA0E
:101DB80008BD08B501224FF400414FF0904003F0F0
:101DC800B5FA08BD00B587B08DF80F0000238DF86F
:101DD80017304FF0FF33009301230DF117020DF177
:101DE8000F01044806F0E7FB9DF8170007B05DF8FF
:101DF80004FB00BFDC0A002008B5FFF7D1FF06206E
:101E0800FFF7E0FFFFF7D5FF08BD000010B5FFF7AB
:101E1800C7FF0520FFF7D6FF054CFF20FFF7D2FFCD
:101E280010F0010F01D0013CF7D1FFF7C2FF10BD40
:101E3800A086010070B504460E461546FFF7E6FF7A
:101E4800FFF7DAFFFFF7ACFF0220FFF7BBFFC4F391
:101E58000740FFF7B7FFC4F30720FFF7B3FFE0B26F
:101E6800FFF7B0FF002404E0305DFFF7ABFF01345B
:101E7800A4B2AC42F8D3FFF79CFF70BD10B504467E
:101E8800FFF7C4FFFFF7B8FFFFF78AFF2020FFF72F
:101E980099FFC4F30740FFF795FFC4F30720FFF746
:101EA80091FFE0B2FFF78EFFFFF783FF10BD70B51B
:101EB80004460E461546FFF7A9FFFFF771FF0320FA
:101EC800FFF780FFC4F30740FFF77CFFC4F3072048
:101ED800FFF778FFE0B2FFF775FF002404E0FF206A
:101EE800FFF770FF30550134AC42F8D3FFF761FFBC
:101EF80070BD00B586464FF0000C4FF6FF7010E03D
:101F080040080133DBB2072B07D810F0010FF7D0D8
:101F18004AF2010282EA5000F3E70CF1010C1FFAC1
:101F28008CFC8C4504D21EF80C3058400023EAE79C
:101F38005DF804FB0170090A417070470170C1F334
:101F480007234370C1F307438370090EC1707047BC
:101F58000378407843EA002070470378427843EAE0
:101F68000223827843EA0243C07843EA006070475C
:101F78000A4B1B889BB2042B0CD8DFE803F0030D37
:101F880005070900012070470420704708207047A2
:101F98000F20704700207047022070477003002010
:101FA8000A4B1B68D86A50B15B6B984208D94FF44A
:101FB8007A7202FB03F3B3FBF0F0904203D8704748
:101FC8004FF47A7070474FF47A70F8E7D80B002016
:101FD80007EE900AF8EEE77A9FED020A87EE800A8C
:101FE800704700BF00007A44174B93ED017AF6EE74
:101FF800007AB4EEE77AF1EE10FA01D5C3ED017A72
:10200800114B93ED017ADFED117AB4EEE77AF1EE38
:1020180010FA01DDC3ED017A0B4BD3ED027AF5EE30
:10202800C07AF1EE10FA0CD4074B93ED027AF2EE77
:10203800047AB4EEE77AF1EE10FA01DDC3ED027A24
:10204800704700229A60EFE740030020000030420A
:1020580008B5FEF7F9FF002800DB08BD0020FCE703
:10206800F8B505461F46BDF818600B889819033067
:10207800C02801D90020F8BD0C46591C2180EA541B
:10208800208831462844FFF755FF2088023080B267
:1020980020800EB90120EEE732463946284409F07F
:1020A80023FF2388334423800120E4E700B585B06B
:1020B8008DF80F30012300930DF10F03FFF7D0FFC8
:1020C80005B05DF804FB70B584B004460D461646AD
:1020D800194603A8FFF732FF0423009303AB3246E7
:1020E80029462046FFF7BCFF04B070BD70B5044612
:1020F8000E461546A0F10A031E2B00F24D81DFE8BB
:1021080013F01F002B00370043004F005B004B010A
:10211800670073004B017F009A00A200AB00B40077
:10212800BC00C500CE00D700E000E000EC00EC00E9
:10213800F800F80004010D01170121012A013201FC
:10214800964B93ED000AFEF77FFF03462246294689
:102158003046FFF7B8FF70BD914B93ED000AFFF7CB
:1021680077FF0346224629463046FFF7ACFFF2E7E1
:102178008C4B93ED000AFEF767FF0346224629467B
:102188003046FFF7A0FFE6E7874B93ED000AFFF71D
:102198005FFF0346224629463046FFF794FFDAE7F9
:1021A800824B93ED000AFEF74FFF0346224629466D
:1021B8003046FFF788FFCEE77D4B93ED000AFEF728
:1021C80043FF0346224629463046FFF77CFFC2E715
:1021D800784B93ED010AFEF737FF0346224629465E
:1021E8003046FFF770FFB6E7724B93ED020AFEF731
:1021F8002BFF0346224629463046FFF764FFAAE72D
:102208006D4B5B7A23B16C4B1B889BB2032B06D0BA
:102218000123224629463046FFF748FF9BE7674BD4
:102228001B78DBB2013B18BF012302462946304622
:10223800FFF73CFF8FE7604B5B7A02462946304642
:10224800FFF734FF87E75C4B9B889BB20246294621
:102258003046FFF738FF7EE7FFF78AFE034622463F
:1022680029463046FFF722FF75E7534B9B79024614
:1022780029463046FFF71AFF6DE7514B1B889BB282
:10228800024629463046FFF71EFF64E74C4B5B8841
:102298009BB2024629463046FFF715FF5BE7484BDD
:1022A8009B889BB2024629463046FFF70CFF52E74F
:1022B800434BDB889BB2024629463046FFF703FFB3
:1022C80049E7404B93ED000AFEF7BEFE034622465F
:1022D80029463046FFF7F7FE3DE73B4B93ED000AF2
:1022E800FEF7B2FE0346224629463046FFF7EBFECC
:1022F80031E7364B93ED000AFEF7A6FE0346224669
:1023080029463046FFF7DFFE25E7314B1B8B1BB212
:10231800024629463046FFF7D6FE1CE72D4B1B68C0
:10232800D3F89C30024629463046FFF7CCFE12E728
:10233800284B1B68D3F81C32024629463046FFF763
:10234800C2FE08E7FFF72CFE034622462946304620
:10235800FFF7B9FEFFE6204B1B88024629463046A8
:10236800FFF7B1FEF7E62A461B20FFF7BFFE08B9C4
:102378000020F0E62A4631460C20FFF7B7FE08B9E0
:102388000020E8E62A4631462020FFF7AFFE08B1D4
:102398000120E0E60020DEE60020DCE6380300202D
:1023A80030030020340300202C03002024030020E5
:1023B800280300204003002070030020A003002011
:1023C8008C03002084030020800300207C0300206D
:1023D8000000002008090020C60300202DE9F04174
:1023E80007460E4690461D46991C164CAA23237094
:1023F8005523637089B2A01CFFF79CFD2771667195
:10240800B5B906250F4C29462046FFF772FD01464F
:102418006019FFF78FFD0235ADB20024B4F57A7F5D
:102428000ED22946074809F019FB48B10134F5E7EF
:102438002A464146A01D09F057FD0635ADB2E1E731
:10244800BDE8F081D003002008B5014600231A46F4
:10245800FF20FFF7C3FF08BD2DE9F041B2B00746E2
:102468000E4615460024ADF80640AC421ED22B1B82
:10247800022B17D9601C16F8048016FA80F0FFF7B3
:1024880067FD0334A4B238B90DF1060202A940462B
:10249800FFF72CFE0028E8D13846FFF7D5FF32B009
:1024A800BDE8F0813846FFF7CFFFF8E7BDF8063002
:1024B80002AA39460020FFF791FFF0E730B5B3B024
:1024C80005460024ADF80640172C0FD80DF106027A
:1024D80002A90A4B185DFFF709FE10B10134A4B236
:1024E800F2E72846FFF7B0FF33B030BDBDF806303D
:1024F80002AA29460320FFF771FFF5E718CB000869
:1025080010B51C46A0F1110CBCF1160F00F2DE80CC
:10251800DFE80CF00C47DCDC81DCDCDCDCDCDCDC60
:10252800DC91DCA1DCB1DCDCDCDCC100042A40F09D
:10253800CF800846FFF711FDFFF74AFDF6EE007A57
:10254800B4EEE70AF1EE10FA01D5B0EE670ADFED56
:10255800677AB4EEE70AF1EE10FA01DDB0EE670A29
:10256800634BD3ED017A70EE677A9FED627AF4EEF1
:10257800C77AF1EE10FA08DCD3ED017A77EEC07A6B
:10258800F4EEC77AF1EE10FA01DD01232370584CFE
:1025980084ED010AFFF728FD4FF07E5323600120E8
:1025A80095E0042A40F096800846FFF7D6FCFFF72E
:1025B8000FFDB5EEC00AF1EE10FA29D4F2EE047A56
:1025C800B4EEE70AF1EE10FA01DDB0EE670A484B07
:1025D800D3ED027A70EE677A9FED467AF4EEC77A09
:1025E800F1EE10FA08DCD3ED027A77EEC07AF4EE59
:1025F800C77AF1EE10FA01DD012323703C4C84ED1B
:10260800020AFFF7F1FC4FF07E53236001205EE0E1
:102618009FED390AD2E7012A5ED1087800B101207E
:10262800364B5B7ADBB2834201D101204FE0FEF7E3
:1026380091FD01204BE0042A50D10846FFF78DFC9C
:10264800FFF7C6FC2E4B83ED000A294B4FF07E5254
:102658001A6001203BE0042A42D10846FFF77DFCBE
:10266800FFF7B6FC274B83ED000A214B4FF07E5253
:102678001A6001202BE0042A34D10846FFF76DFCCC
:10268800FFF7A6FC204B83ED000A194B4FF07E5252
:102698001A6001201BE0042A26D10846FFF75DFCDA
:1026A80080B21A4B1880B0F57A7F02D94FF47A724B
:1026B8001A80164C2088164BA3FB0030C008FFF781
:1026C80091F92288134B1A80012000E0002010BDE8
:1026D8000020FCE70020FAE70020F8E70020F6E7F2
:1026E8000020F4E70020F2E70020F0E70000304285
:1026F800400300206F12833A00000000700300209E
:1027080084030020800300207C030020C6030020EF
:10271800CDCCCCCCC40300202DE9F04383B0804657
:102728000F46164600248DF80740B44224D2331BC6
:10273800022B17D9601C17F8049017FA80F0FFF7DE
:1027480007FC05460334A4B2331B83420EDB0DF1AC
:102758000703024639194846FFF7D2FE30B125442F
:10276800ACB2E2E74046FFF76FFE02E04046FFF7F3
:102778006BFE03B0BDE8F0839DF8073033B9002342
:102788001A4641461846FFF729FEF2E7FEF774FCA1
:10279800F5E72DE9F041052926D904460D46477984
:1027A800072922D90230FFF7D3FB861EB6B2C02E06
:1027B80020D8831D9BB2AB421CD8051D6019FFF7BA
:1027C800C7FB8046A9B22046FFF793FB804515D189
:1027D8002379A11D022B1AD0032B1DD0012B11D058
:1027E8003846FFF731FE03E000273846FFF72CFE96
:1027F800BDE8F0813846FFF727FEF9E73846FFF7CE
:1028080023FEF5E732463846FFF726FEF0E7324664
:102818003846FFF781FFEBE71EB93846FFF74EFE53
:10282800E6E73846FFF710FEE2E700000023064A15
:102838001380064A1380064A1380064A1380064A04
:102848001380064A13807047CE030020CC03002073
:10285800CA030020C8030020C6030020C4030020C8
:1028680000228A421DD230B50E4B1B889BB2013321
:10287800C3F308030C4CB4F800C01FFA8CFC9C4549
:102888000ED0084CB4F800C01FFA8CFC10F802E017
:10289800064D05F80CE02380013292B28A42E3D358
:1028A80030BD7047CA030020C803002098040020E8
:1028B80010B51FE0552937D0274B00221A8019E0A0
:1028C800901CFFF745FB831E9BB2C02B03D8063034
:1028D800224B188030E000231F4A13801F4A1380C0
:1028E80008E01D4B1B88C72B04D900231A4A138004
:1028F8001A4A13801A4B1A8892B21A4B1B889BB239
:102908009A4228D0164A13889BB21749C95C138883
:102918009BB20133C3F3080313800F4B1B880BB919
:10292800AA29E7D1012BC5D05C1CA4B20A4A14809D
:102938000E4AD154042CC3D0084B19880029D0D092
:102948008C42CED30948FFF724FF0023024A1380A4
:10295800024A1380C5E710BDCE030020CC03002037
:10296800C8030020CA03002098040020980600200D
:1029780030B58DB0002409940A940B9420252A467A
:10298800214601A809F081FA38484FF0A0430360B6
:102998004FF4403343608460C460046101234361A1
:1029A80008228261047744770422026280F8244076
:1029B8004FF4D461C1624FF48061016380F838300C
:1029C8004FF48051C16380F8403042648564C46428
:1029D800036501F097FA002835D10023099309A966
:1029E800224802F0E1F8002830D1214B0193062358
:1029F8000293052303937F23049304230593002361
:102A0800069301A9194801F027FC10BB194B019343
:102A18000C23029301A9154801F01EFCE0B9164BDE
:102A280001931223029301A9104801F015FCB0B9D3
:102A3800124B01931823029301A90C4801F00CFCD6
:102A480080B90DB030BD00F063FCC6E700F060FC53
:102A5800CBE700F05DFCD9E700F05AFCDFE700F0B7
:102A680057FCE5E700F054FCEBE700BF9C080020AA
:102A780002003004040060080800900C1000C01028
:102A880000B589B020220021684609F0FEF91F48E8
:102A98001F4B03604FF44033436000238360C360DF
:102AA8000361436104228261037743770122026252
:102AB80080F82430C362036380F838304FF48051C3
:102AC800C16380F840201C21416480218164C36473
:102AD800026501F017FA98B90E4B0093062301938B
:102AE800052302937F230393042304930023059370
:102AF8006946064801F0B0FB28B909B05DF804FB47
:102B080000F006FCE8E700F003FCF6E730080020D8
:102B1800000100500000524700B589B02022002172
:102B2800684609F0B2F91F481F4B03604FF4403361
:102B3800436000238360C3600361436104228261B0
:102B4800037743770122026280F82430C36203636B
:102B580080F838304FF48051C16380F84020142148
:102B6800416460218164C364026501F0CBF998B9BE
:102B78000E4B009306230193072302937F230393AD
:102B880004230493002305936946064801F064FB77
:102B980028B909B05DF804FB00F0BAFBE8E700F0DB
:102BA800B7FBF6E7C4070020000600501000C090ED
:102BB80030B5A1B0044600211B911C911D911E91B6
:102BC8001F91542206A809F060F92368B3F1A04FB9
:102BD80008D0534A934257D0524A934200F0888013
:102BE80021B030BD4FF4004306934FF000531793C4
:102BF80006A805F0A3F9002835D14B4A136801331C
:102C08001360012B32D0494BDA6C42F00102DA64CE
:102C1800DB6C03F001030293029B0F231B93032336
:102C28001C9300251D951BA94FF0904002F094FAC3
:102C38003F48404B0360052343608560C56080239F
:102C480003614FF4807343614FF4806383612023F1
:102C5800C3614FF40053036202F066F988B9344B3C
:102C680063659C62BCE700F053FBC6E72F4BDA6C48
:102C780042F40052DA64DB6C03F400530193019BC5
:102C8800C1E700F045FBEAE74FF4004306934FF035
:102C98000053179306A805F051F9D8B9224A1368CA
:102CA80001331360012B18D0204BDA6C42F001027B
:102CB800DA64DB6C03F001030493049B10231B9379
:102CC80003231C9300231D931BA94FF0904002F08F
:102CD80043FA85E700F01CFBE0E7144BDA6C42F49A
:102CE8000052DA64DB6C03F400530393039BDBE7C5
:102CF8004FF4803306934FF00043189306A805F06D
:102D08001DF950B9094BDA6C42F48042DA64DB6C85
:102D180003F480430593059B62E700F0F9FAF1E7B5
:102D2800000100500006005060070020001002401B
:102D3800640700200800024000B583B0164B9A6C67
:102D480042F004029A649A6C02F004020092009A1B
:102D58009A6C42F001029A649B6C03F001030193A0
:102D6800019B002211460B2002F05CF80B2002F0B8
:102D780069F8002211460C2002F054F80C2002F0E9
:102D880061F8002211460D2002F04CF80D2002F0E7
:102D980059F803B05DF804FB00100240F0B58BB0A1
:102DA800002405940694079408940994304BDA6C2F
:102DB80042F00402DA64DA6C02F004020092009A2B
:102DC800DA6C42F02002DA64DA6C02F02002019236
:102DD800019ADA6C42F00102DA64DA6C02F001025C
:102DE8000292029ADA6C42F00202DA64DA6C02F0B9
:102DF80002020392039ADA6C42F00802DA64DB6C8E
:102E080003F008030493049B22464FF400414FF05B
:102E1800904002F08BFA174F22460421384602F000
:102E280085FA154E2246B821304602F07FFA4FF453
:102E380000430593012506950794089405A94FF0CA
:102E4800904002F089F904230593069507940894A5
:102E580005A9384602F080F9B8230593069507942A
:102E6800089405A9304602F077F90BB0F0BD00BF11
:102E780000100240000C0048000400480268124B91
:102E88009A4200D0704700B583B003F528431A6E04
:102E980042F080621A661B6E03F080630193019B07
:102EA80000221146442001F0BDFF442001F0CAFF72
:102EB80000221146492001F0B5FF492001F0C2FF68
:102EC80003B05DF804FB00BF0068014070B588B02E
:102ED80000230393049305930693079302681A4B00
:102EE8009A4201D008B070BD03F52843DA6C42F06D
:102EF8000202DA64DA6C02F002020192019ADA6CD8
:102F080042F00102DA64DB6C03F001030293029BD6
:102F18004FF44043039302260496032506950D2497
:102F2800079403A9094802F017F94FF44073039373
:102F38000496002305930695079403A94FF0904043
:102F480002F00AF9CEE700BF00680140000400481B
:102F580010B5BAB000243894399434943594369422
:102F680037942D942E942F94309431943294339432
:102F78006022214615A808F088FF1294139414942F
:102F8800242221460DEB020008F07FFF2022214673
:102F980001A808F07AFFAB48AB4B0360446084603B
:102FA80002F004FC002840F01A810C21A54802F028
:102FB80069FC002840F016810A21A24802F09BFC17
:102FC800002840F012814FF4803338934FF40063A7
:102FD800399338AA01219B4802F0C8FC002840F028
:102FE800078100220121974802F0F9FD002840F0EE
:102FF800028147F2305334930021359136910823EA
:10300800379334AA8F4802F098FC002840F0F680E5
:1030180000212D912F91309133912DAA894802F0EA
:10302800E9FE002840F0ED80102315930021169149
:1030380017911891012319931A911B911C911D91B5
:103048001E914FF000631F93209121914FF0005380
:103058002293239124914FF0004325934FF48073DA
:103068002693279129912A912B912C9115AA75487D
:1030780002F07AFE002840F0C780002315931F93C2
:10308800229325934FF480722692279315AA032141
:103098006C4802F069FE002840F0B98043F6982396
:1030A800129312AB01220021664802F017FF002894
:1030B80040F0B08041F66413129312AB0422002151
:1030C800604802F00BFF002840F0A780002109911A
:1030D8004FF496730A930B914FF400420C924FF4FD
:1030E80080420D920E930F914FF0004310934FF0D2
:1030F8008043119309AA534802F09EFE002840F02D
:103108008F8009AA03214F4802F096FE002840F05C
:103118008A800021019104230293082303930491D8
:10312800059106910791089101AB0122454802F0EB
:10313800B6FF00287AD101AB40220321414802F0B2
:10314800AEFF002875D108230293042303936B4430
:10315800022200213B4802F0A2FF00286CD101ABFB
:1031680080220321374802F09AFF002867D134AA49
:103178000321344802F0E1FB002867D12DAA03217E
:10318800304802F037FE002863D14FF4967312934B
:1031980012AB012203212B4802F0A0FE00285BD1CC
:1031A80000210191082302930423039304910591BC
:1031B8000691079108916B440222224802F06FFFA2
:1031C80000284CD101AB802203211E4802F067FF82
:1031D800002847D11B48FFF779FE3AB010BD00F030
:1031E80097F8E2E600F094F8E6E600F091F8EAE6EF
:1031F80000F08EF8F5E600F08BF8FAE600F088F8B3
:1032080006E700F085F80FE700F082F835E700F0F0
:103218007FF843E700F07CF84CE700F079F855E7D1
:1032280000F076F86DE700F073F872E700F070F8D8
:1032380081E700F06DF886E700F06AF88FE700F0A4
:1032480067F894E7080900200068014000F060F87A
:1032580094E700F05DF898E700F05AF8A0E700F06E
:1032680057F8AFE700F054F8B4E700BF08B50848CE
:10327800084B0360042343604FF4FA63C360836020
:1032880003F09AF900B908BD00F042F8FBE700BF67
:10329800040A00200030004008B50368B3F1804FED
:1032A80003D0164A934219D008BD15490A8892B22C
:1032B800013292B20A8013490A8892B2013292B25C
:1032C8000A8011490A8892B2013292B20A800F49E3
:1032D8000A8892B2013292B20A80E2E709F086F8CF
:1032E800FEF704F9FEF7DCFAFEF76AF9FEF7A0F933
:1032F80009F0D4F809F0EEF8D6E700BF0004004062
:103308001A0A0020180A0020160A0020140A0020B1
:1033180072B6FEE700B595B03822002106A808F07D
:10332800B4FD00200190029003900490059004F0F1
:103338006FF9292306934FF48033079301230B93E6
:103348000C9302230D9303220E9205220F9244221E
:103358001092119306221292139306A804F012FAFF
:1033680080B90F230193032302930023039304934B
:10337800059304210DEB010004F0BAFC20B915B047
:103388005DF804FBFFF7C4FFFFF7C2FF80B500F04C
:1033980055FDFFF7BFFFFFF701FDFFF7CDFCFFF776
:1033A800D7FDFFF7E5FAFFF76BFBFFF7B5FB00F07A
:1033B800DBF800F069FA08F0FBFA00F0F3F900F026
:1033C80029FA00F087FB00F007FC00F039FC00F058
:1033D80095FA00F0ABFAFFF749FF0024524B1C8026
:1033E8000821524805F0CAFF6420FEF7FBFA504E48
:1033F80001228021304601F099FF4E4805F0F0FB8C
:103408004D4805F0EDFB4D4805F0EAFBFEF7AAFC38
:10341800FEF7F8FAFEF7D0FBFFF708FAC82000F02D
:103428002FFDDFF840817F21404601F06FFB444FBC
:103438007F21384601F06AFB424D7F21284601F082
:1034480065FB04224049404601F076FA384601F00F
:10345800D9F9284601F0D6F93C4D4FF400312846F9
:1034680002F071FE4FF48011284602F06CFE2A68C3
:10347800D2F88C3043F01003C2F88C302246302149
:10348800304601F053FF2046FEF7ACFA04E0304B1B
:103498001B889BB2312B0ED8FFF70AFA2D4B1B88DD
:1034A8009BB2092BF3D92B4B00221A80FEF72EF979
:1034B800FEF764FAEBE7264B00221A80FEF752F972
:1034C800194B1B889BB2022B04D0174B1B889BB24D
:1034D800032B1CD101222021154801F027FF1E4B88
:1034E8001B889BB2632B18D81C4B1B889BB2B3F567
:1034F800FA7F08D3194B00221A8010210C4801F0DA
:103508001AFFFEF7E7FA164803F08AF8C4E7002224
:103518002021074801F00AFFE1E70F4B00221A803B
:10352800FEF7A4FBE0E700BF70030020D80B0020E3
:1035380000040048BC0C0020700C0020240C002063
:1035480030080020C40700208C0300200809002050
:10355800140A0020160A0020180A00201A0A00205F
:10356800040A00209C08002008B51048104B03608E
:103578004FF482734360002383604FF4E062C260BB
:10358800036143614FF4007282611822C2610362D1
:10359800436283620722C26203630823436304F021
:1035A80096FF00B908BDFFF7B3FEFBE7DC0A002071
:1035B800003C004010B588B00023039304930593A2
:1035C8000693079302682B4B9A4201D008B010BDAE
:1035D800044603F5EA339A6D42F400429A659A6DFF
:1035E80002F400420192019ADA6C42F00402DA64B1
:1035F800DB6C03F004030293029B4FF4E053039344
:1036080002230493032306930623079303A91A4866
:1036180001F0A2FD19481A4B03600E2343600023F2
:103628008360C3608022026143618361C361036276
:1036380001F07AFCC0B9114BA3659C621148124B8A
:1036480003600F234360102383600023C36080223C
:10365800026143618361C361036201F065FC30B9B3
:10366800084B63659C62B1E7FFF752FEE3E7FFF79B
:103678004FFEF5E7003C0040000800487C0A0020A7
:103688001C0002401C0A00203000024000B583B034
:103698000B4B1A6E42F001021A661A6E02F0010212
:1036A8000092009A9A6D42F080529A659B6D03F0E1
:1036B80080530193019B04F031F803B05DF804FBDB
:1036C80000100240FEE7FEE7FEE7FEE7FEE7704770
:1036D8007047704708B500F0C1FB08BD08B502483F
:1036E80001F0D8FC08BD00BF6407002008B50248F7
:1036F80001F0D0FC08BD00BF7C0A002008B50248D4
:1037080001F0C8FC08BD00BF1C0A002008B502482B
:1037180003F036FD08BD00BF2825002008B5024883
:1037280005F0ADFA08BD00BF8C0B002008B50248B3
:1037380005F0A5FA08BD00BF400B002008B50248F7
:1037480005F09DFA08BD00BFBC0C002008B5024872
:1037580005F095FA08BD00BF700C002008B50248B6
:1037680005F08DFA08BD00BF240C002008B5002123
:10377800024802F013FF08F0ADFF08BD0809002059
:1037880008B5FF21014802F009FF08BD080900201B
:10379800034AD2F8883043F47003C2F8883070477F
:1037A80000ED00E000B589B000230493059306936B
:1037B800079301930293039315484FF080420260E8
:1037C800A9224260836040F2E732C260036180232D
:1037D800836105F0C1FB90B94FF48053049304A9A9
:1037E8000B4805F011FD68B900230193039301A963
:1037F800074805F081FE40B909B05DF804FBFFF702
:1038080087FDE9E7FFF784FDEEE7FFF781FDF3E7C2
:10381800BC0C002000B589B00023049305930693DF
:1038280007930193029303931548164A0260A9224D
:103838004260836041F28732C26003618023836102
:1038480005F08AFB90B94FF48053049304A90C48FF
:1038580005F0DAFC68B900230193039301A908482D
:1038680005F04AFE40B909B05DF804FBFFF750FDCA
:10387800E9E7FFF74DFDEEE7FFF74AFDF3E700BF85
:10388800700C00200004004000B589B000230493A8
:103898000593069307930193029303931548164AD9
:1038A8000260A9224260836042F20F72C260036123
:1038B8008023836105F050FB90B94FF48053049343
:1038C80004A90C4805F0A0FC68B9002301930393F0
:1038D80001A9084805F010FE40B909B05DF804FBDD
:1038E800FFF716FDE9E7FFF713FDEEE7FFF710FD19
:1038F800F3E700BF240C00200008004008B5094881
:10390800094B03600023436083604FF6FF72C26077
:1039180003614361836105F01FFB00B908BDFFF730
:10392800F7FCFBE78C0B00200044014008B5094870
:10393800094B03600023436083604FF6FF72C26047
:1039480003614361836105F007FB00B908BDFFF718
:10395800DFFCFBE7400B00200048014000B587B0C2
:103968000368B3F1804F11D03E4A934222D03E4AB9
:10397800934232D03D4A934242D03D4A93424AD084
:103988003C4A93425AD007B05DF804FB03F5043370
:103998009A6D42F001029A659B6D03F00103009352
:1039A800009B002211461C2001F03CFA1C2001F06B
:1039B80049FAE8E7304B9A6D42F002029A659B6D2E
:1039C80003F002030193019B002211461D2001F020
:1039D80029FA1D2001F036FAD5E7274B9A6D42F0F7
:1039E80004029A659B6D03F004030293029B002274
:1039F80011461E2001F016FA1E2001F023FAC2E734
:103A08001D4B1A6E42F400521A661B6E03F40053E3
:103A18000393039BB7E7184B1A6E42F400321A66F9
:103A28001B6E03F400330493049B002211461920F3
:103A380001F0F8F9192001F005FAA4E70E4B1A6E07
:103A480042F480221A661B6E03F480230593059BBB
:103A5800002211461A2001F0E5F91A2001F0F2F9C6
:103A680091E700BF00040040000800400034014016
:103A780000440140004801400010024000B587B0F2
:103A880000230193029303930493059302680F4B59
:103A98009A4202D007B05DF804FB03F55C43DA6C88
:103AA80042F00202DA64DB6C03F002030093009B2D
:103AB8004FF40073019302230293032304930A2310
:103AC800059301A9024801F047FBE3E700340140F0
:103AD8000004004810B59CB00024189419941A9456
:103AE8001B941594169417940E940F941094119493
:103AF8001294139414943422214601A808F0C5F9AD
:103B08003348344B0360A9234360846040F2E733B1
:103B1800C360046144618023836105F01DFA0028B5
:103B280044D14FF48053189318A9294805F06CFB29
:103B380000283ED1264805F03FFA00283CD1002352
:103B480015931693179315A9214805F0D5FC00285D
:103B580035D160230E934FF4FA730F93002310931B
:103B6800119312931393149308220EA9184805F081
:103B7800A1FA38BB0023019302930393049305939E
:103B88004FF4005206920793089309934FF000727E
:103B98000A920B930C930D9301A90D4805F002FDB1
:103BA80098B90B48FFF76AFF1CB010BDFFF7B0FBD0
:103BB800B7E7FFF7ADFBBDE7FFF7AAFBBFE7FFF7E6
:103BC800A7FBC6E7FFF7A4FBD4E7FFF7A1FBE8E7ED
:103BD800D80B00200034014008B51748174B036084
:103BE8004FF4E133436000238360C36003610C2218
:103BF80042618361C36103624362836206F035F800
:103C080070B900210C4806F0A8F860B900210A48EC
:103C180006F0C8F850B9084806F080F848B908BD59
:103C2800FFF776FBEDE7FFF773FBEFE7FFF770FBB6
:103C3800F1E7FFF76DFBF2E79C0D0020003801402B
:103C480008B51748174B03604FF4E133436000236E
:103C58008360C36003610C2242618361C3610362B4
:103C68004362836206F001F870B900210C4806F03F
:103C780074F860B900210A4806F094F850B9084869
:103C880006F04CF848B908BDFFF742FBEDE7FFF72F
:103C98003FFBEFE7FFF73CFBF1E7FFF739FBF2E704
:103CA800080D00200048004010B59EB004460021D1
:103CB80019911A911B911C911D91542204A808F086
:103CC800E4F823682F4A934204D02F4A93422CD019
:103CD8001EB010BD0123049304A804F02FF908BBFB
:103CE8002A4B1A6E42F480421A661A6E02F4804217
:103CF8000092009ADA6C42F00402DA64DB6C03F09A
:103D080004030193019B3023199302231A93002380
:103D18001B9303231C9307231D9319A91C4801F027
:103D28001BFAD5E7FFF7F4FADAE70423049304A8AB
:103D380004F004F910BB154B9A6D42F480229A6581
:103D48009A6D02F480220292029ADA6C42F0020220
:103D5800DA64DB6C03F002030393039B4FF44063C4
:103D6800199302231A9300231B9303231C930723FD
:103D78001D9319A9074801F0EFF9A9E7FFF7C8FA59
:103D8800D9E700BF00380140004800400010024059
:103D980000080048000400480D488546FFF7F8FC75
:103DA8000C480D490D4A002302E0D458C45004338E
:103DB800C4188C42F9D30A4A0A4C002301E0136064
:103DC8000432A242FBD308F069F8FFF7DFFAFEE7F6
:103DD8000000022000000020CC020020C0CB000818
:103DE800CC020020D42A0020FEE70000104B1B68FC
:103DF8000BB90120704710B504464FF47A70B0FB38
:103E0800F3F30C4A1068B0FBF3F001F01FF868B93F
:103E18000F2C01D901200AE0002221464FF0FF3083
:103E280001F000F8044B1C60002000E0012010BDE8
:103E380024000020200000202800002010B50320C6
:103E480000F0DEFF0F20FFF7D1FF10B1012420465C
:103E580010BD0446FFF71AFCF9E70000034A13688F
:103E6800034909680B441360704700BF300E0020F7
:103E780024000020014B1868704700BF300E002056
:103E880038B50446FFF7F6FF0546B4F1FF3F02D008
:103E9800044B1B681C44FFF7EDFF401BA042FAD3FC
:103EA80038BD00BF2400002010B430300B0A9B003E
:103EB80003F00C03C45801F01F014FF01F0C0CFA5B
:103EC80001FC24EA0C0CC2F384628A404CEA020228
:103ED800C2505DF8044B704710B414304B0E9B0071
:103EE80003F00403C458C1F304514FF0070C0CFA53
:103EF80001FC24EA0C0C8A404CEA0202C2505DF82C
:103F0800044B704730B583B000230193002800F0BC
:103F180032810446C36D13B323689A6812F0005FB8
:103F280005D09A6822F0204222F03F029A60226867
:103F3800936813F0805F1FD1936823F0104323F038
:103F48003F0343F0805393608C4B1B689B098C4A5A
:103F5800A2FB03239B0901335B00019309E0FEF7F1
:103F680027FE0023236684F85830D5E7019B013BE0
:103F78000193019B002BF9D12268936813F0805FAD
:103F88003DD1E36D43F01003E365236E43F0010375
:103F980023660120936813F0040300D00123E16D28
:103FA80011F0100F40F0E080002B40F0DD80E36D51
:103FB80023F4817343F00203E365936813F0010F60
:103FC8003ED1B2F1A04F1CD06E4B9A4219D06E4B25
:103FD800996811F0010100D001216C4B9B6813F026
:103FE800010300D001230B436949896811F00101DD
:103FF80000D001210B430CBF0123002312E0002055
:10400800C8E74FF0A043996811F0010100D00121E1
:104018005C4B9B6813F0010300D001230B430CBFDA
:104028000123002363B1B2F1A04F6CD0554B9A42E3
:1040380067D0584963688A6822F47C1213438B60FE
:10404800627FE36B43EA4233E2681343A268134397
:1040580094F8242043EA0243012A56D0E26A22B1A6
:1040680002F47872216B0A4313432168CD684A4AE7
:104078002A401A43CA602268136923F04063616BBF
:104088000B4313612268936813F0080300D00123DF
:1040980043BB237F94F83810490041EA8331D36841
:1040A80023F4804323F002030B43D3602369002BDE
:1040B80030D02268136943F4803313612268D2F840
:1040C800C03023F47F5323F03F0321690B43C2F828
:1040D800C03094F84030012B2BD02268136923F0AC
:1040E800010313616369012B35D02268136B23F038
:1040F8000F031363E36D23F0030343F00103E36548
:1041080037E0264996E7254994E7A26A013A43EA47
:104118004243A3E72268136923F4803313612268BA
:10412800D2F8C03023F47F5323F03F03C2F8C030E5
:10413800CFE721680B6923F4FF6323F00403626C63
:10414800A56C2A43E56C2A43256D2A43134343F0A3
:1041580001030B61C6E721680B6B23F00F03226A8A
:10416800013A13430B63C5E7E36D43F01003E365BE
:10417800012003B030BD0120FBE700BF2000002074
:10418800632D3E050001005000040050000500505A
:1041980000060050000700500740F0FF00030050E1
:1041A8000368186C70477047704708B5806AFFF756
:1041B800FBFF08BD704708B50346806AC26D12F060
:1041C800500F30D1C36D43F40073C36503681A6898
:1041D80012F0080F14D0DA6812F4406F20D1DB68AF
:1041E80013F4005F1CD1C36D23F48073C365C36DE2
:1041F80013F4805F14D1C36D43F00103C3650FE06E
:10420800DB6813F0020F0BD1C36D23F48073C36511
:10421800C36D13F4805F03D1C36D43F00103C3651D
:10422800FFF7C1FF08BDC26D12F0100F04D1426D37
:10423800526B18469047F5E7FFF7BCFFF2E708B561
:10424800806AC36D43F04003C365036E43F0040303
:104258000366FFF7AFFF08BDF0B583B000230193F5
:1042680090F85830012B00F0428204460D46012395
:1042780080F858300068836813F0040F09D0E36DA4
:1042880043F02003E3650120002384F8583003B08D
:10429800F0BD0A684968FFF707FE2068836813F0D5
:1042A800040300D00123866816F0080600D0012612
:1042B800002B3ED1002E3CD1AA68B2F1004F78D035
:1042C8002968FFF709FE2268536923F00043536108
:1042D80069692268D368C3F3C1035B009940286900
:1042E800042873D0603252F82070AB4B3B402F68E3
:1042F80007F0F84C41EA0C010B4343F0004342F845
:10430800203023682869AA69603353F8201021F007
:1043180080710A4343F82020236829692A7F012AEB
:1043280051D0603353F8212022F00072324343F811
:1043380021202268936813F0010F16D12B68E868D2
:10434800D2F8B010C3F3120621EA060100F01806ED
:104358009248F0400340C3F312030B43C2F8B03055
:10436800EA688F4B9A4200F099802B688D4A134275
:1043780000F0B7812268B2F1A04F00F050818A495D
:104388008A4200F049818949896801F0E070884DC6
:10439800AB4200F04681874DAB4200F04281864D2A
:1043A800AB4200F07181854DAB4200F08581002061
:1043B8006AE700222968FFF78FFD2268536943F0F6
:1043C8000043536184E74FF00076AAE7136E116E3D
:1043D800C1F384612B68C3F3120080BBC3F3846309
:1043E800994234D021684B6E4A6EC2F384622B68BE
:1043F800C3F3120080BBC3F384639A4234D02168AC
:104408008B6E8A6EC2F384622B68C3F3120080BB82
:10441800C3F384639A4234D02168CB6ECA6EC2F368
:1044280084622B68C3F3120080BBC3F384639A428F
:104438007FF47FAFCB6E23F00043CB6679E793FA26
:10444800A3F313B1B3FA83F3CAE72023C8E7136EC3
:1044580023F000431366C5E793FAA3F313B1B3FA45
:1044680083F3CAE72023C8E74B6E23F000434B666B
:10447800C5E793FAA3F313B1B3FA83F3CAE720238A
:10448800C8E78B6E23F000438B66C5E793FAA3F366
:1044980013B1B3FA83F3CAE72023C8E720682B686F
:1044A800C3F3120626BB9A0E013202F01F02092A34
:1044B8008CBF00220122002A52D046BB990E01313E
:1044C800890601F0F84176BB9F0E013707F01F07F8
:1044D8000122BA401143AEBB9B0E013303F01F0308
:1044E80003EB43031B051943AA68FFF7F5FC3CE7F8
:1044F80093FAA3F24AB1B2FA82F2013202F01F0231
:10450800092A8CBF00220122D5E72022F5E793FA79
:10451800A3F131B1B1FA81F10131890601F0F84115
:10452800D1E72021F8E793FAA3F24AB1B2FA82F26E
:10453800013202F01F024FF0010C0CFA02F2C9E737
:104548002022F5E793FAA3F343B1B3FA83F30133D7
:1045580003F01F0303EB43031B05C4E72023F6E71F
:1045680076BB990E0131890601F0F841A6BB9F0E72
:10457800013707F01F070122BA401143DEBB9B0E2B
:10458800013303F01F0303EB43031E3B1B0543F0FA
:1045980000731943A8E700BF00F0FF03FFFF0700FF
:1045A80000007F4000000880000100500007005014
:1045B800000021C31000C090000052C7000084CB47
:1045C80093FAA3F131B1B1FA81F10131890601F011
:1045D800F841CBE72021F8E793FAA3F24AB1B2FAFF
:1045E80082F2013202F01F024FF0010C0CFA02F2C3
:1045F800C3E72022F5E793FAA3F35BB1B3FA83F399
:10460800013303F01F0303EB43031E3B1B0543F079
:104618000073BEE72023F3E701F50071B4E63549DE
:10462800B2E611F4000F7FF4BAAEB2F1A04F04D095
:10463800314B9A4201D0002026E6B2F1A04F19D0A2
:104648002E4B9A4214D02E4A40F40000936823F06F
:10465800E073184390602B4B1B689B092A4AA2FB06
:1046680003239B09013303EB43039B00019306E0FB
:10467800204AE9E71F4AE7E7019B013B0193019BB9
:10468800002BF9D10020FFE511F0807F7FF48BAE7D
:10469800B2F1A04F0ED0194B9A4209D0184A40F0F7
:1046A8008070936823F0E073184390600020EBE576
:1046B800104AF4E70F4AF2E711F4800F13D10F4BB9
:1046C8009A4212D0B2F1A04F09D00D4940F48003AC
:1046D8008A6822F0E07213438B600020D4E5054914
:1046E800F4E70020D0E50020CEE50020CCE502204C
:1046F800CDE500BF00030050000600500001005047
:104708000007005020000020632D3E0530B583B01F
:104718000023019303689A6812F0010F63D10446DD
:104728009968324A114220D19A6822F0004222F058
:104738003F0242F001029A600368B3F1A04F20D013
:104748002B4A93421BD02B4B9B6813F4000F20D0AD
:10475800294B1B689B09294AA2FB03239B090133A8
:1047680003EB43039B00019310E0C36D43F0100378
:10477800C365036E43F001030366012034E0204B58
:10478800E2E71F4BE0E7019B013B0193019B002BF4
:10479800F9D1FFF76FFB054623681A6812F0010F7D
:1047A8001FD19A6812F0010F07D19A6822F00042CF
:1047B80022F03F0242F001029A60FFF75BFB431BC5
:1047C800022BE9D923681B6813F0010FE4D1E36DCC
:1047D80043F01003E365236E43F0010323660120D1
:1047E80002E0002000E0002003B030BD3F00008060
:1047F800000100500007005020000020632D3E05F6
:104808000003005038B504460368B3F1A04F60D0E8
:10481800464A93425AD0464A956805F01F059B6858
:1048280013F0040F7DD194F85830012B7BD001236D
:1048380084F858302046FFF769FF00286DD1E36DF2
:1048480023F4706323F0010343F48073E365236862
:10485800364A934242D002F5806293423BD01A46D0
:10486800934200D01DB9E26D22F48012E265E26D38
:1048780012F4805F35D0226E22F0060222661C22D6
:104888001A60002384F858302368284A93422ED0AF
:1048980002F58062934227D01A4693422AD0092D06
:1048A80005D840F22121E94011F0010F22D1E36D32
:1048B80043F48013E365D36813F0007F32D0E36DCF
:1048C80023F4405343F48053E3652BE002F5007270
:1048D800A2E7184AA0E7A2F58072C1E74FF0A0420C
:1048E800BEE700222266CAE7A2F58072D5E74FF03C
:1048F800A042D2E7DA6812F0007F05D0E26D22F418
:10490800405242F48052E2659A6822F0004222F056
:104918003F0242F004029A6004E0002384F8583011
:1049280000E0022038BD0220FCE700BF0001005073
:1049380000070050000300502DE9F04104460F46DF
:1049480090460068B0F1A04F24D0444B98421ED046
:10495800434B9E6806F01F06856815F0040F77D153
:1049680094F85830012B76D0012384F858303D4B09
:10497800984211D0092E05D840F22123F34013F0B4
:10498800010F09D1002384F85830012061E003F5B4
:104998000073DEE7344BDCE72046FFF7B7FE00285C
:1049A80052D1E36D23F4706323F0010343F4807361
:1049B800E3652368294A934240D002F58062934216
:1049C80039D01A46934200D01EB9E36D23F4801300
:1049D800E365E36D13F4805F33D0236E23F00603A1
:1049E8002366636D214ADA62636D214A1A63636D37
:1049F800204A5A6323681C221A60002384F858301E
:104A08002268536843F0100353602268D36843F068
:104A18000103D360216843463A464031606D00F097
:104A2800EFFA2268936823F0004323F03F0343F032
:104A3800040393600DE0A2F58072C3E74FF0A04233
:104A4800C0E700232366CCE7002384F8583000E051
:104A58000220BDE8F0810220FBE700BF0001005002
:104A6800000700500006005000030050BF41000836
:104A7800B34100084742000838B504460268936805
:104A880013F0020300D00123916811F0010F39D00F
:104A9800002B39D1936803F00D03012B09D0E36D86
:104AA80043F01003E365236E43F0010323660120FE
:104AB80029E0936823F0004323F03F0343F0020307
:104AC8009360236803221A60FFF7D4F90546236828
:104AD8009B6813F0010F13D0FFF7CCF9401B022895
:104AE800F5D923689B6813F0010FF0D0E36D43F00C
:104AF8001003E365236E43F001032366012002E0FF
:104B0800002000E0002038BD0020FCE730B583B06D
:104B18000023019390F85830012B41D004460D46EC
:104B2800012380F85830FFF7A7FF80BBE36D23F41B
:104B3800885323F0020343F00203E3652268936875
:104B480023F0404323F03F0305F080452B4343F017
:104B58000043936023689B68002B06DBE36D23F01A
:104B6800030343F00103E36515E0019B013301935F
:104B7800019A0C4B9A42EDD9E36D23F0120343F0EE
:104B88001003E365002384F85830012006E0E36D44
:104B980043F01003E365002384F8583003B030BDB8
:104BA8000220FBE701DE040090F85820012A00F0FB
:104BB800D68010B49DB00346012280F85820002208
:104BC800189219920068B0F1A04F47D0654A9042F8
:104BD80047D000220192019A002A46D0926812F02A
:104BE800040200D00122846814F0040F40F0A7806A
:104BF800002A40F0A480B0F1A04F42D05A4A904217
:104C08003CD05A4A086800285CD0906820F460407C
:104C18004C6893F838C044EA4C34204390601868D4
:104C2800B0F1A04F2FD0504CA0422CD04D488468F2
:104C380014F0010400D001244D48806810F00100F0
:104C480000D0012020434B4CA46814F0010400D08C
:104C5800012420430CBF0120002025E0424A019294
:104C6800B9E702F580720192B5E7DA6D42F02002E9
:104C7800DA65002283F85820012068E002F5007206
:104C8800C0E73D4ABEE74FF0A040846814F0010435
:104C980000D001243448806810F0010000D00120C1
:104CA80020430CBF01200020002854D0906820F435
:104CB800716020F00F000C688968214308439060F8
:104CC800002041E0916821F4604191601968B1F1D8
:104CD800A04F1AD02448814217D02249886810F082
:104CE800010000D001202249896811F0010100D09B
:104CF800012101431F48806810F0010000D0012005
:104D080001430CBF0121002110E04FF0A041886849
:104D180010F0010000D001201349896811F0010149
:104D280000D0012101430CBF01210021A9B19168E4
:104D380021F4716121F00F019160002004E0DA6D27
:104D480042F02002DA650120002283F858201DB0C5
:104D58005DF8044B70470020F6E70020F4E70220D6
:104D6800704700BF000400500001005000070050C9
:104D7800000500500006005000030050002807DB23
:104D880000F01F02400901239340024A42F82030F4
:104D9800704700BF00E100E0002808DB0901C9B244
:104DA80000F1604000F5614080F80013704700F0A2
:104DB8000F000901C9B2014B1954704714ED00E006
:104DC80000B500F00700C0F1070CBCF1040F28BFC4
:104DD8004FF0040C031D062B0FD9C31E4FF0FF3EE6
:104DE8000EFA0CF021EA000199400EFA03FE22EABD
:104DF8000E0241EA02005DF804FB0023EEE7000022
:104E0800074AD36823F4E0631B041B0C000200F478
:104E1800E060034343F0BF6343F40033D36070475B
:104E280000ED00E010B50446054BD868C0F3022039
:104E3800FFF7C6FF01462046FFF7AEFF10BD00BFD3
:104E480000ED00E008B5FFF799FF08BD0138B0F1A3
:104E5800807F0BD24FF0E0235861054AF02182F899
:104E680023100020986107221A61704701207047BB
:104E780000ED00E030B4C46C056D6560446D14B19C
:104E8800846DC56D6560446C04F01F0C012404FA40
:104E98000CF4056C6C60046863608368102B05D0A3
:104EA800036899600368DA6030BC704703689A60E9
:104EB8000368D960F8E7000003680C4A934213D8E6
:104EC8000B49DBB2083B0B4AA2FB0323426C22F0DE
:104ED80003020A448264084AC264C3F30413012229
:104EE80002FA03F3036570470449EAE7070402403E
:104EF80000080240CDCCCCCC8008024020080240FB
:104F08000379074A1A4492004265064A8265013BC2
:104F180003F01F03012202FA03F3C365704700BFC1
:104F28003F8200104009024000285BD010B50446BB
:104F380001682D4B99423DD82C4B0B442C4AA2FBBF
:104F480003231B099B0043642A4B0364022384F850
:104F580025300A6822F4FF4222F07002A368E06854
:104F680003432069034360690343A0690343E0697D
:104F78000343206A034313430B602046FFF79CFF5B
:104F8800A368B3F5804F20D0A36C22791A60E36C34
:104F9800226D5A606368013B032B19D900236365AE
:104FA800A365E3650020E063012384F8253084F8D5
:104FB800240010BD104B0B440D4AA2FB03231B0910
:104FC8009B0043640D4B0364C0E700236360DBE789
:104FD8002046FFF795FF636D00221A60A36DE26D0E
:104FE8005A60DFE70120704707040240F8FFFDBF61
:104FF800CDCCCCCC00000240F8FBFDBF0004024041
:1050080038B5044690F82400012841D0012084F8DE
:10501800240094F82500C0B2012804D0002384F8A5
:105028002430022038BD022084F825000020E063E7
:105038002568286820F0010028602046FFF71AFF3D
:10504800236BD3B12268136843F00E031360A36C7B
:105058001A6812F4803F03D01A6842F480721A600A
:10506800636D1BB11A6842F480721A602268136873
:1050780043F0010313600020D4E72268136823F08B
:10508800040313602268136843F00A031360DEE721
:105098000220C7E738B5036C196804682568436CB3
:1050A80003F01F0304229A400A4215D015F0040F9A
:1050B80012D0236813F0200F03D1236823F00403D0
:1050C8002360436C03F01F02016C042393404B6080
:1050D800036B03B1984738BD02229A400A421CD09C
:1050E80015F0020F19D0236813F0200F06D123689A
:1050F80023F00A032360012380F82530436C03F072
:105108001F02016C022393404B60002380F8243077
:10511800C36A002BDFD09847DDE7082202FA03F3C1
:105128000B42D8D015F0080FD5D0236823F00E0312
:105138002360436C03F01F03016C012202FA03F39E
:105148004B60C26380F82520002380F82430436B2D
:10515800002BC0D09847BEE7F0B583B0002362E0CB
:1051680085685E000324B44025EA0405CC68B44091
:105178002C438460456825EA0C054C68C4F3001488
:105188009C402C4344605FE0DD08083550F825401A
:1051980003F0070C4FEA8C0C4FF00F0E0EFA0CFEC2
:1051A80024EA0E0E0C6904FA0CF444EA0E0440F8E2
:1051B800254060E0052400E0002404FA0EF42C43A6
:1051C8000CF1020C554D45F82C40554CA568D443BC
:1051D80025EA02064F6817F4801F01D042EA050647
:1051E8004F4DAE60ED6804EA05064F6817F4001FDE
:1051F80001D042EA05064A4DEE606D6804EA0506EC
:105208004F6817F4003F01D042EA0506444D6E602E
:105218002D682C404E6816F4803F01D042EA050400
:105228003F4A146001330A6832FA03F474D04FF02D
:10523800010C0CFA03FC1CEA0202F3D04C6804F0DF
:105248000304013C012C8BD94C6804F00304032CA3
:105258000CD0C4685D004FF0030C0CFA05FC24EA7E
:105268000C0C8C68AC4044EA0C04C4604C6804F034
:105278000304022C88D004684FEA430E4FF0030C55
:105288000CFA0EFC24EA0C0C4C6804F0030404FA33
:105298000EF444EA0C0404604C6814F4403FC1D096
:1052A800204C256E45F001052566246E04F00104A6
:1052B8000194019C4FEA930C0CF10205174C54F829
:1052C800255003F0030E4FEA8E0E0F2404FA0EF455
:1052D80025EA0405B0F1904F3FF46EAF124CA0429E
:1052E80012D004F58064A04210D004F58064A04276
:1052F8000ED004F58064A0420CD004F58064A0426E
:105308003FF458AF062458E7012456E7022454E72F
:10531800032452E7042450E703B0F0BD0000014025
:105328000004014000100240000400480AB18161F5
:10533800704781627047436901EA030221EA030169
:1053480041EA02418161704710B40468226822F082
:1053580007028B68134323F01803CA681A432260B4
:1053680003680A685A6103684A689A615DF8044BE1
:10537800704730B5046801F1010C4FEACC1C54F8B1
:105388000C3023F0070E936843EA0E0323F018034A
:10539800D5682B4344F80C300368146803EBC11339
:1053A800C3F894400368526803EBC113C3F898200C
:1053B80030BD70B404682368D4F8A05323F02003E8
:1053C8004E69334323F0C002202E09D08E69022E85
:1053D80006D0032E29D0042E2AD023F0E00201E0C3
:1053E80042F0200222F40062CB69134323F4806266
:1053F8000B6A134323F0C0624B6A134323F0006225
:105408008B6A134323F04043CA6A43EA820323F0BA
:1054180000534A6B1A4325F480350B6B1D432260F9
:105428000368C3F8A05370BC704742F04002D9E744
:1054380042F08002D6E72DE9F04305684B1CDB01FA
:10544800EC5824F07044EC500568EB5805EBC11497
:10545800D4F8E870D4F8E490D5F8A04323F0200CF1
:10546800536943EA0C0C202B09D09369022B06D010
:10547800032B5FD0042B62D02CF4D07C03E02CF4F7
:10548800C07C4CF0200C2CF4006CD36943EA0C036C
:1054980023F48063166A46EA030C2CF0C06C536A46
:1054A80043EA0C0323F0006C936A43EA0C0323F0ED
:1054B800704CD36A43EA0C0323F40033566BB6F1FD
:1054C800005F41D023F04003D2F838C04CEA030310
:1054D80023F48023966D46EA030E2EF0FC7E2EF40C
:1054E800803E136D43EA0E0E27F03F07D36B03F09F
:1054F8003F0848EA070828F00048176C47EA0808F8
:1055080029F48076536C1E43936CB3F5606F1ED0FC
:10551800B3F5F05F1BD026F4F0561E4326F4804600
:10552800D76C3E43576D05291AD8DFE801F01431CE
:10553800373D43492CF4807C4CF0800CA3E72CF0D9
:10554800800C4CF4807C9EE743F40033BAE7BCF14E
:10555800400FE3D1DFE724F40034136B44EA43043B
:105568004B1CDB0145F803E0036803EBC113C3F8E8
:10557800E880036803EBC113C3F8E460036803EB36
:10558800C113C3F8D4700368C3F8A043BDE8F0831F
:1055980024F48024136B44EA8304E1E724F4002410
:1055A800136B44EAC304DBE724F48014136B44EA66
:1055B8000314D5E724F40014136B44EA4314CFE72B
:1055C80024F48004136B44EA8314C9E730B40068F8
:1055D80000EBC113D3F8EC3023F01003146843EA4E
:1055E800041323F48013546844EA030C2CF4803C1D
:1055F800D36843EA0C0323F4003C936843EA0C03A2
:105608009469012C05D000EBC110C0F8EC3030BC17
:10561800704723F00403156945EA030C2CF0020CCB
:10562800536943EA0C0323F001032343EBE700002B
:10563800F0B4076807EBC114D4F8E460D4F8B850A4
:10564800402A52D035D8012A4FD0002A5ED0202ACD
:105658005ED8022A5ED3023A012404FA02F2324CDE
:10566800224230D144F2040422423ED10022FE24D8
:10567800944026EA04061C68944044EA060CDC6858
:10568800944044EA0C041E6906FA02FC4CEA040C35
:105698005C69944044EA0C0C9C69944044EA0C040C
:1056A800082E39D0036803EBC113C3F8E440F0BCFB
:1056B8007047B2F5007F06D012D9B2F5806F14D0CA
:1056C800B2F5006F20D15A6807EBC117C7F8C4209C
:1056D80002689C6802EBC112C2F8C8401022C6E7F3
:1056E800802AF0D0B2F5807F0CD15A6807EBC11739
:1056F800C7F8BC2002689C6802EBC112C2F8C0401F
:105708000022B4E70022B2E70022B0E70022AEE7A9
:105718000022ACE70022AAE715F0022FC2D1DB690C
:1057280093401C43BEE700BF4100004006293CD817
:10573800DFE801F00C141C242C3404000268D2F8B1
:10574800843343F00103C2F8843370470268D2F807
:10575800843343F00203C2F8843370470268D2F8F6
:10576800843343F00403C2F8843370470268D2F8E4
:10577800843343F00803C2F8843370470268D2F8D0
:10578800843343F01003C2F8843370470268D2F8B8
:10579800843343F02003C2F8843370470268D2F898
:1057A800843343F04003C2F884337047002864D040
:1057B80010B582B00446022380F8DD300023C0F81B
:1057C800E030C0F8E430C0F8E830C0F8EC30C0F899
:1057D800F030C0F8F430C0F8F830836813F0010FE7
:1057E80012D00268264B9A4225D021680A6822F412
:1057F8004042236903F44043134323F4405362694E
:1058080002F440521A430A602046FDF737FBA368AA
:1058180013F0020F08D021680A6822F44072E36886
:1058280003F4407313430B60012384F8DD30002335
:1058380084F8DC301CE003F528431A6E42F08062DD
:105848001A661B6E03F080630193019BCDE7C3EBDF
:10585800C30204EB820200219161D161116251629D
:105868009162C3EBC30204EB820211630133DBB222
:10587800062BECD9002002B010BD0120704700BFF4
:105888000068014090F8DC30012B32D0012380F809
:10589800DC30022380F8DD30B1F1FF3F1AD0026816
:1058A800D2F8CC3343F00203C2F8CC330268D2F802
:1058B800CC3323F00C030B43C2F8CC330268D2F884
:1058C800CC3343F00103C2F8CC33012380F8DD3038
:1058D800002070470268D2F8CC3323F00203C2F8E4
:1058E800CC330268D2F8CC3343F00103C2F8CC338E
:1058F800EBE70220704770B504460D46FEF7BAFA8A
:1059080006462368D3F8883313F4803F0ED1B5F1E7
:10591800FF3FF6D0FEF7AEFA801BA84201D8002D53
:10592800EFD1072384F8DD30032005E0012384F854
:10593800DD30002084F8DC0070BD10B5044690F816
:10594800DD00C0B202280BD0022384F8DD3006291E
:1059580007D02046FFF70DFD012384F8DD30002035
:1059680010BD11462046FFF7EFFCF5E7034690F817
:10597800DD00C0B2022800F0318193F8DC00012874
:1059880000F0288170B5012083F8DC00022083F83C
:10599800DD001868D0F88053D0F8FC4320292AD8B5
:1059A800002900F00C8101F1FF3CBCF11F0F00F24F
:1059B8000681DFE81CF063007F0004018C0004010D
:1059C8000401040199000401040104010401040113
:1059D80004010401A60004010401040104010401F6
:1059E8000401040104010401040104010401040187
:1059F80004010401B900B1F5807F00F0C9801DD908
:105A0800B1F5007F40F0DB8024F4E00416684FEA2B
:105A1800061C0CF4E00C4CEA0404D0F8F86326F0F9
:105A2800F846C0F8F8631E68D6F8F803526892067C
:105A380002F0F8420243C6F8F82328E0402900F0B3
:105A48008D80802940F0BB8024F4E04416684FEA3A
:105A5800161C0CF4E04C4CEA0404D0F8F86326F465
:105A6800F816C0F8F8631E68D6F8F80352681204EE
:105A780002F4F8120243C6F8F82308E025F4E025FA
:105A8800166806F4E02635435268C0F8BC2393F83C
:105A9800DD20D2B2072A00F09F800F2900F29680FD
:105AA8001A68C2F88053012283F8DD20002083F8A9
:105AB800DC0070BD25F4601516684FEAC60C0CF4BE
:105AC800601C4CEA05055268C0F8C023DFE725F0E2
