:020000040800F2
:1000000000000220251700083D1100083F110008DC
:1000100041110008431100084511000800000000CC
:100020000000000000000000000000004711000870
:1000300049110008000000004B1100084D11000894
:100040007517000875170008751700087517000860
:100050007517000875170008751700087517000850
:100060007517000875170008751700085511000866
:10007000651100087511000875170008751700084C
:100080007517000875170008751700087517000820
:100090008511000875170008751700087517000806
:1000A0007517000875170008751700087517000800
:1000B00095110008A5110008B51100087517000872
:1000C00075170008751700087517000875170008E0
:1000D00075170008751700087517000875170008D0
:1000E00075170008751700087517000875170008C0
:1000F00075170008751700087517000875170008B0
:10010000751700087517000875170008751700089F
:10011000751700087517000875170008751700088F
:10012000751700087517000875170008751700087F
:10013000751700087517000875170008751700086F
:10014000751700087517000875170008751700085F
:10015000C511000875170008751700087517000805
:1001600075170008D51100087517000875170008E5
:10017000751700087517000875170008751700082F
:10018000751700087517000875170008751700081F
:1001900075170008000000007517000875170008A3
:1001A00075170008751700087517000875170008FF
:1001B00075170008751700087517000875170008EF
:1001C00075170008751700087517000875170008DF
:0801D0007517000875170008FF
:1001D80010B5054C237833B9044B13B10448AFF379
:1001E80000800123237010BDB4020020000000002D
:1001F800A8C8000808B5034B1BB103490348AFF36F
:10020800008008BD00000000B8020020A8C800084F
:1002180053B94AB9002908BF00281CBF4FF0FF3165
:100228004FF0FF3000F06AB9ADF1080C6DE904CE6B
:1002380000F006F8DDF804E0DDE9022304B07047B9
:100248002DE9F047089D0C46002B4ED194468C456D
:100258008646B2FA82F262D94AB1C2F120039140CD
:1002680020FA03F30CFA02FC194300FA02FE4FEAE3
:100278001C471FFA8CF6B1FBF7F44FEA1E4307FB45
:10028800141143EA014304FB06F199420AD91CEB15
:10029800030304F1FF3080F01281994240F20F818C
:1002A800023C6344591A1FFA8EF3B1FBF7F007FBBF
:1002B800101143EA014300FB06F69E420AD91CEBE3
:1002C800030300F1FF3180F0FC809E4240F2F98088
:1002D800634402389B1B40EA044000211DB1D3400F
:1002E8000022C5E90032BDE8F0878B4205D90DB17F
:1002F800C5E9000100210846F5E7B3FA83F10029B2
:1003080046D1A34202D39042C0F0F080861A64EB33
:1003180003030120002DE6D0C5E90063E3E7002AC6
:1003280040F09080A1EB0C044FEA1C481FFA8CF7B0
:100338000121B4FBF8F64FEA1E4308FB164443EAD2
:10034800044307FB06F0984208D91CEB030306F1A7
:10035800FF3402D2984200F2CD8026461C1A1FFABA
:100368008EF3B4FBF8F008FB104443EA044300FBA7
:1003780007F79F4208D91CEB030300F1FF3402D2B0
:100388009F4200F2B0802046DB1B40EA0640A5E70A
:10039800C1F120068B4022FA06F71F4320FA06FC1B
:1003A80004FA01F343EA0C03F44000FA01F8380CAC
:1003B8004FEA1349B4FBF0FE1FFA87FC00FB1E440A
:1003C80049EA04440EFB0CF9A14502FA01F20AD9E4
:1003D8003C190EF1FF3A80F08480A14540F28180FB
:1003E800AEF1020E3C44A4EB09041FFA83F9B4FBF6
:1003F800F0F300FB134449EA044403FB0CFCA44556
:1004080007D93C1903F1FF3067D2A44565D9023BEF
:100418003C4443EA0E40A0FB0293A4EB0C049C422C
:10042800CE469C4651D34ED055B1B8EB0E0364EB83
:100438000C0404FA06F6CB401E43CC40C5E9006420
:10044800002150E7C2F1200320FA03F10CFA02FC64
:1004580024FA03F394400C434FEA1C4800FA02FEC6
:100468001FFA8CF7B3FBF8F008FB1031230C43EAB2
:10047800014300FB07F1994208D91CEB030300F183
:10048800FF362CD299422AD9023863445B1AA4B2A7
:10049800B3FBF8F108FB113344EA034401FB07F30B
:1004A800A34208D91CEB040401F1FF3613D2A3427E
:1004B80011D902396444E41A41EA004139E7044693
:1004C800F0E6084606E7C845AED2B9EB020E63EB84
:1004D800070C0138A8E73146EDE7034699E73046AF
:1004E800D4E7D6467FE7634402384DE706462346FD
:1004F80008460FE7023E634430E700BF704700BF7D
:1005080030B58DB0002409940A940B9420252A460E
:10051800214601A80CF01EF938484FF0A0430360AB
:100528004FF4403343608460C46004610123436135
:1005380008228261047744770422026280F824400A
:100548004FF4D461C1624FF48061016380F83830A0
:100558004FF48051C16380F8403042648564C464BC
:10056800036501F091F9002835D10023099309A901
:10057800224801F0DBFF002830D1214B01930623EC
:100588000293052303937F230493042305930023F5
:10059800069301A9194801F021FB10BB194B0193DF
:1005A8000C23029301A9154801F018FBE0B9164B7A
:1005B80001931223029301A9104801F00FFBB0B96F
:1005C800124B01931823029301A90C4801F006FB72
:1005D80080B90DB030BD00F05BFCC6E700F058FCF8
:1005E800CBE700F055FCD9E700F052FCDFE700F05C
:1005F8004FFCE5E700F04CFCEBE700BF0C040020E3
:1006080002003004040060080800900C1000C010BC
:1006180000B589B02022002168460CF09BF81F48DD
:100628001F4B03604FF44033436000238360C36073
:1006380003614361042282610377437701220262E6
:1006480080F82430C362036380F838304FF4805157
:10065800C16380F840201C21416480218164C36407
:10066800026501F011F998B90E4B00930623019326
:10067800072302937F230393042304930023059302
:100688006946064801F0AAFA28B909B05DF804FBE2
:1006980000F0FEFBE8E700F0FBFBF6E7A003002014
:1006A800000100500000524700B589B02022002107
:1006B80068460CF04FF81F481F4B03604FF4403357
:1006C800436000238360C360036143610422826145
:1006D800037743770122026280F82430C362036300
:1006E80080F838304FF48051C16380F840201421DD
:1006F800416460218164C364026501F0C5F898B95A
:100708000E4B009306230193072302937F23039341
:1007180004230493002305936946064801F05EFA12
:1007280028B909B05DF804FB00F0B2FBE8E700F077
:10073800AFFBF6E734030020000600501000C0901D
:1007480030B5A1B0044600211B911C911D911E914A
:100758001F91542206A80BF0FDFF2368B3F1A04FA8
:1007680008D0534A934257D0524A934200F08880A7
:1007780021B030BD4FF4004306934FF00053179358
:1007880006A805F0E3F8002835D14B4A1368013371
:100798001360012B32D0494BDA6C42F00102DA6463
:1007A800DB6C03F001030293029B0F231B930323CB
:1007B8001C9300251D951BA94FF0904002F08EF95F
:1007C8003F48404B0360052343608560C560802334
:1007D80003614FF4807343614FF480638361202386
:1007E800C3614FF40053036202F060F888B9344BD8
:1007F80063659C62BCE700F04BFBC6E72F4BDA6CE5
:1008080042F40052DA64DB6C03F400530193019B59
:10081800C1E700F03DFBEAE74FF4004306934FF0D1
:100828000053179306A805F091F8D8B9224A13681F
:1008380001331360012B18D0204BDA6C42F001020F
:10084800DA64DB6C03F001030493049B10231B930D
:1008580003231C9300231D931BA94FF0904002F023
:100868003DF985E700F014FBE0E7144BDA6C42F43D
:100878000052DA64DB6C03F400530393039BDBE759
:100888004FF4803306934FF00043189306A805F001
:100898005DF850B9094BDA6C42F48042DA64DB6CDB
:1008A80003F480430593059B62E700F0F1FAF1E752
:1008B8000001005000060050D00200200010024045
:1008C800D40200200800024000B583B0164B9A6C91
:1008D80042F004029A649A6C02F004020092009AB0
:1008E8009A6C42F001029A649B6C03F00103019335
:1008F800019B002211460B2001F056FF0B2001F04E
:1009080063FF002211460C2001F04EFF0C2001F07D
:100918005BFF002211460D2001F046FF0D2001F07B
:1009280053FF03B05DF804FB00100240F0B58BB034
:10093800002405940694079408940994304BDA6CC3
:1009480042F00402DA64DA6C02F004020092009ABF
:10095800DA6C42F02002DA64DA6C02F020020192CA
:10096800019ADA6C42F00102DA64DA6C02F00102F0
:100978000292029ADA6C42F00202DA64DA6C02F04D
:1009880002020392039ADA6C42F00802DA64DB6C22
:1009980003F008030493049B22464FF400414FF0F0
:1009A800904002F085F9174F22460421384602F09C
:1009B8007FF9154E2246B821304602F079F94FF4F6
:1009C80000430593012506950794089405A94FF05F
:1009D800904002F083F80423059306950794089441
:1009E80005A9384602F07AF8B823059306950794C6
:1009F800089405A9304602F071F80BB0F0BD00BFAD
:100A080000100240000C0048000400480268124B25
:100A18009A4200D0704700B583B003F528431A6E98
:100A280042F080621A661B6E03F080630193019B9B
:100A380000221146442001F0B7FE442001F0C4FE14
:100A480000221146492001F0AFFE492001F0BCFE0A
:100A580003B05DF804FB00BF0068014070B588B0C2
:100A680000230393049305930693079302681A4B94
:100A78009A4201D008B070BD03F52843DA6C42F001
:100A88000202DA64DA6C02F002020192019ADA6C6C
:100A980042F00102DA64DB6C03F001030293029B6B
:100AA8004FF44043039302260496032506950D242C
:100AB800079403A9094802F011F84FF4407303930F
:100AC8000496002305930695079403A94FF09040D8
:100AD80002F004F8CEE700BF0068014000040048B7
:100AE80010B5BAB0002438943994349435943694B7
:100AF80037942D942E942F943094319432943394C7
:100B08006022214615A80BF025FE12941394149424
:100B1800242221460DEB02000BF01CFE2022214668
:100B280001A80BF017FEAB48AB4B03604460846030
:100B380002F0FEFA002840F01D810C21A54802F0C1
:100B480063FB002840F019810A21A24802F095FBB6
:100B5800002840F015814FF4803338934FF4006338
:100B6800399338AA01219B4802F0C2FB002840F0C3
:100B78000A8100220121974802F0F3FC002840F086
:100B8800058146F29053349300213591369108231C
:100B9800379334AA8F4802F092FB002840F0F9807E
:100BA80000212D912F91309133912DAA894802F07F
:100BB800E3FD002840F0F0801023159300211691E2
:100BC80017911891012319931A911B911C911D914A
:100BD8001E914FF000631F93209121914FF0005315
:100BE8002293239124914FF0004325934FF480736F
:100BF8002693279129912A912B912C9115AA754812
:100C080002F074FD002840F0CA80002315931F935A
:100C1800229325934FF480722692279315AA0321D5
:100C28006C4802F063FD002840F0BC8043F2C82302
:100C3800129312AB01220021664802F011FE00282F
:100C480040F0B38041F66413129312AB04220021E2
:100C5800604802F005FE002840F0AA8000210991B2
:100C68004FF4C8730A930B914FF400420C924FF45F
:100C780080420D920E930F914FF0004310934FF066
:100C88008043119309AA534802F098FD002840F0C8
:100C980092804FF400430C9309AA03214D4802F0B7
:100CA8008DFD002840F08A800021019104230293E1
:100CB800082303930491059106910791089101ABCC
:100CC8000122444802F0ADFE00287AD101AB40224F
:100CD8000321404802F0A5FE002875D1082302939D
:100CE800042303936B44022200213A4802F099FE40
:100CF80000286CD101AB80220321364802F091FE16
:100D080000286BD134AA0321324802F0D8FA00280F
:100D180067D12DAA03212F4802F02EFD002863D1A8
:100D28004FF48273129312AB01220321294802F077
:100D380097FD00285BD10021019108230293042329
:100D48000393049105910691079108916B4402223F
:100D5800204802F066FE00284CD101AB8022032116
:100D68001C4802F05EFE002847D11A48FFF776FEBD
:100D78003AB010BD00F08CF8DFE600F089F8E3E641
:100D880000F086F8E7E600F083F8F2E600F080F875
:100D9800F7E600F07DF803E700F07AF80CE700F0DA
:100DA80077F832E700F074F840E700F071F849E7A7
:100DB80000F06EF852E700F06BF86AE700F068F8A8
:100DC80072E700F065F881E700F062F886E700F066
:100DD8005FF88FE7780400200068014000F058F8B9
:100DE80090E700F055F894E700F052F898E700F023
:100DF8004FF8A0E700F04CF8AFE700F049F8B4E787
:100E080008B50848084B0360042343604FF4FA63AD
:100E1800C360836003F0D8F800B908BD00F038F863
:100E2800FBE700BF740500200030004008B5044B04
:100E3800834200D008BD0029FCD10AF0E1F8F9E7A7
:100E4800780400200368B3F1804F00D070470C4A43
:100E580013889BB201339BB213800A4A13889BB252
:100E680001339BB21380084A13889BB201339BB2AB
:100E78001380064A13889BB201339BB21380E5E7BF
:100E88008A050020880500208605002084050020AA
:100E980072B6FEE700B595B03822002106A80BF01F
:100EA80059FC00200190029003900490059004F0F2
:100EB800B7F8292306934FF48033079301230B9344
:100EC8000C9302230D9303220E9205220F924422C3
:100ED8001092119306221292139306A804F05AF95D
:100EE80080B90F23019303230293002303930493F0
:100EF800059304210DEB010004F002FC20B915B0A4
:100F08005DF804FBFFF7C4FFFFF7C2FF08B500F068
:100F180057FCFFF7BFFFFFF709FDFFF7D5FCFFF709
:100F2800DFFDFFF7EDFAFFF773FBFFF7BDFB00F0FE
:100F380053F800F0CFF908F061FC00F059F900F01F
:100F48008FF900F08BFA00F00BFB00F03DFB01225B
:100F580080211B4801F0ACFE1A4809F019FFFFF781
:100F68004FFF194803F064F815E0184B00221A8067
:100F78000AF038FE18E0164B00221A800AF064F8CE
:100F880017E0144B00221A8020210D4801F095FE2D
:100F98000D4803F04DF80AF053F80AF059F80B4BD6
:100FA8001B889BB2002BE0D1094B1B889BB2632B9B
:100FB800E1D8084B1B889BB2B3F5FA7FE1D2E7E78B
:100FC800000400488C050020740500208A050020D4
:100FD800880500208605002008B51048104B0360DE
:100FE8004FF482734360002383604FF4E062C26071
:100FF800036143614FF4007282611022C26103628F
:10100800436283620722C26203630823436304F0D6
:10101800A7FF00B908BDFFF73BFFFBE75406002018
:10102800003C004010B588B0002303930493059357
:101038000693079302682B4B9A4201D008B010BD63
:10104800044603F5EA339A6D42F400429A659A6DB4
:1010580002F400420192019ADA6C42F00402DA6466
:10106800DB6C03F004030293029B4FF4E0530393F9
:1010780002230493032306930623079303A91A481C
:1010880001F02CFD19481A4B03600E23436000231E
:101098008360C3608022026143618361C36103622C
:1010A80001F004FCC0B9114BA3659C621148124BB6
:1010B80003600F234360102383600023C3608022F2
:1010C800026143618361C361036201F0EFFB30B9E0
:1010D800084B63659C62B1E7FFF7DAFEE3E7FFF7C9
:1010E800D7FEF5E7003C004000080048F405002062
:1010F8001C000240940500203000024000B583B077
:101108000B4B1A6E42F001021A661A6E02F00102C7
:101118000092009A9A6D42F080529A659B6D03F096
:1011280080530193019B04F001F803B05DF804FBC0
:1011380000100240FEE7FEE7FEE7FEE7FEE7704725
:101148007047704708B500F04BFB08BD08B502486A
:1011580001F062FC08BD00BFD402002008B50248B7
:1011680001F05AFC08BD00BFF405002008B502488C
:1011780001F052FC08BD00BF9405002008B50248E4
:1011880003F006FD08BD00BF0820002008B502488E
:1011980005F09BFC08BD00BF9C07002008B502486D
:1011A80005F093FC08BD00BF5007002008B50248B1
:1011B80005F08BFC08BD00BF0407002008B500211E
:1011C800014802F0F3FE08BD7804002008B5FF21AD
:1011D800014802F0EBFE08BD78040020034AD2F86B
:1011E800883043F47003C2F88830704700ED00E09F
:1011F80000B589B0002304930593069307930193E0
:101208000293039315484FF080420260A92242607E
:10121800836040F2E732C26003618023836105F096
:10122800C1FD90B94FF48053049304A90B4805F00D
:1012380011FF68B900230193039301A9074806F039
:1012480081F840B909B05DF804FBFFF721FEE9E732
:10125800FFF71EFEEEE7FFF71BFEF3E79C070020F3
:1012680000B589B00023049305930693079301936F
:10127800029303931548164A0260A92242608360CC
:1012880041F28732C26003618023836105F08AFDE1
:1012980090B94FF48053049304A90C4805F0DAFE82
:1012A80068B900230193039301A9084806F04AF896
:1012B80040B909B05DF804FBFFF7EAFDE9E7FFF77D
:1012C800E7FDEEE7FFF7E4FDF3E700BF5007002076
:1012D8000004004000B589B00023049305930693E9
:1012E80007930193029303931548164A0260A922B3
:1012F8004260836042F20F72C2600361802383619F
:1013080005F050FD90B94FF48053049304A90C489C
:1013180005F0A0FE68B900230193039301A90848CA
:1013280006F010F840B909B05DF804FBFFF7B0FD0E
:10133800E9E7FFF7ADFDEEE7FFF7AAFDF3E700BF2A
:10134800040700200008004000B585B00368B3F129
:10135800804F0BD0284A93421CD0284A93422CD065
:10136800274A93423CD005B05DF804FB03F50433EB
:101378009A6D42F001029A659B6D03F00103009398
:10138800009B002211461C2001F00EFA1C2001F0DF
:101398001BFAE8E71B4B9A6D42F002029A659B6DB7
:1013A80003F002030193019B002211461D2001F066
:1013B800FBF91D2001F008FAD5E7124B9A6D42F0AF
:1013C80004029A659B6D03F004030293029B0022BA
:1013D80011461E2001F0E8F91E2001F0F5F9C2E7D8
:1013E800084B1A6E42F400521A661B6E03F400533F
:1013F8000393039BB7E700BF0004004000080040C8
:10140800003401400010024000B587B0002301936A
:10141800029303930493059302680E4B9A4202D0F9
:1014280007B05DF804FB03F55C43DA6C42F0020296
:10143800DA64DB6C03F002030093009B4FF4007343
:101448000193022302930A23059301A9024801F09C
:1014580045FBE5E7003401400004004810B59CB0A6
:101468000024189419941A941B941594169417949C
:101478000E940F941094119412941394149434228B
:10148800214601A80BF066F93348344B0360A923C1
:101498004360846040F2E733C360046144618023A1
:1014A800836105F07FFC002844D14FF480531893E2
:1014B80018A9294805F0CEFD00283ED1264805F098
:1014C800A1FC00283CD1002315931693179315A966
:1014D800214805F037FF002835D160230E934FF4DB
:1014E800FA730F9300231093119312931393149389
:1014F80008220EA9184805F003FD38BB0023019304
:1015080002930393049305934FF4005206920793B2
:10151800089309934FF000720A920B930C930D9362
:1015280001A90D4805F064FF98B90B48FFF76CFF57
:101538001CB010BDFFF7ACFCB7E7FFF7A9FCBDE78F
:10154800FFF7A6FCBFE7FFF7A3FCC6E7FFF7A0FC81
:10155800D4E7FFF79DFCE8E7B80600200034014017
:1015680008B51748174B03604FF4E1334360002375
:101578008360C36003610C2242618361C3610362BB
:101588004362836206F097FA70B900210C4806F0AE
:101598000AFB60B900210A4806F02AFB50B908483E
:1015A80006F0E2FA48B908BDFFF772FCEDE7FFF76D
:1015B8006FFCEFE7FFF76CFCF1E7FFF769FCF2E778
:1015C8007C0800200038014008B51748174B036015
:1015D8004FF4E133436000238360C36003610C224E
:1015E80042618361C36103624362836206F063FA06
:1015F80070B900210C4806F0D6FA60B900210A48F3
:1016080006F0F6FA50B9084806F0AEFA48B908BD2F
:10161800FFF73EFCEDE7FFF73BFCEFE7FFF738FC91
:10162800F1E7FFF735FCF2E7E80700200048004043
:1016380010B59EB00446002119911A911B911C9176
:101648001D91542204A80BF085F823682E4A934272
:1016580004D02E4A93422BD01EB010BD0123049310
:1016680004A804F073F900BB294B1A6E42F48042B7
:101678001A661A6E02F480420092009ADA6C42F0FE
:101688000402DA64DB6C03F004030193019B30234A
:10169800199302231A9300231B931C9307231D936A
:1016A80019A91C4801F01AFAD6E7FFF7F1FBDBE7A6
:1016B8000423049304A804F049F908BB144B9A6D59
:1016C80042F480229A659A6D02F480220292029A6C
:1016D800DA6C42F00202DA64DB6C03F00203039373
:1016E800039B4FF44063199302231A9300231B931F
:1016F8001C9307231D9319A9074801F0EFF9ABE7DD
:10170800FFF7C6FBDAE700BF003801400048004099
:101718000010024000080048000400480D488546B3
:10172800FFF75CFD0C480D490D4A002302E0D45830
:10173800C4500433C4188C42F9D30A4A0A4C002313
:1017480001E013600432A242FBD30BF011F8FFF75B
:10175800DDFBFEE70000022000000020B4020020AC
:10176800B8CA0008B4020020EC280020FEE70000F8
:10177800104B1B680BB90120704710B504464FF495
:101788007A70B0FBF3F30C4A1068B0FBF3F001F089
:101798001FF868B90F2C01D901200AE00022214660
:1017A8004FF0FF3001F000F8044B1C60002000E00F
:1017B800012010BD040000200000002008000020C7
:1017C80010B5032000F0DEFF0F20FFF7D1FF10B1A6
:1017D8000124204610BD0446FFF790FCF9E70000FD
:1017E800034A1368034909680B441360704700BF34
:1017F8001009002004000020014B1868704700BF42
:101808001009002038B50446FFF7F6FF0546B4F185
:10181800FF3F02D0044B1B681C44FFF7EDFF401B41
:10182800A042FAD338BD00BF0400002010B4303005
:101838000B0A9B0003F00C03C45801F01F014FF082
:101848001F0C0CFA01FC24EA0C0CC2F384628A40D7
:101858004CEA0202C2505DF8044B704710B41430D1
:101868004B0E9B0003F00403C458C1F304514FF01E
:10187800070C0CFA01FC24EA0C0C8A404CEA020220
:10188800C2505DF8044B704730B583B00023019314
:10189800002800F032810446C36D13B323689A68A8
:1018A80012F0005F05D09A6822F0204222F03F0231
:1018B8009A602268936813F0805F1FD1936823F0C1
:1018C800104323F03F0343F0805393608C4B1B6815
:1018D8009B098C4AA2FB03239B0901335B000193FC
:1018E80009E0FEF72DFF0023236684F85830D5E77A
:1018F800019B013B0193019B002BF9D1226893685E
:1019080013F0805F3DD1E36D43F01003E365236E70
:1019180043F0010323660120936813F0040300D009
:101928000123E16D11F0100F40F0E080002B40F032
:10193800DD80E36D23F4817343F00203E36593686C
:1019480013F0010F3ED1B2F1A04F1CD06E4B9A425A
:1019580019D06E4B996811F0010100D001216C4B30
:101968009B6813F0010300D001230B436949896880
:1019780011F0010100D001210B430CBF012300230A
:1019880012E00020C8E74FF0A043996811F0010168
:1019980000D001215C4B9B6813F0010300D00123A8
:1019A8000B430CBF0123002363B1B2F1A04F6CD0ED
:1019B800554B9A4267D0584963688A6822F47C126A
:1019C80013438B60627FE36B43EA4233E26813435D
:1019D800A268134394F8242043EA0243012A56D00C
:1019E800E26A22B102F47872216B0A431343216838
:1019F800CD684A4A2A401A43CA602268136923F00C
:101A08004063616B0B4313612268936813F008030A
:101A180000D0012343BB237F94F83810490041EAE2
:101A28008331D36823F4804323F002030B43D3604C
:101A38002369002B30D02268136943F48033136183
:101A48002268D2F8C03023F47F5323F03F03216982
:101A58000B43C2F8C03094F84030012B2BD02268D9
:101A6800136923F0010313616369012B35D02268E0
:101A7800136B23F00F031363E36D23F0030343F0A9
:101A88000103E36537E0264996E7254994E7A26A0A
:101A9800013A43EA4243A3E72268136923F48033F7
:101AA80013612268D2F8C03023F47F5323F03F0338
:101AB800C2F8C030CFE721680B6923F4FF6323F035
:101AC8000403626CA56C2A43E56C2A43256D2A43FE
:101AD800134343F001030B61C6E721680B6B23F046
:101AE8000F03226A013A13430B63C5E7E36D43F022
:101AF8001003E365012003B030BD0120FBE700BF00
:101B080000000020632D3E05000100500004005035
:101B18000005005000060050000700500740F0FF85
:101B2800000300500368186C70477047704708B589
:101B3800806AFFF7FBFF08BD704708B50346806A57
:101B4800C26D12F0500F30D1C36D43F40073C365FA
:101B580003681A6812F0080F14D0DA6812F4406F9C
:101B680020D1DB6813F4005F1CD1C36D23F48073AC
:101B7800C365C36D13F4805F14D1C36D43F00103D3
:101B8800C3650FE0DB6813F0020F0BD1C36D23F4BC
:101B98008073C365C36D13F4805F03D1C36D43F0D5
:101BA8000103C365FFF7C1FF08BDC26D12F0100F36
:101BB80004D1426D526B18469047F5E7FFF7BCFF1A
:101BC800F2E708B5806AC36D43F04003C365036E4E
:101BD80043F004030366FFF7AFFF08BDF0B583B019
:101BE8000023019390F85830012B00F042820446FC
:101BF8000D46012380F858300068836813F0040FFD
:101C080009D0E36D43F02003E3650120002384F845
:101C1800583003B0F0BD0A684968FFF707FE20682E
:101C2800836813F0040300D00123866816F00806C1
:101C380000D00126002B3ED1002E3CD1AA68B2F17B
:101C4800004F78D02968FFF709FE2268536923F00E
:101C58000043536169692268D368C3F3C1035B0019
:101C680099402869042873D0603252F82070AB4B31
:101C78003B402F6807F0F84C41EA0C010B4343F056
:101C8800004342F8203023682869AA69603353F872
:101C9800201021F080710A4343F820202368296925
:101CA8002A7F012A51D0603353F8212022F0007294
:101CB800324343F821202268936813F0010F16D1AC
:101CC8002B68E868D2F8B010C3F3120621EA0601BF
:101CD80000F018069248F0400340C3F312030B4388
:101CE800C2F8B030EA688F4B9A4200F099802B68AE
:101CF8008D4A134200F0B7812268B2F1A04F00F07C
:101D080050818A498A4200F049818949896801F0ED
:101D1800E070884DAB4200F04681874DAB4200F041
:101D28004281864DAB4200F07181854DAB4200F097
:101D3800858100206AE700222968FFF78FFD226865
:101D4800536943F00043536184E74FF00076AAE7F4
:101D5800136E116EC1F384612B68C3F3120080BB4C
:101D6800C3F38463994234D021684B6E4A6EC2F340
:101D780084622B68C3F3120080BBC3F384639A4266
:101D880034D021688B6E8A6EC2F384622B68C3F3E9
:101D9800120080BBC3F384639A4234D02168CB6EAF
:101DA800CA6EC2F384622B68C3F3120080BBC3F30C
:101DB80084639A427FF47FAFCB6E23F00043CB66F7
:101DC80079E793FAA3F313B1B3FA83F3CAE72023AD
:101DD800C8E7136E23F000431366C5E793FAA3F32D
:101DE80013B1B3FA83F3CAE72023C8E74B6E23F095
:101DF80000434B66C5E793FAA3F313B1B3FA83F331
:101E0800CAE72023C8E78B6E23F000438B66C5E73B
:101E180093FAA3F313B1B3FA83F3CAE72023C8E70D
:101E280020682B68C3F3120626BB9A0E013202F013
:101E38001F02092A8CBF00220122002A52D046BB69
:101E4800990E0131890601F0F84176BB9F0E0137E2
:101E580007F01F070122BA401143AEBB9B0E0133A6
:101E680003F01F0303EB43031B051943AA68FFF79D
:101E7800F5FC3CE793FAA3F24AB1B2FA82F20132D6
:101E880002F01F02092A8CBF00220122D5E7202276
:101E9800F5E793FAA3F131B1B1FA81F1013189067D
:101EA80001F0F841D1E72021F8E793FAA3F24AB10B
:101EB800B2FA82F2013202F01F024FF0010C0CFA62
:101EC80002F2C9E72022F5E793FAA3F343B1B3FA84
:101ED80083F3013303F01F0303EB43031B05C4E73C
:101EE8002023F6E776BB990E0131890601F0F84107
:101EF800A6BB9F0E013707F01F070122BA40114306
:101F0800DEBB9B0E013303F01F0303EB43031E3BB1
:101F18001B0543F000731943A8E700BF00F0FF0357
:101F2800FFFF070000007F4000000880000100500C
:101F380000070050000021C31000C090000052C7E5
:101F4800000084CB93FAA3F131B1B1FA81F10131E8
:101F5800890601F0F841CBE72021F8E793FAA3F2CC
:101F68004AB1B2FA82F2013202F01F024FF0010CBC
:101F78000CFA02F2C3E72022F5E793FAA3F35BB168
:101F8800B3FA83F3013303F01F0303EB43031E3B50
:101F98001B0543F00073BEE72023F3E701F500714A
:101FA800B4E63549B2E611F4000F7FF4BAAEB2F1E7
:101FB800A04F04D0314B9A4201D0002026E6B2F15E
:101FC800A04F19D02E4B9A4214D02E4A40F400004C
:101FD800936823F0E073184390602B4B1B689B09B0
:101FE8002A4AA2FB03239B09013303EB43039B000B
:101FF800019306E0204AE9E71F4AE7E7019B013B16
:102008000193019B002BF9D10020FFE511F0807F9F
:102018007FF48BAEB2F1A04F0ED0194B9A4209D083
:10202800184A40F08070936823F0E073184390607A
:102038000020EBE5104AF4E70F4AF2E711F4800FAD
:1020480013D10F4B9A4212D0B2F1A04F09D00D49CB
:1020580040F480038A6822F0E07213438B6000200A
:10206800D4E50549F4E70020D0E50020CEE50020BE
:10207800CCE50220CDE500BF00030050000600506B
:10208800000100500007005000000020632D3E05AD
:1020980030B583B00023019303689A6812F0010FEA
:1020A80063D104469968324A114220D19A6822F0D5
:1020B800004222F03F0242F001029A600368B3F145
:1020C800A04F20D02B4A93421BD02B4B9B6813F474
:1020D800000F20D0294B1B689B09294AA2FB032328
:1020E8009B09013303EB43039B00019310E0C36D8D
:1020F80043F01003C365036E43F001030366012038
:1021080034E0204BE2E71F4BE0E7019B013B0193E2
:10211800019B002BF9D1FFF76FFB054623681A686E
:1021280012F0010F1FD19A6812F0010F07D19A68B7
:1021380022F0004222F03F0242F001029A60FFF7CB
:102148005BFB431B022BE9D923681B6813F0010FC3
:10215800E4D1E36D43F01003E365236E43F001031C
:102168002366012002E0002000E0002003B030BD1B
:102178003F000080000100500007005000000020D0
:10218800632D3E050003005038B504460368B3F1DB
:10219800A04F60D0464A93425AD0464A956805F007
:1021A8001F059B6813F0040F7DD194F85830012B5C
:1021B8007BD0012384F858302046FFF769FF0028B8
:1021C8006DD1E36D23F4706323F0010343F480734E
:1021D800E3652368364A934242D002F5806293420F
:1021E8003BD01A46934200D01DB9E26D22F480120A
:1021F800E265E26D12F4805F35D0226E22F00602AD
:1022080022661C221A60002384F858302368284A62
:1022180093422ED002F58062934227D01A46934209
:102228002AD0092D05D840F22121E94011F0010FEB
:1022380022D1E36D43F48013E365D36813F0007F84
:1022480032D0E36D23F4405343F48053E3652BE02D
:1022580002F50072A2E7184AA0E7A2F58072C1E76A
:102268004FF0A042BEE700222266CAE7A2F58072BC
:10227800D5E74FF0A042D2E7DA6812F0007F05D028
:10228800E26D22F4405242F48052E2659A6822F0EC
:10229800004222F03F0242F004029A6004E0002368
:1022A80084F8583000E0022038BD0220FCE700BF67
:1022B8000001005000070050000300502DE9F041D4
:1022C80004460F4690460068B0F1A04F24D0444B16
:1022D80098421ED0434B9E6806F01F06856815F08D
:1022E800040F77D194F85830012B76D0012384F865
:1022F80058303D4B984211D0092E05D840F2212381
:10230800F34013F0010F09D1002384F8583001205D
:1023180061E003F50073DEE7344BDCE72046FFF7A6
:10232800B7FE002852D1E36D23F4706323F0010354
:1023380043F48073E3652368294A934240D002F549
:102348008062934239D01A46934200D01EB9E36D99
:1023580023F48013E365E36D13F4805F33D0236EB9
:1023680023F006032366636D214ADA62636D214A0E
:102378001A63636D204A5A6323681C221A6000237B
:1023880084F858302268536843F010035360226879
:10239800D36843F00103D360216843463A4640318D
:1023A800606D00F0EFFA2268936823F0004323F091
:1023B8003F0343F0040393600DE0A2F58072C3E786
:1023C8004FF0A042C0E700232366CCE7002384F83F
:1023D800583000E00220BDE8F0810220FBE700BF92
:1023E8000001005000070050000600500003005094
:1023F800431B0008371B0008CB1B000838B50446F0
:102408000268936813F0020300D00123916811F069
:10241800010F39D0002B39D1936803F00D03012B3C
:1024280009D0E36D43F01003E365236E43F0010325
:102438002366012029E0936823F0004323F03F033B
:1024480043F002039360236803221A60FFF7D4F96C
:10245800054623689B6813F0010F13D0FFF7CCF9EA
:10246800401B0228F5D923689B6813F0010FF0D0B0
:10247800E36D43F01003E365236E43F00103236625
:10248800012002E0002000E0002038BD0020FCE729
:1024980030B583B00023019390F85830012B41D018
:1024A80004460D46012380F85830FFF7A7FF80BB8C
:1024B800E36D23F4885323F0020343F00203E3653A
:1024C8002268936823F0404323F03F0305F08045DA
:1024D8002B4343F00043936023689B68002B06DB83
:1024E800E36D23F0030343F00103E36515E0019B6B
:1024F80001330193019A0C4B9A42EDD9E36D23F015
:10250800120343F01003E365002384F858300120D8
:1025180006E0E36D43F01003E365002384F85830C8
:1025280003B030BD0220FBE701DE040090F858201C
:10253800012A00F0D68010B49DB00346012280F82D
:1025480058200022189219920068B0F1A04F47D085
:10255800654A904247D000220192019A002A46D04B
:10256800926812F0040200D00122846814F0040F6B
:1025780040F0A780002A40F0A480B0F1A04F42D0DC
:102588005A4A90423CD05A4A086800285CD0906861
:1025980020F460404C6893F838C044EA4C34204337
:1025A80090601868B0F1A04F2FD0504CA0422CD0AA
:1025B8004D48846814F0010400D001244D48806817
:1025C80010F0010000D0012020434B4CA46814F007
:1025D800010400D0012420430CBF0120002025E085
:1025E800424A0192B9E702F580720192B5E7DA6DC5
:1025F80042F02002DA65002283F85820012068E0C2
:1026080002F50072C0E73D4ABEE74FF0A04084687B
:1026180014F0010400D001243448806810F001004F
:1026280000D0012020430CBF01200020002854D0F6
:10263800906820F4716020F00F000C6889682143CD
:1026480008439060002041E0916821F46041916066
:102658001968B1F1A04F1AD02448814217D02249F5
:10266800886810F0010000D001202249896811F023
:10267800010100D0012101431F48806810F00100CA
:1026880000D0012001430CBF0121002110E04FF0D0
:10269800A041886810F0010000D001201349896822
:1026A80011F0010100D0012101430CBF01210021DB
:1026B800A9B1916821F4716121F00F0191600020A6
:1026C80004E0DA6D42F02002DA650120002283F886
:1026D80058201DB05DF8044B70470020F6E7002035
:1026E800F4E70220704700BF0004005000010050CA
:1026F800000700500005005000060050000300507D
:10270800002807DB00F01F02400901239340024A1A
:1027180042F82030704700BF00E100E0002808DBE5
:102728000901C9B200F1604000F5614080F800136A
:10273800704700F00F000901C9B2014B19547047E6
:1027480014ED00E000B500F00700C0F1070CBCF183
:10275800040F28BF4FF0040C031D062B0FD9C31E0E
:102768004FF0FF3E0EFA0CF021EA000199400EFAF4
:1027780003FE22EA0E0241EA02005DF804FB002390
:10278800EEE70000074AD36823F4E0631B041B0C40
:10279800000200F4E060034343F0BF6343F40033F6
:1027A800D360704700ED00E010B50446054BD868CB
:1027B800C0F30220FFF7C6FF01462046FFF7AEFF31
:1027C80010BD00BF00ED00E008B5FFF799FF08BD98
:1027D8000138B0F1807F0BD24FF0E0235861054AF1
:1027E800F02182F823100020986107221A617047AF
:1027F8000120704700ED00E030B4C46C056D6560E1
:10280800446D14B1846DC56D6560446C04F01F0C93
:10281800012404FA0CF4056C6C6004686360836836
:10282800102B05D0036899600368DA6030BC7047E4
:1028380003689A600368D960F8E7000003680C4AE7
:10284800934213D80B49DBB2083B0B4AA2FB032384
:10285800426C22F003020A448264084AC264C3F349
:102868000413012202FA03F3036570470449EAE7F7
:102878000704024000080240CDCCCCCC80080240BE
:10288800200802400379074A1A4492004265064A22
:102898008265013B03F01F03012202FA03F3C365BB
:1028A800704700BF3F8200104009024000285BD0FB
:1028B80010B5044601682D4B99423DD82C4B0B446A
:1028C8002C4AA2FB03231B099B0043642A4B036485
:1028D800022384F825300A6822F4FF4222F07002AD
:1028E800A368E06803432069034360690343A06960
:1028F8000343E0690343206A034313430B60204604
:10290800FFF79CFFA368B3F5804F20D0A36C227912
:102918001A60E36C226D5A606368013B032B19D976
:1029280000236365A365E3650020E063012384F861
:10293800253084F8240010BD104B0B440D4AA2FB2F
:1029480003231B099B0043640D4B0364C0E700236A
:102958006360DBE72046FFF795FF636D00221A608E
:10296800A36DE26D5A60DFE701207047070402405B
:10297800F8FFFDBFCDCCCCCC00000240F8FBFDBF7A
:102988000004024038B5044690F82400012841D0DC
:10299800012084F8240094F82500C0B2012804D04E
:1029A800002384F82430022038BD022084F8250052
:1029B8000020E0632568286820F001002860204690
:1029C800FFF71AFF236BD3B12268136843F00E0395
:1029D8001360A36C1A6812F4803F03D01A6842F49B
:1029E80080721A60636D1BB11A6842F480721A60B3
:1029F8002268136843F0010313600020D4E72268BB
:102A0800136823F0040313602268136843F00A0371
:102A18001360DEE70220C7E738B5036C196804685D
:102A28002568436C03F01F0304229A400A4215D01C
:102A380015F0040F12D0236813F0200F03D1236878
:102A480023F004032360436C03F01F02016C04238A
:102A580093404B60036B03B1984738BD02229A40FC
:102A68000A421CD015F0020F19D0236813F0200F6A
:102A780006D1236823F00A032360012380F8253058
:102A8800436C03F01F02016C022393404B60002348
:102A980080F82430C36A002BDFD09847DDE708228E
:102AA80002FA03F30B42D8D015F0080FD5D02368EB
:102AB80023F00E032360436C03F01F03016C012213
:102AC80002FA03F34B60C26380F82520002380F8E4
:102AD8002430436B002BC0D09847BEE7F0B583B0D5
:102AE800002362E085685E000324B44025EA0405FB
:102AF800CC68B4402C438460456825EA0C054C68D2
:102B0800C4F300149C402C4344605FE0DD080835A2
:102B180050F8254003F0070C4FEA8C0C4FF00F0ECD
:102B28000EFA0CFE24EA0E0E0C6904FA0CF444EAC0
:102B38000E0440F8254060E0052400E0002404FA73
:102B48000EF42C430CF1020C554D45F82C40554C15
:102B5800A568D44325EA02064F6817F4801F01D000
:102B680042EA05064F4DAE60ED6804EA05064F6877
:102B780017F4001F01D042EA05064A4DEE606D6861
:102B880004EA05064F6817F4003F01D042EA05063B
:102B9800444D6E602D682C404E6816F4803F01D07D
:102BA80042EA05043F4A146001330A6832FA03F422
:102BB80074D04FF0010C0CFA03FC1CEA0202F3D0AB
:102BC8004C6804F00304013C012C8BD94C6804F0D8
:102BD8000304032C0CD0C4685D004FF0030C0CFAFE
:102BE80005FC24EA0C0C8C68AC4044EA0C04C46074
:102BF8004C6804F00304022C88D004684FEA430EA2
:102C08004FF0030C0CFA0EFC24EA0C0C4C6804F090
:102C1800030404FA0EF444EA0C0404604C6814F447
:102C2800403FC1D0204C256E45F001052566246E35
:102C380004F001040194019C4FEA930C0CF1020585
:102C4800174C54F8255003F0030E4FEA8E0E0F244C
:102C580004FA0EF425EA0405B0F1904F3FF46EAF84
:102C6800124CA04212D004F58064A04210D004F5A2
:102C78008064A0420ED004F58064A0420CD004F514
:102C88008064A0423FF458AF062458E7012456E771
:102C9800022454E7032452E7042450E703B0F0BDAC
:102CA80000000140000401400010024000040048F8
:102CB8000AB18161704781627047436901EA030282
:102CC80021EA030141EA02418161704710B40468B6
:102CD800226822F007028B68134323F01803CA689E
:102CE8001A43226003680A685A6103684A689A614D
:102CF8005DF8044B704730B5046801F1010C4FEAE8
:102D0800CC1C54F80C3023F0070E936843EA0E03EA
:102D180023F01803D5682B4344F80C300368146873
:102D280003EBC113C3F894400368526803EBC11363
:102D3800C3F8982030BD70B404682368D4F8A05351
:102D480023F020034E69334323F0C002202E09D01C
:102D58008E69022E06D0032E29D0042E2AD023F005
:102D6800E00201E042F0200222F40062CB69134342
:102D780023F480620B6A134323F0C0624B6A134347
:102D880023F000628B6A134323F04043CA6A43EA84
:102D9800820323F000534A6B1A4325F480350B6BEA
:102DA8001D4322600368C3F8A05370BC704742F00B
:102DB8004002D9E742F08002D6E72DE9F0430568E2
:102DC8004B1CDB01EC5824F07044EC500568EB58C0
:102DD80005EBC114D4F8E870D4F8E490D5F8A04312
:102DE80023F0200C536943EA0C0C202B09D093697B
:102DF800022B06D0032B5FD0042B62D02CF4D07C9E
:102E080003E02CF4C07C4CF0200C2CF4006CD3694B
:102E180043EA0C0323F48063166A46EA030C2CF099
:102E2800C06C536A43EA0C0323F0006C936A43EACC
:102E38000C0323F0704CD36A43EA0C0323F40033E9
:102E4800566BB6F1005F41D023F04003D2F838C08A
:102E58004CEA030323F48023966D46EA030E2EF012
:102E6800FC7E2EF4803E136D43EA0E0E27F03F07DA
:102E7800D36B03F03F0848EA070828F00048176CAE
:102E880047EA080829F48076536C1E43936CB3F51F
:102E9800606F1ED0B3F5F05F1BD026F4F0561E43CA
:102EA80026F48046D76C3E43576D05291AD8DFE8CB
:102EB80001F01431373D43492CF4807C4CF0800CF0
:102EC800A3E72CF0800C4CF4807C9EE743F400339D
:102ED800BAE7BCF1400FE3D1DFE724F40034136B09
:102EE80044EA43044B1CDB0145F803E0036803EBA9
:102EF800C113C3F8E880036803EBC113C3F8E460A7
:102F0800036803EBC113C3F8D4700368C3F8A04384
:102F1800BDE8F08324F48024136B44EA8304E1E7DA
:102F280024F40024136B44EAC304DBE724F480147C
:102F3800136B44EA0314D5E724F40014136B44EA32
:102F48004314CFE724F48004136B44EA8314C9E7DD
:102F580030B4006800EBC113D3F8EC3023F0100351
:102F6800146843EA041323F48013546844EA030CF6
:102F78002CF4803CD36843EA0C0323F4003C9368A8
:102F880043EA0C039469012C05D000EBC110C0F88A
:102F9800EC3030BC704723F00403156945EA030C94
:102FA8002CF0020C536943EA0C0323F0010323437A
:102FB800EBE70000F0B4076807EBC114D4F8E4604D
:102FC800D4F8B850402A52D035D8012A4FD0002A18
:102FD8005ED0202A5ED8022A5ED3023A012404FA7F
:102FE80002F2324C224230D144F2040422423ED151
:102FF8000022FE24944026EA04061C68944044EA11
:10300800060CDC68944044EA0C041E6906FA02FCCB
:103018004CEA040C5C69944044EA0C0C9C699440AA
:1030280044EA0C04082E39D0036803EBC113C3F833
:10303800E440F0BC7047B2F5007F06D012D9B2F573
:10304800806F14D0B2F5006F20D15A6807EBC11712
:10305800C7F8C42002689C6802EBC112C2F8C840D5
:103068001022C6E7802AF0D0B2F5807F0CD15A68CA
:1030780007EBC117C7F8BC2002689C6802EBC112B5
:10308800C2F8C0400022B4E70022B2E70022B0E74D
:103098000022AEE70022ACE70022AAE715F0022FD3
:1030A800C2D1DB6993401C43BEE700BF410000402A
:1030B80006293CD8DFE801F00C141C242C34040049
:1030C8000268D2F8843343F00103C2F884337047AE
:1030D8000268D2F8843343F00203C2F8843370479D
:1030E8000268D2F8843343F00403C2F8843370478B
:1030F8000268D2F8843343F00803C2F88433704777
:103108000268D2F8843343F01003C2F8843370475E
:103118000268D2F8843343F02003C2F8843370473E
:103128000268D2F8843343F04003C2F8843370470E
:10313800002864D010B582B00446022380F8DD3040
:103148000023C0F8E030C0F8E430C0F8E830C0F838
:10315800EC30C0F8F030C0F8F430C0F8F8308368CC
:1031680013F0010F12D00268264B9A4225D021682D
:103178000A6822F44042236903F44043134323F4CA
:103188004053626902F440521A430A602046FDF730
:103198003DFCA36813F0020F08D021680A6822F4E6
:1031A8004072E36803F4407313430B60012384F80F
:1031B800DD30002384F8DC301CE003F528431A6E68
:1031C80042F080621A661B6E03F080630193019BD4
:1031D800CDE7C3EBC30204EB820200219161D16108
:1031E800116251629162C3EBC30204EB8202116364
:1031F8000133DBB2062BECD9002002B010BD012050
:10320800704700BF0068014090F8DC30012B32D0D5
:10321800012380F8DC30022380F8DD30B1F1FF3F74
:103228001AD00268D2F8CC3343F00203C2F8CC3388
:103238000268D2F8CC3323F00C030B43C2F8CC332A
:103248000268D2F8CC3343F00103C2F8CC3301232F
:1032580080F8DD30002070470268D2F8CC3323F0C4
:103268000203C2F8CC330268D2F8CC3343F001032E
:10327800C2F8CC33EBE70220704770B504460D4620
:10328800FEF7BAFA06462368D3F8883313F4803F6A
:103298000ED1B5F1FF3FF6D0FEF7AEFA801BA8427B
:1032A80001D8002DEFD1072384F8DD30032005E095
:1032B800012384F8DD30002084F8DC0070BD10B5EF
:1032C800044690F8DD00C0B202280BD0022384F82F
:1032D800DD30062907D02046FFF70DFD012384F8CD
:1032E800DD30002010BD11462046FFF7EFFCF5E762
:1032F800034690F8DD00C0B2022800F0318193F84F
:10330800DC00012800F0288170B5012083F8DC007A
:10331800022083F8DD001868D0F88053D0F8FC4309
:1033280020292AD8002900F00C8101F1FF3CBCF1CA
:103338001F0F00F20681DFE81CF063007F00040124
:103348008C00040104010401990004010401040132
:103358000401040104010401A6000401040104019C
:10336800040104010401040104010401040104012D
:103378000401040104010401B900B1F5807F00F0E3
:10338800C9801DD9B1F5007F40F0DB8024F4E0044A
:1033980016684FEA061C0CF4E00C4CEA0404D0F85A
:1033A800F86326F0F846C0F8F8631E68D6F8F80304
:1033B8005268920602F0F8420243C6F8F82328E061
:1033C800402900F08D80802940F0BB8024F4E0443F
:1033D80016684FEA161C0CF4E04C4CEA0404D0F8CA
:1033E800F86326F4F816C0F8F8631E68D6F8F803F0
:1033F8005268120402F4F8120243C6F8F82308E0EF
:1034080025F4E025166806F4E02635435268C0F82E
:10341800BC2393F8DD20D2B2072A00F09F800F2941
:1034280000F296801A68C2F88053012283F8DD20E2
:10343800002083F8DC0070BD25F4601516684FEA9B
:10344800C60C0CF4601C4CEA05055268C0F8C02391
:10345800DFE725F0E07516684FEA861C0CF0E07C83
:103468004CEA05055268C0F8C423D2E725F0606528
:1034780016684FEA462C0CF0606C4CEA0505526859
:10348800C0F8C823C5E7568866F30204D0F8F86385
:1034980026F01F06C0F8F8631E68D6F8F8035268CD
:1034A80002F01F020243C6F8F823B2E724F07004C2
:1034B80016684FEA163C0CF0700C4CEA0404D0F87D
:1034C800F86326F47876C0F8F8631E68D6F8F8032F
:1034D8005268520102F478720243C6F8F82398E75A
:1034E80024F4E06416684FEA162C0CF4E06C4CEAFD
:1034F8000404D0F8F86326F4F846C0F8F8631E68A8
:10350800D6F8F8035268920202F4F8420243C6F869
:10351800F8237EE724F4E024166806F4E026344312
:10352800D0F8F86326F07876C0F8F8631E68D6F805
:10353800F8035268520502F078720243C6F8F8237D
:1035480067E7072283F8DD20002283F8DC2060E7A4
:103558001A68C2F8FC4368E70220704701206AE74E
:103568007047034690F8DD00C0B2022800F0BD8025
:1035780093F8DC00012800F0B580012083F8DC0016
:10358800022083F8DD00202918D8002900F0A38044
:1035980001391F2900F29F80DFE801F0344A9D5667
:1035A8009D9D9D629D9D9D9D9D9D9D6E9D9D9D9DAD
:1035B8009D9D9D9D9D9D9D9D9D9D9D7AB1F5807F25
:1035C8007DD00FD9B1F5007F40F085801868D0F81C
:1035D800041421F0F851120602F0F8520A43C0F818
:1035E800042419E040295ED0802974D11868D0F8E5
:1035F800041421F4F831120302F4F8320A43C0F833
:10360800042409E01868D0F8001421F01F0102F022
:103618001F020A43C0F8002493F8DD20D2B2072A1B
:1036280062D0012283F8DD20002083F8DC00704797
:103638001868D0F8001421F4F861920102F4F862D5
:103648000A43C0F80024E7E71868D0F8001421F40A
:10365800F831120302F4F8320A43C0F80024DBE719
:103668001868D0F8001421F4F801920402F4F80262
:103678000A43C0F80024CFE71868D0F8001421F0F6
:10368800F851120602F0F8520A43C0F80024C3E7C2
:103698001868D0F8041421F01F0102F01F020A4331
:1036A800C0F80424B8E71868D0F8041421F4F861C5
:1036B800920102F4F8620A43C0F80424ACE71868DF
:1036C800D0F8041421F4F801920402F4F8020A4331
:1036D800C0F80424A0E7072283F8DD20002283F83D
:1036E800DC2099E7022070470120704770B5044636
:1036F80090F8DD00C0B2022836D00D46164694F880
:10370800DC30012B36D0012384F8DC30022384F826
:10371800DD30062929D02046FFF74FFB3268C5EB7C
:10372800C50304EB83031A6272685A62B2689A622C
:10373800F268DA6232691A6329462046FFF7B8FC54
:10374800062D0BD0F36A4BB922680135ED015359A8
:1037580023F40073F16D43EA41235351012384F8A4
:10376800DD30002084F8DC0070BD11462046FFF7EC
:10377800E2FAD3E70220F7E770B5044690F8DD00D7
:10378800C0B2022816D00D4694F8DC30012B12D0B6
:10379800012684F8DC60022384F8DD302046FFF738
:1037A800D7FB29462046FFF783FC84F8DD6000201C
:1037B80084F8DC0070BD0220FCE70000034690F8A6
:1037C800DD00C0B2022845D093F8DC0001283FD0C4
:1037D80030B54FF0010E83F8DCE0022083F8DD00FD
:1037E800106800F4E0545068C0F30800044390687F
:1037F80000F400700443106900F480400443D0686A
:1038080000F4004004431448556900EA054C4CEAAA
:10381800040C906900F0007040EA0C0C106A00F08B
:10382800804040EA0C0CD06900F0004040EA0C00EF
:103838001A6802EBC111D1F8B840084A2240024385
:10384800C1F8B82083F8DDE0002083F8DC0030BD43
:1038580002207047704700BF0000FF010020003CB5
:10386800844690F8DD00C0B2022800F0D9809CF8A8
:10387800DC00012800F0D08030B401208CF8DC0096
:1038880002208CF8DD00062909D0013A072A00F247
:10389800BC80DFE802F02E43BA7ABABABA82013A9B
:1038A800072A1FD8DFE802F0040F1E141E1E1E1977
:1038B800DCF800201B68D3619CF8DD30DBB2072BF5
:1038C80024D1012028E0DCF800201B685362F3E7CC
:1038D800DCF800201B689362EEE7DCF800201B6828
:1038E800D362E9E707238CF8DD3000238CF8DC305D
:1038F800E2E7DCF800201B6802EBC112C2F89C303A
:103908009CF8DD30DBB2072B00F0888001238CF8AF
:10391800DD3000208CF8DC0030BC7047DCF800207B
:10392800186802EBC112C2F8A4005A6822B3DCF886
:1039380000404A1CD201A05820F44050A050DCF8A6
:103948000040A0585D682843A0505A68B2F5005F4F
:103958000AD0B2F5405FD3D1DCF800209B6802EBB7
:10396800C112C2F8A830CBE7DCF800209B6802EB54
:10397800C112C2F89C30C3E7DCF800200131C9014C
:10398800535823F440535350BAE7DCF800201B681F
:1039980002EBC112C2F8A830B2E7DCF800201868C0
:1039A80002EBC112C2F8AC005A682AB3DCF8004036
:1039B8004A1CD201A05820F44040A050DCF8004036
:1039C800A0585D6840EA8500A0505A68B2F5005FCB
:1039D8000AD0B2F5405F93D1DCF800209B6802EB77
:1039E800C112C2F8A8308BE7DCF800209B6802EB14
:1039F800C112C2F89C3083E7DCF800200131C9010C
:103A0800535823F4404353507AE707238CF8DD30AA
:103A180000238CF8DC3073E70220704701207BE735
:103A2800704738B5044690F8DD00C0B2022811D0BE
:103A380094F8DC0001280ED0012584F8DC5002201F
:103A480084F8DD002046FFF7B5FA84F8DD50002041
:103A580084F8DC0038BD0220FCE790F8DC30012B4C
:103A680015D010B4012280F8DC20022380F8DD3064
:103A78000468D4F894330B43C4F8943380F8DD20F9
:103A8800002380F8DC3018465DF8044B70470220AC
:103A9800704790F8DC30012B15D010B4012280F863
:103AA800DC20022380F8DD300468D4F898330B4317
:103AB800C4F8983380F8DD20002380F8DC301846FD
:103AC8005DF8044B70470220704790F8DC30012BFA
:103AD80013D010B4012280F8DC20022380F8DD30F6
:103AE800046823680B43236080F8DD20002380F8F6
:103AF800DC3018465DF8044B704702207047000020
:103B080090F8DC30012B3DD030B40246012380F818
:103B1800DC30022380F8DD300068D0F89033546838
:103B28002343C0F8903311F4803F05D01068C36870
:103B3800D2F8C8402343C360002301E00133DBB25D
:103B4800052B13D8104850F823000842F6D0106807
:103B580000EBC310D0F88C40C3EBC30C02EB8C0C09
:103B6800DCF820502C43C0F88C40E7E71068036865
:103B78000B430360012382F8DD30002082F8DC006B
:103B880030BC704702207047D8C80008704770479B
:103B98007047704770477047704770B505460368AF
:103BA800D3F88843D3F8906314F0010F02D016F0CD
:103BB800010F24D114F0020F02D016F0020F24D105
:103BC80014F0040F02D016F0040F26D114F0080FD9
:103BD80002D016F0080F28D114F0100F02D016F0FA
:103BE800100F2AD114F0400F02D016F0400F2CD13C
:103BF80014F0200F02D016F0200F2ED170BD012234
:103C0800C3F88C23FFF7C2FFD4E72B680222C3F85E
:103C18008C232846FFF7BBFFD2E72B680422C3F8A2
:103C28008C232846FFF7B4FFD0E72B680822C3F897
:103C38008C232846FFF7ADFFCEE72B681022C3F888
:103C48008C232846FFF7A6FFCCE72B684022C3F851
:103C58008C232846FFF79FFFCAE72B682022C3F86A
:103C68008C232846FFF798FFC8E7704770477047CE
:103C7800704770477047704770472DE9F041054617
:103C88000368D3F88873D3F890835C68DE6817F408
:103C9800803F02D018F4803F31D117F4003F02D0A2
:103CA80018F4003F38D114F0010F02D016F0010FBC
:103CB8003BD114F0020F02D016F0020F3DD114F0E0
:103CC800040F02D016F0040F3FD114F0080F02D0F1
:103CD80016F0080F41D114F0100F02D016F0100F93
:103CE80043D114F0200F02D016F0200F45D114F064
:103CF800400F02D016F0400F46D1BDE8F0814FF4D6
:103D08008032C3F88C23012380F8DD30002380F84B
:103D1800DC30FFF7AAFFC0E72B684FF40032C3F886
:103D28008C232846FFF7A2FFBDE72B6801229A6083
:103D380006212846FFF79DFFBBE72B6802229A6001
:103D480006212846FFF796FFB9E72B6804229A60F8
:103D580006212846FFF78FFFB7E72B6808229A60ED
:103D680006212846FFF788FFB5E72B6810229A60DE
:103D780006212846FDF75AF8B3E72B6820229A60F7
:103D88002846FFF774FFB2E72B6840229A600621A5
:103D98002846FFF76DFFB0E77047704770477047D8
:103DA8007047704770477047F8B506460D46026879
:103DB8004B1C02EBC3135C6802EBC113D3F88C7085
:103DC80014F0010F02D017F0010F52D114F0020FB6
:103DD80002D017F0020F53D114F0040F02D017F0DD
:103DE800040F58D114F0080F02D017F0080F5DD156
:103DF80014F0100F02D017F0100F62D114F0400F1A
:103E080002D017F0400F67D114F0800F02D017F0DE
:103E1800800F6CD114F4807F02D017F4807F71D1A9
:103E280014F4007F02D017F4007F77D114F4806F68
:103E380002D017F4806F7DD114F4006F03D017F40B
:103E4800006F40F0838014F4805F03D017F4805F24
:103E580040F0888014F4005F03D017F4005F40F04E
:103E68008D8014F4804F03D017F4804F40F0928077
:103E7800F8BD1A460123C2F88830FFF7FAFEA5E715
:103E8800336803EBC5130222C3F88820294630465D
:103E9800FFF7F0FEA0E7336803EBC5130422C3F86D
:103EA800882029463046FFF7E6FE9BE7336803EB98
:103EB800C5130822C3F8882029463046FFF7DCFEE0
:103EC80096E7336803EBC5131022C3F88820294608
:103ED8003046FCF7ABFF91E7336803EBC51340228C
:103EE800C3F8882029463046FFF7C2FE8CE73368BE
:103EF80003EBC5138022C3F8882029463046FFF714
:103F08004BFF87E7336803EBC5134FF48072C3F8A0
:103F1800882029463046FFF740FF81E7336803EBE6
:103F2800C5134FF40072C3F8882029463046FFF7BE
:103F380037FF7BE7336803EBC5134FF48062C3F8A0
:103F4800882029463046FFF72CFF75E7336803EBD6
:103F5800C5134FF40062C3F8882029463046FFF79E
:103F680021FF70E7336803EBC5134FF48052C3F8A1
:103F7800882029463046FFF716FF6BE7336803EBC6
:103F8800C5134FF40052C3F8882029463046FFF77E
:103F980006FF66E7336803EBC5134FF48042C3F8A6
:103FA800882029463046FFF7F9FE61E708B5FF2962
:103FB80004D0062905D0FFF7F7FE08BDFFF7EDFD91
:103FC800FBE7FFF75AFEF8E700282FD038B504467C
:103FD80003684CF6CC421A60036845F255521A60E1
:103FE800036842685A60036882689A60FDF704FCB7
:103FF80005462368DA6812F0070F0BD0FDF7FCFBC3
:10400800401B3128F5D92368DB6813F0070FF0D07F
:10401800032005E01969E268914202D01A61002084
:1040280038BD4AF6AA221A600020F9E70120704735
:1040380003684AF6AA221A600020704738B512F4BD
:10404800804F43D00468B4F8503091F800C04FEA6C
:10405800CC0E1EFA83F32344B3F80244C4F30904D4
:104068008B69A34228D31B1B8B618B697BB90568BD
:1040780035F82C309BB223F4804323F0700383F48B
:10408800005343F4004343F0800325F82C3012F02A
:10409800400F0ED002680D7832F825309BB223F419
:1040A800E04323F0700343F4004343F0C00322F8D5
:1040B800253024B9204638BD00238B61D5E7234637
:1040C8000A894969006804F0B0FCF3E70468B4F8A9
:1040D800503091F800C04FEACC0E1EFA83F3234407
:1040E800B3F80644C4F309048B69A3422FD31B1BFE
:1040F8008B618B697BB9056835F82C309BB223F44A
:10410800804323F0700383F4005343F4004343F0E7
:10411800800325F82C3012F0400F0FD1026891F877
:1041280000C032F82C309BB223F4E04323F0700334
:1041380043F4004343F0C00322F82C30002CB9D0DC
:1041480023464A894969006804F06FFCB2E70023F6
:104158008B61CEE7002856D010B5044690F891320E
:104168003BB1032384F89132206803F06FFD0023EC
:1041780015E080F8903205F055FCF2E703EB830276
:1041880004EBC2020121517413740021D17411622D
:104198005162013303EB8302D200A150DBB22079D4
:1041A8009842EBD8002316E003EB830204EBC2022B
:1041B800002182F8511182F8503182F85311C2F867
:1041C8006011C2F8641103EB830204EBC202C2F867
:1041D80068110133DBB29842E6D8234653F8040B42
:1041E80093E8060003F03CFD00232373012384F8C1
:1041F8009132A37A012B01D0002010BD204600F097
:10420800F9FE0020F9E70120704790F89032012B61
:104218000ED010B50446012380F89032006803F0F0
:104228000CFD206804F01EF9002084F8900210BDEF
:104238000220704770B505460C46164612F0400F2E
:1042480000F020810268B2F8503009784FEAC10CBA
:104258001CFA83F31344B3F80224C2F30902A369D6
:1042680093422CD99B1AA361A06958B316F4804FC6
:104278000DD0286830F821309BB223F4E04323F0B6
:10428800700343F4404343F0800320F8213094F84E
:104298002430012B00F08D802A68217832F82130F3
:1042A8009BB223F4E04323F0400383F0300343F44C
:1042B800004343F0800322F82130002070BD002322
:1042C800A361D1E76378002B48D12A68B2F850304F
:1042D80012FA83F36344B3F80224C2F30902A3F881
:1042E8000224B3F802246FEA42426FEA524292B2C1
:1042F800A3F802242A686378002B3BD1B2F8503027
:1043080012FA83F3227803EBC203B3F80624C2F34C
:104318000902A3F80624B3F806246FEA42426FEABA
:10432800524292B2A3F80624E378022B2FD02178C8
:10433800284605F0BBFB16F4804FBED02A682178CA
:1043480032F821309BB223F4E04323F0700343F4A6
:10435800404343F0800322F82130AEE7012BC9D156
:104368002A68B2F8503012FA83F363440022A3F8A3
:104378000224BFE7012BD7D1B2F8503012FA83F3E9
:10438800227803EBC2030022A3F80624CCE72A68AC
:10439800217832F821309BB223F4E04323F0400324
:1043A80083F0200343F4004343F0800322F82130D4
:1043B800BDE7636913446361E3691344E361216AF8
:1043C800236999421DD3C91A21626278002A44D10F
:1043D8002968B1F8502011FA82F2217802EBC10263
:1043E800B2F80214C1F30901A2F80214ABB9B2F889
:1043F80002146FEA41416FEA514189B2A2F80214EE
:104408002DE021B9002384F824301346DDE700238A
:1044180084F8243023620B46D7E73E2B0DD8590881
:1044280013F0010F00D00131B2F8020480B2890202
:1044380089B20143A2F8021411E0580913F01F0FC2
:1044480000D10138B2F8021489B2800280B2014367
:1044580041F40041A2F8021401E0012A06D09BB2FF
:1044680022896169286804F00CF815E72968B1F811
:10447800502011FA82F2217802EBC10299B2A2F817
:104488000214ECE70268B2F850300978C80010FA54
:1044980083F31344B3F80624C2F30902A3699342D1
:1044A80046D39B1AA361A369002B44D016F4804F0E
:1044B8000DD1286830F821309BB223F4E04323F073
:1044C800700343F4404343F0800320F8213094F80C
:1044D8002430012B7FF4E0AE636913446361E36920
:1044E8001344E361216A23699942C0F09C80C91A88
:1044F800216229686278002A40F0C180B1F8502012
:1045080011FA82F2217802EBC102B2F80614C1F363
:104518000901A2F80614002B40F09180B2F80614A5
:104528006FEA41416FEA514189B2A2F80614A8E046
:104538000023A361B7E76378002B49D12A68B2F852
:10454800503012FA83F30344B3F80224C2F3090289
:10455800A3F80224B3F802246FEA42426FEA5242F7
:1045680092B2A3F802242A686378002B3CD1B2F8EF
:10457800503012FA83F3227803EBC203B3F806240F
:10458800C2F30902A3F80624B3F806246FEA4242EC
:104598006FEA524292B2A3F80624E378022B30D095
:1045A8002178284605F082FA16F4804F7FF485AE0C
:1045B8002A68217832F821309BB223F4E04323F0B3
:1045C800700343F4404343F0800322F8213074E63B
:1045D800012BC8D12A68B2F8503012FA83F3034489
:1045E8000022A3F80224BEE7012BD6D1B2F850303E
:1045F80012FA83F3227803EBC2030022A3F80624FD
:10460800CBE72A68217832F821309BB223F4E043C3
:1046180023F0400383F0200343F4004343F0800376
:1046280022F82130BCE721B9002384F8243013464E
:104638005FE70023236284F824300B4659E73E2BBA
:104648000DD8590813F0010F00D00131B2F8060453
:1046580080B2890289B20143A2F8061411E0580910
:1046680013F01F0F00D10138B2F8061489B2800286
:1046780080B2014341F40041A2F8061401E0012A86
:1046880006D09BB262896169286803F0FAFE03E6E6
:10469800B1F8502011FA82F2217802EBC10299B2E6
:1046A800A2F80614EDE72DE9F04105462868B0F8B0
:1046B800443013F4004F00F05582B0F84440A3B2E0
:1046C80014F00F0440F09F8013F0100F4AD00388B5
:1046D8009AB213F4006F75D112F4004FE6D0038834
:1046E80023F070031B051B0D43F08003038028682B
:1046F800B0F8503095F85021D20012FA83F30344F1
:10470800B3F80634C3F30903C5F86C318BB1D5F897
:10471800641171B1B5F8562104F087F9D5F8643100
:10472800D5F86C211344C5F864310021284605F0FA
:10473800B1F92A68138899B213F4006FB6D101F45D
:104748004051B1F5405FB1D013889BB223F4804348
:1047580023F0700383F4405343F4004343F0800391
:104768001380A3E703889BB223F4E14323F070038B
:104778006FEA43436FEA53439BB203802968B1F859
:1047880050302A7CD20012FA83F30B44B3F8023477
:10479800C3F30903EB626A6A1A446A620021284675
:1047A80005F084F92B7B002B80D0AB6A002B7FF4BB
:1047B8007DAF2B7B2A6843F08003A2F84C3000239E
:1047C8002B7373E7B0F8503095F85021D20012FAE5
:1047D80083F30344B3F80634C3F30903C5F86C3113
:1047E800B5F8562105F5267104F01FF92A681388D3
:1047F80023F070031B051B0D43F08003138028462C
:1048080005F040F952E730F824309EB213F4004F17
:104818004ED116F0800F3FF449AF04EB8401C90074
:10482800103129442A6832F824309BB223F4E1433A
:1048380023F070036FEA43436FEA53439BB222F8B5
:10484800243004EB840305EBC303DB7C012B00F06D
:10485800E98016F4807F40F080812868B0F85030F5
:1048680004EB840205EBC202167CF20012FA83F311
:104878000344B3F80234C3F30903621C02EB820257
:1048880055F832209A4240F24B81671C07EB8707A4
:10489800D21A45F83720621C02EB820255F8322002
:1048A800002A40F044813146284605F0FFF8FDE62D
:1048B80030F8243023F070031B051B0D43F08003F0
:1048C80020F8243004EB8401C90001F5A87105EB38
:1048D800010804EB840305EBC30393F85C31002B58
:1048E80040D12868B0F8503004EB840205EBC202CE
:1048F80092F85021D20012FA83F30344B3F80674F5
:10490800C7F3090717BB04EB840305EBC303D3F80C
:104918006C213A44C3F86C21D3F864213A44C3F8B3
:104928006421D3F868313BB104EB840305EBC3037E
:10493800D3F860319F4270D204EB840305EBC303C4
:1049480093F85011284605F0A5F862E704EB8401B6
:1049580005EBC1013B46B1F85621D1F8641104F0CA
:1049680064F8D0E704EB840305EBC30393F85331F1
:10497800022B33D0296804EB840205EBC20292F8BB
:10498800500131F820309BB223F4E04323F0700348
:1049980043F4004343F0C00321F82030286892F81C
:1049A800503130F8232012F4804F1ED0B0F8502038
:1049B800DB0013FA82F30344B3F80274C7F3090760
:1049C800002FA0D004EB840105EBC1013B46B1F8F0
:1049D8005821D1F8641104F028F894E7324641468A
:1049E8002846FFF72BFB07468DE7B0F85020DB0081
:1049F80013FA82F30344B3F80674C7F30907002FC8
:104A080081D004EB840105EBC1013B46B1F85A2182
:104A1800D1F8641104F009F875E74146286803F0F5
:104A280042FDF6E6631C03EB8303DB000022EA5039
:104A380004EB840305EBC3031B7F1BB316F0400F85
:104A48003BD004EB840305EBC3035B7C1BBB2A68E8
:104A5800B2F8503012FA83F304EB840205EBC20279
:104A6800127C03EBC203B3F80224C2F30902A3F8D1
:104A78000224B3F802246FEA42426FEA524292B229
:104A8800A3F8022404EB840405EBC404217C284623
:104A980005F00CF80AE6012BF4D12A68B2F8503078
:104AA80012FA83F304EB840205EBC202127C03EBD7
:104AB800C2030022A3F80224E4E72A6804EB840373
:104AC80005EBC3035B7CD3B9B2F8503012FA83F319
:104AD80004EB840205EBC202127C03EBC203B3F8B9
:104AE8000624C2F30902A3F80624B3F806246FEAE1
:104AF80042426FEA524292B2A3F80624C2E7012B5F
:104B0800C0D1B2F8503012FA83F304EB840205EBFB
:104B1800C202127C03EBC2030022A3F80624B1E709
:104B2800621C02EB8202D2000027AF50B3E604EB0E
:104B3800840205EBC202566A1E445662013404EB35
:104B4800840205EBC202526804EB840405EBC4043A
:104B58001344636003F0A7FCA8E532462846FFF734
:104B680069FBA3E50020BDE8F08190F89032012BA5
:104B78000CD010B50446012380F890320173006808
:104B880003F06AFC002084F8900210BD02207047F0
:104B980010B50446006803F070FC10F4004F23D1F0
:104BA80010F4806F24D110F4804F32D110F4005FDC
:104BB80039D110F4805F40D110F4006F67D110F044
:104BC800800F40F0818010F4007F40F0AD8010F439
:104BD800807F27D02268B2F844309BB223F48073D8
:104BE8009BB2A2F844301DE02046FFF75CFD19E0B7
:104BF8002268B2F844309BB223F480639BB2A2F8D7
:104C08004430204604F063FF00212046FFF7ADFF43
:104C180008E02268B2F844309BB223F480439BB288
:104C2800A2F8443010BD2268B2F844309BB223F495
:104C380000539BB2A2F84430F4E72268B2F840303F
:104C48009BB223F004039BB2A2F840302268B2F86A
:104C580040309BB223F008039BB2A2F8403094F88E
:104C6800C832012B0CD0204604F054FF2268B2F859
:104C780044309BB223F480539BB2A2F84430D1E76E
:104C8800002184F8C812204604F0FCFFEBE72268F4
:104C9800B2F840309BB243F00803A2F840302268D3
:104CA800B2F844309BB223F400639BB2A2F84430BC
:104CB8002268B2F840309BB243F00403A2F84030B7
:104CC800204604F017FFADE72268B2F844309BB2E3
:104CD80023F080039BB2A2F8443094F8C832FBB9A1
:104CE8002268B2F840309BB243F00403A2F8403087
:104CF8002268B2F840309BB243F00803A2F8403073
:104D0800012184F8C8122368B3F85430C3F38D0323
:104D180003F03C03C4F8CC32204604F0B3FF81E72B
:104D2800204604F0E7FE7DE72268B2F844309BB2E3
:104D380023F400739BB2A2F84430204604F0C1FE6D
:104D480070E710B50446084611F0800F27D101F02E
:104D5800070C0CEB8C01C90001F5A87E04EB0E01D1
:104D68000CEB8C0C04EBCC0C4FF0000E8CF851E1E2
:104D780000F007000870C2F30A020A61CB70022B28
:104D88001DD094F89032012B1CD0012384F8903266
:104D9800206802F076FF002084F8900210BD01F030
:104DA800070C0CEB8C01C900103121440CEB8C0C66
:104DB80004EBCC0C4FF0010E8CF811E0D8E700237F
:104DC8000B71DEE70220E9E710B504460A4611F048
:104DD800800F1FD101F0070000EB8003DB0003F513
:104DE800A873E11800EB800004EBC000002380F8F2
:104DF800513102F007020A7094F89032012B17D053
:104E0800012384F89032206803F0C8F9002084F860
:104E1800900210BD01F0070000EB8003DB001033A7
:104E2800E11800EB800004EBC00001234374E0E7C5
:104E38000220EEE710B501F0070C0CEB8C01C9005D
:104E480001F5A8710CEB8C0E00EBCE0ECEF86421A8
:104E5800CEF868310024CEF86C418EF851418EF8B6
:104E680050C10144006803F01EFB204610BD01F04C
:104E7800070101EB810100EBC100D0F86C0170471C
:104E880038B501F0070C0CEB8C01C90010310CEBA4
:104E98008C0E00EBCE0ECEF824200CF1010202EBB2
:104EA800820440F8343001258EF83450CEF8303082
:104EB80000EBC402002454608EF811508EF810C024
:104EC8000144006803F0EFFA204638BD0B4601F0B4
:104ED8000702017991422ED310B5044613F0800FD2
:104EE8001DD103EB8301C90001F5A871014403EB4F
:104EF800830300EBC303002083F8510101238B7067
:104F08000A7094F89032012B17D0012384F890325C
:104F1800206803F02EFA002084F8900210BD02EBFE
:104F28008201C9001031014402EB820300EBC30384
:104F380001205874E2E7012070470220EEE70B4693
:104F4800017903F00F02914234D310B5044613F0EF
:104F5800800F21D103F0070202EB8201C90001F59D
:104F6800A871014402EB820200EBC202002082F821
:104F7800510100228A7003F007030B7094F89032F5
:104F8800012B19D0012384F89032206803F016FA17
:104F9800002084F8900210BD03F0070202EB8201A2
:104FA800C9001031014402EB820200EBC202012069
:104FB8005074DEE7012070470220ECE711F0800F03
:104FC8000BD001F0070101EB8101C9001031084441
:104FD80052B90273C3800020704701EB8101C900F8
:104FE80001F5A8710844F3E70122027303811B0C41
:104FF8004381F0E7034602680121C0F8D01200207F
:1050080083F8C802B2F854309BB20B43A2F854306C
:10501800B2F854309BB243F00203A2F85430704700
:10502800002836D13E4B1B6803F4C063B3F5806F8C
:1050380008D03B4AD2F8803023F48073C2F880301D
:1050480000207047364AD2F8803023F48073C2F8C3
:105058008030136823F4C06343F400731360314B4A
:105068001B68322202FB03F32F4AA2FB03239B0C8B
:10507800013300E0013B2A4A526912F4806F01D0E3
:10508800002BF7D1264B5B6913F4806F44D10020C5
:105098007047B0F5007F08D0214A136823F4C06335
:1050A80043F480631360002070471D4B1B6803F4B2
:1050B800C063B3F5806F08D0194AD2F8803043F442
:1050C8008073C2F8803000207047154AD2F88030CB
:1050D80043F48073C2F88030136823F4C06343F448
:1050E800007313600F4B1B68322202FB03F30E4A56
:1050F800A2FB03239B0C013300E0013B084A5269E1
:1051080012F4806F01D0002BF7D1054B5B6913F4C3
:10511800806F03D100207047032070470320704739
:10512800007000400000002083DE1B43024A9368A1
:1051380043F480439360704700700040124BDA6874
:1051480002F00302DB68C3F303130133032A11D00F
:105158000E48B0FBF3F00C4BDB68C3F3062303FBEC
:1051680000F0094BDB68C3F3416301335B00B0FB1C
:10517800F3F070470648B0FBF3F0034BDB68C3F36A
:10518800062303FB00F0ECE7001002400024F400C3
:1051980040787D01002800F04F8270B582B0044647
:1051A800036813F0010F37D0A44A936803F00C0387
:1051B800D26802F003020C2B23D0082B23D063689B
:1051C800B3F5803F4ED0B3F5A02F51D09B4B1A6852
:1051D80022F480321A601A6822F480221A60636806
:1051E800002B52D0FCF708FB0546944B1B6813F4C0
:1051F800003F11D1FCF700FB401B6428F5D90320C0
:1052080023E2032AD9D18D4B1B6813F4003F03D046
:105218006368002B00F01282236813F0020F5DD040
:10522800864A936803F00C03D26802F003020C2B41
:105238003AD0042B3AD0E368002B75D07F4A136824
:1052480043F480731360FCF7D7FA05467B4B1B6861
:1052580013F4806F5FD1FCF7CFFA401B0228F5D911
:105268000320F2E1754A136843F480331360B6E70C
:1052780003F18043A3F53C331A6842F480221A6094
:105288001A6842F480321A60A9E7FCF7B5FA0546B5
:105298006A4B1B6813F4003FBED0FCF7ADFA401B05
:1052A8006428F5D90320D0E1022AC2D1634B1B68D8
:1052B80013F4806F03D0E368002B00F0C1815F4ACC
:1052C800536823F0FE43216943EA016353605C4B52
:1052D8001868FCF74DFA002840F0B481236813F0F1
:1052E800080F4CD063699BB3544AD2F8943043F00A
:1052F8000103C2F89430FCF77FFA05464F4BD3F808
:10530800943013F0020F3AD1FCF776FA401B0228CA
:10531800F4D9032099E1494A536823F0FE432169EF
:1053280043EA01635360D9E7444A136823F480735E
:105338001360FCF761FA0546404B1B6813F4806F55
:10534800CCD0FCF759FA401B0228F5D903207CE1A0
:105358003A4AD2F8943023F00103C2F89430FCF7AB
:105368004BFA0546354BD3F8943013F0020F06D0AC
:10537800FCF742FA401B0228F4D9032065E12368B0
:1053880013F0040F00F081802C4B9B6D13F0805FAD
:1053980036D12A4B9A6D42F080529A659B6D03F084
:1053A80080530193019B0125264B1B6813F4807FD2
:1053B80028D0A368012B39D0052B45D01F4BD3F833
:1053C800902022F00102C3F89020D3F8902022F018
:1053D8000402C3F89020A368002B43D0FCF70CFA12
:1053E8000646164BD3F8903013F0020F4CD1FCF759
:1053F80003FA801B41F288339842F2D9032024E152
:105408000025D1E70F4A136843F480731360FCF753
:10541800F3F906460B4B1B6813F4807FC9D1FCF7E0
:10542800EBF9801B0228F5D903200EE1034AD2F8D4
:10543800903043F00103C2F89030CCE700100240EE
:105448000800002000700040884BD3F8902042F0FC
:105458000402C3F89020D3F8902042F00102C3F868
:105468009020B8E7FCF7C8F90646804BD3F890308F
:1054780013F0020F08D0FCF7BFF9801B41F2883304
:105488009842F2D90320E0E0E5B9236813F0200F31
:1054980035D0A369E3B1754AD2F8983043F00103D7
:1054A800C2F89830FCF7A8F90546704BD3F8983045
:1054B80013F0020F23D1FCF79FF9401B0228F4D9FF
:1054C8000320C2E0694A936D23F080539365DCE7BB
:1054D800664AD2F8983023F00103C2F89830FCF7F6
:1054E8008BF90546614BD3F8983013F0020F06D0BC
:1054F800FCF782F9401B0228F4D90320A5E0E369F0
:10550800002B00F0A180594A926802F00C020C2A84
:1055180064D0022B13D0554A136823F080731360AC
:10552800FCF76AF90446514B1B6813F0007F4ED014
:10553800FCF762F9001B0228F5D9032085E04B4AE5
:10554800136823F080731360FCF756F90546474B40
:105558001B6813F0007F06D0FCF74EF9401B0228A9
:10556800F5D9032071E0414AD36841491940236ABB
:10557800606A013843EA0013A06A43EA0023206BFB
:105588004008013843EA4053606B4008013843EA59
:105598004063E06A43EAC0631943D160136843F08B
:1055A80080731360D36843F08073D360FCF724F9E9
:1055B80004462E4B1B6813F0007F06D1FCF71CF93C
:1055C800001B0228F5D903203FE000203DE0274AD0
:1055D800D168284B0B40D360002036E0012B36D031
:1055E800224BDB6803F00301226A914231D103F0B8
:1055F800F002616A0139B2EB011F2CD103F4FE42BB
:10560800A16AB2EB012F28D103F07842E16AB2EB2C
:10561800C16F24D103F4C001226B5208013AB1EBE7
:10562800425F1ED103F0C063626B5208013AB3EBCC
:10563800426F18D1002008E001207047012004E0E3
:10564800012002E0012000E0002002B070BD01202E
:10565800FBE70120F9E70120F7E70120F5E7012042
:10566800F3E70120F1E70120EFE700BF0010024057
:105678000C809F01FCFFEEFE1E4B9B6803F00C03A1
:10568800042B33D01B4B9B6803F00C03082B2FD043
:10569800184B9B6803F00C030C2B01D000207047BB
:1056A800144BDA6802F00302DB68C3F30313013317
:1056B800032A11D01048B0FBF3F00E4BDB68C3F39C
:1056C800062303FB00F00B4BDB68C3F34163013394
:1056D8005B00B0FBF3F070470848B0FBF3F0054BF4
:1056E800DB68C3F3062303FB00F0ECE702487047CE
:1056F80002487047001002400024F40040787D0101
:10570800002800F0E680F8B50C460546744B1B6887
:1057180003F00F038B420BD2714A136823F00F0377
:105728000B431360136803F00F038B4240F0D380E0
:105738002E6816F001065FD06B68032B2FD0022B62
:105748004DD0684B1B6813F4806F00F0C680FFF7DC
:1057580093FF654B98424DD9624A936823F0F00352
:1057680043F08003936080265E4A936823F0030326
:1057780069680B439360FCF73FF80746594B9B68F1
:1057880003F00C036A68B3EB820F35D0FCF734F8EA
:10579800C01B41F288339842F0D9032078E0514B7E
:1057A8001B6813F0007F01D1012071E0FFF7C6FCF0
:1057B8004D4B98421AD94B4B9B6813F0F00F05D00C
:1057C8002E6816F00206CFD0AB688BB9454A9368AD
:1057D80023F0F00343F0800393608026C4E7414B35
:1057E8001B6813F4003FB2D1012051E00026BBE74B
:1057F8000026B9E70026B7E72B6813F0020F48D058
:1058080013F0040F04D0374A936843F4E0639360BD
:105818002B6813F0080F06D0324A936823F47C53A0
:1058280043F4E06393602F4A936823F0F003A96878
:105838000B4393602A4B1B6803F00F03A34230D835
:105848002B6813F0040F06D0264A936823F4E0630C
:10585800E9680B4393602B6813F0080F07D0214ABF
:10586800936823F46053296943EAC1039360FFF7FF
:1058780003FF1C4B9B68C3F303131C4AD35C03F060
:105888001F03D8401A4B18601A4B1868FBF770FFB3
:10589800F8BD802ECED1134A936823F0F0039360AD
:1058A800C8E70F4A136823F00F0323431360FBF77D
:1058B800A3FF06460A4B1B6803F00F03A342BFD0A1
:1058C800FBF79AFF801B41F288339842F2D90320F4
:1058D800DEE7012070470120DAE70120D8E700BFA2
:1058E800002002400010024000B4C404C8C80008E8
:1058F8000000002008000020014B1868704700BF16
:105908000000002008B5FFF7F7FF054B9B68C3F3BD
:105918000223044AD35C03F01F03D84008BD00BF2C
:1059280000100240C0C8000808B5FFF7E5FF054BA6
:105938009B68C3F3C223044AD35C03F01F03D84017
:1059480008BD00BF00100240C0C80008F0B583B011
:105958000446036813F4002F6ED0354B9B6D13F08B
:10596800805F1ED1324B9A6D42F080529A659B6DD2
:1059780003F080530193019B01262E4A136843F4D8
:1059880080731360FBF738FF05462A4B1B6813F436
:10599800807F08D1FBF730FF401B0228F5D903258B
:1059A80002E00026E9E7002545BB214BD3F89030FB
:1059B80013F4407315D0226D9A4212D01C4AD2F8C3
:1059C800903023F44073D2F8901041F48031C2F83B
:1059D8009010D2F8901021F48031C2F89010C2F8DB
:1059E800903013F0010F10D145B9114AD2F8903018
:1059F80023F44073216D0B43C2F89030EEB10C4A8A
:105A0800936D23F08053936517E0FBF7F5FE074687
:105A1800074BD3F8903013F0020FE5D1FBF7ECFEFB
:105A2800C01B41F288339842F2D90325DCE700BF56
:105A380000100240007000400025236813F0010F99
:105A480008D09F4AD2F8883023F0030361680B43DB
:105A5800C2F88830236813F0020F08D0984AD2F8A9
:105A6800883023F00C03A1680B43C2F88830236800
:105A780013F0040F08D0924AD2F8883023F030038C
:105A8800E1680B43C2F88830236813F0080F08D088
:105A98008B4AD2F8883023F0C00321690B43C2F83F
:105AA8008830236813F0100F08D0854AD2F8883060
:105AB80023F4407361690B43C2F88830236813F0FC
:105AC800200F08D07E4AD2F8883023F44063A169B9
