:020000040800F2
:1000000000000824E11D0008751700087917000892
:100010007D17000881170008851700080000000000
:100020000000000000000000000000008917000828
:100030008D170008000000009117000895170008B0
:10004000351E0008351E0008351E0008351E000844
:10005000351E0008351E0008351E0008351E000834
:10006000351E0008351E0008351E0008351E000824
:10007000351E0008351E0008351E0008351E000814
:10008000351E0008351E0008351E0008351E000804
:10009000351E0008351E0008351E0008351E0008F4
:1000A000351E0008351E0008351E0008351E0008E4
:1000B000351E0008351E0008351E0008351E0008D4
:1000C000351E0008351E0008351E0008351E0008C4
:1000D000351E0008351E0008351E0008351E0008B4
:1000E000351E0008351E000800000000351E0008FF
:1000F000351E0008351E0008351E0008351E000894
:10010000351E0008351E0008351E0008351E000883
:10011000351E0008351E000899170008351E000816
:10012000351E0008351E0008351E0008351E000863
:10013000351E0008351E0008351E0008351E000853
:1001400000000000000000000000000000000000AF
:10015000351E0008351E0008351E0008351E000833
:10016000351E0008351E0008351E0008351E000823
:10017000351E0008351E0008351E0008000000006E
:10018000351E0008351E0008351E0008351E000803
:10019000351E0008351E0008351E0008351E0008F3
:1001A000351E0008351E0008351E0008351E0008E3
:1001B000351E0008351E0008351E0008351E0008D3
:1001C000351E0008351E0008351E0008351E0008C3
:1001D000351E0008351E0008351E0008351E0008B3
:1001E000351E0008351E0008351E0008351E0008A3
:1001F000351E0008351E0008351E0008351E000893
:10020000351E0008351E0008351E0008351E000882
:10021000351E0008351E0008351E0008351E000872
:10022000351E0008351E0008351E000800000000BD
:10023000351E0008351E000800000000351E0008AD
:10024000351E0008351E0008351E0008351E000842
:10025000351E0008351E0008351E0008351E000832
:10026000351E0008351E0008351E0008351E000822
:10027000351E0008351E0008351E0008000000006D
:10028000351E0008351E0008351E0008000000005D
:0802900000000000351E00080B
:100298000348044B834202D0034B03B1184770470D
:1002A8001000002410000024000000000548064B40
:1002B8001B1AD90F01EBA301491002D0034B03B15C
:1002C80018477047100000241000002400000000A8
:1002D80010B5064C237843B9FFF7DAFF044B13B186
:1002E8000448AFF300800123237010BD10000024E0
:1002F80000000000DC5A000808B5044B1BB1044993
:100308000448AFF30080BDE80840CFE700000000D4
:1003180014000024DC5A000880F0004002E000BF0E
:1003280081F0004142001FBF5FEA410392EA030FD8
:100338007FEA226C7FEA236C6AD04FEA1262D2EB22
:100348001363C1BFD218414048404140B8BF5B4227
:10035800192B88BF704710F0004F40F4000020F0C0
:100368007F4018BF404211F0004F41F4000121F0D6
:100378007F4118BF494292EA030F3FD0A2F1010220
:1003880041FA03FC10EB0C00C3F1200301FA03F15E
:1003980000F0004302D5494260EB4000B0F5000F81
:1003A80013D3B0F1807F06D340084FEA310102F140
:1003B8000102FE2A51D2B1F1004F40EBC25008BFF2
:1003C80020F0010040EA03007047490040EB0000BC
:1003D800013A28BFB0F5000FEDD2B0FA80FCACF1BD
:1003E800080CB2EB0C0200FA0CF0AABF00EBC250EA
:1003F80052421843BCBFD0401843704792F0000FD8
:1004080081F4000106BF80F400000132013BB5E72A
:100418004FEA41037FEA226C18BF7FEA236C21D0A0
:1004280092EA030F04D092F0000F08BF0846704705
:1004380090EA010F1CBF0020704712F07F4F04D1D3
:10044800400028BF40F00040704712F100723CBFE6
:1004580000F50000704700F0004343F0FE4040F410
:10046800000070477FEA226216BF08467FEA2363CE
:100478000146420206BF5FEA412390EA010F40F4B9
:10048800800070474FF0000304E000BF10F0004305
:1004980048BF40425FEA000C08BF704743F09643EC
:1004A80001464FF000001CE050EA010208BF704707
:1004B8004FF000030AE000BF50EA010208BF70478E
:1004C80011F0004302D5404261EB41015FEA010CA3
:1004D80002BF84460146002043F0B64308BFA3F19B
:1004E8008053A3F50003BCFA8CF2083AA3EBC2537D
:1004F80010DB01FA02FC634400FA02FCC2F120029C
:10050800BCF1004F20FA02F243EB020008BF20F0D2
:100518000100704702F1200201FA02FCC2F1200238
:1005280050EA4C0021FA02F243EB020008BF20EA2D
:10053800DC7070474FF0FF0C1CEAD0521EBF1CEA5B
:10054800D15392EA0C0F93EA0C0F6FD01A4480EA49
:10055800010C400218BF5FEA41211ED04FF0006332
:1005680043EA501043EA5111A0FB01310CF000405E
:10057800B1F5000F3EBF490041EAD3715B0040EA84
:10058800010062F17F02FD2A1DD8B3F1004F40EB54
:10059800C25008BF20F00100704790F0000F0CF027
:1005A800004C08BF49024CEA502040EA51207F3AEB
:1005B800C2BFD2F1FF0340EAC250704740F40000C6
:1005C8004FF00003013A5DDC12F1190FDCBF00F0B7
:1005D80000407047C2F10002410021FA02F1C2F165
:1005E800200200FA02FC5FEA310040F1000053EA01
:1005F8004C0308BF20EADC70704792F0000F00F04F
:10060800004C02BF400010F4000F013AF9D040EA54
:100618000C0093F0000F01F0004C02BF490011F4E8
:10062800000F013BF9D041EA0C018FE70CEAD153E6
:1006380092EA0C0F18BF93EA0C0F0AD030F0004C66
:1006480018BF31F0004CD8D180EA010000F000401A
:10065800704790F0000F17BF90F0004F084691F0D8
:10066800000F91F0004F14D092EA0C0F01D1420212
:100678000FD193EA0C0F03D14B0218BF084608D1DB
:1006880080EA010000F0004040F0FE4040F4000025
:10069800704740F0FE4040F4400070474FF0FF0CB8
:1006A8001CEAD0521EBF1CEAD15392EA0C0F93EAFF
:1006B8000C0F69D0A2EB030280EA010C49024FEA51
:1006C800402037D04FF0805343EA111143EA10130A
:1006D8000CF000408B4238BF5B0042F17D024FF4C2
:1006E800000C8B4224BF5B1A40EA0C00B3EB510F9D
:1006F80024BFA3EB510340EA5C00B3EB910F24BF86
:10070800A3EB910340EA9C00B3EBD10F24BFA3EB0A
:10071800D10340EADC001B0118BF5FEA1C1CE0D1D2
:10072800FD2A3FF650AF8B4240EBC25008BF20F085
:10073800010070470CF0004C4CEA50207F32C2BFD9
:10074800D2F1FF0340EAC250704740F400004FF076
:100758000003013A37E792F0000F00F0004C02BFA7
:10076800400010F4000F013AF9D040EA0C0093F071
:10077800000F01F0004C02BF490011F4000F013BCB
:10078800F9D041EA0C0195E70CEAD15392EA0C0F33
:1007980008D142027FF47DAF93EA0C0F7FF470AF6B
:1007A800084676E793EA0C0F04D14B023FF44CAFAE
:1007B80008466EE730F0004C18BF31F0004CCAD143
:1007C80030F000427FF45CAF31F000437FF43CAF7F
:1007D8005FE700BF42000ED2B2F1FE4F0BD34FF0DD
:1007E8009E03B3EB126209D44FEA002343F000439F
:1007F80023FA02F070474FF00000704712F1610FC2
:1008080001D1420202D14FF0FF3070474FF0000093
:10081800704700BF53B94AB9002908BF00281CBF58
:100828004FF0FF314FF0FF3000F06AB9ADF1080C1E
:100838006DE904CE00F006F8DDF804E0DDE90223F6
:1008480004B070472DE9F047089D0E4604460F4650
:10085800002B4AD194468C45B2FA82F260D942B153
:10086800C2F12003974020FA03F30CFA02FC1F435D
:1008780094404FEA1C4E1FFA8CF6B7FBFEF1230C8E
:100888000EFB117743EA074301FB06F098420AD9A9
:100898001CEB030301F1FF3780F01581984240F209
:1008A8001281023963441B1AA4B2B3FBFEF00EFB9B
:1008B800103344EA034400FB06F6A6420AD91CEBAF
:1008C800040400F1FF3380F00081A64240F2FD806D
:1008D8006444023840EA0140A41B00211DB1D44001
:1008E8000023C5E90043BDE8F0878B4205D90DB167
:1008F800C5E9000100210846F5E7B3FA83F10029AC
:1009080046D1B34202D3824200F2F580841A66EBE4
:10091800030201201746002DE5D0C5E90047E2E7AC
:10092800002A40F09380A1EB0C034FEA1C471FFA02
:100938008CFE0121B3FBF7F607FB1630230C43EAC4
:1009480000430EFB06F0984208D91CEB030306F19E
:10095800FF3802D2984200F2D08046461B1AA4B251
:10096800B3FBF7F007FB103344EA03440EFB00FE29
:10097800A64508D91CEB040400F1FF3302D2A645B2
:1009880000F2B6801846A4EB0E0440EA0640A5E73C
:10099800C1F120078B4022FA07FC4CEA030C06FA47
:1009A80001FE20FA07F426FA07F344EA0E0400FAD7
:1009B80001F84FEA1C404FEA1449B3FBF0FE1FFA56
:1009C8008CF600FB1E3349EA03430EFB06F99945F2
:1009D80002FA01F20BD91CEB03030EF1FF3A80F087
:1009E8008580994540F28280AEF1020E6344A3EB04
:1009F8000909A4B2B9FBF0F300FB139944EA0944CE
:100A080003FB06F6A64208D91CEB040403F1FF30E9
:100A180068D2A64266D9023B644443EA0E40A41B4E
:100A2800A0FB02E6B4427346B14652D34FD05DB143
:100A3800B8EB030264EB090404FA07F722FA01F39E
:100A48001F43CC40C5E9007400214CE7C2F12001E6
:100A580020FA01F30CFA02FC26FA01F1964033431E
:100A68004FEA1C471FFA8CFEB1FBF7F007FB101684
:100A7800190C41EA064100FB0EF68E4204FA02F414
:100A880008D91CEB010100F1FF382DD28E422BD979
:100A980002386144891B9BB2B1FBF7F607FB1611BC
:100AA80043EA014306FB0EF1994208D91CEB030304
:100AB80006F1FF3814D2994212D9023E63445B1AF8
:100AC80046EA004136E73946EDE6184602E7F045C2
:100AD800ADD2BEEB020366EB0C060138B146A6E7C1
:100AE8004646ECE7034698E74046D3E7D6467EE716
:100AF8006444023847E708460DE7023E63442DE7A1
:100B0800704700BF830730B547D0541E002A3ED037
:100B1800CAB2034601E0013C39D303F8012B9D0713
:100B2800F9D1032C2CD9CDB205EB05250F2C05EBFB
:100B3800054535D9A4F1100222F00F0C03F1100E6F
:100B4800E6444FEA121C1A46C2E90055C2E90255AA
:100B580010327245F8D10CF1010214F00C0F03EBBE
:100B6800021204F00F0C13D0ACF1040323F00303BA
:100B78000433134442F8045B9342FBD10CF00304A2
:100B88002CB1C9B21C4403F8011BA342FBD130BDF0
:100B980064461346002CF4D1F9E703461446C0E72F
:100BA8001A46A446E0E700BF70B50F4B0F4DAB42A5
:100BB800A3EB050607D0B610002455F8043B013412
:100BC8009847A642F9D804F085FF094D094B5E1BEA
:100BD800AB424FEAA60606D0002455F8043B013480
:100BE8009847A642F9D870BD545B0008545B0008CA
:100BF800545B00085C5B0008002301461A4618464F
:100C080000F014B838B5074D074C2C1BA41005D0BC
:100C1800013C55F8043D9847002CF9D1BDE838400F
:100C280004F05EBF605B00085C5B000870B4164DA2
:100C38002C681CB365681F2D23DC38B9AB1C013543
:100C4800656044F82310002070BC704704EB850CE5
:100C58000228CCF88820D4F888614FF0010202FA03
:100C680005F246EA0206C4F88861CCF80831E5D1F5
:100C7800D4F88C311343C4F88C31DFE7034C2C6073
:100C8800D8E74FF0FF30DFE72C00002430000024C5
:100C980008B511480023114AC365C0E90023C0E91B
:100CA8000233C0E91133C0E91333C0E9153301F049
:100CB800EDF928B90121084801F026FA40B908BD24
:100CC80000F024FC0121044801F01EFA0028F6D0A7
:100CD800BDE8084000F01ABCC00100240010005212
:100CE8000A4B02689A4200D07047094B82B0D3F889
:100CF800D42042F01002C3F8D420D3F8D43003F043
:100D080010030193019B02B0704700BF001000520E
:100D18000044025830B513480022134C0821102310
:100D280089B0102582620693C0E900424024C0E9D8
:100D380002218021C0E904341024C0E90612694662
:100D4800C0E90822CDE90033CDE90233CDE90445F5
:100D580003F09EFE08B909B030BD00F0D7FB09B01A
:100D680030BD00BF30020024404100523B48002300
:100D7800D0B50168B8B0CDE90233CDE904330693A4
:100D880009B138B0D0BD0123B82203600AA8FFF723
:100D9800B9FE4FF08072002308A8CDE9082302F0BD
:100DA800A1FD002857D12E4B4FF63F0002210C24FD
:100DB800D3F8D4200026032742F48052C3F8D42065
:100DC800D3F8D430069403F48053CDE9020101939B
:100DD80002A92448019BCDE9046701F0FFF98022AC
:100DE800022302A920480694CDE90223CDE904672D
:100DF80001F0F4F93022022302A91C480694CDE937
:100E08000223CDE9046701F0E9F948F23712022319
:100E180002A917480694CDE90223CDE9046701F039
:100E2800DDF94FF68372022302A912480694CDE930
:100E38000223CDE9046701F0D1F94CF203720223D1
:100E480002A90D480694CDE90467CDE9022301F013
:100E5800C5F938B0D0BD00F059FBA4E7280200243A
:100E680000440258001402580000025800080258B2
:100E78000018025800100258000C025870B5544B64
:100E88008EB00024534D544E4FF4C0610C94284644
:100E9800CDE90844CDE90A44D3F8E02042F0100235
:100EA800C3F8E020D3F8E02002F010020092009A84
:100EB800D3F8E02042F02002C3F8E020D3F8E02085
:100EC80002F020020192019AD3F8E02042F0800259
:100ED800C3F8E020D3F8E02002F080020292029AE0
:100EE800D3F8E02042F00402C3F8E020D3F8E02071
:100EF80002F004020392039AD3F8E02042F00102C0
:100F0800C3F8E020D3F8E02002F001020492049A2A
:100F1800D3F8E02042F00202C3F8E020D3F8E02042
:100F280002F002020592059AD3F8E02042F040024E
:100F3800C3F8E020D3F8E02002F040020692069AB7
:100F4800D3F8E02042F00802C3F8E0202246D3F8A4
:100F5800E03003F008030793079B01F067FB224684
:100F68003046902101F062FB7C224FF4881308A9D7
:100F78001A480A94CDE9082301F030F90422002325
:100F880008A928460A94CDE9082301F027F94FF467
:100F98000062002308A912480A94CDE9082301F049
:100FA8001DF94FF4C0632846012508A908930A943F
:100FB8000B94099501F012F9902308A93046CDE960
:100FC8000835CDE90A4401F009F90EB070BD00BF3B
:100FD8000044025800000258000402580010025849
:100FE800000C025810B51748002317490124174A66
:100FF800036280E81E00C0E90433C0E9063301F04B
:1010080019FB50B900210F4801F06EFB68B90021A7
:101018000C4801F093FB80B910BD00F077FA00216D
:10102800084801F061FB0028F1D000F06FFA0021B8
:10103800044801F083FB0028EED0BDE8104000F022
:1010480065BA00BF68020024005C0040B1757030CA
:10105800F0B5BBB000210446C0220AA80891CDE92A
:101068000411CDE90611FFF74DFD294B22689A427C
:1010780001D03BB0F0BD082200230AA8CDE90A231D
:1010880002F030FC00283FD1224C04254FF40070B8
:101098001221D4F8E030002600272B43C4F8E030B2
:1010A800D4F8E0302B400193019BD4F8E03043F0B2
:1010B8000103C4F8E030D4F8E030089503F00103E8
:1010C800CDE90401029304A91348029BCDE9066700
:1010D80001F084F84FF48072122304A90F48089590
:1010E800CDE90423CDE9066701F078F8D4F8E830B3
:1010F80043F40003C4F8E830D4F8E83003F40003FC
:101108000393039B3BB0F0BD00F000FABCE700BFBF
:10111800005C0040004402580008025800000258D1
:1011280010B59AB0342200214FF425746846FFF7B1
:10113800E9FC342200210DEB0200FFF7E3FC2F4805
:1011480000232F4A40F28E21838680F83630C0E98A
:1011580000230722C0E904320322C0E90233826176
:1011680005230E22C0E9072340F2E513C0E909135D
:1011780040F2E713C0E90B4301F00CFBA0BB0022CF
:101188004FF48060052369460B920893ADF8302030
:101198008DF83220CDE906201848CDE90022CDE9A6
:1011A8000222CDE90422CDE9092201F04BFB10BB54
:1011B800052000234FF48064012215900DA90F48E3
:1011C8001893ADF864308DF86630CDE90D33CDE96C
:1011D8000F33CDE91133CDE91334CDE9163301F0DE
:1011E80031FB20B91AB010BD00F090F9C7E700F044
:1011F8008DF91AB010BD00F089F9D9E7BC020024B6
:1012080000100050F0B5BDB000210446C0220CA863
:101218000B91CDE90711CDE90911FFF773FC684B74
:1012280022689A4201D03DB0F0BD022301224FF05E
:1012380000540025189306211692012219934FF4A1
:1012480040630CA81791CDE91A234FF40073CDE938
:101258000C451C9302F046FB002840F0AE80594B29
:1012680002254FF480610024D3F8E4200E26564866
:10127800092742F00802C3F8E420D3F8E42002F07A
:1012880008020092009AD3F8E02042F02002C3F846
:10129800E020D3F8E02002F020020192019AD3F86E
:1012A800E02042F00402C3F8E020D3F8E02002F086
:1012B80004020292029AD3F8E02042F00102C3F835
:1012C800E020D3F8E02002F001020392039AD3F859
:1012D800E0202A43C3F8E020D3F8E0202A40049213
:1012E800049AD3F8E02042F04002C3F8E020D3F893
:1012F800E02002F040020592059AD3F8E02042F07F
:101308000802C3F8E020D3F8E030079107A903F0FA
:10131800080308950B960693069BCDE9094400F04F
:101328005DFF40F2C14307A928480793CDE9085457
:10133800CDE90A4600F052FF782307A9244807930D
:10134800CDE90854CDE90A4600F048FF032307A970
:1013580020480793CDE90854CDE90A4700F03EFF3D
:101368004FF4706307A91B480793CDE90854CDE9EA
:101378000A4600F033FF4FF40C6307A91648079399
:10138800CDE90854CDE90A4600F028FF482307A90B
:10139800124807930B960A94CDE9085400F01EFFF3
:1013A8004FF4A05307A90C48089507930B97CDE96C
:1013B800094400F013FF3DB0F0BD00F0A7F84EE778
:1013C8000010005000440258001402580008025847
:1013D800000002580004025800180258000C025875
:1013E80010B59EB04C2200210AA8FFF78BFB2022E3
:1013F800002102A8FFF786FB022001F0E5FA254A42
:101408000021254B0191916941F440419161916915
:1014180001F440410191D96A41F00101D962DB6AC6
:1014280003F001030193019B93699B04FCD5012000
:101438004FF48031022300220824179319931C9239
:10144800CDE90A0105210AA8CDE9133315910F2327
:10145800C02118931691CDE91A4201F0C9FB034641
:1014680008B172B6FEE73F21402204934FF480632F
:101478000291032102A8079203910421CDE90542B4
:10148800CDE9083201F054FF08B172B6FEE71EB08C
:1014980010BD00BF004802580004005800B50024E1
:1014A80085B0CDE90044CDE9024400F0A1FD012159
:1014B80048F21F7240F201136846ADF8001003931A
:1014C800CDE9014200F0B2FD042000F09FFD00F0DC
:1014D800D5FCFFF785FFFFF7D1FCFFF7D9FBFFF736
:1014E80019FCFFF77FFDFFF71BFE00F011F800F075
:1014F800ABF800F02FFA00F01FFB00F0D9FA00F06B
:101508005FFB00F0C3F900F0F3F9FEE772B6FEE7FF
:1015180010B50B48002301220A4CFF21C360046068
:101528000362C0E90112C0E90423C0E9063301F0EF
:101538006FFA00B910BDBDE81040FFF7E7BF00BF64
:101548006803002400500052F0B5BBB000210446E7
:10155800C0220AA80891CDE90411CDE90611FFF7C8
:10156800D1FA354B22689A4201D03BB0F0BD4FF01A
:10157800007200230AA8CDE90A2302F0B3F9002873
:1015880057D12E4BC02002210024D3F8D4200025A7
:1015980009260A2742F48042C3F8D420D3F8D4207D
:1015A80002F480420192019AD3F8E02042F020022E
:1015B800C3F8E020D3F8E02002F020020292029A59
:1015C800D3F8E02042F00202C3F8E020D3F8E0307C
:1015D800089603F00203CDE90401039304A918480F
:1015E800039BCDE9064500F0F9FD4FF44072022354
:1015F80004A913480897CDE90423CDE9064500F06E
:10160800EDFD0422022304A90E480896CDE904231F
:10161800CDE9064500F0E2FD4022022304A909486D
:101628000897CDE90645CDE9042300F0D7FD3BB086
:10163800F0BDFFF76BFFA4E70050005200440258CA
:10164800001402580004025815484FF48002154946
:10165800002310B5C0E9001208224FF400344FF0FF
:1016680080610361C2604FF0804284604361C0E9D9
:101678000613C0E90833C0E90A33C0E90D23C0E9FD
:101688000F33C0E91133C0E91333C0E9153303F050
:1016980029FA00B910BDBDE81040FFF737BF00BFF9
:1016A800B80300240014005870B5B8B000210446EF
:1016B800C02208A80691CDE90211CDE90411FFF76F
:1016C80021FA1E4B22689A4201D038B070BD4FF4FF
:1016D8008042002308A8CDE9082302F003F948BB9B
:1016E800174B082628240225D3F8F4200DEB060111
:1016F800144842F02002C3F8F420D3F8F42002F092
:1017080020020092009AD3F8E02042F00202C3F8C7
:10171800E020D3F8E030069603F002030193019B22
:10172800CDE9024500240025CDE9044500F056FD29
:1017380038B070BDFFF7EAFED2E700BF00140058CA
:101748000044025800040258074B82B0D3F8F42032
:1017580042F00202C3F8F420D3F8F43003F0020395
:101768000193019B02B0704700440258FEE700BF96
:10177800FEE700BFFEE700BFFEE700BFFEE700BFD1
:10178800704700BF704700BF704700BF00F0A6BB9E
:10179800014803F0FFBB00BF400400242C4A136833
:1017A80003F00F03062B10B405D8136823F00F03BA
:1017B80043F007031360274B0024274A196824487D
:1017C80041F0010119601C6119680A401A60036838
:1017D800190705D5036823F00F0343F007030360D7
:1017E8001C4B00221D491E481E4C9A61DA611A6280
:1017F8009C62D86219635A639963DA6319645A64FC
:101808001968194821F4802119601A6603686FF372
:101818000F03B3F1005F03D2144B0122C3F8082170
:101828000C4BD3F8D420D2040FD4D3F8D42043F2ED
:10183800D2000F4942F48052C3F8D4200860D3F88C
:10184800D42022F48052C3F8D42010BC704700BFC3
:1018580000200052004402587FEDF6EA80020101A0
:101868000000FF01000202020010005C008000512D
:1018780000400052044AD36843F00203D36053681F
:101888009B04FCD5704700BF0048025810B58CB0C7
:10189800202200214FF0804404A8FFF733F91348B1
:1018A8004FF0FF31002301220460C16003A90093B7
:1018B80003618361039205920992C0E90133CDE97E
:1018C800013303F08BFA48B90023694607480093AF
:1018D800029303F009FC20B90CB010BDFFF716FE07
:1018E800F2E7FFF713FE0CB010BD00BFE0040024C0
:1018F80010B58CB020220021144C04A8FFF702F97F
:1019080013484FF6FF71002301220460C16003A948
:10191800009303618361039205920992C0E9013340
:10192800CDE9013303F05AFA48B90023694608485B
:101938000093029303F0D8FB20B90CB010BDFFF759
:10194800E5FDF2E7FFF7E2FD0CB010BD000800402E
:101958009004002400B51248002385B011494FF6C1
:10196800FF72836101600193C260C0E90133CDE970
:10197800023303F08DF950B9002301A908480193F7
:10198800039303F0B1FB28B905B05DF804FBFFF73A
:10199800BDFDF1E7FFF7BAFD05B05DF804FB00BF38
:1019A80040040024001000400268002370B5B2F122
:1019B800804F8AB0CDE90433CDE90633089304D0CB
:1019C800254B9A4222D00AB070BD244B012603242D
:1019D8000225D3F8E82004A921483243C3F8E820B7
:1019E800D3F8E82032400092009AD3F8E02032433E
:1019F800C3F8E020D3F8E030089633400193019B08
:101A0800CDE9044500F0EAFB0AB070BD134B4FF472
:101A1800405402250226D3F8E82004A9114842F0D0
:101A28000402C3F8E820D3F8E82002F00402029286
:101A3800029AD3F8E02042F00802C3F8E020D3F875
:101A4800E030089603F008030393039BCDE90445AF
:101A580000F0C4FB0AB070BD000800400044025802
:101A680000000258000C02580F4B02689A4200D03E
:101A780070470E4B00223620114610B5D3F8E840C7
:101A880082B044F01004C3F8E840D3F8E83003F01B
:101A980010030193019B00F04BFA362002B0BDE819
:101AA800104000F081BA00BF001000400044025806
:101AB80010B51F4800231F4C4FF4E1310C228360FE
:101AC800C0E90041C0E90333C0E90523C0E9073391
:101AD800C0E9093303F0AAFE70B90021144803F0E5
:101AE800F7FE88B90021124803F034FFA0B9104866
:101AF80003F0D0FEB8B910BDFFF708FD00210C486F
:101B080003F0E6FE0028EDD0FFF700FD00210848AD
:101B180003F020FF0028EAD0FFF7F8FC044803F0A0
:101B2800B9FE0028E7D0BDE81040FFF7EFBC00BFC2
:101B380060060024004C004010B51F4800231F4CCD
:101B48004FF4E1310C228360C0E90041C0E903335E
:101B5800C0E90523C0E90733C0E9093303F066FE8D
:101B680070B90021144803F0B3FE88B90021124867
:101B780003F0F0FEA0B9104803F08CFEB8B910BD10
:101B8800FFF7C4FC00210C4803F0A2FE0028EDD0AA
:101B9800FFF7BCFC0021084803F0DCFE0028EAD06F
:101BA800FFF7B4FC044803F075FE0028E7D0BDE851
:101BB8001040FFF7ABBC00BFC80500240050004030
:101BC80010B51F4800231F4C4FF4E1310C228360ED
:101BD800C0E90041C0E90333C0E90523C0E9073380
:101BE800C0E9093303F022FE70B90021144803F05C
:101BF8006FFE88B90021124803F0ACFEA0B9104866
:101C080003F048FEB8B910BDFFF780FC00210C486E
:101C180003F05EFE0028EDD0FFF778FC00210848AD
:101C280003F098FE0028EAD0FFF770FC044803F0A0
:101C380031FE0028E7D0BDE81040FFF767BC00BFC1
:101C4800300500240010014070B5BCB000210446E6
:101C5800C0220CA80A91CDE90611CDE90811FEF7BA
:101C680051FF574A2368934207D0564A934238D0C7
:101C7800554A934268D03CB070BD022200230CA89C
:101C8800CDE90C2301F02EFE002840F08F804F4B49
:101C98004FF4C05402250626D3F8E82006A94C487C
:101CA80042F40022C3F8E820D3F8E82002F4002226
:101CB8000092009AD3F8E02042F00102C3F8E02035
:101CC800D3F8E0300A9603F001030193019BCDE9B4
:101CD800064500240025CDE9084500F07FFA3CB010
:101CE80070BD022200230CA8CDE90C2301F0FAFDF7
:101CF80000285ED1354B4FF4405402250E26D3F808
:101D0800E82006A9334842F48012C3F8E820D3F843
:101D1800E82002F480120292029AD3F8E02042F0FE
:101D28000202C3F8E020D3F8E0300A9603F0020379
:101D38000393039BCDE9064500240025CDE908451A
:101D480000F04CFA3CB070BD012200230CA8CDE98C
:101D58000C2301F0C7FD78BB1C4B4FF4404402250F
:101D68000426D3F8F02006A91A4842F01002C3F856
:101D7800F020D3F8F02002F010020492049AD3F86D
:101D8800E02042F00202C3F8E020D3F8E0300A96DF
:101D980003F002030593059BCDE9064500240025C1
:101DA800CDE9084500F01AFA3CB070BDFFF7AEFB6C
:101DB8006DE7FFF7ABFB9DE7FFF7A8FBCCE700BF9C
:101DC800004C004000500040001001400044025800
:101DD8000000025800040258DFF838D0FFF74AFD27
:101DE800FFF7DCFC0C480D490D4A002302E0D458EB
:101DF800C4500433C4188C42F9D30A4A0A4C00234D
:101E080001E013600432A242FBD3FEF7CDFEFFF7D8
:101E180045FB70470000082400000024100000243F
:101E2800605B000810000024F8060024FEE70000AC
:101E38000F4B1B780BB90120704710B504464FF4BF
:101E48007A700C4AB0FBF3F31068B0FBF3F000F0C3
:101E5800B9F80F2C00D808B1012010BD0022214686
:101E68004FF0FF3000F064F8034B00201C6010BDF9
:101E780008000024040000240C00002410B50320EE
:101E8800124C00F043F801F0A1F9114B11499A697D
:101E98009B69C2F3032203F00F038A5CCB5C02F058
:101EA8001F020D4903F01F03D04020FA03F3086016
:101EB8000F202360FFF7BCFF10B10124204610BD9E
:101EC8000446FFF741FC204610BD00BF0000002477
:101ED80000440258F45A000804000024034A044B42
:101EE80011681B780B441360704700BFF406002488
:101EF80008000024014B1868704700BFF40600244E
:101F0800014B1868000C70470010005C06494FF63A
:101F1800FF0C0002054BCA6800F4E06002EA0C02FC
:101F280010430343CB60704700ED00E00000FA0562
:101F38001A4BDB68C3F3022300B5C3F1070E03F1A4
:101F4800040CBEF1040F28BF4FF0040EBCF1060FBD
:101F58001AD9A3F1030C4FF0FF3303FA0CF322EA6A
:101F680003024FF0FF33002803FA0EF321EA0303BC
:101F780003FA0CF343EA02034FEA0313DBB206DB6E
:101F8800074A13545DF804FB00229446E9E700F081
:101F98000F00044A13545DF804FB00BF00ED00E095
:101FA80000E400E014ED00E0002807DB012300F066
:101FB8001F01034A40098B4042F82030704700BF98
:101FC80000E100E0431EB3F1807F01D30120704798
:101FD8004FF0E022002005494FF0F00C5361072331
:101FE80081F823C090611361704700BF00ED00E0E5
:101FF800BFF35F8F044B00215A6A22F480325A6281
:10200800C3F89410704700BF00ED00E0064B40F0A5
:102018000100C3F894005A6A42F480325A62BFF34E
:102028004F8FBFF36F8F704700ED00E0164A43787B
:10203800C2F89830D2F8A03023F00103C2F8A030DB
:102048004368C2F89C30C37A90F80CC01B0601782C
:1020580043EA0C7390F80AC00B43417B43EACC4334
:1020680090F80EC043EA8143C17B43EA4C4390F8A1
:1020780009C043EA0143017A43EA0C2343EA4103D6
:10208800C2F8A030704700BF00ED00E0002835D04E
:1020980038B590F86130044603F0FF024BB323686B
:1020A8000220626884F86100E1691D6814481143E0
:1020B800A268284001431960A169586B0A43114975
:1020C8000140E0680A435A63196C6FF30F0101433A
:1020D800D4E9040219645205596B42EA005221F40A
:1020E800401100200A435A630123606684F8613076
:1020F80038BD80F86020FEF7F3FDD0E70120704777
:10210800BFFFF8FFF8FEFFFF90F86020012A5FD0BC
:102118000346C1EBC10002224FEAC10C03EB800069
:1021280070B5012483F8612083F86040826B046BEA
:10213800C56A1205466B42EA0442A5F1090EC46B52
:102148002A43BEF1010F42EA44521C6823D942EAED
:10215800066271B9606A1F490140986A1143616259
:10216800A06100220121104683F8611083F86020E5
:1021780070BD0B2D2AD1006C42EA80421648ACEBA8
:10218800010CE16903EB8C0C0140DCF828500A4390
:10219800E2612561E5E706F07F452A4359B9606A9F
:1021A8000C499D6A0140586B114320F07F406162E1
:1021B800A561A062D5E7E56926F07F460549806AF2
:1021C80029401143E16120612662CAE70148D6E748
:1021D80002207047F0FFCC00F0FFC0000B68002B16
:1021E80000F0EC81D84A90424FF000022DE9F04F00
:1021F8004FF0010B85B000F0F5804FF0B04E0BFAB0
:1022080002FC1CEA030A00F097804D68540003267C
:1022180005F00307A64007F1FF38F643B8F1010FB0
:1022280040F29280032F40F0E28107FA04F4076835
:1022380015F4403F06EA070644EA060404607BD02A
:10224800C24E02F003074FF00F0CD6F8F440BF005F
:1022580044F002040CFA07FCC6F8F440D6F8F4403F
:1022680022F0030606F1B04604F0020406F5806683
:102278000394039CB46824EA0C04DFF8D4C26045D4
:1022880000F0AA80DFF8CCC2604529D0DFF8C8C2C8
:10229800604500F08D81DFF8C4C2604500F08F8191
:1022A800DFF8BCC2604500F07D81DFF8B8C2604548
:1022B80000F08B81DFF8B0C2604500F08C81DFF858
:1022C800ACC2604500F08D81DFF8A4C260450CBF48
:1022D8004FF0090C4FF00A0C0CFA07F73C4304E0E6
:1022E8004FF0020C0CFA07F73C43B460EF02DEF83B
:1022F80000406FEA0A064CBF4AEA04043440AF02C1
:10230800CEF80040DEF8044054BF34404AEA0404E2
:10231800AF03CEF80440DEF8844054BF34404AEAA4
:102328000404ED03CEF88440DEF8804054BF344006
:102338004AEA0404CEF88040013233FA02F47FF40A
:102348005EAF05B0BDE8F08FD0F80890022FD1F845
:102358000C8009EA060908FA04F848EA0908C0F8EE
:102368000880C5F30018D0F8049008FA02F829EAA2
:102378000C0C48EA0C0CC0F804C0D1F808C0D0F81E
:102388000C800CFA04FC08EA06084CEA080CC0F8B1
:102398000CC07FF44AAF4FEAD20802F0070C00EBFA
:1023A80088084FEA8C0CD8F82090CDF80090D1F826
:1023B800109009FA0CF9CDF804904FF00F0909FABA
:1023C8000CFCDDF8009029EA0C09DDF804C04CEAA1
:1023D800090CC8F820C028E74FF0010C0CFA07F7E1
:1023E8003C4382E74FF0B04652E0032C40F00C81AA
:1023F800BC40076815F4403F07EA0A0744EA0704A7
:10240800046040D0514F4FF00F0E15F4801FD7F8DD
:10241800F44044F00204C7F8F440D7F8F44022F03E
:10242800030704F0020407F1B047039407F5806737
:10243800039C02F003044FEA84040EFA04F4D7F86C
:1024480008E02EEA0404BC606FEA0C07346840F028
:10245800A6803C4015F4001F3460746840F08A8000
:102468003C4015F4003F7460D6F8844040F08B80FF
:102478003C40ED03C6F88440D6F8804000F18C80DB
:102488003C40C6F88040013233FA02F43FF459AFB9
:102498000BFA02FE13EA0E0CF5D04D6857004FF008
:1024A800030805F0030408FA07F86FEA080A04F1BC
:1024B800FF38B8F1010F98D8D0F80890022CD1F85D
:1024C8000C800AEA090908FA07F848EA0908C0F876
:1024D8000880C5F30018D0F8049008FA02F829EA31
:1024E8000E0E48EA0E0EC0F804E0D0F80C80D1F8C1
:1024F80008E00AEA08080EFA07FE4EEA080EC0F8D5
:102508000CE07FF475AF4FEAD20802F0070E00EB3B
:1025180088084FEA8E0ED8F82090CDF80090D1F8B0
:10252800109009FA0EF9CDF804904FF00F0909FA46
:102538000EFEDDF8009029EA0E09DDF804E04EEA07
:10254800090EC8F820E053E700000258004402587A
:102558000004025800080258000C025800100258E3
:102568000014025800180258001C02580020025893
:102578000024025844EA0C0415F4003F7460D6F8AD
:1025880084403FF475AF4CEA0404ED03C6F8844078
:10259800D6F880407FF574AF44EA0C0471E744EA4A
:1025A8000C0457E74FF0050C0CFA07F73C439CE680
:1025B8004FF0030C0CFA07F73C4396E670474FF0D0
:1025C800040C0CFA07F73C438FE64FF0060C0CFAA4
:1025D80007F73C4389E64FF0070C0CFA07F73C4332
:1025E80083E64FF0080C0CFA07F73C437DE6D0F879
:1025F8000C80D1F808C008EA06080CFA04FC4CEA7A
:10260800080CC0F80CC010E6DFF81C80D1F808E010
:10261800D8F80C900EFA07FE0AEA09094EEA090EE4
:10262800C8F80CE0E4E600BF0000025802B909044B
:1026380081617047002853D010B590F841300446A6
:1026480003F0FF02002B46D023682421626884F837
:102658004110196822F07062E06821F00101012838
:1026680019601A619A68A16822F400429A6009D038
:1026780041F404410228996007D15A6842F4006283
:102688005A6006E041F4004199605A6822F40062F9
:102698005A6058684FF0200C12492269014359606A
:1026A800D96821F40041D960D4E90501024342EA1E
:1026B8000122D4E90710DA600022014310461960AC
:1026C800196841F001011960626484F841C022630D
:1026D80084F8422010BD80F84020FEF7B9FCB3E72B
:1026E800012070470080000290F84120202A23D161
:1026F8005FFA82FC90F840200346012A1CD0026849
:10270800242000B583F841004FF0000E106820F037
:1027180001001060106820F48050106010680143B8
:1027280070461160116841F00101116083F841C0E1
:1027380083F840E05DF804FB0220704790F84120E0
:10274800202A22D1034600B55FFA82FE90F8402085
:10275800012A1CD0026824204FF0000C83F84100A5
:10276800106820F001001060106820F4706040EAE2
:10277800012160461160116841F00101116083F880
:1027880041E083F840C05DF804FB02207047022056
:102798005DF804FB002852D038B590F8A130044603
:1027A80003F0FF02002B45D0A0680221D4E90032D3
:1027B80084F8A11002439969E06821F0704102434E
:1027C800206902436069996199690A439A61D4E969
:1027D800062142EA00429A60D4E9082042EA01420E
:1027E800DA60D4E90A2142EA00421A61226B42EA1D
:1027F80001425A61DA6A94F8350002F07F4294F88F
:102808003610DA62DD6A94F834202A4342EA00225C
:10281800002042EA0142DA625A6B42F006025A6329
:102828009A6942F001029A610123C4F8A40084F86D
:10283800A13038BD80F8A020FEF7E4FCB4E7012001
:10284800704700BF90F8A030012B00F0B68002233B
:102858002DE9F04F4FF0340ED0F8009080F8A130F9
:1028680083B00EFB020ED201D9F80C300C4602F1EF
:1028780084060D46C3F30B4B804609EB060C0EF19C
:10288800380EDFF83CA1DCF8043003F47043019300
:102898000FCCAEE80F000FCC6F68AEE80F000FCC7E
:1028A800AEE80F002368BB44CEF80030019B2A68CD
:1028B800CCF80430D9F80C30511CE868C3F30B434A
:1028C8000B4443EA0B43CCF80430D9F80C10DCF87D
:1028D8000830C1F30A0103F470430144CCF808300E
:1028E800AB68D9F80C000133C0F30A000344A869A7
:1028F80043EA01432969CCF808300729DCF810308D
:1029080023F00703CCF81030CCF8101095F83030CD
:1029180043EA006395F8310043EA002395F8320052
:1029280043EA0043CCF81830DCF8143023F0FF03F6
:10293800CCF814306B69CCF81430DCF81C00EB6967
:1029480000EA0A0A286A43EA0003CCF81CA0CCF87B
:102958001C306B6ACCF828302DD81A4B53F821302C
:10296800BF1AAA6A03FB07F702FB03F3EA6A0737F1
:1029780047EA0347DCF82C3003F0E023CCF82C308E
:10298800CCF82C70DCF830306FF30A03CCF8303018
:10299800CCF83020012259F80630134349F80630A4
:1029A8000023C9F82420184688F8A12088F8A03008
:1029B80003B0BDE8F08F0123D2E70220704700BFC3
:1029C800F8F8FFFF045B000838B5104CE36813F013
:1029D800040FE36805D103F00703181A18BF012094
:1029E80038BD23F007030343E360FFF783FA054686
:1029F80005E0FFF77FFA401BB0F57A7F04D86368DB
:102A08009B04F6D5002038BD012038BD0048025887
:102A180070B50446FFF76EFA002C50D094F8413098
:102A28000546002B3CD0A66C2268A16813680139C2
:102A380023F4F85343EA0123136093689B0604D5F3
:102A4800701C25D193689906FCD4D4E90750E36833
:102A580011682B4300250343606843EA0063194863
:102A68000840616903431360A36950680B432169F7
:102A780043EA01431449014028460B435360136855
:102A880043F0010313600123656484F8413070BD8D
:102A9800FFF730FA401BB0420AD84EB12268CCE7A3
:102AA8002046FEF751FD41F288331E46A364BBE77A
:102AB800042384F84130636C43F00103636401200C
:102AC80070BD00BF2FFFFF00FEF8E0FF2DE9F041C9
:102AD800424CA56AA36AE76A13F47C7F666BC3F36A
:102AE800051039D0C6F3CC0607F00107FDF7CAFC7C
:102AF800804607FB06F0FDF7C5FC4FF06451FDF773
:102B080019FD05F003030546012B02D0022B45D021
:102B180023B3206BC0F30800FDF7B4FC4FF07E51DF
:102B2800FDF700FC2946FDF7FDFB414604462C480D
:102B3800FDF7B4FD01462046FDF7FCFC0446274B93
:102B48001B6BC3F34623581CFDF79CFC014620462B
:102B5800FDF7A4FDFDF73EFEBDE8F08123689B0666
:102B68002CD523681F48C3F3C103266BD840FDF753
:102B780089FC4146FDF792FD0446C6F30800FDF7BF
:102B880081FC4FF07E51FDF7CDFB2946FDF7CAFBCE
:102B980001462046FDF7CEFC0446D0E7206BC0F383
:102BA8000800FDF76FFC4FF07E51FDF7BBFB29468F
:102BB800FDF7B8FB414604460B48B9E7206BC0F364
:102BC8000800FDF75FFC4FF07E51FDF7ABFB29468F
:102BD800FDF7A8FB414604460448A9E7004402580B
:102BE8000024744A0090D00320BCBE4B0024744CCF
:102BF800002800F0E782F8B503680446D9072ED507
:102C080097490A69896A02F03802102A00F0EE80B2
:102C1800182A00F0E6806368B3F5803F00F0118160
:102C2800002B00F06781B3F5A02F8D4B1A6800F0D8
:102C3800888222F480321A601A6822F480221A608C
:102C4800FFF758F9864E054605E0FFF753F9401B94
:102C5800642800F24D8133689B03F6D523689D07ED
:102C680070D4D90633D57E4A1369926A03F03803C3
:102C7800082B00F0CB80182B00F0C380E369784D57
:102C8800002B00F06F812B6843F080032B60FFF767
:102C980031F9064605E0FFF72DF9801B022800F2FE
:102CA80027812B68DB05F6D5FFF72AF941F20303E4
:102CB800984200F26782226A6B68202A23F0F84360
:102CC8000CBF43F0804343EA82636B6023681D07AF
:102CD80016D56369624D002B00F022816B6F43F0BB
:102CE80001036B67FFF706F9064605E0FFF702F9EF
:102CF800801B022800F2FC806B6F9807F6D52368CA
:102D08009A0616D5A369564D002B00F01A812B6838
:102D180043F480532B60FFF7EDF8064605E0FFF714
:102D2800E9F8801B022800F2E3802B689F04F6D59F
:102D38002368590700F18B80636A002B40F0BF803D
:102D48000020F8BD464A1369926A13F038032DD162
:102D5800434BE2681B68590701D5002A4FD0404D04
:102D68002B6823F0190313432B60FFF7C3F80646BB
:102D780005E0FFF7BFF8801B022800F2B9802B6836
:102D88005B07F6D5FFF7BCF841F20303984200F25F
:102D9800108122696B68402A23F47C330CBF43F40A
:102DA800003343EA02336B6023685AE7182B00F0BC
:102DB800FC802B4DE2682B68002A00F0E58023F0A8
:102DC800190313432B60FFF795F8064605E0FFF754
:102DD80091F8801B022800F28B802B685F07F6D5DC
:102DE800D0E701F0030102297FF415AF1C4A1268ED
:102DF80092037FF534AF6268002A7FF430AF012078
:102E0800F8BD02F00302012A7FF438AF144B1B68A7
:102E1800DA0502D5E369802BF1D1FFF771F841F2A9
:102E28000303984200F2CE80226A202A00F0B9817A
:102E38000B494B6823F0F84343EA82634B602368ED
:102E480045E7074A136843F480331360F8E6054DF5
:102E58002B6843F480732B60FFF74CF8064608E0B4
:102E68000044025800480258FFF744F8801B6428C1
:102E78003ED82B68DA05F7D5A368012B00F08B81C3
:102E8800002B00F06681052B854B1A6F00F09281AC
:102E980022F001021A671A6F22F004021A67FFF77C
:102EA80029F87F4E41F28837054604E0FFF722F8FB
:102EB800401BB8421CD8336F9B07F7D53CE7784DC9
:102EC8002A6902F03802182A00F0EE80022B2B68DB
:102ED80023F080732B607FD0FFF70CF804462B6833
:102EE8009B017FF52DAFFFF705F8001B0228F6D9E7
:102EF8000320F8BD6A4D2B6823F480332B602B68C0
:102F080023F480232B60FEF7F5FF064604E0FEF766
:102F1800F1FF801B6428EBD82B689F03F7D49DE64C
:102F28006B6F23F001036B67FEF7E4FF064604E0CE
:102F3800FEF7E0FF801B0228DAD86B6F9907F7D4F9
:102F4800DDE62B6823F480532B60FEF7D3FF06469B
:102F580004E0FEF7CFFF801B0228C9D82B6898042D
:102F6800F7D4E5E62B6823F080032B60FEF7C2FF59
:102F7800064604E0FEF7BEFF801B0228B8D82B687F
:102F8800DF05F7D42368A2E623F001032B60FEF7E0
:102F9800B1FF064604E0FEF7ADFF801B0228A7D864
:102FA8002B685807F7D423685BE690077FF401AFD6
:102FB800CEE66B68226923F0FE4343EA02636B6046
:102FC80023684EE6364A216AD36823F07C5343EAE5
:102FD8000163D36023687AE6FEF78CFF064604E0B7
:102FE800FEF788FF801B022882D82B689901F7D446
:102FF800A96A2C4BA26A0B401343E26A43EA021304
:10300800AB62216BD4E90D320139013B013AC1F3BE
:1030180008015B0212049BB202F4FE021343E26B46
:10302800013A0B43120602F0FE4213432B63EB6A8C
:1030380023F00103EB626B6BA26C6FF3CF0343EADF
:10304800C2036B63EB6A226C23F00C031343EB623D
:10305800EB6A626C23F002031343EB62EB6A43F4FE
:103068008033EB62EB6A43F40033EB62EB6A43F4C0
:103078008023EB62EB6A43F00103EB622B6843F0B9
:1030880080732B60FEF736FF054D04462B689A01C6
:103098003FF556AEFEF72EFF001B0228F6D927E7AC
:1030A800004402580CFCFFFF012BAA6A286B3FF46E
:1030B800A6AE02F00303A16A8B427FF4A0AEC2F36E
:1030C8000512E36A9A427FF49AAE236BC0F30802B2
:1030D800013B9A427FF493AE636BC0F34622013BF7
:1030E8009A427FF48CAEA36BC0F30642013B9A422E
:1030F8007FF485AEE36BC0F30660013B98427FF432
:103108007EAE6B6BA26CC3F3CC039A423FF418AE4D
:103118002D4AD36A23F00103D362FEF7EBFE05467E
:10312800FEF7E8FEA842FBD0274AA16C536B6FF369
:10313800CF0343EAC1035363D36A43F00103D36265
:10314800FEE542F480221A601A6842F480321A605E
:1031580076E51D4D41F288372B6F23F001032B676D
:103168002B6F23F004032B67FEF7C4FE064605E029
:10317800FEF7C0FE801BB8423FF6BAAE2B6F980729
:10318800F6D4D9E5EB68226A23F07C5343EA02635C
:10319800EB6023689BE50C4A136F43F00103136748
:1031A8007DE6094A536823F0F84343F080435360AF
:1031B80023688CE542F004021A671A6F42F0010294
:1031C8001A676CE601207047004402582DE9F04167
:1031D800504C236903F03803102B52D0182B0BD016
:1031E800002B51D123689A0651D523684A48C3F366
:1031F800C103D840BDE8F081A56AA36AE76A13F461
:103208007C7F666BC3F30510F4D0C6F3CC0607F0D9
:103218000107FDF737F9804607FB06F0FDF732F99D
:103228004FF06451FDF786F905F003030546012BBD
:1032380002D0022B4DD063B3206BC0F30800FDF71A
:1032480021F94FF07E51FDF76DF82946FDF76AF830
:10325800414604463148FDF721FA01462046FDF76C
:1032680069F904462B4B1B6BC3F34623581CFDF727
:1032780009F901462046FDF711FAFDF7ABFABDE85A
:10328800F0812748BDE8F0812648BDE8F081224852
:10329800B0E723689B062CD523681F48C3F3C103F6
:1032A800266BD840FDF7EEF84146FDF7F7F90446DE
:1032B800C6F30800FDF7E6F84FF07E51FDF732F847
:1032C8002946FDF72FF801462046FDF733F9044655
:1032D800C8E7206BC0F30800FDF7D4F84FF07E5123
:1032E800FDF720F82946FDF71DF8414604460E482B
:1032F800B1E7206BC0F30800FDF7C4F84FF07E512A
:10330800FDF710F82946FDF70DF841460446074831
:10331800A1E700BF004402580090D0030024744A7B
:1033280040787D0100093D0020BCBE4B0024744C50
:10333800002800F00E818D4A136803F00F038B42BA
:103348002DE9F04104460D460CD2136823F00F0313
:103358000B431360136803F00F038B4202D0012064
:10336800BDE8F081236858070BD5814920698A692F
:1033780002F07002904204D98A6922F07002024376
:103388008A6119070BD57A496069CA6902F0700227
:10339800904204D9CA6922F070020243CA61DA066F
:1033A8000BD57349A069CA6902F4E062904204D956
:1033B800CA6922F4E0620243CA619F060BD56C49D0
:1033C800E0690A6A02F07002904204D90A6A22F09F
:1033D800700202430A629E0703F0010240F1AB80CB
:1033E800634EE068B16901F00F01884204D9B16900
:1033F80021F00F010143B161002A30D05C4AA16875
:10340800936923F470630B4393616168136802291D
:1034180000F0A180032900F09880012900F0A18024
:103428005F079CD5524E41F28838336923F0070371
:103438000B433361FEF75EFD074605E0FEF75AFDD4
:10344800C01B404500F28B803369626803F0380383
:10345800B3EBC20FF2D123689E0706D5E068444952
:103468008A6902F00F02904269D340490A6802F063
:103478000F02AA420AD90A6822F00F022A430A60F8
:103488000A6802F00F02AA427FF469AF58070BD509
:10349800374920698A6902F07002904204D28A6929
:1034A80022F0700202438A6119070BD5304960691E
:1034B800CA6902F07002904204D2CA6922F070020E
:1034C8000243CA61DA060BD52949A069CA6902F420
:1034D800E062904204D2CA6922F4E0620243CA61FF
:1034E8009B060BD5224AE169136A03F070039942DF
:1034F80004D2136A23F070030B431362FFF766FECE
:103508001B4A03461B4891699269C1F303211A4D6E
:1035180002F00F02194C415C825C01F01F0118484F
:1035280002F01F02CB4000682B60D3402360BDE847
:10353800F041FEF77DBC002A7FF460AF95E78A6909
:1035480022F00F0202438A618FE79A013FF56AAFC2
:1035580005E70120704798033FF564AFFFE60320B5
:10356800FEE6DB053FF55EAFF9E600BF002000523E
:1035780000440258F45A0008040000240000002403
:103588000C000024184A38B5136903F03803102BCF
:1035980024D0182B09D01BBB13689B0622D51268B0
:1035A800124BC2F3C102D34002E0FFF78FFA034681
:1035B8000D490F488A698969C2F303220D4C01F04D
:1035C8000F010D4D825C405C02F01F0200F01F00ED
:1035D800D34023FA00F02B60206038BD074BE7E7A3
:1035E800074BE5E7014BE3E7004402580090D0039E
:1035F800F45A0008000000240400002440787D01EB
:1036080000093D001C4A38B5136903F03803102B34
:103618002BD0182B09D053BB13689B0629D51268E9
:10362800164BC2F3C102D34002E0FFF74FFA03463C
:10363800114A13499069134DC0F30320124C085CDA
:1036480000F01F00C340906900F00F002B60085C79
:1036580000F01F00C3402360D269C2F30212885CE5
:1036680000F01F0023FA00F038BD084BE0E7084BD4
:10367800DEE7024BDCE700BF004402580090D003AD
:10368800F45A0008040000240000002440787D015A
:1036980000093D001C4A38B5136903F03803102BA4
:1036A8002BD0182B09D053BB13689B0629D5126859
:1036B800164BC2F3C102D34002E0FFF707FA0346F4
:1036C800114A13499069134DC0F30320124C085C4A
:1036D80000F01F00C340906900F00F002B60085CE9
:1036E80000F01F00C3402360D269C2F30222885C45
:1036F80000F01F0023FA00F038BD084BE0E7084B44
:10370800DEE7024BDCE700BF004402580090D0031C
:10371800F45A0008040000240000002440787D01C9
:1037280000093D00F8B5364C06460F46236823F0DD
:1037380080632360FEF7DEFB054604E0FEF7DAFB54
:10374800401B022856D823681A01F7D4A36A3268A6
:1037580023F47C3343EA0233A362D6E90232013B05
:10376800013A5B0212049BB202F4FE021343726830
:10377800013AC2F3080213433269013A120602F011
:10378800FE421343A363E36A726923F0C003134341
:10379800E362E36AB26923F020031343E362E36A56
:1037A80023F01003E362E36BF2696FF3CF0343EA9C
:1037B800C203E363E36A43F01003E362E36ADFB141
:1037C800012F0CBF43F4801343F40013E3620C4C45
:1037D800236843F080632360FEF78CFB054604E012
:1037E800FEF788FB401B022804D823681B01F7D585
:1037F8000020F8BD0320F8BD43F40023E362E6E7A8
:1038080000440258F8B5364C06460F46236823F0A4
:1038180080532360FEF76EFB054604E0FEF76AFB63
:10382800401B022856D823689A00F7D4A36A326846
:1038380023F07C7343EA0253A362D6E90232013BC8
:10384800013A5B0212049BB202F4FE02134372684F
:10385800013AC2F3080213433269013A120602F030
:10386800FE4213432364E36A726923F440631343FB
:10387800E362E36AB26923F400731343E362E36A21
:1038880023F48073E362636CF2696FF3CF0343EA56
:10389800C2036364E36A43F48073E362E36ADFB1FB
:1038A800012F0CBF43F4000343F08073E3620C4C18
:1038B800236843F080532360FEF71CFB054604E0B1
:1038C800FEF718FB401B022804D823689B00F7D595
:1038D8000020F8BD0320F8BD43F48003E362E6E767
:1038E800004402582DE9F843D0E9003204461D018E
:1038F80003F0006624D5816EB1F5001F00F0DF8566
:1039080000F2A886002900F0F685B1F5801F40F086
:10391800A586A949896A01F00301032900F09E865A
:1039280002210830FFF7FEFE0646D4E900323EB910
:10393800A16EA14D0026286D20F440100143296591
:10394800D8050AD5A16D042906D8DFE811F0FF03D0
:103958006D0582050404040401263546990524D51D
:10396800E16D802900F04B8500F28786002900F080
:10397800BB85402940F088868F49896A01F0030198
:10398800032900F08186002104F10800FFF7CAFE30
:103998000546D4E90032002D40F04385864FE06D9E
:1039A800396D21F4E071014339655F0528D5D4F8F4
:1039B800A810B1F5800F00F05C8500F2528600294E
:1039C80000F08B85B1F5001F40F053867A49896A6B
:1039D80001F00301032900F04C86002104F10800DE
:1039E800FFF7A0FE0546D4E90032002D40F05385CC
:1039F800714FD4F8A800B96D21F460010143B9658D
:103A0800180528D5D4F8AC10B1F1007F00F0468530
:103A180000F21486002900F0D684B1F1807F40F0CE
:103A280015866549896A01F00301032900F00E86AD
:103A3800002104F10800FFF775FE0546D4E90032BD
:103A4800002D40F0C8845C4FD4F8AC00B96D21F06B
:103A5800E0610143B965990118D5E16C202900F0AE
:103A6800348400F2158639B1102940F01486524882
:103A7800C16A41F40031C162002D40F0BF834E4F4E
:103A8800E06CF96C21F030010143F964DF0426D5BC
:103A9800216EB1F5005F00F0A18400F2C385002912
:103AA80000F08684B1F5805F40F0C4854249896A98
:103AB80001F00301032900F0BD85002104F108008D
:103AC800FFF730FE0546D4E90032002D40F0788437
:103AD800394F206E396D21F4E0410143396598046E
:103AE80024D5616EB1F5003F00F0158400F25685CB
:103AF80091B1B1F5803F40F05B852F49896A01F0AB
:103B08000301032900F05485012104F10800FFF79F
:103B180009FE0546D4E90032002D40F08F83264F78
:103B2800606E396D21F4E02101433965590426D5C9
:103B3800D4F8B010B1F1005F00F0268400F24A8595
:103B480091B1B1F1805F40F04F851B49896A01F05E
:103B58000301032900F04885012104F10800FFF75B
:103B6800E1FD0546D4E90032002D40F05B83124F99
:103B7800D4F8B000B96D21F0E0410143B9651F04E4
:103B88000DD5216FB1F1805F00F06082B1F1005F67
:103B980000F09185002900F05E8201263546D801A3
:103BA80015D5A16C032900F2B485DFE811F00C00EB
:103BB8000700A1030C0000BF004402583648C16A40
:103BC80041F40031C162002D00F01A832E465902DB
:103BD80000F17A82DF072FD5E16F28292AD8DFE89C
:103BE80011F057022900290029002900290029007D
:103BF8002900480229002900290029002900290054
:103C08002900B904290029002900290029002900D0
:103C18002900570229002900290029002900290024
:103C28002900570229002900290029002900290014
:103C3800290057020126354698071ED5A16F052988
:103C480000F25085DFE811F0150006007104150038
:103C5800150015001049896A01F00301032900F0D5
:103C68004185012104F10800FFF75CFD0546D4E910
:103C78000032002D00F0CC822E46590721D5D4F809
:103C88009410052900F22A85DFE811F017000800D2
:103C98003C0417001700170000440258AE49896A0F
:103CA80001F00301032900F01985012104F108003E
:103CB800FFF738FD0546D4E90032002D00F0C28236
:103CC8002E469F0626D5D4F89010B1F1005F00F07B
:103CD800C68200F2558491B1B1F1805F40F05A84F8
:103CE8009D49896A01F00301032900F053840021EA
:103CF80004F10800FFF716FD0546D4E90032002D4F
:103D080040F08E82944FD4F89000796D21F0E04114
:103D180001437965580626D5D4F89C10B1F5006F93
:103D280000F0AF8200F2648491B1B1F5806F40F089
:103D380069848949896A01F00301032900F06284D2
:103D4800002104F10800FFF7EDFC0546D4E9003234
:103D5800002D40F06982804FD4F89C00B96D21F4A1
:103D6800E0510143B965190626D5D4F8A010B1F57C
:103D7800804F00F0988200F21F8491B1B1F5005F86
:103D880040F024847449896A01F00301032900F092
:103D98001D84002104F10800FFF7C4FC0546D4E99E
:103DA8000032002D40F044826B4FD4F8A000B96D6A
:103DB80021F460410143B9651F070BD5D4F884008D
:103DC800B0F5805F00F0D481634F796D21F44051E4
:103DD80001437965D8060BD5D4F89800B0F5807FF3
:103DE80000F0DB815C4FB96D21F440710143B96586
:103DF800190324D5D4F8A410B1F5803F00F0B1829E
:103E0800B1F5003F10D0002940F030815248806A57
:103E180000F00300032800F0298104F10800FFF7EF
:103E280081FC0546D4E90032002D40F0FF814A4F5D
:103E3800D4F8A400B96D21F440310143B9655F039A
:103E48000FD5D4F88810B1F5001F00F07782B1F5CE
:103E5800401F00F02D81B1F5801F00F0248101265C
:103E68003546D80320D5216D002900F0AA81B1F587
:103E7800803F40F0E8803849896A01F0030103294E
:103E880000F0E180022104F10800FFF74BFC054631
:103E9800D4E90032002D40F09C812F4F206DF96C41
:103EA80021F480310143F96499000ED52A49896AC1
:103EB80001F00301032907D0022104F12800FFF7CC
:103EC800A1FCD4E9003200B101269F0300F1AB80C8
:103ED8003546D80206D52048666F016D21F00041AD
:103EE80031430165D90007D51B48D4F8B86001698A
:103EF80021F48041314301619F0206D51648E66EE0
:103F0800016D21F08071314301655E0009D51249C8
:103F1800086920F4004008610869D4F8BC6030439F
:103F28000861002B06DA0C48666DC16C21F040511F
:103F38003143C164180207D50749D4F88C004B6D8A
:103F480023F4400303434B65D10711D5024B9B6A09
:103F580003F00303032B01E00044025800F05C83E4
:103F6800002104F10800FFF7DDFB626800B1054697
:103F780093070ED5AF4B9B6A03F00303032B00F0A6
:103F88004D83012104F10800FFF7CCFB626800B102
:103F9800054657070ED5A74B9B6A03F00303032B6F
:103FA80000F03E83022104F10800FFF7BBFB6268C2
:103FB80000B1054616070ED59E4B9B6A03F0030316
:103FC800032B00F02383002104F12800FFF71AFCDB
:103FD800626800B10546D0060FD5964B9B6A03F080
:103FE8000303032B00F01483012104F12800FFF7D9
:103FF80009FC002840F05983626893060ED58D4B62
:104008009B6A03F00303032B00F0B782022104F13B
:104018002800FFF7F7FB002840F0AF82281E18BFE2
:104028000120BDE8F883D4F88010B1F5807F00F056
:10403800D28040F2108121F48070B0F5007F00F04A
:10404800CF80012545E7012635462DE77948C16A25
:1040580041F40031C162002D40F0CE80754F206FD1
:10406800396D21F040510143396598E501263546FF
:10407800E5E67049896A01F0030103293FF4DAADE6
:10408800012104F10800FFF74DFB0546D4E9003291
:10409800002D40F0D580674FE06F796D21F0380131
:1040A80001437965C8E56348C16A41F40031C162DA
:1040B800002D40F09F805F4FD4F88800796D21F47F
:1040C800401101437965CCE65B4F3B6843F480734C
:1040D8003B60FDF70FFF804606E0FDF70BFFA0EB06
:1040E8000800642800F2DB823B68DA05F5D5002D6C
:1040F80040F0D6824F4AD4F8B430116F594011F4C9
:10410800407F0BD0116F106F21F4407140F4803064
:104118001067106F20F4803010671167B3F5807F47
:1041280000F0FB8203F44072B2F5407F00F009838F
:1041380040490A6922F47C520A613E48C3F30B01E4
:10414800076F3943D4E90032016743E53948C16A4A
:1041580041F40031C1623546002D40F07781354F7A
:10416800A06D396D21F0070101433965FFF7F6BBF2
:104178003049896A01F00301032900F0BA8202215B
:1041880004F12800FFF73EFB002800F0B582D4F8C0
:1041980084000126D4E9003216E62649896A01F02E
:1041A8000301032900F0A282022104F12800FFF78D
:1041B80029FB002840F0A682D4F89800D4E9003200
:1041C80010E61C48C16A41F40031C162002D3FF479
:1041D80064AE2E4668E6174FF86A40F40030F8627D
:1041E800002D7FF476AE134D686D20F440700143C6
:1041F80069656DE62E4634E62E46D0E42E4645E443
:104208000C4FA06CF96C21F003010143F964DEE462
:10421800084FA06F796D21F00701014379652CE5FE
:104228002E4677E52E46AAE42E469CE52E4606E65F
:104238002E46C1E500440258004802582E4675E44F
:104248002E46F9E4C24FD4F89400B96D21F0070165
:104258000143B96535E500297FF4F3AEC0E7BC49F1
:10426800896A01F00301032900F09481022104F115
:104278002800FFF7C7FA0546D4E90032002DCFD150
:1042880040E5B349896A01F00301032900F0BA81C6
:10429800022104F12800FFF7B5FA0546D4E90032F7
:1042A800002DC1D157E5AA49896A01F00301032904
:1042B80000F08C81022104F12800FFF7A3FA0546DB
:1042C800D4E90032002DB3D16EE5A149896A01F025
:1042D8000301032900F0DF81022104F10800FFF740
:1042E80021FA0546D4E90032002D87D1FFF7C7BB74
:1042F8009749896A01F00301032900F00A82022123
:1043080004F10800FFF70EFA0546D4E90032002D43
:104318007FF45CAC74E78E49896A01F003010329D4
:1043280000F04681012104F12800FFF76BFA0546E9
:10433800D4E90032002D81D1FFF7F1BB8449896AA5
:1043480001F0030103293FF48AAD012104F128009B
:10435800FFF758FA0546D4E90032002D7FF44AAF3A
:10436800A9E67B49896A01F0030103293FF47EAE7F
:10437800022104F12800FFF745FA0546D4E9003286
:10438800002D7FF453AF52E57149896A01F00301AA
:10439800032900F02981012104F12800FFF732FAEE
:1043A8000546D4E90032002D7FF43CAFFFF7DFBBB0
:1043B8006748C16A41F40031C162002D3FF488ABFF
:1043C8002E46FFF78CBB6248C16A41F40031C162D6
:1043D800002D3FF438AB2E46FFF73DBB5C49896A98
:1043E80001F00301032900F02581002104F12800D0
:1043F800FFF708FA0546D4E90032FFF766BB5449CF
:10440800896A01F00301032900F03E81002104F1CB
:104418002800FFF7F7F90546D4E90032002D3FF4EC
:10442800BDAA2E46FFF7C1BA4949896A01F00301BE
:1044380003293FF491AA002104F10800FFF772F95B
:104448000546D4E90032002D3FF489AE2E46FFF729
:1044580085BA3F49896A01F0030103293FF47CAA20
:10446800002104F12800FFF7CDF90546D4E9003210
:1044780072E63749896A01F00301032900F0F980DF
:10448800002104F12800FFF7BDF90546D4E9003200
:10449800002D3FF4ADAA2E46FFF7B2BA2C49896A1F
:1044A80001F00301032900F0D180002104F1280064
:1044B800FFF7A8F90546D4E90032FFF7C1BA244945
:1044C800896A01F00301032900F0C880022128301D
:1044D800FFF798F90646FFF728BA1D48C16A41F464
:1044E8000031C162FFF781BA1948C16A41F400314D
:1044F800C162FFF750BA164DE86A40F40030E8622E
:10450800FFF717BA1249896A01F00301032900F07D
:10451800E580012104F12800FFF774F90546D4E984
:104528000032002D7FF4CCAB8CE60949896A01F092
:104538000301032900F0D680012104F12800FFF7C8
:1045480061F90546D4E90032002D7FF495AB5FE6AA
:10455800004402588349896A01F0030103293FF4A2
:1045680069AB012104F12800FFF74CF90546D4E9AD
:104578000032002D7FF464AE8DE50120BDE8F8839C
:1045880021F08050B0F1804F3FF4B9ABB1F1405FFA
:104598003FF4B5AB01263546FFF7BCBB21F48030AC
:1045A800B0F5802F3FF4B8AAB1F5403F3FF4B4AA64
:1045B80001263546FFF7BABA21F40050B0F5004F8E
:1045C8003FF4EFABB1F5C04F3FF4EBAB01263546F6
:1045D800FFF7F2BB21F08050B0F1804F3FF4C4AA3E
:1045E800B1F1405F3FF4C0AA01263546FFF7C7BACC
:1045F80021F48060B0F5805F3FF4AAABB1F5406F5D
:104608003FF4A6AB01263546FFF7ADBB0125E2E432
:104618009106B2D50125F2E40125A9E40125B8E403
:104628000125C7E4B1F5405F3FF44FAAB1F5804FCB
:104638003FF44BAA01263546FFF751BAB1F1407F46
:104648003FF4FEA9B1F1806F3FF4FAA9012635467F
:10465800FFF701BAB1F5401F3FF46BA90126FFF738
:104668006FB9B1F5C00F3FF4C0A9B1F5000F3FF421
:10467800BCA901263546FFF7C3B9C0293FF48BA969
:10468800B1F5807F3FF487A901263546FFF78DB93C
:1046980030293FF4F1A901263546FFF7F7B903257C
:1046A8002E46D4E90032FFF795BA63689A067FF57B
:1046B80064AF0546A3E42B49896A01F00301032985
:1046C8003FF46BAA012104F10800FFF72BF8054617
:1046D800D4E90032002D7FF48FADBFE401263546C2
:1046E800FFF7EFBA01263546FFF7C7BA0126FFF7ED
:1046F80079BB0126FFF768BBD4F88400D4E90032FF
:10470800FFF762BBD4F898000126D4E90032FFF71E
:1047180069BB01263546FFF75ABAFDF7EBFBDFF810
:104728004480074641F2883904E0FDF7E3FBC01BEB
:10473800484510D8D8F870309B07F6D5D4F8B4306F
:10474800F0E40848084A016902EA131221F47C518E
:104758000A430261F1E40326D4E900323546FFF743
:1047680039BA00BF00440258CFFFFF0008B5FEF772
:1047780009FF054B054A1B6AC3F30213D35C03F018
:104788001F03D84008BD00BF00440258F45A00086F
:104798002DE9F041594D0446AE6AAB6AD5F82C8034
:1047A80013F47C3FC3F30530EF6B61D0C7F3CC073C
:1047B800C8F30018FBF766FE014608FB07F00F4632
:1047C800FBF760FE4FF06451FBF7B4FE06F00303FD
:1047D8000646012B03D0022B70D0002B4DD0A86BBE
:1047E800C0F30800FBF74EFE4FF07E51FBF79AFD31
:1047F8003146FBF797FD394605464148FBF74EFF22
:1048080001462846FBF796FE05463C4EB06BC0F3C2
:104818004620FBF737FE4FF07E51FBF783FD01463C
:104828002846FBF73BFFFBF7D5FF2060B06BC0F3D2
:104838000640FBF727FE4FF07E51FBF773FD01465C
:104848002846FBF72BFFFBF7C5FF6060B06BC0F392
:104858000660FBF717FE4FF07E51FBF763FD01463C
:104868002846FBF71BFFFBF7B5FFA060BDE8F0810A
:10487800C4E90000A060BDE8F0812B689B062DD537
:104888002B682048C3F3C103D5F83880D840FBF71C
:10489800F9FD3946FBF702FF0546C8F30800FBF7A8
:1048A800F1FD4FF07E51FBF73DFD3146FBF73AFD38
:1048B80001462846FBF73EFE0546A6E7A86BC0F36F
:1048C8000800FBF7DFFD4FF07E51FBF72BFD31466B
:1048D800FBF728FD394605460B488FE7A86BC0F360
:1048E8000800FBF7CFFD4FF07E51FBF71BFD31466B
:1048F800FBF718FD3946054604487FE7004402588F
:104908000024744A0090D00320BCBE4B0024744C91
:104918002DE9F041594D0446AE6AAB6AD5F82C80B2
:1049280013F07C7FC3F305506F6C61D0C7F3CC07DD
:10493800C8F30028FBF7A6FD014608FB07F00F4661
:10494800FBF7A0FD4FF06451FBF7F4FD06F00303FD
:104958000646012B03D0022B70D0002B4DD0286CBB
:10496800C0F30800FBF78EFD4FF07E51FBF7DAFC31
:104978003146FBF7D7FC394605464148FBF78EFE22
:1049880001462846FBF7D6FD05463C4E306CC0F381
:104998004620FBF777FD4FF07E51FBF7C3FC01463D
:1049A8002846FBF77BFEFBF715FF2060306CC0F351
:1049B8000640FBF767FD4FF07E51FBF7B3FC01465D
:1049C8002846FBF76BFEFBF705FF6060306CC0F311
:1049D8000660FBF757FD4FF07E51FBF7A3FC01463D
:1049E8002846FBF75BFEFBF7F5FEA060BDE8F0810B
:1049F800C4E90000A060BDE8F0812B689B062DD5B6
:104A08002B682048C3F3C103D5F84080D840FBF792
:104A180039FD3946FBF742FE0546C8F30800FBF7A7
:104A280031FD4FF07E51FBF77DFC3146FBF77AFCF8
:104A380001462846FBF77EFD0546A6E7286CC0F32D
:104A48000800FBF71FFD4FF07E51FBF76BFC31466A
:104A5800FBF768FC394605460B488FE7286CC0F31E
:104A68000800FBF70FFD4FF07E51FBF75BFC31466A
:104A7800FBF758FC3946054604487FE700440258CE
:104A88000024744A0090D00320BCBE4B0024744C10
:104A980018B338B590F82C3004460D4603F0FF02E1
:104AA800B3B12146022384F82C3051F8040B00F0EE
:104AB80093FF62682946206800F0C4FF084A012174
:104AC8000020136843F00043136084F82C1038BDAD
:104AD80080F82D20FCF74AF9E3E70120704700BF72
:104AE80000400052002800F0C5802DE9F843044634
:104AF800664B00202268E1689A42A06216D0A3F5AE
:104B080078439A4212D003F580639A4200F0AA8053
:104B18000F2908D8E56B01F108036809DB0800FBD9
:104B28000333082B0AD90120BDE8F883574BE56BFE
:104B38009A426ED0A3F578439A426AD094F88130AD
:104B480003F0FF06002B00F082804FF000080223DC
:104B58006068D4F838E084F8813000F4800913687C
:104B680023F001031360936803F4F81CA369B3F1FD
:104B7800806F58D0B9F1000F01D0062960D81768A6
:104B880027F4807717600343676B41EA080143EA1B
:104B98000E033B43676A3B4327693B4367693B43D3
:104BA800276A3B43E76C3B43E7693943294341EABA
:104BB8000C019160A1680B43A16C0B43A16D0B43E1
:104BC800D360C0B9936823F4C05343F4006393607F
:104BD800936823F4C06343F480639360136D23F0F8
:104BE8000103136500230122C4F88430184684F8B1
:104BF8008120BDE8F883136D23F001031365B9F133
:104C0800000FEFD0D368616D23F000430B43D360EE
:104C1800E8E701F108036809DB0800FB0333102B00
:104C28008CD9012080E7B0F5800F25D00028A1D1CC
:104C3800BEF1805FA3D1176847F4805717609EE7DD
:104C48001768266D27F48077374317609BE720465F
:104C580084F88060FCF728FD2268E168D4F8288091
:104C6800E56B74E7E56B01F108036809DB0800FBF5
:104C78000333D4E701207047BEF1000F7FF47DAF06
:104C8800176847F48057176077E700BF0030014086
:104C9800002800F09580F8B590F83D30044603F000
:104CA800FF02002B00F08780236802224549464D09
:104CB800B3F1804FA3EB010184F83D20A3EB050E6F
:104CC8001A68B1FA81F1A069BEFA8EFEE7684FEA68
:104CD800511166684FEA5E1E1FD0F1B9DFF8ECC0CB
:104CE800634550D00CF5806C63454CD00CF5806C56
:104CF800634512D0BEF1000F0FD1354D35498B42B7
:104D080018BFAB4243D001F580618B423FD022F0FF
:104D18008002DF629E62104314E0A56822F07002F0
:104D2800D4F810C02A43DF629E6222F4407242EA3D
:104D38000C0222F08002104311B9BEF1000F2FD0EF
:104D480062691A631968012241F0040119605A6105
:104D58001860002084F8482084F83E2084F83F201A
:104D680084F8402084F8412084F8422084F84320C5
:104D780084F8442084F8452084F8462084F84720A5
:104D880084F83D20F8BD22F07002A1680A43216929
:104D980022F44072DF620A439E6222F080021043CE
:104DA8000D490B4A934218BF8B42C9D002F5806265
:104DB8009342C5D0C6E780F83C20FCF755FE73E760
:104DC8000120704700000140000401400004004039
:104DD800004001400044014000480140002800F024
:104DE800BC802DE9F04190F83D3004460D4603F0B3
:104DF800FF02002B00F0AC8023680221584A84F897
:104E08003D10B3F1804F9968564E02EA01025649A7
:104E1800A3EB0608A069A3EB01019A60B8FA88F829
:104E28001A68B1FA81F1D4F80CC04FEA58186768CB
:104E38004FEA511120D0F9B9DFF830E173456ED04F
:104E48000EF5806E73456AD00EF5806E734513D0EB
:104E5800B8F1000F10D1464E46498B4218BFB342F5
:104E680061D001F580618B425DD022F08002C3F8E9
:104E78002CC09F62104315E0A66822F07002D4F897
:104E880010E03243C3F82CC09F6222F4407242EA19
:104E98000E0222F08002104311B9B8F1000F4CD075
:104EA80062691A631A680126A96842F00402D5F8F3
:104EB80018C01A6041EA0C2C2A69E96912015E617E
:104EC800186042EA012298682B499F6939406F6946
:104ED8004CEA010CE9680A43196A21F0AA0E296A0A
:104EE80042EA013269682D6841EA0711284341EA1C
:104EF8000E01986021480CEA0000024300209A61E4
:104F0800196284F8486084F83E6084F83F6084F849
:104F1800446084F8456084F83D60BDE8F08122F083
:104F28007002A1680A43216922F44072C3F82CC0B8
:104F38000A439F6222F0800210430D490D4A9342B2
:104F480018BF8B42ACD002F580629342A8D0A9E783
:104F580080F83C20FCF728FD4EE70120704700BF91
:104F6800F8BFFEFF000401400000014000040040BB
:104F78000040014000440140FCFCFFFF0303FFFF29
:104F8800704700BF704700BF704700BF704700BF41
:104F9800704700BF036870B5DE6804461D69AA073C
:104FA80001D5B10752D46B0701D570073BD4290747
:104FB80001D5320725D4E80601D5F10611D4EA0750
:104FC80001D5F30764D415F4025F4CD0300667D4DA
:104FD800680601D571066DD4AA0601D5B3064ED46C
:104FE80070BD23686FF0100220461A6108222277EC
:104FF800DB6913F4407F71D0FFF7C6FF00232377E6
:10500800DDE723686FF0080220461A610422227740
:10501800DB699B075FD1FFF7B5FF2046FFF7B6FFB7
:1050280000232377C7E723686FF0040220461A613C
:10503800022222779B6913F4407F49D1FFF7A2FF30
:105048002046FFF7A3FF00232377B0E76FF00202A3
:105058001A61012202779B699A0733D0FFF794FF00
:10506800002323779FE7EA05B2D53306B0D5236836
:105078006FF4807220461A6100F094F8A8E723685C
:105088006FF0200220461A61BDE8704000F086B833
:1050980023686FF0010220461A61FFF771FF92E75B
:1050A80023686FF4025220461A6100F079F8E90586
:1050B8008ED5DCE723686FF0400220461A61FFF7BF
:1050C80067FF89E7FFF75EFF2046FFF75FFFC7E747
:1050D800FFF75AFFB7E7FFF757FFA1E7FFF752FFC0
:1050E8002046FFF753FF89E790F83C30012B4BD05F
:1050F80003680246022030B4244D82F83D00AB42DA
:1051080058689C6829D005F58065AB4225D0204DAC
:1051180020F07000AB4218BFB3F1804F05F58065F1
:105128000CBF4FF0010C4FF0000CAB4208BF4CF025
:10513800010C05F58065AB4208BF4CF0010C0D6809
:105148002843144D5860AB4214BF60464CF0010030
:1051580060B91148834209D00DE04D6820F4700011
:1051680028430D6820F0700028435860896824F0AF
:1051780080040C439C6000230121184682F83D10EE
:1051880082F83C3030BC7047022070470000014074
:10519800000400400018004000400140704700BF74
:1051A800704700BF704700BF0169826803680A43FF
:1051B80070B504461D68C06986B061690A43A04994
:1051C80002432940656A0A43E1681A605A6822F472
:1051D80040520A43A1695A609A4A934200F01981E1
:1051E800226A9E681143984A324011439960DA6AEC
:1051F80022F00F022A43DA62944A934228D0944A52
:1052080093421AD0934A934217D0934A934214D0A8
:10521800924A934211D0924A934219D0914A9342AA
:105228000BD0914A934208D0012000234FF001127D
:105238006367A266A36706B070BD8C4B5B6D03F015
:105248000703052BF0D8DFE803F09E7E89915F788D
:10525800864B5B6D03F03803282BE5D801A252F882
:1052680023F000BFE953000831520008315200080A
:1052780031520008315200083152000831520008FA
:10528800315200084F5300083152000831520008CB
:1052980031520008315200083152000831520008DA
:1052A8003152000865530008315200083152000895
:1052B80031520008315200083152000831520008BA
:1052C8003152000875530008315200083152000865
:1052D800315200083152000831520008315200089A
:1052E80031520008115300083152000831520008A9
:1052F800315200083152000831520008315200087A
:105308003152000843530008B0F5004F584847D0C1
:10531800584A636832F815104FF6EF72B0FBF1F097
:1053280000EB5300B0FBF3F0A0F1100393423FF6FB
:105338007BAF2368D860002077E7B0F5004F2FD007
:105348004FF40040E4E7B0F5004F22D06846FFF77D
:105358001FFA01980028EED0656AD9E7B0F5004F2A
:105368004FD003A8FFF7D4FA0498F3E7B0F5004F3D
:105378003CD03E4B1A6891062DD51B683E48C3F3B6
:10538800C103D840C4E7B0F5004F26D0FEF73AF97C
:10539800E0E76846FFF7FCF901980028CBD0656A7A
:1053A800344B626833F815105308B0FBF1F003EB87
:1053B80040034FF6EF71B3FBF2F3A3F110028A42F8
:1053C8003FF632AF23F00F02C3F34203216892B2D3
:1053D8001343CB60AFE728489AE7FEF713F9DCE7F9
:1053E800B0F5004F12D0FEF755F9B3E71F4B1A6816
:1053F800900640F18B801B681F48C3F3C103D84057
:10540800CEE703A8FFF784FA0498C6E7FEF742F947
:10541800C3E798680C4A02400A4314499A60DA6A5A
:1054280022F00F022A43DA628B6D03F00703052B83
:105438003FF6FAAEDFE803F05C574E22625F00BF2A
:10544800F369FFCF000C0058FFF4FF110010014072
:105458000044004000480040004C0040005000401C
:105468000014014000780040007C004000440258CD
:1054780000093D00245B00080090D003244B1A6803
:1054880092063DD42348244B666833F8152006EB72
:105498004601B0FBF2F399423FF6C6AEB3EB063FC6
:1054A8003FF6C2AE00231946FBF7B4F932460902AB
:1054B800030241EA1061700818184FF0000341F127
:1054C8000001FBF7A7F9154BA0F540729A423FF689
:1054D800ABAE2EE703A8FFF71BFA049800283FF4A9
:1054E8002AAF656ACFE76846FFF752F90198F5E7F2
:1054F800FFF73CF9F2E74FF40040C4E70848C2E779
:105508001B680448C3F3C103D840BCE7014847E718
:10551800004402580090D003245B0008FFFC0F00F1
:1055280000093D00836A1A0710B406D50168846B28
:105538004A6822F4004222434A60DC0706D5016823
:10554800C46A4A6822F4003222434A60990706D5A1
:105558000168046B4A6822F4803222434A605A0781
:1055680006D50168446B4A6822F4802222434A60C7
:10557800DC0606D50168C46B8A6822F4805222438F
:105588008A60990606D50168046C8A6822F400527C
:1055980022438A605A060AD50168446C4A68B4F501
:1055A800801F22F4801242EA04024A600AD01B06D5
:1055B80006D50268C16C536823F400230B4353607B
:1055C80010BC70474A68846C22F4C00222434A60C7
:1055D800EDE700BF38B500230446C0F89030FCF76B
:1055E80089FC2268054613681B070FD413685907FE
:1055F80031D4002320221846C4F88820C4F88C200F
:10560800E3662367002384F8843038BDD3699802A1
:10561800ECD40CE019681A46490705D5D96908077A
:105628004AD4D969090575D4DB699802DED4FCF738
:1056380061FC431BB3F1007F2368EBD353E8002FD1
:1056480022F0800243E800210029F7D12023C4F882
:1056580088300320D6E7D3695B02CAD40DE01A6804
:10566800500707D5DA69110700F18280DA69120557
:1056780000F1AC80DB695B02BBD4FCF73BFC431B4D
:10568800B3F1007F2368EAD353E8002F22F4907225
:1056980043E800210029F7D103F1080252E8002F5E
:1056A80022F0010203F1080040E800210029F3D1AB
:1056B8002023C4F88C30CCE708221A6253E8002F64
:1056C80022F4907243E800210029F7D1564803F1EB
:1056D800080252E8002F024003F1080545E80021BE
:1056E8000029F4D1E26E012A0BD0002220200821E3
:1056F800C4F88C006267E26684F88420C4F89010CD
:105708009CE753E8002F22F0100243E8002100290B
:10571800F7D1EAE74FF400621A6253E8002F22F447
:10572800907243E800210029F7D13F4803F10802AD
:1057380052E8002F024003F1080545E8002100293E
:10574800F4D1E26E012A0AD0002220216267C4F84F
:105758008C1084F88420E266C4F890106EE753E851
:10576800002F22F0100243E800210029F7D1EBE7CF
:1057780008221A6253E8002F22F4907243E80021AD
:105788000029F7D1284803F1080252E8002F024007
:1057980003F1080545E800210029F4D1E26E012A49
:1057A8000BD0002220200821C4F88C006267E26632
:1057B80084F88420C4F8901066E753E8002F22F09C
:1057C800100243E800210029F7D1EAE74FF400620C
:1057D8001A6253E8002F22F4907243E8002100294E
:1057E800F7D1114803F1080252E8002F024003F1F3
:1057F800080545E800210029F4D1E26E012A0AD003
:10580800002220216267C4F88C1084F88420E266A4
:10581800C4F8901038E753E8002F22F0100243E84C
:1058280000210029F7D1EBE7FEFFFFEF80B3D0F8A6
:10583800883010B5044633B322682423A16AC4F81B
:105848008830136823F001031360C1B92046FFF7BD
:10585800ABFC012811D0236820465A6822F49042F4
:105868005A609A6822F02A029A601A6842F0010285
:10587800BDE810401A60FFF7ADBE012010BD2046FC
:10588800FFF750FEE2E780F88430FCF7DDF9D3E754
:105898000120704790F88420012A17D00268034637
:1058A8002420002130B4C3F888002025106814682B
:1058B80020F0005024F00104146059661060084676
:1058C800C3F8885083F8841030BC704702207047B2
:1058D80090F88420012A37D002680346242030B586
:1058E800C3F888001468106820F001001060906800
:1058F80020F060400143586E916010B39168906841
:10590800C1F3426C11494FEA507E114D11F80E0057
:1059180011F80C1015F80EE0000115F80C500901EB
:10592800B0FBFEF0B1FBF5F1A3F8681020250021CB
:10593800A3F86A0014600846C3F8885083F88410F6
:1059480030BD01210846EFE702207047445B00089C
:105958003C5B000890F88420012A37D0026803468F
:10596800242030B5C3F888001468106820F00100BE
:105978001060906820F060600143586E916010B329
:1059880091689068C1F3426C11494FEA507E114DFD
:1059980011F80E0011F80C1015F80EE0000115F8BA
:1059A8000C500901B0FBFEF0B1FBF5F1A3F868104B
:1059B80020250021A3F86A0014600846C3F888501F
:1059C80083F8841030BD01210846EFE702207047B4
:1059D800445B00083C5B00082DE9F041D1E9073E33
:1059E800D1E900824F6A43EA0E03D1E902C6D1E940
:1059F80004548969B8F1000F0FD13B43134302687F
:105A080043EA0C036FF30E0233432B4323430B4348
:105A1800134303600020BDE8F08142EA0C023B43D7
:105A280032432A4322430A43016821F4F8410B43D5
:105A3800036043686FF30E03134343600020BDE81F
:105A4800F08100BFF0B5CC684B69013C8D688F6967
:105A5800013B4FEA043E4C680E68013D013C1B05C2
:105A68002D02013E4FEA041C0C69791E013C09060F
:105A7800240472B94EEA03038268334302F0704289
:105A880043EA0C032B4323430B4313438360002057
:105A9800F0BD4EEA030E4CEA0503084A334323439C
:105AA8000B4381680A404EEA02028260C26802F033
:105AB80070421343C3600020F0BD00BFFF0F0FFF0B
:105AC800024B13B10248FBF797B87047000000007B
