:020000040800F2
:1000000000000220BD1E0008691800086D180008D5
:100010007118000875180008791800080000000021
:100020000000000000000000000000007D18000833
:1000300081180008000000008518000889180008D1
:100040000D1F00080D1F00080D1F00080D1F0008E0
:100050000D1F00080D1F00080D1F00080D1F0008D0
:100060000D1F00080D1F00080D1F00088D18000847
:1000700099180008A51800080D1F00080D1F00089A
:100080000D1F00080D1F00080D1F00080D1F0008A0
:10009000B11800080D1F00080D1F00080D1F0008F3
:1000A0000D1F00080D1F00080D1F00080D1F000880
:1000B000BD180008C9180008D51800080D1F000851
:1000C0000D1F00080D1F00080D1F00080D1F000860
:1000D0000D1F00080D1F00080D1F00080D1F000850
:1000E0000D1F00080D1F00080D1F00080D1F000840
:1000F0000D1F00080D1F00080D1F00080D1F000830
:100100000D1F00080D1F00080D1F00080D1F00081F
:100110000D1F00080D1F00080D1F00080D1F00080F
:100120000D1F00080D1F00080D1F00080D1F0008FF
:100130000D1F00080D1F00080D1F00080D1F0008EF
:100140000D1F00080D1F00080D1F00080D1F0008DF
:10015000E11800080D1F00080D1F00080D1F000802
:100160000D1F0008ED1800080D1F00080D1F0008E6
:100170000D1F00080D1F00080D1F00080D1F0008AF
:100180000D1F00080D1F00080D1F00080D1F00089F
:100190000D1F0008000000000D1F00080D1F0008C3
:1001A0000D1F00080D1F00080D1F00080D1F00087F
:1001B0000D1F00080D1F00080D1F00080D1F00086F
:1001C0000D1F00080D1F00080D1F00080D1F00085F
:0801D0000D1F00080D1F0008BF
:100200000348044B834202D0034B03B118477047A5
:10021000B4020020B4020020000000000548064B94
:100220001B1AD90F01EBA301491002D0034B03B1F4
:1002300018477047B4020020B402002000000000FC
:1002400010B5064C237843B9FFF7DAFF044B13B11E
:100250000448AFF300800123237010BDB8020020D2
:100260000000000064C7000808B5044B1BB1044936
:100270000448AFF30080BDE80840CFE7000000006D
:10028000BC02002064C7000808B52DED028BB0EE5B
:10029000408A00F02FF8B4EE488AF1EE10FA0FD63B
:1002A000B5EEC08AF1EE10FA0ADCB5EE408AF1EE46
:1002B00010FA08D100F0E2FB22239FED090A036047
:1002C000BDEC028B08BD00F0D9FBBDEC028B0346F0
:1002D00021221A600348BDE8084000F005B800BFBD
:1002E000000080FF24C800089FED010A704700BF8E
:1002F0000000C07F10EE102A32F000432FD0002AF9
:10030000134633DBB2F1FF4F40DAB2F5000F34DBB6
:100310004FF0000C6448C3F31601084400F40002D7
:1003200082F07E520A43DB1500EE102A7F3B5F4AC3
:10033000634401F10F0CF7EE007A0CEA020230EE92
:10034000670A03EBD05322BBB5EE400AF1EE10FA78
:1003500062D1002B40F090809FED550A70479FEDD1
:10036000557ADFED537A87EE270A704770EE407AB0
:100370009FED4F7A87EE870A7047DFED4F7A60EE88
:10038000277A6FF0180C17EE903AC3E730EE000AA8
:100390007047F0EE007A70EE277A07EE103A80EEA2
:1003A000274A4648C1F55712084402F52272024313
:1003B000002A9FED433ADFED434ADFED435ADFED7C
:1003C000433A9FED435ADFED437ADFED436A24EE73
:1003D000046AF8EEC72A26EE067AE7EE034AA7EE8D
:1003E000235AE4EE875AE5EE076AE5EE877A67EE70
:1003F000867AE6EE877A2ADDB6EE007A20EE077A74
:1004000027EE007A77EE877A67EE847A3BBB37EE89
:10041000677A30EE470A70479FED307AF6EE007A41
:10042000E0EE477A20EE007A27EE277A002BF0D014
:1004300007EE903A9FED2A6ADFED2A6AF8EEE77A36
:10044000A7EEC67A37EE400A97EEA60A704770EE1E
:10045000677A67EE847AE3B930EE670A70479FEDFA
:10046000206ADFED206AE2EE867A37EE677A37EEB1
:10047000400A92EEA60A704707EE903A9FED180ADE
:100480009FED187AF8EEE77A27EE800AA7EE870A42
:100490007047DFED136A9FED137AE2EEE67A37EEEE
:1004A000C00A92EE870A704720FB4A00F0FF7F00E7
:1004B00000000000000000CC0000004C305CCFFFCA
:1004C0009788173E25333A3E2549923E4FD01C3E31
:1004D000298E633EABAA2A3FCDCCCC3EABAAAA3E26
:1004E000D1F717378071313F53B94AB9002908BF96
:1004F00000281CBF4FF0FF314FF0FF3000F06AB909
:10050000ADF1080C6DE904CE00F006F8DDF804E06A
:10051000DDE9022304B070472DE9F047089D0E463F
:1005200004460F46002B4AD194468C45B2FA82F21B
:1005300060D942B1C2F12003974020FA03F30CFACC
:1005400002FC1F4394404FEA1C4E1FFA8CF6B7FB87
:10055000FEF1230C0EFB117743EA074301FB06F083
:1005600098420AD91CEB030301F1FF3780F0158193
:10057000984240F21281023963441B1AA4B2B3FBC1
:10058000FEF00EFB103344EA034400FB06F6A642DD
:100590000AD91CEB040400F1FF3380F00081A6426D
:1005A00040F2FD806444023840EA0140A41B00216F
:1005B0001DB1D4400023C5E90043BDE8F0878B425C
:1005C00005D90DB1C5E9000100210846F5E7B3FAE8
:1005D00083F1002946D1B34202D3824200F2F58072
:1005E000841A66EB030201201746002DE5D0C5E909
:1005F0000047E2E7002A40F09380A1EB0C034FEAAA
:100600001C471FFA8CFE0121B3FBF7F607FB1630DF
:10061000230C43EA00430EFB06F0984208D91CEB7A
:10062000030306F1FF3802D2984200F2D08046461A
:100630001B1AA4B2B3FBF7F007FB103344EA0344E0
:100640000EFB00FEA64508D91CEB040400F1FF33A5
:1006500002D2A64500F2B6801846A4EB0E0440EA8A
:100660000640A5E7C1F120078B4022FA07FC4CEABF
:10067000030C06FA01FE20FA07F426FA07F344EA0F
:100680000E0400FA01F84FEA1C404FEA1449B3FB8C
:10069000F0FE1FFA8CF600FB1E3349EA03430EFB03
:1006A00006F9994502FA01F20BD91CEB03030EF18E
:1006B000FF3A80F08580994540F28280AEF1020ECB
:1006C0006344A3EB0909A4B2B9FBF0F300FB13994F
:1006D00044EA094403FB06F6A64208D91CEB0404CD
:1006E00003F1FF3068D2A64266D9023B644443EA74
:1006F0000E40A41BA0FB02E6B4427346B14652D39F
:100700004FD05DB1B8EB030264EB090404FA07F7BC
:1007100022FA01F31F43CC40C5E9007400214CE7E5
:10072000C2F1200120FA01F30CFA02FC26FA01F1D1
:10073000964033434FEA1C471FFA8CFEB1FBF7F09B
:1007400007FB1016190C41EA064100FB0EF68E421B
:1007500004FA02F408D91CEB010100F1FF382DD294
:100760008E422BD902386144891B9BB2B1FBF7F64C
:1007700007FB161143EA014306FB0EF1994208D923
:100780001CEB030306F1FF3814D2994212D9023E42
:1007900063445B1A46EA004136E73946EDE61846FF
:1007A00002E7F045ADD2BEEB020366EB0C06013862
:1007B000B146A6E74646ECE7034698E74046D3E74E
:1007C000D6467EE76444023847E708460DE7023E16
:1007D00063442DE7704700BF0000000000000000E8
:1007E0000000000000000000000000000000000009
:1007F00000000000000000000000000000000000F9
:1008000030B490F800F020F007016FF0000C10F009
:10081000070491F820F040F048804FF000046FF09A
:100820000700D1E9002391F840F000F1080082FAB6
:100830004CF2A4FA8CF283FA4CF3A2FA8CF34BBB81
:10084000D1E9022382FA4CF200F10800A4FA8CF2FA
:1008500083FA4CF3A2FA8CF3E3B9D1E9042382FAC8
:100860004CF200F10800A4FA8CF283FA4CF3A2FADD
:100870008CF37BB9D1E9062301F1200182FA4CF215
:1008800000F10800A4FA8CF283FA4CF3A2FA8CF37C
:10089000002BC6D0002A04BF04301A4612BAB2FA9E
:1008A00082F200EBD20030BC7047D1E9002304F0A3
:1008B0000305C4F100004FEAC50514F0040F91F8D8
:1008C00040F00CFA05F562EA05021CBF63EA050375
:1008D00062464FF00004AAE7830730B547D0541EA4
:1008E000002A3ED0CAB2034601E0013C39D303F8E6
:1008F000012B9D07F9D1032C2CD9CDB205EB052591
:100900000F2C05EB054535D9A4F1100222F00F0C90
:1009100003F1100EE6444FEA121C1A46C2E90055D4
:10092000C2E9025510327245F8D10CF1010214F0FF
:100930000C0F03EB021204F00F0C13D0ACF1040304
:1009400023F003030433134442F8045B9342FBD1C6
:100950000CF003042CB1C9B21C4403F8011BA342E0
:10096000FBD130BD64461346002CF4D1F9E70346B1
:100970001446C0E71A46A446E0E700BF88420ED9F5
:100980008B1883420BD900EB020C002A6ED0624612
:1009900013F801CD02F801CD9942F9D170470F2A21
:1009A0000FD8034602F1FF3C002A5FD00CF1010C86
:1009B000013B8C4411F8012B03F8012F6145F9D15B
:1009C000704740EA01039B0751D1A2F1100370B5B3
:1009D00001F1200C23F00F0501F1100E00F11004BD
:1009E000AC441B095EF8105C44F8105C5EF80C5CCB
:1009F00044F80C5C5EF8085C44F8085C5EF8045C43
:100A000044F8045C0EF1100EE64504F11004E9D13F
:100A1000013312F00C0F01EB031102F00F0400EB95
:100A2000031328D0043C24F003064FEA940C1E4420
:100A30001C1F8E465EF8045B44F8045FB442F9D193
:100A40000CF1010402F0030203EB840301EB8401C7
:100A500002F1FF3C4AB10CF1010C013B8C4411F84E
:100A6000012B03F8012F6145F9D170BD704702F1E8
:100A7000FF3C03469AE72246EAE700BF014B1868AD
:100A8000704700BF00000020844641EA000313F0D5
:100A900003036DD1403A41D351F8043B40F8043B85
:100AA00051F8043B40F8043B51F8043B40F8043B48
:100AB00051F8043B40F8043B51F8043B40F8043B38
:100AC00051F8043B40F8043B51F8043B40F8043B28
:100AD00051F8043B40F8043B51F8043B40F8043B18
:100AE00051F8043B40F8043B51F8043B40F8043B08
:100AF00051F8043B40F8043B51F8043B40F8043BF8
:100B000051F8043B40F8043B51F8043B40F8043BE7
:100B100051F8043B40F8043B403ABDD2303211D387
:100B200051F8043B40F8043B51F8043B40F8043BC7
:100B300051F8043B40F8043B51F8043B40F8043BB7
:100B4000103AEDD20C3205D351F8043B40F8043B87
:100B5000043AF9D2043208D0D2071CBF11F8013B85
:100B600000F8013B01D30B8803806046704700BF4B
:100B7000082A13D38B078DD010F003038AD0C3F15A
:100B80000403D21ADB071CBF11F8013B00F8013B3C
:100B900080D331F8023B20F8023B7BE7043AD9D3FB
:100BA000013A11F8013B00F8013BF9D20B780370D0
:100BB0004B7843708B7883706046704770B50F4BED
:100BC0000F4DAB42A3EB050607D0B610002455F835
:100BD000043B01349847A642F9D80BF0C3FD094DF8
:100BE000094B5E1BAB424FEAA60606D0002455F81F
:100BF000043B01349847A642F9D870BD00C90008EB
:100C000000C9000800C9000808C9000800230146FF
:100C10001A46184600F014B838B5074D074C2C1B7F
:100C2000A41005D0013C55F8043D9847002CF9D19B
:100C3000BDE838400BF09CBD0CC9000808C900088D
:100C400070B4164D2C681CB365681F2D23DC38B9B1
:100C5000AB1C0135656044F82310002070BC704760
:100C600004EB850C0228CCF88820D4F888614FF07A
:100C7000010202FA05F246EA0206C4F88861CCF8DD
:100C80000831E5D1D4F88C311343C4F88C31DFE757
:100C9000034C2C60D8E74FF0FF30DFE71004002052
:100CA0001404002030B500248DB020252A462146AA
:100CB00004A8CDE901440394FFF70EFE3748012351
:100CC000436180F8383080F84030036504230362C4
:100CD00043644FF0A0424FF44033C0E9002308239F
:100CE000C0E902440461848380F82440C4648361C1
:100CF0004FF4D4644FF48063C0E90B434FF4805346
:100D00008564C36301F05EF9002834D100232348D1
:100D1000019301A902F08EF800283CD120491F4818
:100D20000622CDE9041200237F24042204A9CDE980
:100D30000634CDE9082301F037FB48BB194A1748B0
:100D40000C2304A9CDE9042301F02EFBE8B9164ACF
:100D50001248122304A9CDE9042301F025FB88B928
:100D6000124A0E48182304A9CDE9042301F01CFB04
:100D700020B90DB030BD00F0C7FCC7E700F0C4FCDF
:100D80000DB030BD00F0C0FCEAE700F0BDFCDEE7CE
:100D900000F0BAFCD2E700F0B7FCBFE7E0060020A5
:100DA00002003004040060080800900C1000C0101D
:100DB00010B588B0202200216846FFF78DFD1E4C3B
:100DC0001E484FF44031C0E90041042181614FF4D5
:100DD0008051C1631C210023012241648021C0E9AC
:100DE0000233C0E90433C0E90B33C0E91213838333
:100DF000026280F8243080F8383080F840200265A4
:100E000001F0E0F888B90E480622CDE9000200237F
:100E10007F24042209486946CDE90234CDE9042340
:100E200001F0C2FA20B908B010BD00F06DFCEAE78D
:100E300000F06AFC08B010BD0001005074060020EC
:100E40000000524710B588B0202200216846FFF705
:100E500043FD1E4C1E484FF44031C0E900410421BF
:100E600081614FF48051C163142100230122416448
:100E70006021C0E90233C0E90433C0E90B33C0E9A3
:100E800012138383026280F8243080F8383080F8AF
:100E90004020026501F096F888B90E480622CDE997
:100EA000000200237F24042209486946CDE9023468
:100EB000CDE9042301F078FA20B908B010BD00F0A4
:100EC00023FCEAE700F020FC08B010BD000600504B
:100ED000080600201000C09070B50446A0B00021A4
:100EE00054220BA8CDE90611CDE908110A91FFF7AC
:100EF000F3FC2368B3F1A04F08D0554A934253D076
:100F0000544A934200F0828020B070BD4FF40042FA
:100F10004FF000530BA80B921C9305F0F9F8002832
:100F200040F08A804C4A13680133012B136009D1C9
:100F30004A4BDA6C42F40052DA64DB6C03F400537F
:100F40000193019B454B464DDA6C42F00102DA6495
:100F5000DB6C03F0010302930F2206A90323002692
:100F60004FF09040CDE906230896029B02F0B6F9B7
:100F70003C4A0523C5E9002380234FF480712B618F
:100F80004FF48063C5E9051320224FF4005328462F
:100F9000C5E90266C5E9072302F068F800284ED1CA
:100FA0006565AC6220B070BD4FF400424FF0005355
:100FB0000BA80B921C9305F0ABF8002842D1264AEF
:100FC00013680133012B136009D1244BDA6C42F40E
:100FD0000052DA64DB6C03F400530393039B1F4B52
:100FE000DA6C42F00102DA64DB6C03F00103049373
:100FF00010240023032506A94FF09040CDE90645B3
:10100000049A089302F06AF920B070BD4FF4803260
:101010004FF000430BA80B921D9305F079F8A0B98F
:101020000E4BDA6C42F48042DA64DB6C03F48043EA
:101030000593059B20B070BD00F066FB72E700F0E1
:1010400063FBADE700F060FBB9E700F05DFBE7E7AD
:101050000001005000060050A405002000100240CE
:10106000A805002008000240174B10B5986C40F00E
:10107000040098649C6C82B004F004040094009C0A
:101080009C6C44F001049C649B6C002203F00103FF
:10109000114601930B20019B01F084FF0B2001F00E
:1010A000BDFF002211460C2001F07CFF0C2001F056
:1010B000B5FF002211460D2001F074FF0D2002B093
:1010C000BDE8104001F0AABF00100240F0B50024B6
:1010D0008DB0CDE90644CDE90844334B0A94D96C70
:1010E000324F334E41F00401D964D96C01F0040150
:1010F00001910199D96C41F02001D964D96C01F0BA
:10110000200102910299D96C41F00101D964D96C96
:1011100001F0010103910399D96C41F00201D964F6
:10112000D96C01F0020104910499D96C41F00801D5
:10113000D964DB6C03F00803224605934FF40041A9
:101140004FF09040059B02F087FA22463846042172
:1011500002F082FA22463046B82102F07DFA0024DD
:1011600000254FF40042012306A94FF09040CDE93D
:101170000623CDE9084502F0B1F8384606A9042255
:101180000123CDE90623CDE9084502F0A7F8B822EE
:10119000012306A93046CDE90845CDE9062302F032
:1011A0009DF80DB0F0BD00BF00100240000C0048DB
:1011B00000040048124B02689A4200D0704703F5C1
:1011C000284300B5186E40F0806018661B6E83B02F
:1011D000002203F08063114601934420019B01F03B
:1011E000E1FE442001F01AFF00221146492001F0DF
:1011F000D9FE492003B05DF804EB01F00FBF00BF3A
:101200000068014070B51E4B026888B000249A4205
:10121000CDE90244CDE90444069401D008B070BD84
:1012200003F528430326DA6C164842F00202DA641A
:10123000DA6C02F002020092009ADA6C42F00102CB
:10124000DA64DB6C03F0010301934FF440420D2597
:1012500002A90223CDE90223CDE90565019B02F035
:101260003DF84FF44073029302A902234FF09040DF
:10127000CDE904460393069502F030F808B070BD3E
:10128000006801400004004810B50024BCB0602292
:10129000214624A8CDE90744CDE90B44CDE90D440E
:1012A000CDE90F44009406940A9401940994FFF741
:1012B00013FB242221461BA8CDE903440594FFF724
:1012C0000BFB2022214612A8FFF706FBAE48AF4BCE
:1012D0000360C0E9014402F0CFF9002840F0FC802F
:1012E000A9480C2102F042FA002840F0FE80A648EE
:1012F0000A2102F073FA002840F000819FED9C7BE8
:10130000A1486A4601218DED007B02F0C3FA002856
:1013100040F02B819C480022012102F0E3FB0028D1
:1013200040F0208146F2905300210693964808230E
:1013300006AACDE90711099302F076FA002840F0D9
:101340000E819FED8D7B00218F480A910AAA8DEDB9
:101350000C7B109102F0DAFD002840F0FD80102394
:101360009FED877B2493012328934FF00063002196
:101370002E93854827914FF0005324AACDE92511DB
:10138000CDE92911CDE92B11CDE92F11CDE932118C
:10139000CDE93811CDE93A118DED347B2D9136919F
:1013A000319302F03BFC002840F0D3809FED727B2C
:1013B00000237548249324AA03218DED347B2E93BA
:1013C0003193369302F02AFC002840F0BF8043F2AC
:1013D000C82303936C4803AB0122002102F05EFE98
:1013E000002840F0B08041F664130393664803ABD5
:1013F0000422002102F052FE002840F0A180642364
:101400001C934FF4004C4FF480430021CDE91EC3E0
:101410004FF0004E4FF080435B481B911BAACDE973
:101420002011CDE922E31D9102F0EAFD002840F0F1
:1014300084806423544820931BAA032102F0E0FD1A
:10144000002877D1042008230021CDE913030122CD
:101450004D48129112ABCDE91511CDE91711199133
:1014600002F0DCFE002862D1474812AB4022032183
:1014700002F0D4FE002857D108220423CDE913231B
:10148000414812AB0222002102F0C8FE002848D1D8
:101490003D4812AB8022032102F0C0FE00283DD15E
:1014A000394806AA032102F0BFF9002833D1364893
:1014B0000AAA032102F02AFD50BB4FF4827432487D
:1014C000039403AB0122032102F0E8FDC8B92E48C2
:1014D000FFF798FE3CB010BD00F016F92A480C2129
:1014E00002F044F900283FF402AF00F00DF926485D
:1014F0000A2102F073F900283FF400AF00F004F96C
:10150000FCE600F001F92048FFF77CFE3CB010BD7E
:1015100000F0FAF8D1E700F0F7F8C8E700F0F4F8C7
:10152000BEE700F0F1F8B3E700F0EEF8A4E700F052
:10153000EBF899E700F0E8F884E700F0E5F878E7E1
:1015400000F0E2F85BE700F0DFF84CE700F0DCF8D1
:101550003DE700F0D9F829E700F0D6F8FFE600F003
:10156000D3F8EEE600F0D0F8DCE600F0CDF8D1E6F6
:101570000000010000080000000000000000000062
:1015800000000080000100005007002000680140BA
:101590000848094908B503224FF47A73C0E90123CA
:1015A0000160C36003F04CF900B908BDBDE8084014
:1015B00000F0AAB8500800200030004010B594B0E8
:1015C0003822002106A8FFF787F90020CDE90100A5
:1015D000CDE903000590032404F07AF902230122E7
:1015E0002920CDE90B22CDE90D344FF48031119340
:1015F000139305224423CDE90601CDE90F2306A864
:101600000623129304F0DEF908B172B6FEE7042156
:1016100003460F220DEB0100CDE90124CDE9033390
:10162000059304F04DFC08B172B6FEE714B010BD8E
:1016300008B500F093FCFFF7C1FFFFF747FDFFF788
:1016400013FDFFF721FEFFF72DFBFFF7B1FBFFF7BF
:10165000F9FBFFF79DFF00F059F800F0CDF908F015
:1016600009FB00F053F900F08BF900F001FA00F0EB
:1016700015FB00F057FB0948094C0122802101F0BD
:10168000EBFF084808F0D6FD204603F007F909F003
:10169000B1FB012000F084FCF6E700BF0004004825
:1016A0005008002060080020034B834200D07047A0
:1016B0000029FCD108F07EBF5007002008B5036860
:1016C000B3F1804F00D008BD0A4803F0E7F80A4B99
:1016D0000A481A680A4901321A601B6800FB03F3C2
:1016E000B1EBB30FEFD3BDE808400648202101F06D
:1016F000B9BF00BF5008002068080020D578E9264F
:101700006E1283000004004872B6FEE710B511485F
:10171000114C4FF482720023C0E900424FF4E061A3
:101720004FF40072C0E902311024826107210822BF
:10173000C0E90433C0E90743C0E90933C0E90B132A
:10174000426304F091FF00B910BDBDE81040FFF7FF
:10175000DBBF00BF30090020003C004070B52F4BBC
:10176000026888B000249A42CDE90244CDE90444DD
:10177000069401D008B070BD03F5EA3305469A6DB2
:10178000274E42F400429A659A6D02F4004200929C
:10179000009ADA6C42F00402DA64DB6C03F00403B2
:1017A00001934FF4E0520223CDE9022301981D4832
:1017B0000322062302A9CDE9052301F08FFD1A4A71
:1017C00034620E23C6E9002330468023C6E9024472
:1017D000C6E90434C6E9064401F048FCC0B9134C1C
:1017E0001349AE650F220023C4E9001220461021E0
:1017F0008022C4E90213C4E90533C4E90733B562A2
:10180000226101F033FC30B96C65A56208B070BD8F
:10181000FFF77AFFE3E7FFF777FFF5E7003C0040CB
:10182000CC080020000800481C0002406C08002082
:10183000300002400B4B1A6E42F001021A661A6E1B
:1018400082B002F001020092009A9A6D42F080523A
:101850009A659B6D03F080530193019B02B004F0E5
:10186000A9B800BF00100240FEE700BFFEE700BFBE
:10187000FEE700BFFEE700BFFEE700BF704700BF06
:10188000704700BF704700BF00F078BB014801F00F
:10189000D7BC00BFA8050020014801F0D1BC00BFA3
:1018A000CC080020014801F0CBBC00BF6C08002030
:1018B000014803F0F9B800BFFC220020014805F000
:1018C000BFBF00BF880A0020014805F0B9BF00BFB4
:1018D000380A0020014805F0B3BF00BFE809002026
:1018E0000148002102F0E4BD500700200148FF211B
:1018F00002F0DEBD50070020034AD2F8883043F4DE
:101900007003C2F88830704700ED00E000B51B4856
:101910004FF080420260A922002389B0426040F269
:10192000E732C0E902328022CDE90433CDE9063343
:10193000CDE9013303930361826105F081FC90B925
:101940004FF480530D48049304A905F097FE90B915
:1019500000230A48019301A9039306F085F928B9E9
:1019600009B05DF804FBFFF7CFFEE9E7FFF7CCFE17
:1019700009B05DF804FBFFF7C7FEE9E7880A00201D
:1019800000B51B481B4A0260A922002389B04260AF
:1019900041F28732C0E902328022CDE90433CDE939
:1019A0000633CDE9013303930361826105F048FCFE
:1019B00090B94FF480530E48049304A905F05EFEDD
:1019C00090B900230A48019301A9039306F04CF94A
:1019D00028B909B05DF804FBFFF796FEE9E7FFF7C9
:1019E00093FE09B05DF804FBFFF78EFEE9E700BF48
:1019F000380A00200004004000B51B481B4A026062
:101A0000A922002389B0426042F20F72C0E902327B
:101A10008022CDE90433CDE90633CDE901330393C8
:101A20000361826105F00CFC90B94FF480530E48BD
:101A3000049304A905F022FE90B900230A480193FB
:101A400001A9039306F010F928B909B05DF804FB69
:101A5000FFF75AFEE9E7FFF757FE09B05DF804FB10
:101A6000FFF752FEE9E700BFE80900200008004048
:101A700030B50024A5B03422214617A8504D069455
:101A8000CDE90744CDE90344CDE91144CDE9134440
:101A9000CDE91544029410940994FEF71DFF494ABC
:101AA000AC600523C5E9002340F2E733EB6028462C
:101AB0008023C5E90444AB6105F0C2FB00284FD187
:101AC0004FF480533E48069306A905F0D7FD002841
:101AD00055D13B4805F096FC00284DD1002300224B
:101AE000CDE902233648002302A9049306F0BCF88E
:101AF00000283ED160229FED307B002310924FF4EE
:101B0000FA72CDE911232E48139310A908228DED06
:101B1000147B169305F0BAFF40BB00234FF400502E
:101B2000CDE91B304FF000722548239317A9CDE96A
:101B30001733CDE91933CDE91D33CDE91F32CDE996
:101B4000213306F0EBF870B91E4A29680023914250
:101B5000CDE90A33CDE90C330E9313D025B030BD57
:101B6000FFF7D2FDACE7FFF7CFFDEDE7FFF7CCFDC8
:101B7000D3E7FFF7C9FDBDE7FFF7C6FDAEE7FFF707
:101B8000C3FDA6E703F1804303F504330E48DA6C86
:101B900042F00202DA64DB6C03F0020301934FF4BB
:101BA00000740A2302250AA9CDE90A45019A0E9379
:101BB00001F094FB25B030BD0000000000000000E3
:101BC00098090020003401400004004800B5036873
:101BD000B3F1804F85B018D02C4A93422BD02C4AB9
:101BE00093423DD02B4A934202D005B05DF804FBEE
:101BF000294B1A6E42F400521A661B6E03F400530E
:101C00000393039B05B05DF804FB03F50433002246
:101C1000986D40F0010098659B6D03F001030093FF
:101C200011461C20009B01F0BDF91C2005B05DF899
:101C300004EB01F0F3B9184B986D40F00200986581
:101C40009B6D002203F00203019311461D20019BAE
:101C500001F0A8F91D2005B05DF804EB01F0DEB934
:101C60000D4B986D40F0040098659B6D002203F0C9
:101C70000403029311461E20029B01F093F91E20DB
:101C800005B05DF804EB01F0C9B900BF00040040E5
:101C900000080040003401400010024010B51F4809
:101CA0001F4C00234FF4E1310C22C0E90041C0E990
:101CB0000233C0E90432C0E90633C0E90833836265
:101CC00006F060FB70B91548002106F0ADFB88B93D
:101CD0001248002106F0EAFBA0B9104806F086FB86
:101CE000B8B910BDFFF710FD0C48002106F09CFBB1
:101CF0000028EDD0FFF708FD0848002106F0D6FBCC
:101D00000028EAD0FFF700FD044806F06FFB00282A
:101D1000E7D0BDE81040FFF7F7BC00BF700B002014
:101D20000038014010B51F481F4C00234FF4E1312B
:101D30000C22C0E90041C0E90233C0E90432C0E925
:101D40000633C0E90833836206F01CFB70B91548FE
:101D5000002106F069FB88B91248002106F0A6FBB5
:101D6000A0B9104806F042FBB8B910BDFFF7CCFC93
:101D70000C48002106F058FB0028EDD0FFF7C4FC0A
:101D80000848002106F092FB0028EAD0FFF7BCFCCF
:101D9000044806F02BFB0028E7D0BDE81040FFF711
:101DA000B3BC00BFD80A002000480040000000007B
:101DB00010B504469EB00021542209A8CDE90411B3
:101DC000CDE906110891FEF787FD374A2368934253
:101DD00004D0364A93422BD01EB010BD012309A86F
:101DE000099304F095F900284BD1314B31481A6E14
:101DF00042F480421A661A6E02F480420092009AFF
:101E0000DA6C9FED237B42F00402DA64DB6C8DED2B
:101E1000047B9FED217B03F00403019304A90723B6
:101E20008DED067B019A089301F058FA1EB010BDA3
:101E3000042309A8099304F06BF928BB1C4B1E4826
:101E40009A6D42F480229A659A6D02F48022029281
:101E5000029ADA6C9FED127B42F00202DA64DB6CCC
:101E60008DED047B9FED0C7B03F00203039304A92B
:101E700007238DED067B039A089301F02FFA1EB01D
:101E800010BDFFF741FCB0E7FFF73EFCD6E700BF0F
:101E90003000000002000000000000000000000010
:101EA000000C000002000000003801400048004023
:101EB0000010024000080048000400480D48854614
:101EC000FFF71AFD0C480D490D4A002302E0D458D3
:101ED000C4500433C4188C42F9D30A4A0A4C002374
:101EE00001E013600432A242FBD3FEF767FEFFF766
:101EF0009FFBFEE70000022000000020B40200204B
:101F00000CC90008B8020020A8280020FEE7000045
:101F100038B50F4B1B680BB9012038BD0D494FF484
:101F20007A720546B2FBF3F30868B0FBF3F001F0F8
:101F300083F804460028EFD10F2DEDD8024629463C
:101F40004FF0FF3001F02EF8034B20461D6038BDE6
:101F50002C010020280100203001002010B50320B2
:101F600001F00EF80F20FFF7D3FF10B10124204637
:101F700010BD0446FFF75EFC204610BD034A04492D
:101F8000136809680B441360704700BF040C0020FD
:101F90002C010020014B1868704700BF040C002082
:101FA00038B50446FFF7F6FF631C054602D0044B24
:101FB0001B681C44FFF7EEFF401BA042FAD338BD5C
:101FC0002C01002030B583B00023019300285CD0A1
:101FD000C56D0446002D00F0C180226893689B0007
:101FE00005D5936823F0204323F03F039360936863
:101FF000DD0019D46F4B70481B6891689B09A0FBEA
:10200000030321F010419B0921F03F0101335B00E4
:1020100041F0805191600193019B2BB1019B013BE9
:102020000193019B002BF9D19368D80030D4E36D64
:1020300043F01003E365236E012003432366936896
:1020400013F0040FE36D1CD1D9061AD4E36D23F409
:10205000817343F00203E3659368DB0729D4B2F18F
:10206000A04F17D0554B9A4214D05549554B89680B
:102070009B680B43544989680B43D90719D45349CA
:1020800011E0E36D43F01003E365012003B030BDC0
:102090000020D4E7494B4FF0A04189689B680B436F
:1020A000DD0706D44A498B68656823F47C132B430B
:1020B0008B60E568E36B94F824102B43A5682B43F1
:1020C000657F012943EA453343EA01434CD0E16A85
:1020D00021B1256B01F4787129430B43D5683D4943
:1020E00029401943D1601369616B23F040630B43AE
:1020F000136193681B0722D4D16894F83830257F88
:1021000021F480415B0021F0020143EA85330B4357
:102110002169D3601369002933D043F480331361FC
:10212000D2F8C0306FF30D030B43C2F8C03094F8FF
:102130004030012B2FD0136923F001031361636931
:10214000012B16D0136B23F00F031363E36D23F001
:10215000030343F00103E36503B030BDFEF7BCFEAB
:10216000256684F8585038E7A16A013943EA4143AB
:10217000ADE7116B236A21F00F01013B0B431363A1
:10218000E4E723F480331361D2F8C0306FF30D031A
:10219000C2F8C030CBE71169636CA56C6FF38A019C
:1021A0002B430B43E16C0B43216D0B4343F00103C5
:1021B0001361C4E728010020632D3E050001005093
:1021C00000040050000500500006005000070050B9
:1021D000000300500740F0FF0368B3F1A04F2DE962
:1021E000F04105460F4666D04148424A4249834283
:1021F00018BF0A46AC699668082C06F01F061CD06A
:1022000040F22122F240D40713D4B3F1A04F6CD096
:102210003748384A3849834218BF0A46936813F44E
:10222000604F09D0EB6D43F02003EB650120BDE862
:10223000F081DB68D807F5D40424FFF7ABFE791CE6
:102240002A6880463AD113682342FCD0EB6D43F4F0
:102250000073EB65D36813F4406F0FD16B7F6BB9DC
:1022600013681B070AD5EB6D23F48073EB65EB6DE8
:10227000DF0403D4EB6D43F00103EB651C4B9A4282
:102280000DD003F580639A422DD0082CD36810D06E
:102290005B0401D40C2313600020BDE8F0814FF0F3
:1022A000A04140F22123F340D807EED4082CCB689C
:1022B000EED11460F0E70F4A9CE74FB11368234258
:1022C000C4D1FFF767FEA0EB0803BB422A68F4D92C
:1022D00013682340F2D1EA6D85F8583042F00402C9
:1022E000EA650320D9E70549DBE7024A96E700BF24
:1022F000000100500003005000070050000400508F
:102300000368186C704700BF704700BF704700BF7C
:1023100008B5806AFFF7FAFF08BD00BF704700BF2D
:10232000836ADA6D12F0500F10B5DA6D1DD119689D
:1023300042F40072DA650A6812F0080FCA681BD00E
:1023400012F4406F0DD1CA6894040AD4DA6D22F4F5
:102350008072DA65DA6DD10403D4DA6D42F00102DD
:10236000DA651846FFF7D0FF10BDD2060AD45B6DC0
:10237000BDE810405B6B18479007E7D51846FFF79C
:10238000C3FFF1E71846FFF7C9FF10BD806A08B523
:10239000C36D43F04003C365036E43F0040303665B
:1023A000FFF7BCFF08BD00BF2DE9F04190F85820B1
:1023B00082B00346012A4FF00000019000F01F8117
:1023C0001A68012083F858009468640767D4486845
:1023D0004FEA901E00F01F0C0EF00C0E086802F180
:1023E0003004C0F3846054F80E501F2600FA0CF03D
:1023F00006FA0CFC25EA0C0C40EA0C0044F80E002E
:102400009068470755D5906808689468E50712D426
:10241000CE68BD4CD2F8B05006F01807FC40C0F3AF
:102420001207044025EA07052C43C2F8B040B74C18
:10243000A64200F09180B64908422ED0B2F1A04FDA
:1024400000F0DB80B34DB449B44CAA4218BF21461A
:10245000B34C8968A04201F0E07500F0D480B14C23
:10246000A04200F0D080B04CA04200F0F580AF4C0C
:10247000A04212D1490210D4A6498A420DD0A648E2
:1024800001F5C061B2F1A04F08BF01468A6822F091
:10249000E0722A4342F480028A60002003E0DA6D91
:1024A00042F02002DA65002283F8582002B0BDE82D
:1024B000F081946808682607A7D48D68C0F3045695
:1024C0000724C00DB440B5F1004F00F004006FEADE
:1024D000040400F0358102F11407B5403E58344041
:1024E0002C433C50506920F000405061D1E9046415
:1024F0000868D568042E074600F0D980C5F3C105E9
:102500006D0000F0F84704FA05F002F16004884D10
:1025100054F826C00CEA05053D43284340F000402E
:1025200044F826000D698E6954F8250020F080706B
:10253000304344F825000E690D7F54F82600A5F1BC
:102540000105B5FA85F56D0920F0007040EA456097
:1025500044F82600086858E7002F00F0928090FAAF
:10256000A0F4002C00F0F680B4FA84F4013404F0F6
:102570001F04092C40F2EE8090FAA0F4002C00F029
:102580009181B4FA84F40134A40604F0F84490FA7A
:10259000A0F5002D00F09D81B5FA85F5013505F017
:1025A0001F05012606FA05F52C4390FAA0F0002835
:1025B00000F08D81B0FA80F0451C05F01F05032066
:1025C0006FF01D0610FB0560000540F00070204311
:1025D000C50D8C6805F0040502F11406C0F3045023
:1025E00004FA00F74FF0070C74590CFA00F024EAD3
:1025F00000003843705108681DE7474928E702206A
:1026000002B0BDE8F0810C023FF547AFB2F1A04F38
:102610004BD048498A427FF440AF4048464A474C35
:10262000126881689209A4FB0242920921F0E071CC
:102630000132294302EB4202920041F40001816021
:102640000192019A002A3FF428AF019A013A0192BF
:10265000019A002AF9D120E7C8013FF51EAFB2F177
:10266000A04F00F01D812B4C2B492C48A24218BFD3
:1026700001468A6822F0E0722A4342F080728A6042
:102680000BE7800E013000F01F050124800600F0EA
:10269000F840AC40092D44EA000405EB45007ED922
:1026A0001E38000540F0007091E71B48B6E7146E35
:1026B000146EC0F31205C4F38464002D71D1C0F30D
:1026C0008460844200F0A580546E556E02F160046F
:1026D000C5F3846502F1640E854200F0C580A568EB
:1026E000A56804F1080CC5F38465854200F0A68056
:1026F000E568E56804F10C06C5F38464A04200F0C7
:10270000C980384681E600BFFFFF070000007F4018
:102710000000088000010050000300500007005036
:10272000000021C31000C090000052C7000084CBFD
:1027300000F0FF030006005028010020632D3E0535
:1027400002F1140635582C403450506940F00040D6
:102750005061CBE690FAA0F4002C00F0AB80B4FA04
:1027600084F40134A40604F0F84490FAA0F5002D96
:1027700000F09E80B5FA85F5013505F01F050126AC
:1027800006FA05F52C4390FAA0F0002800F08D80A1
:10279000B0FA80F0013000F01F0000EB40000005AF
:1027A00015E790FAA0F51DB1B5FA85F5AC4230D029
:1027B000546E556E02F16004C5F3846502F1640E37
:1027C00097FAA7F604F1080CE046002E7AD0B6FA84
:1027D00086F6AE424AD0DCF80050DCF80050C5F373
:1027E000846597FAA7FE04F10C06B046BEF1000F0F
:1027F00063D0BEFA8EFEAE4522D034683468C4F38E
:10280000846497FAA7F5002D3FF4FFADB5FA85F083
:1028100074E7106E144620F0004044F8600F0F6813
:10282000506E556EC7F3120602F1640EC5F384654F
:102830003846002EC4D1C7F384604DE704F10C087C
:10284000DCF8000020F00040CCF800000F68E068E1
:10285000E468C7F312054646C4F384643846002D85
:10286000CFD1C7F3846049E704F10808DEF800001F
:1028700020F00040CEF800000F68A068A568C7F3FC
:102880001206C446C5F384653846002EA9D1C7F3A5
:1028900084602AE7306820F0004030600868B4E5C2
:1028A0000D49E6E64FF0806471E64FF440108EE685
:1028B000022567E74FF0806457E7E568E468C4F3F2
:1028C00084649EE7A568A568C5F3846589E7034825
:1028D0007DE6022568E600BF00030050000050FEC0
:1028E00003689A6812F0040F70B59A68044601D123
:1028F00016073CD5DA68950104D5A08B40F2011289
:10290000904245D002299A6833D0500702D59A6880
:10291000920759D5012955D09A6810070AD59A68A7
:10292000920707D49A6822F0004222F03F0242F058
:1029300020029A60032945D10C25FFF72BFB236861
:1029400006469B681D4212D0FFF724FB801B05281A
:102950002368F6D99A682A42F3D0E36D43F0100356
:10296000E365236E43F001032366012070BD002060
:1029700070BD16070AD59A68950707D49A6822F0A1
:10298000004222F03F0242F020029A600825D4E77C
:102990001A68500606D4114A01E0013ADDD01968E0
:1029A0004906FAD540221A609A6856070AD59A68ED
:1029B000950707D49A6822F0004222F03F0242F0C5
:1029C00010029A600425B8E79A6822F0004222F0CB
:1029D0003F0242F010029A609CE700BF000040A353
:1029E00070B582B00022036801929A68D20734D48D
:1029F00099682D4A1142044632D19A6822F0004269
:102A000022F03F0242F00102B3F1A04F9A6048D099
:102A10002648274A2749834218BF0A4693681B0263
:102A200029D4FFF7B7FA23681A68D607054614D4E5
:102A3000214E9A68D00704D49A68324042F00102CD
:102A40009A60FFF7A7FA431B022B236802D91A6882
:102A5000D10705D51A68D207EBD5002002B070BDAA
:102A6000E36D43F01003E365236E012043F001039F
:102A7000236602B070BD114B114A1B689B09A2FB73
:102A800003239B09013303EB43039B000193019B49
:102A9000002BC6D0019B013B0193019B002BF9D178
:102AA000BFE7034ABAE700BF3F00008000010050C3
:102AB0000003005000070050C0FFFF7F28010020E6
:102AC000632D3E050368B3F1A04F70B5044652D0A4
:102AD00039483A4A3A49834218BF0A4696689D687F
:102AE00015F0040545D194F85830012B41D001234D
:102AF00084F858302046FFF773FF00283DD1E36D7E
:102B0000226823F4706323F0010343F48073E365C8
:102B1000294B9A4206F01F0644D003F580639A427F
:102B200045D01146E36D23F48013E365E36D13F4A0
:102B300080531CBF236E23F0060323661C231360FF
:102B40008A424FF0000384F8583019D040F2212314
:102B5000F340DD0714D4E36D43F48013E365CB68E1
:102B60009B0105D5E36D23F4405343F48053E365A3
:102B700070BD022070BD114AB0E784F8585070BD96
:102B8000D368990105D5E36D23F4405343F4805392
:102B9000E365936823F0004323F03F0343F004030D
:102BA000936070BD4FF0A041002EBFD1BAE7054938
:102BB000002EBBD1B6E700BF00010050000300505B
:102BC00000070050000400502DE9F0410568B5F100
:102BD000A04F04460E46174667D0394A39483A4B4B
:102BE000954218BF18468268AB685B0715D494F805
:102BF0005830012B11D0354B01209D4202F01F08A7
:102C000084F858000CD040F2212323FA08F3034043
:102C100006D184F85830BDE8F0810220BDE8F0818B
:102C20002046FFF7DDFE002841D1E36D216823F443
:102C3000706323F0010343F48073E365204B9942F2
:102C40003AD003F58063994236D0E36D23F48013C4
:102C5000E365E36D606D1E4D13F480531CBF236E5E
:102C600023F006032366C5621A4D05631A4D4563BA
:102C70001C250D60002584F858504D6845F010055E
:102C80004D60CD6845F001053B463246CD60403190
:102C900000F07EFA2268936823F0004323F03F039C
:102CA00043F004039360BDE8F08106489BE70023EE
:102CB00084F85830BDE8F081B8F1000FC9D1C4E7FD
:102CC00000010050000300500007005000060050B3
:102CD00021230008112300088D23000838B503685C
:102CE0009A68950702D59B68002038BD9A68D4077A
:102CF000FAD59A6802F00D02012A044609D0E36D64
:102D000043F01003E365236E43F0010323660120C3
:102D100038BD9A6822F0004222F03F02032142F0BF
:102D200002029A601960FFF735F923689B68D9079A
:102D3000054603D4D8E79B68DB07D5D5FFF72AF90A
:102D4000401B02282368F6D99A68D207F3D5D6E744
:102D500090F85830012B1DD0012310B5032180F8C5
:102D600058300446FFF7BCFD18B1002384F85830F2
:102D700010BD2046FFF7B2FF0028F6D1E36D23F423
:102D8000885323F0010343F00103E365002384F833
:102D9000583010BD0220704730B590F8583083B0DD
:102DA0000022012B01923FD0012380F858300446C5
:102DB0000D46FFF793FFE36DE8B923F4885323F042
:102DC0000203226843F00203E365936823F0404363
:102DD00005F0804123F03F030B4343F00043936031
:102DE00093681349002B0EDBE36D23F0030343F0DC
:102DF0000103E36502E043F01003E365002384F878
:102E0000583003B030BD019B01330193019B8B42CD
:102E1000E6D9E36D23F01203002243F01003E365CB
:102E200084F858200120ECE7022003B030BD00BF39
:102E300001DE040090F85820012A4CD070B40268DA
:102E40009DB0034600240120B2F1A04F189483F8EE
:102E5000580019940BD0444DAA423AD0DA6D83F849
:102E6000584042F02002DA651DB070BC70473F4800
:102E7000806840070BD59268DA6D42F0200201208D
:102E8000DA65002283F858201DB070BC7047906846
:102E90004407F1D4B2F1A04F0D681ED0344A002D82
:102EA00031D191683348304C21F460419160A4687D
:102EB000816800F580708068C00708D42143CD0781
:102EC00005D4916821F4716121F00F019160002017
:102ED000D7E72848CCE702207047002D33D0264C96
:102EE0004E68A06893F838C020F46040304340EA50
:102EF0004C30A0609268D60733D41C4A9268D6073B
:102F0000E5D4224615E090684C6820F460402043E8
:102F100093F8384040EA443090601348174C866874
:102F200000F580708068A468E407D0D43043C007FF
:102F3000CDD49068896820F47160294320F00F0097
:102F400001439160C3E70C49886820F460408860C1
:102F50009268D20705D4054A9268D607B7D40A46C4
:102F6000AFE7024A9268B2E7000400500001005047
:102F700000070050000500500003005000060050FC
:102F80000749CA6803024FF6FF0003F4E0630240FA
:102F9000134343F0BF6343F40033CB60704700BF7B
:102FA00000ED00E01B4BDB68C3F3022300B5C3F167
:102FB000070EBEF1040F03F1040C28BF4FF0040EFE
:102FC000BCF1060F1CD9A3F1030C4FF0FF3303FA39
:102FD0000CF322EA03024FF0FF3303FA0EF321EA67
:102FE000030303FA0CF313431B010028DBB20ADBD3
:102FF00000F1604000F5614080F800335DF804FBAB
:1030000000229446E7E7044A00F00F0002441376DA
:103010005DF804FB00ED00E0FCEC00E0002807DBBD
:10302000044A4109012300F01F00834042F8213087
:10303000704700BF00E100E00138B0F1807F01D3AC
:103040000120704710B44FF0E023074C58614FF057
:10305000F00C84F823C00022072110469A615DF825
:10306000044B1961704700BF00ED00E0002876D0E6
:10307000F0B43C4A0468944203465CD93A493B4A5E
:103080003B482144A2FB01210909890002229D68D5
:1030900083F82520DA68354E364FC3E910011869E8
:1030A0002A4302435869024398690243D86902439C
:1030B000E0B20838A6FB0060266826F4FF4C1E6AC2
:1030C0002CF0700C324342EA0C022260254E2A4A50
:1030D000C0F30410B44298BF3A4606F27946012480
:1030E00004FA00F0DE64B5F5804F01EB02061865C6
:1030F0009E644FEA910127D05E68F5B2013E032E2F
:1031000042F82150C7F8840024D81C4A1C482A449D
:103110009200013DAC400021C3E91520DC6511603F
:10312000184A546400200122D86383F8240083F8ED
:103130002520F0BC704714490C4A14482144A2FBD6
:10314000012109098900A1E700245C6042F82140BF
:10315000C7F884000022C3E91522DA65E2E70120FE
:10316000704700BF07040240F8FBFDBFCDCCCCCCBC
:103170000004024000080240200802403F82001084
:103180004009024000090240F8FFFDBF0000024074
:10319000F0B490F82440012C09D0012480F8244098
:1031A00090F82540012C05D0002380F8243002201F
:1031B000F0BC7047022480F825400024C4630468F2
:1031C000C66C256825F001052560D0E91475776087
:1031D00015B1D0E916677760466C076C06F01F0CD6
:1031E000012606FA0CF67E6063608368102B036B81
:1031F0000BBFA260A160E160E260BBB1236843F055
:103200000E032360836C1A68D20303D51A6842F454
:1032100080721A601DB12B6843F480732B602368A1
:1032200043F0010300202360F0BC7047236823F0C3
:1032300004032360236843F00A032360E2E700BF2E
:1032400070B4436C066C056831682C6803F01F038A
:1032500004229A400A420ED014F0040F0BD02B68BF
:103260009B0603D42B6823F004032B60036B72606E
:10327000CBB170BC184702229A400A4215D014F014
:10328000020F12D02B68990606D42B6823F00A038C
:103290002B60012380F82530C36A7260002180F81A
:1032A0002410002BE5D170BC704708229A400A42D6
:1032B000F9D02207F7D52A68416B22F00E022A6066
:1032C000012202FA03F300247360C26380F82440F1
:1032D00080F825200029E6D070BC08470B68002B39
:1032E00000F098812DE9F04FB0F1904F85B04FF08C
:1032F00000024FF0010B00F00D81DFF84CE300936A
:10330000009B0BFA02FC1CEA030A77D04D6805F01B
:1033100003075400032307F1FF3803FA04F6B8F15A
:10332000010F6FEA060640F21981032F40F0798100
:1033300007FA04F407683E40344315F4403F046044
:103340005CD0BE4E346E44F001043466346E04F03A
:1033500001040394039C22F0030404F1804402F06E
:1033600003070F2304F58034BF0003FA07FCB44BB6
:10337000A668984226EA0C0600F04081B14B9842BC
:1033800000F02D81DFF8C4C2604500F03D81DFF818
:10339000C0C2604500F03F81DFF8B8C260450CBF95
:1033A0004FF0050C4FF0060C0CFA07F73E43A660F1
:1033B000DEF808406FEA0A06EF0254BF34404AEADA
:1033C0000404CEF80840DEF80C40AB0254BF344091
:1033D0004AEA0404CEF80C40DEF80440AF0354BFC0
:1033E00034404AEA0404CEF80440DEF80040EB031F
:1033F00054BF34404AEA0404CEF80040009B013236
:1034000033FA02F47FF47CAF05B0BDE8F08FD0F85A
:103410000890CE680AEA090906FA07F848EA090896
:10342000C0F80880D0F8048028EA0E08C5F3001E12
:103430000EFA02FE4EEA080EC0F804E0D0F80C8046
:103440008E680AEA080806FA07FE4EEA080E022C01
:10345000C0F80CE019D14FEAD20E0E694FEA8E0E79
:1034600002F007080EF1904E4FEA880806FA08F6B7
:10347000DEF8209000960F2606FA08F8009E29EA4A
:10348000080946EA0908CEF82080BC40076807EA28
:103490000A073C4315F4403F046036D0674F3C6E4A
:1034A00044F001043C663C6E04F001040394039C68
:1034B00022F0030404F1804404F5803402F0030791
:1034C000D4F808E00F26BF0006FA07F72EEA070730
:1034D000A7605D4CEE02A4686FEA0C077CD43C4008
:1034E000594EB460F468AE0200F185803C40564EFF
:1034F000F4607468AE037BD43C40534EED037460BB
:10350000346872D43C40504D2C60013233FA02F4DE
:103510003FF47AAF0BFA02FE13EA0E0CF5D04D68B9
:103520005700032606FA07F805F003046FEA080AB5
:1035300004F1FF38B8F1010F7FF669AF032CA4D076
:103540004FF090488E68D8F80C9006FA07FE0AEA09
:1035500009094EEA090EC8F80CE096E7D0F8089081
:10356000CB6809EA060903FA04F848EA0908C0F832
:103570000880D0F804808B6828EA0C08C5F3001C8A
:103580000CFA02FC4CEA080CC0F804C0D0F80C801D
:1035900003FA04FC08EA06084CEA080C022FC0F8FB
:1035A0000CC07FF4C5AE0B694FEAD20802F0070CDD
:1035B00000EB88084FEA8C0C03FA0CF3D8F8209043
:1035C00001930F2303FA0CFC019B29EA0C0943EA3F
:1035D000090CC8F820C0ABE644EA0C0480E74FF0C1
:1035E000020C0CFA07F73E43E1E64CEA04048AE7D2
:1035F00044EA0C0481E74CEA040478E74FF0010C3C
:103600000CFA07F73E43D2E64FF0030C0CFA07F72B
:103610003E43CCE670474FF0040C0CFA07F73E43EC
:10362000C5E6D0F80C808B6808EA060803FA04FCAB
:103630004CEA080CC0F80CC07AE600BF001002404B
:10364000000400480008004800040140000C004845
:1036500000100048001400480AB18161704781627F
:10366000704700BF436901EA030221EA030141EA0E
:1036700002418161704700BF002866D010B58268A2
:1036800000230221D207C0E93833C0E93A33C0E948
:103690003C3382B0044680F8DD10C0F8F8300FD516
:1036A0000168314B994252D0D4E904030A6800F40E
:1036B000404022F47042024303F4405313430B6032
:1036C0002046FDF777FDA3689B0708D52168E368CE
:1036D0000A6803F4407322F4407213430B60002322
:1036E00001221846C4E90633C4E90833C4E90C339F
:1036F000C4E90E33C4E91033C4E91333C4E9153304
:10370000C4E91733C4E91A33C4E91C33C4E91E33CE
:10371000C4E92133C4E92333C4E9253384F8DD2027
:1037200084F8DC30A362C4F8A030C4E92933C4E9CA
:103730002B33C4E92F33C4E93133C4E93333C4F83C
:10374000B430C4F8D83002B010BD0120704703F582
:1037500028431A6E42F080621A661B6E03F0806383
:103760000193019BA0E700BF0068014090F8DC30A6
:10377000012B30D00223012280F8DD30036880F86D
:10378000DC20B1F1FF3FD3F8CC2315D042F0020288
:10379000C3F8CC23D3F8CC2322F00C020A43C3F89D
:1037A000CC23D3F8CC2342F00102C3F8CC2301236D
:1037B00080F8DD300020704722F00202C3F8CC23ED
:1037C000D3F8CC2342F00102C3F8CC23012380F8C4
:1037D000DD30002070470220704700BF70B50D46F5
:1037E0000446FEF7D7FB6E1C0BD12268D2F8883353
:1037F000D903FBD50020012384F8DD3084F8DC00F8
:1038000070BD06462368D3F88833DB03F2D4FEF795
:10381000C1FB831BAB4201D8002DF3D1072384F8F1
:10382000DD30032070BD00BF90F8DDC0BCF1020F99
:103830002CD003460220F0B4062983F8DD00D2E93B
:103840000276D2E90045186815D000EBC111D1F815
:10385000802022F007023A4322F018023243C1F8D6
:103860008020C1F89440C1F89850012283F8DD20EF
:103870000020F0BC7047026822F007023A4322F0B1
:1038800018023243026044618561EEE75FFA8CF012
:10389000704700BF90F8DDC0BCF1020F03465FFA2D
:1038A0008CF000F0CD8093F8DC00012800F0C98096
:1038B00030B5012483F8DC401868022483F8DD4029
:1038C0002029D0F88053D0F8FC431AD8002900F002
:1038D000E78001F1FF3CBCF11F0F00F2D380DFE86D
:1038E0000CF0A090D17FD1D1D16DD1D1D1D1D1D196
:1038F000D162D1D1D1D1D1D1D1D1D1D1D1D1D1D127
:10390000D152B1F5807F00F0AE8028D8402900F078
:103910009A80802940F0DA80D2E90012090901F486
:10392000E04124F4E0440C43D0F8F813120402F40C
:10393000F81221F4F811C0F8F813D0F8F8130A437C
:10394000C0F8F82393F8DD20072A58D0C0F8FC43CC
:103950000020012283F8DD2083F8DC0030BDB1F5C2
:10396000007F40F0A780D2E90012090101F4E001D4
:1039700024F4E0040C43D0F8F813920602F0F84265
:1039800021F0F841D7E7D2E90012090B01F07001EC
:1039900024F070040C43D0F8F813520102F478724A
:1039A00021F47871C7E75188526861F30204D0F8B6
:1039B000F81302F01F0221F01F01BCE7D2E9001248
:1039C000C0F8C82393F8DD404A0225F0606502F094
:1039D0006062072C45EA020511D0C0F88053B7E7B2
:1039E000D2E90012C0F8C42393F8DD408A0125F023
:1039F000E07502F0E072072C45EA0205EDD10120E6
:103A000030BDD2E90012C0F8C02393F8DD40CA00EF
:103A100025F4601502F46012072C45EA0205DCD19A
:103A2000EDE7D2E90012C0F8BC2393F8DD4025F49D
:103A3000E02501F4E022072C45EA0205CDD1DEE7BE
:103A4000704702207047D2E90012090A01F4E061D0
:103A500024F4E0640C43D0F8F813920202F4F84224
:103A600021F4F84167E7D2E9001224F4E02401F4DC
:103A7000E0210C43D0F8F813520502F0787221F0DF
:103A8000787158E7072283F8DD2093F8DD204FF0A6
:103A9000000C072A83F8DCC0B1D00F299DD955E767
:103AA000072283F8DD2093F8DD2083F8DC10072A55
:103AB00093D1A4E7072283F8DD2093F8DD200021CD
:103AC000072A83F8DC107FF441AF98E7072283F8D8
:103AD000DD2093F8DD200021072A83F8DC108ED04A
:103AE00034E700BF90F8DDC0BCF1020F03465FFA77
:103AF0008CF023D093F8DC0001287CD04FF0010C2F
:103B00000220202983F8DCC083F8DD0017D831B308
:103B100001391F2923D8DFE801F0564E2246222220
:103B2000223E222222222222226622222222222215
:103B30002222222222222222225E01207047B1F577
:103B4000807F5AD01CD840295FD0802907D11868BF
:103B5000D0F8041462F31031C0F8041405E0072112
:103B6000002283F8DD1083F8DC2093F8DD20072A9B
:103B7000E3D00020012283F8DD2083F8DC007047C9
:103B8000B1F5007FEBD11868D0F8041462F31C6122
:103B9000C0F80414E9E71868D0F8001462F39641FD
:103BA000C0F80014E1E71868D0F8001462F310318F
:103BB000C0F80014D9E71868D0F8001462F38A112D
:103BC000C0F80014D1E71868D0F8001462F30401BB
:103BD000C0F80014C9E71868D0F8041462F30401AF
:103BE000C0F80414C1E71868D0F8001462F31C612F
:103BF000C0F80014B9E7022070471868D0F8041420
:103C000062F39641C0F80414AFE71868D0F80414C2
:103C100062F38A11C0F80414A7E700BF90F8DD3002
:103C2000022B8446D8B200F06B819CF8DC30012B6B
:103C300000F067812DE9F04F012002238CF8DC00B1
:103C40008CF8DD300629DCF80000556983B000F0FF
:103C5000C68000EBC11E202DDEF8803023F07043BB
:103C6000CEF88030DEF88030DEF8E880DEF8E46000
:103C7000D0F8A04323F020094FEAC11749EA05090B
:103C80000ED09369022B0BD0032B00F03481042B50
:103C900006BF29F0800949F4807929F4D07903E03E
:103CA00029F4C07949F02009D369956D29F4006998
:103CB00049EA0309136A29F4806949EA0309536A46
:103CC00029F0C06949EA0309936A29F0006949EAC1
:103CD0000309D36A019329F0704949EA0309536B38
:103CE00029F40039B3F1005F08BF49F4003926F424
:103CF000807A966B29F04003334323F480232B43CF
:103D0000D56B23F0FC7365F30508156D23F4803340
:103D100028F000492B43D2F84880156C28F4805BCA
:103D200049EA0509556CBBF5606F4AEA050A53D0AC
:103D30002AF4F05A48EA0A0AD56C2AF4804A4AEA78
:103D40000508D2F854A0052909D8DFE801F0CEC84B
:103D5000C2BC03B6166B24F4001444EA46140744AC
:103D6000CEF88030C7F8E890C1EBC103C7F8E48013
:103D7000C7F8D4A0C0F8A043D2E901A9D2E903470B
:103D80009B00203315684CF803500CEB0306C6E982
:103D900001A9C6E9034705290AD8DFE801F0038431
:103DA0007D766F68D0F8843343F00203C0F8843323
:103DB000019B43B9DEF88030D26D23F4007343EAEF
:103DC0004223CEF88030002001238CF8DD308CF8BF
:103DD000DC0003B0BDE8F08F402EADD1A8E7046849
:103DE000D0F8A01324F020042C43202D24F0C0038D
:103DF00060D09569022D5DD0032D00F08480042DE4
:103E00000CBF43F0800324F0E003D46923F4006383
:103E10002343146A23F480632343546A23F0C0636A
:103E20002343946A23F000632343D46A23F040437E
:103E300043EA8403546B23F000532343146B036061
:103E400021F480312143C0F8A013D2E90213D2E952
:103E500000541269CCF8D820CCE93254CCE93413A0
:103E6000D0F8843343F00103C0F88433ABE7D0F8D3
:103E7000843343F04003C0F8843399E7D0F88433A7
:103E800043F02003C0F8843392E7D0F8843343F042
:103E90001003C0F884338BE7D0F8843343F0080371
:103EA000C0F8843384E7D0F8843343F00403C0F8C7
:103EB00084337DE743F02003A7E7166B24F48004E6
:103EC00044EA86144BE7166B24F4801444EA061483
:103ED00045E7166B24F4002444EAC6043FE7166B5A
:103EE00024F4802444EA860439E7166B24F4003471
:103EF00044EA460433E729F4807949F08009D3E69F
:103F000070470220704743F040037EE790F8DD30B1
:103F1000022B8446D8B246D09CF8DC30012B6DD001
:103F2000DCF80000022310B58CF8DD3000EBC11383
:103F30001468D3F8EC3023F0100343EA04135468F8
:103F400023F480132343D46823F4803323439468F9
:103F500023F4003323439469012C4FEAC11E17D088
:103F60008644CEF8EC3006290BD8DFE801F0242B8C
:103F7000323904401D00D0F8843343F02003C0F8E8
:103F80008433002001238CF8DD308CF8DC0010BD78
:103F90001469526923F00403234323F002031343FB
:103FA00043F00103DCE77047D0F8843343F00103AA
:103FB000C0F88433E5E7D0F8843343F00203C0F857
:103FC0008433DEE7D0F8843343F00403C0F884334D
:103FD000D7E7D0F8843343F00803C0F88433D0E740
:103FE000D0F8843343F01003C0F88433C9E7D0F825
:103FF000843343F04003C0F88433C2E702207047A3
:1040000090F8DD30022B8446D8B23FD09CF8DC30EB
:10401000012B3CD0022310B58CF8DD30D2E900032F
:10402000C3F3080300F4E05018439368546903F4A1
:1040300000731843136903F480431843D36803F4EF
:1040400000430343906900F000700343106A00F0DE
:1040500080400343D06900F000421343DCF80020A5
:1040600002EBC1110B4AD1F8B80002EA0442134333
:10407000094A02404FF0000E13430122C1F8B83044
:104080008CF8DD208CF8DCE0704610BD7047022013
:10409000704700BF0000FF010020003C00B590F811
:1040A000DDE0BEF1020F84465FFA8EF027D09CF867
:1040B000DC00012800F0A08001208CF8DC0006293B
:1040C0004FF002008CF8DD0002F1FF3219D0072A10
:1040D00005D8DFE802F02B6104390404044107220B
:1040E00000238CF8DD208CF8DC309CF8DD30072BC9
:1040F00027D0002001238CF8DD308CF8DC005DF83F
:1041000004FB072AEBD801A151F822F0E541000891
:10411000DB410008DF400008EF410008DF400008F5
:10412000DF400008DF400008D1410008DCF8002033
:104130001B6802EBC112C2F89C309CF8DD30072BE3
:10414000D7D101205DF804FBDCF800201B6802EBEE
:10415000C112C2F8A830C8E7DCF80020186802EBEA
:10416000C1125968C2F8AC0000294FD0D2F88000C3
:1041700020F44040C2F88000D2F88000B1F5005F22
:1041800040EA8100C2F880001ED0B1F5405FACD19A
:104190009B68C2F8A830A8E7DCF80020186802EB9A
:1041A000C1125968C2F8A40049B3D2F8800020F4C3
:1041B0004050C2F88000D2F88000B1F5005F40EABC
:1041C0000100C2F88000E0D19B68C2F89C308CE707
:1041D000DCF800201B68D36287E7DCF800201B684E
:1041E000536282E7DCF800201B68D3617DE7DCF8CE
:1041F00000201B68936278E702205DF804FBD2F888
:10420000803023F44053C2F880306EE7D2F880301B
:1042100023F44043C2F8803067E700BFF0B590F860
:10422000DD40022C8446E0B244D09CF8DC0001283A
:104230004FF002003ED08CF8DD00DCF800004FEAC1
:10424000C11E00EBC111402AD1F8E460D1F8B8508A
:104250003AD030D8012A37D0023A1E2A3CD8012160
:1042600001FA02F228490A4248D000EB0E025968CE
:10427000C2F8C4109968C2F8C81010246FF47E0206
:1042800006EA0201DE681A685F6932431E6932433A
:104290003A439F693A43A240082E42EA01021FD0E6
:1042A00000EB0E0301210020C3F8E4208CF8DD10A0
:1042B0008CF8DC00F0BDB2F5007FD6D017D8802A8C
:1042C000D3D0B2F5807F07D100EB0E025968C2F857
:1042D000BC109968C2F8C0106FF0FE020024CFE74E
:1042E00015F0022FDCD1DB69A3401A43D8E7B2F501
:1042F000806FE9D0B2F5006FEED1B6E744F2040169
:104300000A42E1D1E8E700BF4100004090F8DC201C
:10431000012A034611D00068022283F8DD20D0F87C
:1043200094234FF0000C0A430121C0F89423604607
:1043300083F8DD1083F8DCC070470220704700BFAF
:1043400090F8DC20012A034611D00068022283F88D
:10435000DD20D0F898234FF0000C0A430121C0F86B
:104360009823604683F8DD1083F8DCC07047022094
:10437000704700BF90F8DC20012A03460FD0006888
:10438000022283F8DD2002684FF0000C0A4301216D
:104390000260604683F8DD1083F8DCC070470220BD
:1043A000704700BF90F8DC20012A51D00346026814
:1043B000022010B583F8DD00D2F890035C6820433A
:1043C000C2F89003C80304D5D068D3F8C84020438E
:1043D000D0608C0305D5D2F88C001C6A2043C2F84B
:1043E0008C00480305D5D2F80C01DC6B2043C2F8E1
:1043F0000C010C0305D5D2F88C019C6D2043C2F84A
:104400008C01C80205D5D2F80C025C6F2043C2F8BB
:104410000C028C0206D5D2F88C02D3F890402043CF
:10442000C2F88C02480206D5D2F80C03D3F8AC408F
:104430002043C2F80C0310684FF0000C01434FF00A
:10444000010E116083F8DDE083F8DCC0604610BD2A
:1044500002207047704700BF704700BF704700BF21
:10446000704700BF704700BF704700BF704700BF74
:10447000704700BF704700BF704700BF704700BF64
:10448000704700BF704700BF704700BF704700BF54
:10449000704700BF704700BF704700BF704700BF44
:1044A000704700BF704700BF704700BF704700BF34
:1044B000FF292DE9F0410368074600F090800629A6
:1044C0000D4650D04A1C03EBC21203EBC1135468D3
:1044D000D3F88C60E2074FEAC11802D5F20700F169
:1044E000AC80A20702D5B30700F1B880600702D5FF
:1044F000710700F1BD80220702D5330700F1C280A9
:10450000E00602D5F10600F1C780620602D5730607
:1045100000F1CC80200602D5310600F1D180E20501
:1045200002D5F30500F1D680A00502D5B10500F152
:10453000DC80620502D5730500F1E280200502D51A
:10454000310500F1E880E20402D5F30400F1EE80C9
:10455000A00402D5B10400F1F480620401D5730413
:1045600071D4BDE8F081D3F88863D3F890835C6898
:10457000DD68F10303D518F4803F40F0ED80B2030D
:1045800003D518F4003F40F0F480E30702D5EE07AE
:1045900000F1F880A00702D5A90700F1FB806207AF
:1045A00002D56B0700F1FE80260702D5280700F12F
:1045B0000181E10602D5EA0600F10481A30602D5D5
:1045C000AE0600F107816006CBD56906C9D53B6808
:1045D00040229A6006213846FFF750FFC1E7D3F822
:1045E0008843D3F89053E20702D5EE0700F1F98033
:1045F000A00702D5A90700F1FA80620702D56B0770
:1046000000F1FD80260702D5280700F10081E106B0
:1046100002D5EA0600F10381630602D56E0600F1B9
:104620000681A4069DD5A8069BD53B682022C3F829
:104630008C233846FFF71AFF93E70122C3F888203E
:10464000FFF71EFF4DE73B6843444FF48042294685
:10465000C3F888203846FFF71FFF82E73B684344D2
:104660000222C3F8882029463846FFF70BFF3DE7B2
:104670003B6843440422C3F8882029463846FFF7A4
:1046800003FF38E73B6843440822C3F888202946E3
:104690003846FFF7FBFE33E73B6843441022C3F87C
:1046A000882029463846FCF7FFFF2EE73B68434445
:1046B0004022C3F8882029463846FFF7DFFE29E765
:1046C0003B6843448022C3F8882029463846FFF7D8
:1046D000DFFE24E73B6843444FF48072C3F8882030
:1046E00029463846FFF7D6FE1EE73B6843444FF4A1
:1046F0000072C3F8882029463846FFF7D1FE18E734
:104700003B6843444FF48062C3F88820294638460A
:10471000FFF7C8FE12E73B6843444FF40062C3F85A
:10472000882029463846FFF7BFFE0CE73B68434424
:104730004FF48052C3F8882029463846FFF7B6FE6A
:1047400006E73B6843444FF40052C3F888202946EB
:104750003846FFF7A3FE00E74FF48032C3F88C23FE
:10476000012380F8DD30002380F8DC30FFF780FE85
:1047700005E73B684FF40032C3F88C233846FFF757
:1047800079FE02E73B6801229A6006213846FFF76E
:1047900077FEFFE63B6802229A6006213846FFF763
:1047A00071FEFCE63B6804229A6006213846FFF75A
:1047B0006BFEF9E63B6808229A6006213846FFF74F
:1047C00065FEF6E63B6810229A6006213846FCF743
:1047D0006BFFF3E63B6820229A603846FFF74CFEF9
:1047E000F1E60122C3F88C23FFF734FE00E73B68B3
:1047F0000222C3F88C233846FFF72EFEFDE63B6805
:104800000422C3F88C233846FFF728FEFAE63B68FB
:104810000822C3F88C233846FFF722FEF7E63B68F0
:104820001022C3F88C233846FFF71CFEF4E63B68E1
:104830004022C3F88C233846FFF716FEF1E600BF8E
:1048400028B338B5D0E90031826804464CF6CC4034
:10485000186045F25550186059609A60FDF79AFB50
:1048600023680546DA6851070AD0FDF793FB401B21
:1048700031282368F6D9DA685207F3D0032038BD0F
:104880001969E268914204D01A61002038BD012004
:1048900070474AF6AA221A60F7E700BF03684AF693
:1048A000AA2200201A607047002800F0D78010B5B7
:1048B00090F89132044603F0FF02002B00F0C9800B
:1048C0000323206884F8913203F03CFE2279002A09
:1048D00000F0AE8000234FF48071012AC4E9083350
:1048E0002182E374A36200F0C08040F20111022A29
:1048F000C4E91233218784F83B30236544D04FF458
:104900008171032AC4E91C33A4F8601084F8633071
:10491000A36739D040F20311042AC4E92633A4F86E
:10492000881084F88B30C4F8A0302DD04FF48271F9
:10493000052AC4E93033A4F8B01084F8B330C4F8C1
:10494000C83021D040F20511062AC4E93A33A4F850
:10495000D81084F8DB30C4F8F03015D04FF48371F0
:10496000072AC4E94433A4F8001184F80331C4F8D9
:10497000183109D0C4E94E3340F20711A4F82811C8
:1049800084F82B31C4F8403100230121022AC4E904
:104990005833C4E96233A4F8503184F85331C4F871
:1049A0006831A4F8781184F87B31C4F890313FD095
:1049B0000221032AC4E96C33A4F8A01184F8A331BE
:1049C000C4F8B83134D00321042AC4E97633A4F8FA
:1049D000C81184F8CB31C4F8E03129D00421052A6C
:1049E000C4E98033A4F8F01184F8F331C4F8083234
:1049F0001ED00521062AC4E98A33A4F8181284F8C7
:104A00001B32C4F8303213D00621072AC4E994338C
:104A1000A4F8401284F84332C4F8583208D0C4E9EC
:104A20009E330722A4F8682284F86B32C4F88032DF
:104A3000234653F8040B93E8060003F08DFDA37A98
:104A4000012200219342217384F8912208D0002092
:104A500010BD80F8902205F075FA31E7012070470B
:104A6000204600F01BFF002010BDC4E95833A4F815
:104A7000503184F85331C4F86831D9E790F8903256
:104A8000012B0FD010B504460123006884F8903242
:104A900003F04EFD206804F09DFA002384F8903264
:104AA000184610BD022070472DE9F04F044683B030
:104AB000006804F09BFA10F400452CD1430500F186
:104AC0007B8147041BD410F4005140F0D781C60409
:104AD00000F18B80050500F13183010600F10183AF
:104AE000820500F11F84C30512D52268B2F8443054
:104AF00023F480731B041B0CA2F8443008E02268E6
:104B0000B2F8443023F480431B041B0CA2F8443059
:104B100003B0BDE8F08F2068B0F844301F04F7D52B
:104B2000DFF8BCBA10E011F0100100F0C580018878
:104B300011F400658BB240F0E7801E0400F15A8149
:104B4000B0F844301A04E3D5B0F84450A9B215F0D7
:104B50000F05E8D00FFA85F830F8283019049EB216
:104B600066D43106ECD530F828309BB203EA0B034B
:104B700043F4004305EB850220F8283004EBC20221
:104B8000AF00D37C012B00F0858108EB880804EB93
:104B9000C80C117CDCF82830009316F4807A4FEAB8
:104BA000C8094FEAC10E0FFA81F840F0A381B0F8AE
:104BB00050501EFA85F50544B5F80254C5F30905B1
:104BC0009D4280F091815B1BCCF82830536A2B44C6
:104BD0005362DCF82C3009F110012B442144CCF84D
:104BE0002C3003F0D1FF2068AAE72268B2F84030E9
:104BF00023F004031B041B0CA2F84030B2F8403031
:104C000023F008031B041B0CA2F8403094F8C832B0
:104C1000012B00F09583204605F004FA2268B2F8D3
:104C2000443023F480531B041B0CA2F844306FE77C
:104C300030F8283023F070031B051B0D43F0800370
:104C400005EB850120F8283004EBC101AF0091F895
:104C50005C31002B7BD1B0F8503000F2064212FAE2
:104C600083F391F8502133F83290C9F30909B9F16F
:104C7000000F40F0D0814FF000097B1904EBC30313
:104C8000D3F86C214A44C3F86C21D3F864214A4418
:104C9000C3F86421D3F8682122B1D3F860314B45C1
:104CA00040F29B812F4404EBC707204697F8501130
:104CB00005F07EF9206854E703889BB203EA0B03F2
:104CC00043F400430380B0F8503010FA83F2207CA4
:104CD00040F2024303EBC0032046D35A626AC3F397
:104CE00009031A44E362626205F06CF9237B63B343
:104CF000A36A2068002B7FF423AF227B42F080025E
:104D0000A0F84C2023731BE7B0F8502094F8501102
:104D100040F2064310FA82F203EBC10304F5267158
:104D2000D35AB4F85621C3F30903C4F86C3104F024
:104D300071F92268138823F070031B051B0D43F0E3
:104D400080031380204605F02DF92068F8E691F8DD
:104D5000533191F85021022B00F00B8212B230F83F
:104D6000223023F4E04323F070031B041B0C43F4B4
:104D7000004343F0C00320F8223091F850311AB2BA
:104D800030F8222012F4804FB0F8502000F02F812C
:104D900000F2024C1CFA82F232F83390C9F309098E
:104DA000B9F1000F3FF467AFB1F85821D1F86411A1
:104DB0004B4604F02FF960E72268B2F8443023F440
:104DC00080631B041B0CA2F84430204605F008F950
:104DD00094F89032012B3FF49BAE0123206884F8B5
:104DE00090322573294604F0EFF884F8905203B00E
:104DF000BDE8F08F028840F68F73134043F08003C4
:104E00000380B0F8502094F8501140F2064310FA95
:104E100082F203EBC103D35AC3F30903C4F86C3124
:104E200093B1D4F8641179B1B4F8562104F0F2F8D2
:104E3000D4F86431D4F86C21134420462946C4F8D0
:104E4000643105F0B5F8206803881D059AB23FF576
:104E500077AE02F44052B2F5405F3FF471AE038882
:104E600023F4804323F070031B041B0C83F4405392
:104E700043F4004343F08003038061E62268B2F804
:104E8000443023F400531B041B0CA2F8443003B03D
:104E9000BDE8F08F6B1C03EB8303002144F8331053
:104EA000137FC3B116F04006537C40F00F81002BF6
:104EB00040F05982137CB0F8502000EBC30303F29A
:104EC000064392B2995AC1F309019952995A89B28B
:104ED00041F4004199523D4404EBC5052046297C2C
:104EE00005F070F820682BE6CCF828A0204605F0E5
:104EF00069F82AE706F4804316F04006019340F073
:104F00009280B0F85020009B00F2064A1AFA82F212
:104F100032F83890C9F30909994540F2A581CCF8D7
:104F200028607B1904EBC3035B7C002B40F0A38259
:104F3000B0F850200EF2024692B20644B35AC3F3C0
:104F40000903B352B35A6FEA43436FEA53439BB228
:104F5000B352B0F850201AFA82F232F83830C3F364
:104F6000090322F8383032F838306FEA43436FEAE9
:104F700053439BB222F838307B1904EBC303DB7C2C
:104F8000022B0FD130F8283023F4E04323F0400304
:104F90001B041B0C83F0200343F4004343F0800305
:104FA00020F82830204605F00DF8019B002B7FF4F7
:104FB000CCAE7B1904EBC30320681A7C30F8223096
:104FC00023F4E04323F070031B041B0C43F4404321
:104FD00043F0800320F82230B2E5282101FB05418F
:104FE000206801F5A87103F0CFFD2068B9E500F253
:104FF000064C1CFA82F232F83390C9F30909B9F170
:10500000000F3FF438AEB1F85A21D1F864114B4685
:1050100004F000F831E6B1F85621D1F864114B469E
:1050200003F0F8FF29E6B0F85060009B00F2024A56
:105030001AFA86F636F83890C9F309099945C0F08E
:10504000E2800026CCF82860537C002B40F02582BB
:10505000B0F850301AFA83F30EF2064233F8386093
:10506000C6F3090623F8386033F83860B6B246F460
:10507000004623F83860B0F8503002449BB2D65A4C
:10508000C6F30906D652D65AB6B246F40046D652F0
:105090007B1904EBC303DB7C022B0FD130F82830E3
:1050A00023F4E04323F040031B041B0C83F0200394
:1050B00043F4004343F0800320F82830204604F0F6
:1050C00081FF019B002B7FF474AF3EE6002B40F084
:1050D0003D81137CB0F8502000EBC30303F2024380
:1050E000EFE62268B2F8443023F080031B041B0C67
:1050F000A2F8443094F8C832002B40F00E81B2F888
:1051000040309BB243F00403A2F84030B2F8403084
:105110009BB2012143F00803A2F8403084F8C81282
:10512000B2F85430C3F38D0303F03C032046C4F8B7
:10513000CC3203B0BDE8F04F05F04CB82268B2F8AD
:1051400040309BB243F00803A2F84030B2F844303C
:1051500023F400631B041B0CA2F84430B2F8403067
:105160009BB243F004032046A2F8403004F04AFF0B
:10517000CEE4B0F850E0D1F868310FFA82FCD200EA
:1051800012FA8EF216F4804A024400F0F980B2F866
:1051900002E4CEF3090E9E45F14600F26581A3EBD1
:1051A0000E03C1F868317BB930F82C2022F480421C
:1051B00022F070021204120C82F4005242F40042F7
:1051C00042F0800220F82C2072060DD530F82C30E9
:1051D00023F4E04323F070031B041B0C43F400434F
:1051E00043F0C00320F82C30BEF1000F3FF445AD72
:1051F000791904EBC1017346B1F85821D1F8641153
:1052000003F008FF39E5A3EB0903CCF82830019B34
:105210006BB130F8283023F4E04323F070031B0413
:105220001B0C43F4404343F0800320F828307B19E3
:1052300004EBC30393F83420012A00F0DC803D44E2
:1052400004EBC5052A7C30F8223023F4E04323F038
:1052500040031B041B0C83F0300343F4004343F072
:10526000800320F822306BE4A3EB0903CCF828304C
:10527000002B3FF456AE019B6BB930F8283023F475
:10528000E04323F070031B041B0C43F4404343F042
:10529000800320F828307B1904EBC30393F83420F3
:1052A000012ACCD15A6A02EB09015962DCF82C6060
:1052B0004E44CCF82C601E6B1A6A9642C0F00981ED
:1052C000B61A1E631FFA82F97B1904EBC30393F825
:1052D00011C0BCF1000F40F0F180B0F850301AFA64
:1052E00083F39E4433F83860C6F3090623F8386028
:1052F000002A40F0198133F838206FEA42426FEA01
:10530000524292B223F838207A1904EBC2024B467B
:10531000528B03F06FFE206891E7204604F072FE86
:10532000FFF7F6BB2268B2F8443023F400731B0485
:105330001B0C2046A2F8443004F04EFEFFF7E8BBF9
:1053400084F8C812204604F045FF64E4012B7FF482
:10535000C2AD137CB0F8502000EBC30303F202434C
:1053600092B29952B7E5012B7FF4B5AD137CB0F83A
:10537000502000EBC30303F2064392B29E52AAE50B
:10538000B2F806E4CEF3090E9E45F14670D8A3EBC1
:105390000E03C1F868317BB930F82C2022F480422A
:1053A00022F070021204120C82F4005242F4004205
:1053B00042F0800220F82C2073060DD430F82C30F7
:1053C00023F4E04323F070031B041B0C43F400435D
:1053D00043F0C00320F82C30BEF1000F3FF44DAC79
:1053E000791904EBC1017346B1F85A21D1F864115F
:1053F00003F010FE41E45A6A02EB09015962DCF83D
:105400002C604E44CCF82C601E6B1A6A96426FD307
:10541000B61A1E631FFA82F97B1904EBC30393F8D3
:1054200011C0BCF1000F59D1B0F850301AFA83F313
:105430009E4433F83860C6F3090623F83860002A22
:1054400040F0988033F838206FEA42426FEA5242C7
:1054500092B223F838207A1904EBC2024B46128B21
:1054600003F0C8FD2068EAE60023C1F868319BE636
:10547000C1F868A190E7012B7FF47EADB0F8503001
:105480000EF202429BB202440026D652B0F85030CF
:105490001AFA83F323F838606EE5012B7FF4F8AD38
:1054A000B0F850301AFA83F30EF2064223F838604F
:1054B000B0F8503002449BB2D652E9E5BCF1010F7E
:1054C0007FF422AFB0F850301AFA83F323F8389003
:1054D0001AE796B983F834604A46F5E6BCF1010F45
:1054E000B9D1B0F850301AFA83F323F83890B2E704
:1054F0004EBB83F834604A468EE793F811C0002211
:105500001A6383F834201FFA86F9BCF1000FD5D155
:10551000B0F850301AFA83F3324633F83860C6F3E5
:10552000090623F838609E443E2A32D8BEF800307F
:105530005608D20748BF01369BB243EA86239BB286
:10554000AEF80030E0E693F811C0002283F8342072
:105550001A631FFA86F9BCF1000FBFD1B0F85030C2
:105560001AFA83F3324633F83860C6F3090623F893
:1055700038609E443E2A1FD8BEF800305608D20735
:1055800048BF01369BB243EA86239BB2AEF8003097
:1055900061E7D306BEF800304FEA521608BF06F1A5
:1055A000FF369BB243EA86236FEA43436FEA5343D5
:1055B0009BB2AEF80030A7E6D306BEF800304FEA43
:1055C000521608BF06F1FF369BB243EA86236FEA04
:1055D00043436FEA53439BB2AEF800303BE700BF52
:1055E0000F8FFFFF90F89022012A0DD010B50446CE
:1055F0000122006884F89022217303F0E5FC002367
:1056000084F89032184610BD0220704710B501F0A2
:10561000070E0EEB8E0C090604464FEACC0C23D481
:105620000CF5A87101440EEB8E0004EBC0004FF0A6
:10563000000C80F851C1022BCB70C2F30A0204BFE8
:1056400000230B7181F800E00A6194F89032012B7D
:1056500016D0012384F89032206802F091FF0023D5
:1056600084F89032184610BD0CF1100101440EEB85
:105670008E0004EBC0004FF0010C80F811C0DAE797
:10568000022010BD01F0070301F0070210B503EB83
:1056900083030446090602EB82004FEAC30304EBCE
:1056A000C00016D403F5A873E1184FF0000C80F881
:1056B00051C10A7094F89032012B15D0012384F85F
:1056C0009032206803F07AF9002384F8903218466B
:1056D00010BD1033E1184FF0010C80F811C00A70B2
:1056E00094F89032012BE9D1022010BD10B501F0E1
:1056F000070E0EEB8E0C00EBCC0C2821002401FBD6
:105700000E01CCF8642100688CF850E1CCE95A34E1
:105710008CF8514101F5A87103F036FA204610BD0E
:1057200001F0070101EB810100EBC100D0F86C0131
:10573000704700BF10B501F0070E0EEB8E0100EBB5
:10574000C10C6146CCF82830CCF83030002401235D
:105750000068CCF8242010318CF83430CCF82C4080
:105760008CF811308CF810E003F00EFA204610BDD2
:10577000027901F007039A4233D30A0610B50446B2
:105780001CD401EB8102282000FB014104EBC20282
:1057900001F5A871002082F8510101228A700B7076
:1057A00094F8903293421AD0206884F8902203F043
:1057B00095FB002384F89032184610BD03EB83025A
:1057C000282101FB030100EBC202103101205074BB
:1057D00001228A700B7094F890329342E4D1022037
:1057E00010BD0120704700BF38B5027901F00F03EA
:1057F0009A4232D301F0070301F00702044603EB9B
:10580000830302EB820009064FEAC30304EBC000E6
:1058100016D403F5A873E118002580F8515100252E
:105820008D700A7094F89032012B14D001232068F7
:1058300084F8903203F07AFB84F89052284638BD01
:105840001033E1180125457400258D700A7094F815
:105850009032012BEAD1022038BD012038BD00BFB3
:1058600011F0800F0CD001F0070101EB810100EB7A
:10587000C100103099B262B9C18002730020704734
:1058800001EB810100EBC10000F5A87099B2002A7C
:10589000F2D001228360027300207047024600208C
:1058A000116810B482F8C802B1F8543001249BB2D8
:1058B0002343C2F8D042A1F85430B1F854305DF817
:1058C000044B9BB243F00203A1F85430704700BF71
:1058D000354A136860B903F4C063B3F5806FD2F83A
:1058E00080301BD023F48073C2F8803000207047D2
:1058F000B0F5007F06D023F4C06343F480631360E7
:105900000020704703F4C063B3F5806FD2F8803095
:1059100029D043F48073C2F88030F1E723F4807318
:10592000C2F8803013682148214923F4C06343F44E
:10593000007313600368322000FB03F35069A1FB7E
:1059400003139B0C400503F1010306D500E023B1CE
:105950005169490503F1FF33F9D4134B5B695B05CA
:10596000CED50320704743F48073C2F880301368AB
:105970000E480F4923F4C06343F4007313600368B7
:10598000322000FB03F35069A1FB03139B0C40057D
:1059900003F10103E1D501E0002BDED05169490597
:1059A00003F1FF33D9D5F7E700700040280100204C
:1059B00083DE1B43024A936843F48043936070473D
:1059C00000700040002800F0BD812DE9F04103681F
:1059D000D90782B0044612D5A6498A68C96802F080
:1059E0000C020C2A00F0D080082A40F0D280A14A94
:1059F0001268920303D56268002A00F037819A0783
:105A000022D59C4A9368D26803F00C030C2B00F05B
:105A1000F880042B40F0FA80964B1B685B0503D599
:105A2000E368002B00F02281924A20695368924972
:105A300023F0FE4343EA006353600868FCF768FA0A
:105A4000002840F0138123681A0719D56369894D2E
:105A5000002B00F0C280D5F8943043F00103C5F864
:105A60009430FCF797FA064605E0FCF793FA801BA2
:105A7000022800F21781D5F894309B07F5D52368EA
:105A80005D0741D57B4B9A6DD00000F10F819A6D77
:105A900042F080529A659B6D03F080530193019B05
:105AA0000125764E3368D90540F12E81A368012B7C
:105AB00000F0FE80052B00F084816E4ED6F8902019
:105AC00022F00102C6F89020D6F8902022F00402BD
:105AD000C6F89020002B40F0F280FCF75BFA41F210
:105AE0008838074605E0FCF755FAC01B404500F230
:105AF000D980D6F890309907F5D425B15D4A936DD9
